:100000000C9413030C9430030C9430030C943A0EAC
:100010000C9430030C9430030C9430030C94300394
:100020000C9430030C9430030C9430030C948B0E1E
:100030000C9430030C9430030C9430030C94300374
:100040000C9430030C9430030C9430030C94300364
:100050000C9430030C9430030C9430030C94300354
:100060000C9430030C9430030000000000000000EA
:100070000000000000000008080808080808000840
:1000800008000000242424240000000000000000D8
:10009000000000909048FE4824FF24121200000047
:1000A000083C0A0A0A0C182828281E0800000086A6
:1000B00049292916689494926100000000182424AC
:1000C000140C8B917163FE00000008080808000002
:1000D0000000000000000000603008080404040470
:1000E000040808306000060C10102020202020108A
:1000F000100C060000080866142C24000000000004
:100100000000000000000808087F08080800000040
:100110000000000000000000001818100800000097
:10012000000000007E000000000000000000000051
:1001300000000000001818000000402020201010CF
:1001400018080804040402000018244242424242F3
:1001500042241800000000101E1010101010101083
:10016000FE000000001E20202010100804023E00A7
:100170000000003C40404038404040403C0000000F
:10018000002030282824227E202020000000007C2F
:100190000404041C604040403C000000003804029D
:1001A000023A4642424438000000007E40202010BF
:1001B0000808080404000000003C4242221C2442BB
:1001C00042423C000000001C224242625C4040204F
:1001D0001C000000000000001818000000181800A3
:1001E0000000000000001818000000181810080097
:1001F0000000000040300806083040000000000009
:100200000000007E00007E000000000000000000F2
:10021000020C1060100C02000000003E4240201052
:100220000808000808000000003C46724949496976
:10023000DB223C00000000001018282424427E42EB
:100240008100000000003E4242221E2242423E0047
:10025000000000007C020101010101027C0000009D
:1002600000001F214141414141211F0000000000C9
:100270007E0202023E0202027E00000000007E02B8
:1002800002023E0202020200000000007C020101A4
:10029000017141427C0000000000424242427E4225
:1002A00042424200000000003E0808080808080812
:1002B0003E00000000003C202020202020201E00C6
:1002C000000000004222120A060A12224200000028
:1002D000000002020202020202027E000000000090
:1002E0006363635555554941410000000000424693
:1002F000464A4A5252624200000000001C2241411C
:10030000414141221C00000000003E424242621E68
:1003100002020200000000001C2241414141412232
:100320001C60C00000001E2222221E123222420047
:10033000000000007C020206186040403E00000001
:1003400000007F08080808080808080000000000EE
:1003500042424242424242423C000000000081428E
:100360004222241414080800000000008181C959A9
:100370005A5A6666240000000000814224181818AA
:10038000244281000000000081422214180808085D
:100390000800000000007F402010080402017F00D8
:1003A0000000780808080808080808080808780005
:1003B00002040404080818101020202040001E1019
:1003C000101010101010101010101E000010101837
:1003D0002828244442000000000000000000000023
:1003E0000000000000FF00001020000000000000DE
:1003F000000000000000000000003C40407C424241
:10040000FC000000020202023A46424242463A0022
:1004100000000000000078040202020478000000DE
:10042000404040405C62424242625C00000000008A
:1004300000003C44427E02027C0000007008080874
:100440007E080808080808000000000000007C6220
:10045000424242625C40403C020202023A46424250
:10046000424242000000181800001E101010101028
:1004700010000000303000003C20202020202020F0
:10048000201E0202020222120A061A224200000064
:100490001E1010101010101010101000000000009E
:1004A00000006D5B49494949490000000000000017
:1004B0003A464242424242000000000000001C2234
:1004C000414141221C000000000000003A46424227
:1004D00042463A020202000000005C62424242626E
:1004E0005C404040000000003A2602020202020086
:1004F0000000000000003C02061820201E00000042
:10050000000004047F0404040404780000000000D8
:1005100000004242424242625C00000000000000D3
:100520008142422214140800000000000000819162
:100530005A5A6624240000000000000042241818C3
:1005400018244200000000000000814242242418C8
:1005500018080C07000000007F20100804027F002C
:100560000000700808080808060808080808700055
:1005700010101010101010101010101010000E108D
:10058000101010106010101010100E00000000006D
:1005900000869961000000000000000000081C2295
:1005A000414141417F00000000007C020101010146
:1005B00001027C102030000000007E7E7E7E7E7E68
:1005C0007E000000101010101010101010101010ED
:1005D0001010000000000000FF00000000000000FC
:1005E000101010101010F00000000000000010109B
:1005F000101010101F00000000000000000000009C
:100600000000F0101010101010100000000000008A
:100610001F10101010101010000814080000000027
:1006200000000000000011241FBECFEFD8E0DEBFA5
:10063000CDBF13E0A0E0B1E0E2E8F6E402C005902F
:100640000D92A038B107D9F723E0A0E8B3E001C0CC
:100650001D92A23BB207E1F70E9482180C943F233F
:100660000C9400000F931F93CF93DF93805C9F4FF8
:10067000880F991FF999FECF8C010F5F1F4F0E94C1
:100680002923282F30E0D22FCC27F999FECFC8019B
:100690000E9429239E01280F311D211580E1380772
:1006A00010F4C90102C080E098E0DF91CF911F9162
:1006B0000F910895892B11F02B9A01C02B982C9A39
:1006C0002C9808954F925F926F927F928F929F9293
:1006D000AF92BF92CF92DF92EF92FF92CF93DF93D0
:1006E0000E947E2028E23BE64EEE5CE40E94D41F8E
:1006F00020E030E040E857E40E940A2120E030E0AA
:1007000040E857E40E940A210E9446204C01BB2485
:1007100097FCB094AB2C7401DD24CC249B01AC017C
:100720002C193D094E095F0969017A012A98C0E137
:10073000D0E0412C512C32014394C2018C219D21E7
:100740000E945A03440C551C661C771C2197A9F77C
:10075000C0E1D0E0C12CD12C7601C394C601882120
:1007600099210E945A03CC0CDD1CEE1CFF1C219722
:10077000A9F7C8E0D0E080E090E00E945A032197FA
:10078000D1F72A9ADF91CF91FF90EF90DF90CF9031
:10079000BF90AF909F908F907F906F905F904F90A1
:1007A0000895CF92DF92EF92FF920F931F93440F21
:1007B000551F440F551FFA01E05EFE4F0081118165
:1007C00022813381601771078207930794F0FA0141
:1007D000E45FFE4F31E020E0C080D180E280F38012
:1007E000C616D706E806F9060CF430E0832F922FE0
:1007F00002C080E090E01F910F91FF90EF90DF909A
:10080000CF9008951092B9008CE08093B80084E0F6
:100810008093BC00089584EA8093BC008091BC0062
:1008200087FFFCCF089584E98093BC0008958093EE
:10083000BB0084E88093BC008091BC0087FFFCCFA4
:1008400008951F93CF93DF931F92CDB7DEB7182F74
:1008500069830E940B0480EC0E941704812F0E9480
:1008600017046981862F0E94170484E98093BC00D5
:100870000F90DF91CF911F91089562ED70E087EBAB
:1008800090E00E94210460E070E083E090E00E942C
:1008900021046FE070E080E190E00E9421046FE2AB
:1008A00070E081E190E00E9421046FE270E082E15B
:1008B00090E00E94210460EA70E081EB90E00E94E9
:1008C00021046FEF70E08AE190E00E9421046FEF55
:1008D00070E08BE190E00E94210460E070E08CE128
:1008E00090E00E94210460E170E08DE190E00E94C0
:1008F000210460E070E08EE190E00E94210460EF4E
:1009000070E08FE190E00E94210460E070E080E2FE
:1009100090E00E94210460E070E081E290E00E949B
:1009200021046FEF70E082E290E00E9421046FEFFB
:1009300070E083E290E00E94210460E070E084E2D5
:1009400090E00E94210460E170E085E290E00E9466
:10095000210460E070E086E290E00E94210460EFF4
:1009600070E087E290E00E94210460E070E088E29D
:1009700090E00E94210460E070E089E290E00C9435
:1009800021048F929F92AF92BF92CF92DF92EF920B
:10099000FF92CF93DF93EC01CB01BA010E947E203E
:1009A0009B01AC0164EA73E986E59EE40E94D41FD2
:1009B0004B015C010E944D206B017C010E947C2058
:1009C0009B01AC01C501B4010E94671F20EF3FEFFE
:1009D0004FE759E40E940A210E944D204B015C011F
:1009E00087E0880C991CAA1CBB1C8A95D1F7C5010D
:1009F000B4012FEF3FEF4FE050E00E94872197E0D6
:100A0000CC0CDD1CEE1CFF1C9A95D1F782E0D81AA5
:100A1000E108F108C20ED31EE41EF51E6FEF7FEF52
:100A20008FE090E00E947721861A970AA80AB90AF7
:100A30006FEF70E0CE010E9421046FEF70E0CE01F5
:100A400001960E942104D701C60188279927A37027
:100A5000BB27BD0188279927CE0102960E94210459
:100A60006D2D70E0CE0103960E942104B601772718
:100A7000CE0104960E942104D501C401882799273C
:100A8000AF70BB27BD01606FCE0105960E942104A7
:100A9000692D70E0CE0106960E942104B4017727EB
:100AA000CE010796DF91CF91FF90EF90DF90CF902E
:100AB000BF90AF909F908F900C942104880F991F46
:100AC000880F991FFC01EC5AFE4F408151816281D1
:100AD00073818AE290E00C94C1045C9A2FEF81EE5E
:100AE00094E0215080409040E1F700C000005C9805
:100AF0002FEF81EE94E0215080409040E1F700C05C
:100B000000005C9A2FEF81EE94E0215080409040ED
:100B1000E1F700C000000895672B11F05D9A01C055
:100B20005D985B9827E030E05F98AC01022E02C030
:100B3000559547950A94E2F740FF02C05E9A01C0BE
:100B40005E985F9A2150310978F75B9A089560E0CA
:100B500070E00C948C0561E070E00C948C0581E0F1
:100B600090E00E94A7058FE19EE40197F1F700C095
:100B7000000081E190E00E94A7058FE19EE40197CB
:100B8000F1F700C000008AE390E00E94A70585E02D
:100B900090E00E94AB058FE39CE90197F1F700C05C
:100BA000000081EB90E00E94A70580E090E00E94A9
:100BB000AB0586E090E00E94AB0583E090E00E94E8
:100BC000AB058FE99FE00197F1F700C0000086E3D5
:100BD00090E00E94A70588EC90E00E94AB0586EBB0
:100BE00090E00E94A70585E190E00E94AB0582E0BD
:100BF00090E00E94AB0584EB90E00E94A70580E0A6
:100C000090E00E94AB0580EE90E00E94A70589E08D
:100C100090E00E94AB0586E190E00E94AB0589E080
:100C200090E00E94AB0580E290E00E94AB0581E27B
:100C300090E00E94AB058BE190E00E94AB0583E160
:100C400090E00E94AB0589E190E00E94AB0587E14E
:100C500090E00E94AB0585E190E00E94AB058EE13B
:100C600090E00E94AB058BE290E00E94AB0584E02F
:100C700090E00E94AB0585E090E00E94AB0582E029
:100C800090E00E94AB058EE090E00E94AB0581EE03
:100C900090E00E94A7058BE090E00E94AB0584E104
:100CA00090E00E94AB0588E090E00E94AB058EE1E9
:100CB00090E00E94AB0582E290E00E94AB058DE1DE
:100CC00090E00E94AB0588E190E00E94AB058EE1C8
:100CD00090E00E94AB058BE190E00E94AB058AE1B9
:100CE00090E00E94AB0584E290E00E94AB058BE2AD
:100CF00090E00E94AB0586E090E00E94AB0586E0A4
:100D000090E00E94AB0582E090E00E94AB058FE08E
:100D100090E00E94AB058FE39CE90197F1F700C0DA
:100D2000000083E190E00E94A7058FE39CE9019712
:100D3000F1F700C0000089E290E00C94A705CF9283
:100D4000DF92EF92FF920F931F93CF93DF936C018B
:100D50008B017A01E9018AE290E00E94A70580E018
:100D600090E00E94AB05C6010E94AB0580E090E0D8
:100D70000E94AB05C7010E94AB058BE290E00E9488
:100D8000A70580E090E00E94AB05C8010E94AB057A
:100D900080E090E00E94AB05CE01DF91CF911F91E2
:100DA0000F91FF90EF90DF90CF900C94AB05CF9315
:100DB000DF93D42FC52F9B01AC010E949F068CE2CC
:100DC00090E00E94A7058C2F90E00E94AB058D2F2C
:100DD0009C2FDF91CF910C94AB05EF92FF920F9374
:100DE0001F93CF93DF937C0124E830E044E850E088
:100DF00060E070E080E090E00E949F068CE290E06E
:100E00000E94A70505E810E0C5E8D0E08F2D90E02E
:100E10000E94AB05C7010E94AB052197B9F70150AD
:100E2000110991F7DF91CF911F910F91FF90EF90F2
:100E300008952F923F924F925F926F927F928F927E
:100E40009F92AF92BF92CF92DF92EF92FF920F9359
:100E50001F93CF93DF9300D000D0CDB7DEB7242E01
:100E600039014EE04C9D90014D9D300D1124260F0F
:100E7000371FA701E3E0440F551FEA95E1F7480F3C
:100E8000591F4F5F5F4F6E5F7F4F02960E949F0614
:100E90008CE290E00E94A7052EE0229E1001112412
:100EA0004DE050E033EB231A31E0330AC101841BDB
:100EB000950B9C0128593F4F3A832983812C912C13
:100EC0008C149D040CF03FC0A12CB12CE981FA8157
:100ED000849190E00A2C02C0959587950A94E2F7D8
:100EE000412C512C80FF1DC04E145F047CF4872DD3
:100EF00090E04B835C830E94AB05C3010E94AB056D
:100F0000FFEF4F1A5F0A4B815C81EECF2FEFA21AE1
:100F1000B20A38E0A316B104C9F6EFEF8E1A9E0AA2
:100F2000CFCF4E145F0494F7812F90E04B835C8306
:100F30000E94AB05C8010E94AB058FEF481A580A02
:100F40005C814B81EECF4150510909F0AFCF0F903A
:100F50000F900F900F90DF91CF911F910F91FF9005
:100F6000EF90DF90CF90BF90AF909F908F907F9049
:100F70006F905F904F903F902F9008952F923F92E7
:100F80004F925F926F927F928F929F92AF92BF9299
:100F9000CF92DF92EF92FF920F931F93CF93DF9345
:100FA00000D000D000D0CDB7DEB77C836B831901B1
:100FB00028015701360149835A83470123E0880CF1
:100FC000991C2A95E1F79E838D83E981FA814191ED
:100FD000FA83E983442379F0630175018201910169
:100FE0006B817C818D819E810E9419078D819E81FC
:100FF000880D991DE8CF26960FB6F894DEBF0FBE78
:10100000CDBFDF91CF911F910F91FF90EF90DF90B7
:10101000CF90BF90AF909F908F907F906F905F9098
:101020004F903F902F900895CF92DF92EF92FF92D2
:101030000F931F932091AA033091AB036C017C01A5
:1010400089014DE152E060E370E080E090E00E94B1
:10105000BE071F910F91FF90EF90DF90CF90089502
:10106000CF92DF92EF92FF920F931F932091AA03EA
:101070003091AB03CC24C394D12CEE24E394F12C17
:1010800002E818EE4CED51E060E070E088E690E098
:101090000E94BE071F910F91FF90EF90DF90CF90BD
:1010A0000895CF92DF92EF92FF920F931F930091DA
:1010B000AA031091AB03CC24C394D12CEE24E39467
:1010C000F12C20EE37E24FED51E062E670E080E077
:1010D00090E00E94BE071F910F91FF90EF90DF906C
:1010E000CF900895CF92DF92EF92FF920F931F93CC
:1010F0009B012D5F3F4F4EE0429FB001439F700D1B
:101100001124CC24C394D12CEE24E394F12C02E5D9
:1011100017EF23E73AE0AC0188E290E00E94BE07B7
:101120001F910F91FF90EF90DF90CF9008952F9235
:101130003F924F925F926F927F928F929F92AF9267
:10114000BF92CF92DF92EF92FF920F931F93CF93B4
:10115000DF9300D000D000D0CDB7DEB76B017C01AB
:101160005C834B833E832D83611571058105910559
:1011700039F480E3F9018083118281E090E090C02E
:1011800097FF0DC0F094E094D094C094C11CD11C82
:10119000E11CF11C21E030E03A83298302C01A826D
:1011A00019828D819E810C96ED81FE811192E81746
:1011B000F907E1F709E010E0212C312C812C8AECB1
:1011C000982E8AE9A82E8BE3B82E9AE0492E512C4E
:1011D000612C712CC701B601A50194010E94A921BF
:1011E000E22FA22FB32FA50194010E94D321C61A8A
:1011F000D70AE80AF90AD1011996A01BB10B4D8153
:101200005E81A40FB51FE05DEC93C501B401A3019D
:1012100092010E94A92149015A018B819C810817E2
:10122000190779F40115110561F09FEF291A390AA0
:10123000F101E01BF10B2D813E81E20FF31F3EE235
:1012400031870150110930F6ED81FE8130E2CF0186
:101250004D815E81841B950B2081203311F43193E5
:10126000F6CFE981FA81EF2B31F00197FA01E80F0F
:10127000F91F2DE22083ED81FE819F014D815E816A
:10128000241B350BDF01A80FB91F4C91442311F02B
:101290004193F3CFED81FE81E20FF31F1082C9016C
:1012A00026960FB6F894DEBF0FBECDBFDF91CF916B
:1012B0001F910F91FF90EF90DF90CF90BF90AF9074
:1012C0009F908F907F906F905F904F903F902F9066
:1012D00008952F923F924F925F926F927F928F92DA
:1012E0009F92AF92BF92CF92DF92EF92FF920F93B5
:1012F0001F93CF93DF93CDB7DEB728970FB6F8943F
:10130000DEBF0FBECDBF3C012B0129833A834B8347
:101310005C831801FE82ED82D886CF82750164015C
:1013200080E190E00E94EA215C010097F9F000E181
:1013300010E09C01A10169817A818B819C810E94CE
:1013400097080F8118852D813E81A501B201C30147
:101350000E94BE07F50101900020E9F731977F0157
:10136000EA18FB08C5010E947F2202C0E12CF12C83
:10137000C70128960FB6F894DEBF0FBECDBFDF9130
:10138000CF911F910F91FF90EF90DF90CF90BF9082
:10139000AF909F908F907F906F905F904F903F9015
:1013A0002F9008958F929F92AF92BF92CF92DF922B
:1013B000EF92FF920F931F93CF93DF93603826E94C
:1013C000720728E982079105A4F46115710581056A
:1013D000910591F4CA01DF91CF911F910F91FF9078
:1013E000EF90DF90CF90BF90AF909F908F900C9434
:1013F0001408CBE0D0E002C0CBE1D0E05A01C090AD
:10140000AA03D090AB034130510579F4882483942A
:10141000912CAA24A394B12C42E5E42E47EFF42E9C
:1014200003E010E09B01AC010DC024E630E040E099
:1014300050E00E94A921450182E5E82E87EFF82EB1
:1014400001E010E060E370E0CE010E946909DF91E5
:10145000CF911F910F91FF90EF90DF90CF90BF90B1
:10146000AF909F908F900895CF92DF92EF92FF926E
:101470000F931F93CF93DF93CDB7DEB72A970FB6A5
:10148000F894DEBF0FBECDBF2AE0EEE8F1E0DE014A
:10149000119601900D922A95E1F7AC01440F551F6A
:1014A000059730F4FA01EE52FE4F8081918102C01F
:1014B0008FEF9FEF2091AA033091AB03E1E0F0E0C2
:1014C000EC0FFD1FE40FF51F40815181CC24C39424
:1014D000D12CEE24E394F12C672B11F08C0102C087
:1014E00089019C0160E070E080E090E00E94BE070E
:1014F0002A960FB6F894DEBF0FBECDBFDF91CF9115
:101500001F910F91FF90EF90DF90CF900895CF92B1
:10151000DF92EF92FF920F931F93CF93DF9300D050
:1015200000D000D0CDB7DEB7FE01319626E0DF0156
:101530001D922A95E9F721E033E03A83298329E0D7
:1015400033E03C832B832091AA033091AB03880FB7
:10155000991FE80FF91F40815181CC24C394D12CED
:10156000EE24E394F12C672B39F00CE515E760E0ED
:1015700070E080EC90E007C089012CE535E760E081
:1015800070E080E290E00E94BE0726960FB6F894C5
:10159000DEBF0FBECDBFDF91CF911F910F91FF90A6
:1015A000EF90DF90CF900895CF93DF93589859989C
:1015B0005A9897FD37C020E030E0E1E0F0E0AC0160
:1015C000022E02C0559547950A94E2F740FF09C0E4
:1015D0006BB1AF01022E01C0440F0A94EAF7462B0B
:1015E0000AC05BB1BF01022E01C0660F0A94EAF780
:1015F000462F409545234BB92F5F3F4F2330310590
:10160000F1F6EC01CC0FDD1FC85BDE4F88819981BC
:101610000E945E0560E070E088819981DF91CF9142
:101620000C94870ADF91CF910895CF92DF92EF92C9
:10163000FF920F931F93CF93DF9300D000D0CDB7CD
:10164000DEB724E032E03A83298329E032E03C83AC
:101650002B832091AA033091AB03880F991FE1E0FF
:10166000F0E0EC0FFD1FE80FF91F40815181CC2401
:10167000C394D12CEE24E394F12C672B19F006E4EB
:1016800017EE03C0890126E437EE60E070E080E4E5
:1016900090E00E94BE070F900F900F900F90DF9187
:1016A000CF911F910F91FF90EF90DF90CF90089511
:1016B0008F929F92AF92BF92CF92DF92EF92FF9262
:1016C0000F931F93CF93DF937C0180E190E00E9402
:1016D000EA21EC01FC0140961192E817F907E1F7C5
:1016E00006E010E09E0141E050E0B7010F2C000C35
:1016F000880B990B0E9497084C0163E0880C991C99
:101700006A95E1F78AE0E816F10429F452E8A52E7B
:1017100058EEB52E04C047EAA42E41EBB42EC70103
:101720000B97029748F08DE0E816F1044CF030EE8C
:10173000A32E37E2B32E04C025E0A22E25E6B22E5A
:101740000091AA031091AB03CC24C394D12CEE24B6
:10175000E394F12C9501AE016EE070E080E090E042
:101760000E94BE070091AA031091AB0395014EE0C1
:1017700052E06EE070E0C4010E94BE07CE01DF912E
:10178000CF911F910F91FF90EF90DF90CF90BF907E
:10179000AF909F908F900C947F22CF92DF92EF9228
:1017A000FF920F931F93892B41F01F910F91FF9090
:1017B000EF90DF90CF900C9430080091AA03109125
:1017C000AB03CC24C394D12CEE24E394F12C20EE73
:1017D00037E241E152E060E070E088E690E00E948C
:1017E000BE071F910F91FF90EF90DF90CF9008956B
:1017F000CF92DF92EF92FF920F931F93CF93DF93DD
:10180000EC010091AA031091AB03CC24C394D12C1A
:10181000EE24E394F12C2FEF3FEF44E152E060E738
:1018200070E080E090E00E94BE070091AA03109152
:10183000AB032FEF3FEFAE0160E770E080E090E098
:101840000E94BE0780919E0390919F03A091A003E8
:10185000B091A10380939A0390939B03A0939C0360
:10186000B0939D0381E090E090938703809386037B
:10187000DF91CF911F910F91FF90EF90DF90CF906C
:101880000895EF92FF920F931F93CF93DF938C01F4
:1018900080E190E00E94EA21EC0180E190E00E946A
:1018A000EA217C010E940B0482EC0E94170480E470
:1018B0000E941704C80124E0959587952A95E1F7C1
:1018C0000E941704802F8F700E94170484E9809370
:1018D000BC0065E272E0CE010E942223B801110F24
:1018E000880B990B0FE010E097014FEF5FEF0E941C
:1018F0009708B701CE010E941723CE010E94F80B72
:10190000CE010E947F22C701DF91CF911F910F91DD
:10191000FF90EF900C947F221F93CF93DF93182FAB
:101920009B01205C3F4F220F331FF999FECFE90145
:101930002196692F6F70C9010E943123F999FECF5A
:10194000612FCE010E94312380E392E0DF91CF919D
:101950001F910C94F80B6F927F928F929F92AF928F
:10196000BF92CF92DF92EF92FF920F931F93CF938C
:10197000DF93EC01419714F0C0E1D0E04E0173E039
:10198000880C991C7A95E1F75E01209194033091BF
:10199000950321503109A216B306CCF40091AA0395
:1019A0001091AB03CC24C394D12CEE24E394F12CFE
:1019B00020EE37E240E264E570E0C4010E941907BE
:1019C0008FEFA81AB80A88E0880E911CDECF612C30
:1019D000712C40EE842E47E2942EA12CB12CAC1633
:1019E000BD0644F588E0A816B10464F08BE0A816A3
:1019F000B1042CF432E5832E37EF932E03C0812CF3
:101A00002AEF922E0091AA031091AB03CC24C39429
:101A1000D12CEE24E394F12C940141E864E570E0CC
:101A2000C3010E9419078FEFA81AB80A88E0680E50
:101A3000711CD5CF80919403909195038C179D07CD
:101A4000A4F4D0939503C093940380919E03909146
:101A50009F03A091A003B091A10380938203909370
:101A60008303A0938403B0938503D0938103C09331
:101A70008003DF91CF911F910F91FF90EF90DF9046
:101A8000CF90BF90AF909F908F907F906F90089570
:101A9000AF92BF92CF92DF92EF92FF920F931F937C
:101AA000CF93DF93C0919403D091950321975E016A
:101AB00023E0AA0CBB1C2A95E1F7C031D105BCF488
:101AC0000091AA031091AB03CC24C394D12CEE2433
:101AD000E394F12C20EE37E240E264E570E0C501CA
:101AE0000E941907219688E0A80EB11CE6CF10923B
:101AF000950310929403DF91CF911F910F91FF9066
:101B0000EF90DF90CF90BF90AF900895CF92DF928B
:101B1000EF92FF920F931F93892B41F41F910F9126
:101B2000FF90EF90DF90CF900C9451080091AA03A2
:101B30001091AB03CC24C394D12CEE24E394F12C6C
:101B400022E537EF42E452E062E670E080E090E0A8
:101B50000E94BE071F910F91FF90EF90DF90CF90F2
:101B600008952F923F924F925F926F927F928F9241
:101B70009F92AF92BF92CF92DF92EF92FF920F931C
:101B80001F93CF93DF9300D000D000D0CDB7DEB746
:101B90002B013C014A0159011A8309831701DC8298
:101BA000CB828091AA039091AB030E94ED061E8226
:101BB0001D820091AA031091AB03CC24C394D12CB5
:101BC000EE24E394F12C26E437EE43E864E270E07F
:101BD0008D819E810E9419070091AA031091AB0389
:101BE00026E437EE43E86AE470E08D819E810E942E
:101BF00019078D819E8108969E838D83803891057B
:101C0000C1F642E050E0C301B2010E94D20960E097
:101C100070E0C4010E94340A60E070E0C5010E94D7
:101C2000870A60E070E089819A810E94150BC101EA
:101C30000E94580B80E090E00E94CD0B8B819C812C
:101C400026960FB6F894DEBF0FBECDBFDF91CF91C1
:101C50001F910F91FF90EF90DF90CF90BF90AF90CA
:101C60009F908F907F906F905F904F903F902F90BC
:101C70000C94860D1F920F920FB60F9211242F9382
:101C80003F934F935F938F939F93AF93BF9383B192
:101C9000837090E09C0135952795822793272091AA
:101CA000A4033091A5038217930739F1281B390B40
:101CB00023703327225031094091A2035091A3038E
:101CC000240F351F3093A3032093A2039093A50301
:101CD0008093A4038091960390919703A091980319
:101CE000B09199030196A11DB11D80939603909325
:101CF0009703A0939803B0939903D89ABF91AF919B
:101D00009F918F915F914F913F912F910F900FBEB7
:101D10000F901F9018951F920F920FB60F921124DB
:101D20008F939F93AF93BF9380919E0390919F0356
:101D3000A091A003B091A1030196A11DB11D8093B4
:101D40009E0390939F03A093A003B093A1031092CE
:101D50009603109297031092980310929903BF91E3
:101D6000AF919F918F910F900FBE0F901F9018957C
:101D70000F931F934091960350919703609198039E
:101D8000709199038A019B0182E0359527951795FB
:101D900007958A95D1F7049FC001059F900D149F68
:101DA000900D11241F910F910895805C80937C0009
:101DB0008FE99FE00197F1F700C00000EAE7F0E04B
:101DC0008081806480838FE99FE00197F1F700C0F4
:101DD0000000209178008091790090E0982F88276A
:101DE000820F911D089581E090E00E94D50E8856E3
:101DF00091408A30910514F48AE090E09C01220F12
:101E0000331F820F931F54E0959587955A95E1F7FC
:101E1000089583E090E00E94D50E25E0AC01249F58
:101E2000C001259F900D1124BC01990F880B990BBF
:101E30000E947E2020E030EC4FE754E40E94D41F43
:101E40009B01AC0160E070E080EA90E40E94D41F46
:101E500020E030E040E85FE30E94671F9B01AC0197
:101E600060E070E08AE794E40E94D41F20E030EC48
:101E70004BE454E40E94671F23EC35EF4CE051E43F
:101E80000E94D41F0E944620CB0108958F929F92FA
:101E9000AF92BF92CF92DF92EF92FF920F931F9378
:101EA000CF93DF930E94090F8932910534F08D336F
:101EB000910534F4C2E5D7EF05C0C0EED7E202C009
:101EC000C2E8D8EEC090AA03D090AB039C01990F52
:101ED000440B550B88248394912CAA24A394B12CF1
:101EE0007E010FEF1FEF6EE070E088E590E00E944A
:101EF00069090B965C0123E0AA0CBB1C2A95E1F74B
:101F00000091AA031091AB03CC24C394D12CEE24EE
:101F1000E394F12C9E0148E86EE070E0C5010E9458
:101F200019070091AA031091AB039E0143E46EE0F0
:101F300070E0C50108960E941907DF91CF911F91AB
:101F40000F91FF90EF90DF90CF90BF90AF909F9058
:101F50008F900895FF920F931F93CF93DF93660F97
:101F6000771F860F971FEC016096CC0FDD1FCC0FFB
:101F7000DD1FF894CE010E942923F82ECE01019690
:101F80000E942923082FCE0102960E942923182F90
:101F9000CE0103960E942923482F78948F2D90E03C
:101FA000A0E0B0E0BA2FA92F982F8827800F911DAD
:101FB000A11DB11DDC0199278827212F30E0322F88
:101FC0002227820F931FA11DB11DBC01CD01640FFB
:101FD000711D811D911DDF91CF911F910F91FF9078
:101FE00008954F925F926F927F928F929F92AF92DD
:101FF000BF92CF92DF92EF92FF92CF93DF93EB01EC
:10200000CC0FDD1F8C0F9D1FEC016096CC0FDD1FE8
:10201000CC0FDD1FF8944A01BB2497FCB094AB2C85
:10202000D4019927882769017A01C81AD90AEA0ACE
:10203000FB0A652F992767FD9095792F892F4D2CE5
:102040005E2C6F2C772467FC7A94F999FECFCE0131
:102050000E943123F999FECF682DCE0101960E948E
:102060003123F999FECF642DCE0102960E943123CF
:10207000F999FECF6C2DCE0103960E9431237894FE
:10208000DF91CF91FF90EF90DF90CF90BF90AF9016
:102090009F908F907F906F905F904F9008950796DC
:1020A0000E942923282F30E0823010F4C9010895BE
:1020B0008FEF9FEF08950796F999FECF0C94312387
:1020C00080E090E00E942923282F30E0853010F432
:1020D000C90108958FEF9FEF0895BF92CF92DF92CD
:1020E000EF92FF920F931F93CF93DF9300D000D016
:1020F000CDB7DEB7C82EB92E7B01D42EA901980129
:10210000682F80E090E029833A834B835C830E94B0
:102110003123B7018C2D9B2D0E945B106D2D86E025
:1021200090E00E94312329813A814B815C816C2DA2
:102130007B2DC7010F900F900F900F90DF91CF91E3
:102140001F910F91FF90EF90DF90CF90BF900C9474
:10215000F10FCF93DF93CDB7DEB728970FB6F89482
:10216000DEBF0FBECDBF88E0E8E9F1E0DE011196E9
:1021700001900D928A95E1F780E090E00E94D50EE3
:10218000FE01319620E030E041915191BA01695051
:1021900071092F5F3F4F861797073CF0475F5F4FEE
:1021A0004817590714F0C90105C02430310561F7FB
:1021B00080E090E028960FB6F894DEBF0FBECDBF4A
:1021C000DF91CF910895CF93DF93E091A803F09131
:1021D000A903EE0FFF1FE857FC4FC081D18183E5B3
:1021E00092E00E94F80BCE010E94410C0E94A910BF
:1021F000892BE1F70E94A910009789F58091A2032D
:102200009091A3031816190694F4CF3F8FE0D807D6
:102210002CF40E94B80EC80FD91F02C0CFEFDFE028
:102220001092A3031092A203CE010E94410C809150
:10223000A2039091A30397FFDDCF1C161D062CF47B
:102240000E94B80EC81BD90B02C0C0E0D0E01092AB
:10225000A3031092A203CE010E94410CCBCF0297A0
:1022600081F46091A8037091A903FB01EE0FFF1F99
:10227000E857FC4FD183C083CE01DF91CF910C94FE
:102280008C0CDF91CF9108952F923F924F925F92E5
:102290006F927F928F929F92AF92BF92CF92DF9276
:1022A000EF92FF920F931F93CF93DF93CDB7DEB7DB
:1022B00028970FB6F894DEBF0FBECDBF81E190E046
:1022C0000E94EA213C01FC014196D3011D92A8170E
:1022D000B907E1F7C301409620E22193E817F90717
:1022E000E1F7E091A803F091A903A3E0EE0FFF1F2F
:1022F000AA95E1F79F01205A3E4FD9014D915D917A
:102300006D917C91139749835A836B837C831496D8
:102310004D915D916D917C9117974D835E836F8395
:10232000788789819A81AB81BC81481759076A07F0
:102330007B0784F03D812E819F81888549815A8168
:102340006B817C814D835E836F83788739832A8399
:102350009B838C838091AA039091AB030E94ED062E
:10236000CC24C394D12CEE24E394F12C0CE515E796
:102370002FEF3FEFA3016EE070E080E090E00E945D
:10238000BE072FEF3FEF42E652E06EE070E080E1E3
:1023900090E00E94BE07C3010E947F220E94A91004
:1023A000892BE1F70E9451084D805E806F80788410
:1023B00089819A81AB81BC81481659066A067B06E1
:1023C0009CF70E94A9101C01E0915201F091530169
:1023D000EE0FFF1FEE0FFF1FEC5AFE4F8081918121
:1023E000A281B381BC01CD01640D751D861D971DB1
:1023F0000E946203C090AA03D090AB03C301B20154
:1024000024E630E040E050E00E94A9218824839433
:10241000912CAA24A394B12CEE24EA94FE2C01E082
:1024200010E068E370E088E290E00E9469090E9491
:10243000F30E8C010E94AB0C80E090E02091000133
:1024400030910101201731076CF0C0909E03D090AD
:102450009F03E090A003F090A103892BE9F120E015
:1024600030E024C02114310481F7892B21F48EE659
:1024700092E00E94F80B0E94F30E8C010E94AB0CBC
:102480000E94A9101C0181E090E0D8CF232B21F4F9
:1024900087E792E00E94F80B0E94A9101C01892B8B
:1024A00019F0C12CD12C760121E030E040919E033F
:1024B00050919F036091A0037091A103D701C601C1
:1024C0004D96A11DB11D84179507A607B707F4F611
:1024D00082E892E00E94F80B52E02516310451F098
:1024E00063E02616310449F074E6470E511C611C66
:1024F000711C5ECFB201C30104C060E070E080E0F7
:1025000090E028960FB6F894DEBF0FBECDBFDF91E6
:10251000CF911F910F91FF90EF90DF90CF90BF90E0
:10252000AF909F908F907F906F905F904F903F9073
:102530002F9008958F929F92AF92BF92CF92DF9289
:10254000EF92FF920F931F93CF93DF9381E190E07F
:102550000E94EA21EC01FC014196DE011D92A817C0
:10256000B907E1F7CE01409620E22193E817F90779
:10257000E1F78091AA039091AB030E94ED06CC2471
:10258000C394D12CEE24E394F12C0CE515E72FEF46
:102590003FEFAE016EE070E080E090E00E94BE0789
:1025A0002FEF3FEF4EE852E06EE070E088E090E001
:1025B0000E94BE07CE010E947F228091000190916F
:1025C00001010E94AB0C0E945108C090AA03D09058
:1025D000AB032091000130910101032E000C440B4C
:1025E000550B88248394912CAA24A394B12CEE2417
:1025F000EA94FE2C0FEF1FEF68E370E088E290E0B2
:102600000E94690980910001909101010E94AB0C28
:102610008091A2039091A30303970CF447C080918B
:102620000001909101018C3091052CF4019690935A
:1026300001018093000180910001909101010E94AD
:10264000AB0C0091AA031091AB03CC24C394D12C02
:10265000EE24E394F12C2FEF3FEF40E252E068E3E9
:1026600070E088E290E00E94BE07C090AA03D0907C
:10267000AB032091000130910101032E000C440BAB
:10268000550B88248394912CAA24A394B12CEE2476
:10269000EA94FE2C0FEF1FEF68E370E088E290E011
:1026A0000E9469091092A3031092A2038091A203D1
:1026B0009091A3038E3F9F4FB4F4809100019091BD
:1026C0000101181619062CF40197909301018093CB
:1026D000000180910001909101010E94AB0C1092C9
:1026E000A3031092A2030E94A910009709F490CFAF
:1026F000029791F4609100018AE890E0DF91CF9118
:102700001F910F91FF90EF90DF90CF90BF90AF900F
:102710009F908F900C943123DF91CF911F910F9157
:10272000FF90EF90DF90CF90BF90AF909F908F90F1
:1027300008952F923F924F925F926F927F928F9265
:102740009F92AF92BF92CF92DF92EF92FF920F9340
:102750001F93CF93DF93CDB7DEB72A970FB6F894C8
:10276000DEBF0FBECDBF7A87698758874F832901A7
:102770009A8389831C01E3E0220C331CEA95E1F77C
:10278000F3E0440F551FFA95E1F75C834B838EE02D
:10279000869F9001879F300D11243E832D835B011E
:1027A000812C912C4A145B0444F16D807E80680C6E
:1027B000791C0091AA031091AB03CC24C394D12CB3
:1027C000EE24E394F12C2FEF3FEF42E8B301C10177
:1027D0000E9419070091AA031091AB032FEF3FEF5E
:1027E00042E8B3018B819C810E9419073FEFA31A35
:1027F000B30A4EE0840E911CD5CF89849A8451E0AF
:10280000851A91088EE0889DF001899DF00D1124B4
:10281000FE83ED83FFEF4F1A5F0A849D3001859D93
:10282000700C1124A12CB12CE981FA813196FA8324
:10283000E983F8E0AF0EB11C0091AA031091AB033D
:1028400029813A814F81588524173507FCF4CC241F
:10285000C394D12CEE24E394F12C2FEF3FEF43E807
:102860006D817E81C1018A0D9B1D9A8789870E9497
:1028700019070091AA031091AB032FEF3FEF43E834
:10288000B30189859A850E941907CECF8EE0B82EB4
:10289000B49C3001B59C700C1124CC24C394D12C71
:1028A000EE24E394F12C2FEF3FEF44E8B301C10194
:1028B0000E9419070091AA031091AB032FEF3FEF7D
:1028C00045E8B3018B819C810E941907B89C3001B7
:1028D000B99C700C11240091AA031091AB032FEF47
:1028E0003FEF46E8B301C1010E9419070091AA0316
:1028F0001091AB032FEF3FEF47E8B3018B819C8131
:102900000E9419072A960FB6F894DEBF0FBECDBFFE
:10291000DF91CF911F910F91FF90EF90DF90CF90BB
:10292000BF90AF909F908F907F906F905F904F90EF
:102930003F902F9008958F929F92AF92BF92CF9227
:10294000DF92EF92FF920F931F93CF93DF934C018F
:102950008B01FC0101900020E9F78E1B9F0B419633
:102960005C01B694A79481E190E00E94EA21EC0119
:10297000FC014196DE011D92A817B907E1F7CE01CF
:10298000409620E22193E817F907E1F78091AA0326
:102990009091AB030E94ED0698012D5F3F4F4DE0F3
:1029A00050E063E070E084E090E00E949913CC2452
:1029B000C394D12CEE24E394F12C0CE515E72FEF12
:1029C0003FEFAE016EE070E080E090E00E94BE0755
:1029D0002FEF3FEFA4016EE070E0C501E3E0880F48
:1029E000991FEA95E1F70E94BE07CE01DF91CF91D2
:1029F0001F910F91FF90EF90DF90CF90BF90AF901D
:102A00009F908F900C947F22CF92DF92EF92FF9253
:102A10000F931F93452B41F01F910F91FF90EF9063
:102A2000DF90CF900C947208AC010091AA03109132
:102A3000AB039B012D5F3F4F8EE0829FB001839FD0
:102A4000700D1124CC24C394D12CEE24E394F12CEA
:102A50002FEF3FEF88E290E00E94BE071F910F9199
:102A6000FF90EF90DF90CF9008958F929F92AF925A
:102A7000BF92CF92DF92EF92FF920F931F93CF936B
:102A8000DF93CDB7DEB7E2970FB6F894DEBF0FBE87
:102A9000CDBF5B0122E3E0EAF1E0DE011196019097
:102AA0000D922A95E1F72AE0289F6001299FD00C1A
:102AB000112400E010E09C01220F331FA9014E5F9A
:102AC0005E4F7A0125E0289F4001299F900C112438
:102AD000F70180819181801791074CF10A151B0540
:102AE00089F4F401E00FF11FEE0FFF1F81E090E089
:102AF0008C0F9D1FE80FF91FB801808191810E9402
:102B0000720812C0F801EE0FFF1FEC0DFD1D41E031
:102B100050E04C0F5D1FE40FF51F40E050E0B8019E
:102B2000808191810E9404150F5F1F4FD1CFE296E3
:102B30000FB6F894DEBF0FBECDBFDF91CF911F91CE
:102B40000F91FF90EF90DF90CF90BF90AF909F904C
:102B50008F9008952F923F924F925F926F927F9243
:102B60008F929F92AF92BF92CF92DF92EF92FF929D
:102B70000F931F93CF93DF9300D000D0CDB7DEB774
:102B80003C017A8369832A0141E050E0B2010E944E
:102B900035150E94A9106C014B825C82F4E62F2E41
:102BA000312C412C512CC114D10409F0B8C08091B2
:102BB000A2039091A303039704F140E050E06B81DE
:102BC0007C81C3010E9435150B811C8129813A81CA
:102BD000021713072CF40F5F1F4F1C830B8302C0D7
:102BE0001C821B8241E050E06B817C81C3010E940A
:102BF00035151092A3031092A2038091A203909125
:102C0000A3038E3F9F4FFCF440E050E06B817C813A
:102C1000C3010E9435158B819C811816190624F476
:102C200001979C838B8304C0E981FA81FC83EB8349
:102C300041E050E06B817C81C3010E943515109208
:102C4000A3031092A203F1E06F16710409F05BC0B8
:102C5000E091A803F091A903EE0FFF1F0B811C81E7
:102C6000E00FF11FEE0FFF1FEE0FFF1FE05AFE4FA8
:102C7000A0915201B0915301AA0FBB1FAA0FBB1F15
:102C8000AC5ABE4F40815181628173818D919D917B
:102C90000D90BC91A02D8A019B01080F191F2A1FBE
:102CA0003B1FC901B8010E946203C090AA03D090E3
:102CB000AB03E091A803F091A903EE0FFF1F2B8156
:102CC0003C81E20FF31FEE0FFF1FEE0FFF1FE05AD4
:102CD000FE4F6081718182819381A20191010E94E6
:102CE000A92188248394912CAA24A394B12CEE24A6
:102CF000EA94FE2C01E010E064E570E080E290E0F0
:102D00000E94690908C032E06316710421F48B81C6
:102D10009C810E945E050E94A9106C0144CF8091A5
:102D20005201909153010E945E050E94A910892BC7
:102D3000E1F782E0C816D10431F093E0C916D1045E
:102D400029F48DEF04C08B819C8102C08FEF9FEF2F
:102D50000F900F900F900F90DF91CF911F910F91D7
:102D6000FF90EF90DF90CF90BF90AF909F908F90AB
:102D70007F906F905F904F903F902F9008950E94AA
:102D8000A910892BE1F7609102017091030185E19F
:102D900093E00E949B144091A8035091A9036FEF08
:102DA0007FEF80E090E00E9435154091A80350919C
:102DB000A903609102017091030180E090E00E94FC
:102DC000AA1597FD05C0BC01990F880B990B0895B2
:102DD000039609F4ABC00E94A910892BE1F760911A
:102DE0000401709105018EE193E00E949B144091D3
:102DF000AC035091AD036FEF7FEF81E090E00E9454
:102E000035154091AC035091AD0360910401709170
:102E1000050181E090E00E94AA1597FD04C0BC0165
:102E2000665F7F4F77C0039609F480C00E94A910A7
:102E3000892BE1F7609106017091070189E293E027
:102E40000E949B1440915201509153016FEF7FEF0C
:102E500082E090E00E94351540915201509153015B
:102E6000609106017091070182E090E00E94AA152E
:102E700097FD04C0BC016C5E7F4F4CC0039609F403
:102E800055C00E94A910892BE1F76091080170914B
:102E9000090182E393E00E949B1441E050E060E06E
:102EA00070E083E090E00E94351560910801709118
:102EB000090140E050E083E090E00E94AA1597FDF0
:102EC00004C0BC01625E7F4F25C0039679F10E9469
:102ED000A910892BE1F760910A0170910B018CE335
:102EE00093E00E949B1440E050E06FEF7FEF84E09E
:102EF00090E00E94351560910A0170910B0140E04D
:102F000050E084E090E00E94AA1597FD08C0BC0143
:102F1000685D7F4F072E000C880B990B0895039670
:102F200029F06EEF7FEF8FEF9FEF08956DEF7FEF4A
:102F30008FEF9FEF08958F929F92AF92BF92CF92A3
:102F4000DF92EF92FF920F931F93CF93DF934C0189
:102F50008091AA039091AB030E94ED065401AA0C44
:102F6000BB1CAA0CBB1CF501EC5AFE4F60817181A1
:102F70008281938141E050E00E94D209C0E0D0E01C
:102F8000CC24C394D12CEE24E394F12C0CE515E76A
:102F90002FEF3FEF40E26EE070E0CE010E94190794
:102FA0002896C038D10561F72FEF3FEF43E453E097
:102FB0006EE070E080E190E00E94BE07892839F45D
:102FC00009E11CE32FEF3FEF4FE453E00CC0CC24AA
:102FD000C394D12CEE24E394F12C09E11CE32FEFF0
:102FE0003FEF49E553E06CE170E088E190E00E943A
:102FF000BE070E94A910892BE1F7E091A803F09188
:10300000A903EE0FFF1FEE0FFF1FEC5CFE4F408188
:10301000518162817381E501CC5ADE4F88819981AB
:10302000AA81BB818A019B01080F191F2A1F3B1F20
:10303000C901B8010E9462038091A2039091A30389
:103040000397B4F088819981AA81BB81BC01CD012D
:10305000665F7F4F8F4F9F4F688379838A839B83FF
:103060001092A3031092A20341E050E00E94D20903
:103070008091A2039091A3038E3F9F4FB4F4888167
:103080009981AA81BB81BC01CD016A507109810976
:103090009109688379838A839B831092A30310929A
:1030A000A20341E050E00E94D209488159816A811F
:1030B0007B818AE290E00E94C1040E94A9108C01E9
:1030C000892B09F4B9CF0E94A910892BE1F70230AE
:1030D000110541F4F501EC5AFE4F60817181828146
:1030E000938103C060E070E0CB01DF91CF911F912D
:1030F0000F91FF90EF90DF90CF90BF90AF909F9097
:103100008F900895CF93DF9300D000D000D0CDB73B
:10311000DEB780909E0390909F03A090A003B09094
:10312000A1038CE890E29093AB038093AA038CE315
:1031300084B92D9A8FE99FE00197F1F700C0000054
:103140002D988FEF8AB981E088B983E085B983E84B
:1031500080937A0080E090E00E94D50E8091680014
:1031600081608093680080916B00836080936B0026
:10317000109280008DE08093810086E0809389002A
:103180008BE18093880080916F00826080936F0054
:103190008FEF9FEF0E94D40A80E190E00E94EA2125
:1031A0009093A7038093A60380E090E0E091A603AC
:1031B000F091A703E80FF91F108201968031910565
:1031C000A9F70E9402040E946D050E94AF050E94AB
:1031D0003D040E9460109093A9038093A803019678
:1031E00031F482E090E09093A9038093A8030091CA
:1031F000A8031091A903C8010E944F109093AD033A
:103200008093AC03019621F41092AD031092AC03AD
:10321000E090AC03F090AD03B801C7010E94AA0F83
:10322000000F111F0E0D1F1D000F111F000F111F8A
:10323000F801E05AFE4F608371838283938300918B
:10324000A8031091A9038091AC039091AD0378017C
:10325000EE0CFF1C8E0D9F1D880F991F880F991F64
:103260009C01205A3E4F6901F90160817181828180
:103270009381A8010E94D103892B81F4F801EE0FFC
:10328000FF1FEE0FFF1FEC5CFE4F80819181A2813A
:10329000B381F60180839183A283B383F701E85B56
:1032A000FE4F808191819093530180935201C80118
:1032B0000E94D40A8AE890E00E942923282F30E057
:1032C00030930101209300018D3030F088E090E0D0
:1032D000909301018093000186E090E00E94D50E5A
:1032E000BC01990F880B990B0E947E2020E030E0F2
:1032F00040EA50E40E940A2120E030E040E85AE32E
:103300000E940A2120E030E040EC50E40E940A21B3
:1033100020E030E040E251E40E940A210E94462071
:103320002B013C011B01E091A803F091A903EE0FD2
:10333000FF1F8091AC039091AD03E80FF91FEE0FD2
:10334000FF1FEE0FFF1FE05AFE4FA0915201B091F8
:103350005301AA0FBB1FAA0FBB1FAC5ABE4F40811F
:103360005181628173818D919D910D90BC91A02DB1
:103370008A019B01080F191F2A1F3B1FC901B801B1
:103380000E946203E091A803F091A903EE0FFF1FD2
:103390008091AC039091AD03E80FF91FEE0FFF1F72
:1033A000EE0FFF1FE05AFE4FA0915201B091530162
:1033B000AA0FBB1FAA0FBB1FAC5ABE4F4081518141
:1033C000628173818D919D910D90BC91A02D8A0198
:1033D0009B01080F191F2A1F3B1FC901B8010E943A
:1033E000620380915201909153010E945E0540E07A
:1033F00050E0BA018AE390E00E94C1044091A80322
:103400005091A9030091AC031091AD03209152019A
:1034100030915301FA01EE0FFF1FE00FF11FEE0F85
:10342000FF1FEE0FFF1FE05AFE4F60817181828106
:103430009381C12CD12C72010E94B10D08E813E0D8
:10344000E12C28E0F22EC6010E943203F80191839C
:1034500080838130904118F0F801F182E082FFEF23
:10346000CF1ADF0A0E5F1F4F25E0C216D10459F7AD
:10347000E091A803F091A903EE0FFF1FE857FC4F5E
:10348000808191810E94410C789483E693E00E94B0
:10349000F80B1E821D823EEC432E55245A94652C57
:1034A000752C1A8219828091A2039091A30303972D
:1034B0000CF45AC00E94B80EE091A803F091A90341
:1034C0002091AC033091AD03EE0FFF1FE20FF31F0D
:1034D000EE0FFF1FEE0FFF1FE05AFE4F092E000CEC
:1034E000AA0BBB0B4081518162817381840F951FB0
:1034F000A61FB71F80839183A283B383E0915201FB
:10350000F0915301EE0FFF1FEE0FFF1FEC5AFE4F1D
:1035100040815181628173818C019D01040F151FCF
:10352000261F371FC901B8010E9462031092A3032E
:103530001092A203E091A803F091A903EE0FFF1FE0
:103540008091AC039091AD03E80FF91FEE0FFF1FC0
:10355000EE0FFF1FE05AFE4F6081718182819381DF
:1035600042E050E00E94D2098091A2039091A3030F
:103570008E3F9F4F0CF05AC00E94B80EE091A803F6
:10358000F091A9032091AC033091AD03EE0FFF1F22
:10359000E20FF31FEE0FFF1FEE0FFF1FE05AFE4F6B
:1035A000AC01990F660B770B80819181A281B38169
:1035B000841B950BA60BB70B80839183A283B383E7
:1035C000E0915201F0915301EE0FFF1FEE0FFF1F2C
:1035D000EC5AFE4F40815181628173818C019D01C3
:1035E000040F151F261F371FC901B8010E9462036F
:1035F0001092A3031092A203E091A803F091A903F3
:10360000EE0FFF1F8091AC039091AD03E80FF91FFF
:10361000EE0FFF1FEE0FFF1FE05AFE4F608171811A
:103620008281938142E050E00E94D2090E94A91059
:103630008130910509F03AC26091A8037091A90305
:103640008091AC039091AD03FB01EE0FFF1FE80FDB
:10365000F91FEE0FFF1FEE0FFF1FE05AFE4F2081F4
:103660003181428153810E94F10F8091A803909192
:10367000A9036091AC037091AD03FC01EE0FFF1F35
:10368000E60FF71FEE0FFF1FEE0FFF1FE05AFE4F72
:103690000081118122813381409152015091530167
:1036A0000E946D100E94A910892BE1F74091AC0394
:1036B0005091AD03E091A803F091A903EE0FFF1F15
:1036C000E40FF51FEE0FFF1FEE0FFF1FE05AFE4F36
:1036D00060817181828193810E94BF16663171057C
:1036E00084F4643171050CF03AC177FDBEC16530D8
:1036F000710504F1CB010A978230910508F4AAC044
:10370000B4C16A3271057CF4683271050CF091C164
:103710006E31710509F455C16032710509F0A5C11A
:103720000E949A12A2C16A32710509F09EC10E94DC
:10373000E3109BC17093A9036093A803CB010E947F
:10374000D40A0091A8031091A903B8018091AC0399
:103750009091AD030E94AA0FA8010E94D10300918D
:10376000A8031091A903E090AC03F090AD03892B5E
:10377000A1F0B801C7010E94AA0F000F111F0E0D82
:103780001F1DF801EE0FFF1FEE0FFF1FE05AFE4F47
:1037900060837183828393831BC0F801EE0FFF1F48
:1037A000EE0DFF1DEE0FFF1FEE0FFF1FE05AFE4F45
:1037B000000F111F000F111FD801AC5CBE4F8D917F
:1037C0009D910D90BC91A02D80839183A283B383A2
:1037D000E091A803F091A903EE0FFF1F8091AC03C5
:1037E0009091AD03E80FF91FEE0FFF1FEE0FFF1FC3
:1037F000E05AFE4FA0915201B0915301AA0FBB1F96
:10380000AA0FBB1FAC5ABE4F4081518162817381A8
:103810008D919D910D90BC91A02D8A019B01080F67
:10382000191F2A1F3B1FC901B8010E946203609142
:10383000A80380E090E00E943123E091A803F0917A
:10384000A903EE0FFF1FE857FC4F808191810E9472
:10385000410C0BC19093AD038093AC0360E070E02A
:103860000E94150BE090A803F090A9030091AC030F
:103870001091AD03B701C8010E94AA0FEE0CFF1C06
:10388000E00EF11EF701EE0FFF1FEE0FFF1FE05AD3
:10389000FE4F60837183828393830091A80310910C
:1038A000A9032091AC033091AD036801CC0CDD1C61
:1038B0007601E20EF31EC701880F991F880F991F2A
:1038C000AC01405A5E4F7A01FA01608171818281B8
:1038D0009381A8012B833C830E94D1032B813C81DF
:1038E000892B81F4000F111F000F111FF801EC5CF0
:1038F000FE4F80819181A281B381F7018083918302
:10390000A283B383F601E20FF31FEE0FFF1FEE0F4A
:10391000FF1FE05AFE4FA0915201B0915301AA0F30
:10392000BB1FAA0FBB1FAC5ABE4F408151816281A1
:1039300073818D919D910D90BC91A02D8A019B0169
:10394000080F191F2A1F3B1FC901B8010E946203FB
:103950006091AC0385E090E00E94312386C0645101
:1039600071097093530160935201A091A803B09123
:10397000A903AA0FBB1F8091AC039091AD03A80FC0
:10398000B91FAA0FBB1FAA0FBB1FA05ABE4F660FBD
:10399000771F660F771FFB01EC5AFE4F4D915D912B
:1039A0006D917C9180819181A281B3818A019B017B
:1039B000080F191F2A1F3B1FC901B8010E9462038B
:1039C0004EC00E9444116B017C010091A80310912C
:1039D000A903A8010E94D103892B09F446C0000F56
:1039E000111F8091AC039091AD03080F191FF801CE
:1039F000EE0FFF1FEE0FFF1FE05AFE4FC082D18275
:103A0000E282F382E0915201F0915301EE0FFF1F29
:103A1000EE0FFF1FEC5AFE4F80819181A281B3818E
:103A2000BC01CD016C0D7D1D8E1D9F1D0E9462038A
:103A30001CC08B0108521109C8010E949B17161661
:103A40001706180619068CF4000F111F000F111F1E
:103A5000F801EC5AFE4F60837183828393838091D7
:103A60005201909153010E945E054091A80350912C
:103A7000A9030091AC031091AD0320915201309144
:103A80005301FA01EE0FFF1FE00FF11FEE0FFF1FB2
:103A9000EE0FFF1FE05AFE4F60817181828193819A
:103AA000C12CD12C71010E94B10D0CC18230910545
:103AB00031F50E94A910892BE1F78091A80390911C
:103AC000A9036091AC037091AD03FC01EE0FFF1FE1
:103AD000E60FF71FEE0FFF1FEE0FFF1FE05AFE4F1E
:103AE0000081118122813381409152015091530113
:103AF0000E946D1084E793E00E94F80BE3C08330CE
:103B0000910539F40E94A910892BE1F70E94E31076
:103B1000D9C0049709F0D6C00E94A910892BE1F7FB
:103B20008091A8039091A9038430910534F4019603
:103B30009093A9038093A80304C01092A903109244
:103B4000A80360E070E08091A8039091A9030E940F
:103B5000340A8091A8039091A9030E94D40A80E0BE
:103B600090E0E091A603F091A703E80FF91F1082FF
:103B7000019680319105A9F7E090A803F090A90380
:103B80000091AC031091AD03B701C8010E94AA0FC8
:103B9000EE0CFF1CE00EF11EF701EE0FFF1FEE0F03
:103BA000FF1FE05AFE4F60837183828393830091ED
:103BB000A8031091A9032091AC033091AD036801D3
:103BC000CC0CDD1C7601E20EF31EC701880F991F95
:103BD000880F991FAC01405A5E4F7A01FA0160814B
:103BE000718182819381A8012B833C830E94D10340
:103BF0002B813C81892B81F4000F111F000F111FB5
:103C0000F801EC5CFE4F80819181A281B381F701C4
:103C100080839183A283B383F601E20FF31FEE0F3B
:103C2000FF1FEE0FFF1FE05AFE4FA0915201B0910F
:103C30005301AA0FBB1FAA0FBB1FAC5ABE4F408136
:103C40005181628173818D919D910D90BC91A02DC8
:103C50008A019B01080F191F2A1F3B1FC901B801C8
:103C60000E94620382E090E00E941408E091A803A1
:103C7000F091A903EE0FFF1F8091AC039091AD036B
:103C8000E80FF91FEE0FFF1FEE0FFF1FE05AFE4F68
:103C9000608171818281938142E050E00E94D2096B
:103CA0006091A80380E090E00E943123E091A80396
:103CB000F091A903EE0FFF1FE857FC4F808191811F
:103CC0000E94410C40919E0350919F036091A0037C
:103CD0007091A103D301C201C296A11DB11D841729
:103CE0009507A607B707DCF586E090E00E94D50EA1
:103CF000BC01990F880B990B0E947E2020E030E0D8
:103D000040EA50E40E940A2120E030E040E85AE313
:103D10000E940A2120E030E040EC50E40E940A2199
:103D200020E030E040E251E40E940A210E94462057
:103D30006B017C011B0129813A816217730719F01D
:103D4000CB010E94580B0E94460F40909E0350905A
:103D50009F036090A0037090A103DA82C982409112
:103D60009E0350919F036091A0037091A1038091E5
:103D7000820390918303A0918403B09185038417FB
:103D80009507A607B7070CF04DC087E090E00E94AA
:103D9000D50E893E934074F04D815E81452B51F4E0
:103DA00081E090E00E94860D0E94300881E090E062
:103DB0009E838D8387E090E00E94D50E893E9340DC
:103DC0005CF40D811E81012B59F00E94510880E0A6
:103DD00090E00E94CD0B04C02D813E81232B39F44D
:103DE0000E94F30E0E94AB0C1E821D820BC082E06B
:103DF00090E00E94D50E26E0959587952A95E1F7EB
:103E00000E94AB0C80919E0390919F03A091A00310
:103E1000B091A1038093820390938303A0938403C2
:103E2000B093850340919E0350919F036091A0033E
:103E30007091A103D501C4014496A11DB11D841741
:103E40009507A607B70754F40E94480D80909E037B
:103E500090909F03A090A003B090A10380919A033B
:103E600090919B03A0919C03B0919D03CC96A11DC2
:103E7000B11D40919E0350919F036091A0037091EA
:103E8000A10384179507A607B7070CF00CCB809108
:103E9000860390918703892B09F405CB83E693E091
:103EA0000E94F80B80919E0390919F03A091A00324
:103EB000B091A10380939A0390939B03A0939C03DA
:103EC000B0939D031092870310928603ECCA50585A
:103ED000BB27AA270E947F1F0C94D0200E94C220DB
:103EE00038F00E94C92020F039F49F3F19F426F4DD
:103EF0000C94BF200EF4E095E7FB0C94B920E92F59
:103F00000E94E12058F3BA176207730784079507E8
:103F100020F079F4A6F50C9403210EF4E0950B2E15
:103F2000BA2FA02D0B01B90190010C01CA01A0010B
:103F30001124FF27591B99F0593F50F4503E68F166
:103F40001A16F040A22F232F342F4427585FF3CFA7
:103F5000469537952795A795F0405395C9F77EF478
:103F60001F16BA0B620B730B840BBAF09150A1F0C1
:103F7000FF0FBB1F661F771F881FC2F70EC0BA0F47
:103F8000621F731F841F48F4879577956795B795CF
:103F9000F7959E3F08F0B0CF9395880F08F09927CA
:103FA000EE0F9795879508950E94E81F0C94D020F6
:103FB0000E94C92058F00E94C22040F029F45F3FBF
:103FC00029F00C94B92051110C9404210C94BF20B9
:103FD0000E94E12068F39923B1F3552391F3951BD7
:103FE000550BBB27AA2762177307840738F09F5F1A
:103FF0005F4F220F331F441FAA1FA9F335D00E2E87
:104000003AF0E0E832D091505040E695001CCAF7F3
:104010002BD0FE2F29D0660F771F881FBB1F2617B6
:1040200037074807AB07B0E809F0BB0B802DBF018D
:10403000FF2793585F4F3AF09E3F510578F00C945C
:10404000B9200C9404215F3FE4F3983ED4F38695A5
:1040500077956795B795F7959F5FC9F7880F911D7D
:104060009695879597F90895E1E0660F771F881F69
:10407000BB1F621773078407BA0720F0621B730B1C
:10408000840BBA0BEE1F88F7E09508950E944D202F
:104090006894B1110C94042108950E94E92088F0DD
:1040A0009F5798F0B92F9927B751B0F0E1F0660FFC
:1040B000771F881F991F1AF0BA95C9F714C0B1303D
:1040C00091F00E940321B1E008950C940321672F21
:1040D000782F8827B85F39F0B93FCCF3869577956C
:1040E0006795B395D9F73EF4909580957095619555
:1040F0007F4F8F4F9F4F0895E89409C097FB3EF480
:1041000090958095709561957F4F8F4F9F4F992324
:10411000A9F0F92F96E9BB279395F69587957795A2
:104120006795B795F111F8CFFAF4BB0F11F460FF62
:104130001BC06F5F7F4F8F4F9F4F16C0882311F0BA
:1041400096E911C0772321F09EE8872F762F05C0CE
:10415000662371F096E8862F70E060E02AF09A9569
:10416000660F771F881FDAF7880F9695879597F95E
:10417000089597F99F6780E870E060E008959FEFE9
:1041800080EC089500240A941616170618060906EE
:10419000089500240A9412161306140605060895BD
:1041A000092E0394000C11F4882352F0BB0F40F445
:1041B000BF2B11F460FF04C06F5F7F4F8F4F9F4F85
:1041C000089557FD9058440F551F59F05F3F71F007
:1041D0004795880F97FB991F61F09F3F79F087956E
:1041E0000895121613061406551FF2CF4695F1DFF7
:1041F00008C0161617061806991FF1CF8695710587
:10420000610508940895E894BB2766277727CB01BA
:1042100097F908950E941D210C94D0200E94C2207D
:1042200038F00E94C92020F0952311F00C94B92099
:104230000C94BF2011240C9404210E94E12070F3FF
:10424000959FC1F3950F50E0551F629FF001729F3B
:10425000BB27F00DB11D639FAA27F00DB11DAA1F4A
:10426000649F6627B00DA11D661F829F2227B00D97
:10427000A11D621F739FB00DA11D621F839FA00D22
:10428000611D221F749F3327A00D611D231F849F72
:10429000600D211D822F762F6A2F11249F575040C9
:1042A0009AF0F1F088234AF0EE0FFF1FBB1F661F44
:1042B000771F881F91505040A9F79E3F510580F00D
:1042C0000C94B9200C9404215F3FE4F3983ED4F39E
:1042D000869577956795B795F795E7959F5FC1F7B1
:1042E000FE2B880F911D9695879597F90895DB0110
:1042F0008F939F930E94C821BF91AF91A29F800D81
:10430000911DA39F900DB29F900D11240895A1E2DD
:104310001A2EAA1BBB1BFD010DC0AA1FBB1FEE1F3F
:10432000FF1FA217B307E407F50720F0A21BB30B8A
:10433000E40BF50B661F771F881F991F1A9469F706
:1043400060957095809590959B01AC01BD01CF0162
:104350000895052E97FB1EF400940E94C02157FD7E
:1043600007D00E94872107FC03D04EF40C94C02193
:1043700050954095309521953F4F4F4F5F4F089591
:1043800090958095709561957F4F8F4F9F4F0895C1
:104390000E94DB21A59F900DB49F900DA49F800DDE
:1043A000911D11240895B7FF0C94C8210E94C821C3
:1043B000821B930B0895A29FB001B39FC001A39FDE
:1043C000700D811D1124911DB29F700D811D11244E
:1043D000911D0895CF93DF938230910510F482E010
:1043E00090E0E091B003F091B10320E030E0C0E054
:1043F000D0E0309711F14081518148175907C0F042
:104400004817590761F482819381209719F09B83A3
:104410008A832BC09093B1038093B00326C02115EB
:10442000310519F04217530718F49A01BE01DF0154
:10443000EF010280F381E02DDCCF2115310509F178
:10444000281B390B2430310590F412968D919C91E4
:1044500013976115710521F0FB019383828304C0DA
:104460009093B1038093B003FD01329644C0FD01E7
:10447000E20FF31F81939193225031092D933C93C6
:104480003AC02091AE033091AF03232B41F4209129
:104490008A0130918B013093AF032093AE032091BA
:1044A0008801309189012115310541F42DB73EB7BE
:1044B00040918C0150918D01241B350BE091AE038E
:1044C000F091AF03E217F307A0F42E1B3F0B281760
:1044D000390778F0AC014E5F5F4F2417350748F07D
:1044E0004E0F5F1F5093AF034093AE0381939193A0
:1044F00002C0E0E0F0E0CF01DF91CF9108950F938B
:104500001F93CF93DF93009709F48CC0FC0132977F
:10451000138212820091B0031091B10301151105AD
:1045200081F420813181820F931F2091AE0330915D
:10453000AF032817390779F5F093AF03E093AE0383
:1045400071C0D80140E050E0AE17BF0750F412969A
:104550002D913C911397AD012115310509F1D90138
:10456000F3CF9D01DA013383228360817181860F4D
:10457000971F8217930769F4EC0128813981260F70
:10458000371F2E5F3F4F318320838A819B81938326
:104590008283452B29F4F093B103E093B00342C02A
:1045A0001396FC93EE931297ED01499159919E0158
:1045B000240F351FE217F30771F480819181840F76
:1045C000951F029611969C938E93828193811396E8
:1045D0009C938E931297E0E0F0E0D80112968D91B3
:1045E0009C911397009719F0F8018C01F6CF8D91EB
:1045F0009C9198012E5F3F4F820F931F2091AE0335
:104600003091AF032817390769F4309729F41092D5
:10461000B1031092B00302C0138212821093AF0351
:104620000093AE03DF91CF911F910F910895FB018D
:10463000DC010D900020E9F7119701900D92002008
:10464000E1F70895FB01DC0101900D920020E1F7F4
:104650000895F999FECF92BD81BDF89A992780B54A
:104660000895262FF999FECF1FBA92BD81BD20BDB6
:104670000FB6F894FA9AF99A0FBE01960895F89435
:02468000FFCF6A
:10468200050004000100010002000200D0223A00ED
:1046920010046E00C01DDB0090401501207447011C
:1046A200D0403500B0A86A007078D500E0921301BE
:1046B20030484001D0B1370080A46C00A05ED80021
:1046C200202F140110DC4401000000000100010051
:1046D20001000100044F89002A5B890040548900CF
:1046E200D0B13700D0B1370080A46C0080A46C0038
:1046F200C0ACD80040E5D90000E1130170F214010A
:1047020010DC4401B06246010000B2032000F00157
:10471200F401F801FC01000227004C006700870049
:104722009D02A502AD02B502BD02C502CD021D0267
:104732001D021D02D502DD021D021D021D02E5023F
:10474200ED02F5021D021D02FD0205030D031D020D
:104752001D025C754FF6E027D7C5D99B545800530C
:10476200312033203520372039202B31306442006C
:1047720038306D0034306D0032306D0031376D00ED
:1047820031356D0056464F410056464F4200562085
:1047920000525800202020202020202020202020ED
:1047A20020202020005458205052455345543A00AE
:1047B2005458207072657365742073746F726564E7
:1047C2002E00302032202034202036202038203184
:1047D2003057005458205052455345543D20202014
:1047E20020005343414E4E494E472E2E2E00537405
:1047F2006F707065642E0057616974696E672E2E42
:104802002E005363616E6E696E672E2E2E00534327
:10481200414E205448524553482E2E2E0038306DBA
:10482200202020200034306D202020200032306DE6
:10483200202020200031376D202020200031356DCE
:10484200202020200056464F204120200056464F6F
:1048520020422020004C5342202020200055534269
:10486200202020200066302E2E6631200056464F32
:1048720020412F420054485245534820005345548A
:10488200204C534200534554205553420054582063
:104892004741494E0042414E44205345540056463A
:1048A2004F2053454C454354005349444542414EE1
:1048B20044005343414E2046554E430041444A551D
:1048C2005354004C4F20534554204D4F4445002033
:1048D200664C4F204C5342200020664C4F205553CB
:1048E2004220004D696E693520444B3749482032D9
:1048F2003032300053746F72696E67204F4B2E0056
:00000001FF
