:100000000C9413030C9430030C9430030C94440EA2
:100010000C9430030C9430030C9430030C94300394
:100020000C9430030C9430030C9430030C94950E14
:100030000C9430030C9430030C9430030C94300374
:100040000C9430030C9430030C9430030C94300364
:100050000C9430030C9430030C9430030C94300354
:100060000C9430030C9430030000000000000000EA
:100070000000000000000008080808080808000840
:1000800008000000242424240000000000000000D8
:10009000000000909048FE4824FF24121200000047
:1000A000083C0A0A0A0C182828281E0800000086A6
:1000B00049292916689494926100000000182424AC
:1000C000140C8B917163FE00000008080808000002
:1000D0000000000000000000603008080404040470
:1000E000040808306000060C10102020202020108A
:1000F000100C060000080866142C24000000000004
:100100000000000000000808087F08080800000040
:100110000000000000000000001818100800000097
:10012000000000007E000000000000000000000051
:1001300000000000001818000000402020201010CF
:1001400018080804040402000018244242424242F3
:1001500042241800000000101E1010101010101083
:10016000FE000000001E20202010100804023E00A7
:100170000000003C40404038404040403C0000000F
:10018000002030282824227E202020000000007C2F
:100190000404041C604040403C000000003804029D
:1001A000023A4642424438000000007E40202010BF
:1001B0000808080404000000003C4242221C2442BB
:1001C00042423C000000001C224242625C4040204F
:1001D0001C000000000000001818000000181800A3
:1001E0000000000000001818000000181810080097
:1001F0000000000040300806083040000000000009
:100200000000007E00007E000000000000000000F2
:10021000020C1060100C02000000003E4240201052
:100220000808000808000000003C46724949496976
:10023000DB223C00000000001018282424427E42EB
:100240008100000000003E4242221E2242423E0047
:10025000000000007C020101010101027C0000009D
:1002600000001F214141414141211F0000000000C9
:100270007E0202023E0202027E00000000007E02B8
:1002800002023E0202020200000000007C020101A4
:10029000017141427C0000000000424242427E4225
:1002A00042424200000000003E0808080808080812
:1002B0003E00000000003C202020202020201E00C6
:1002C000000000004222120A060A12224200000028
:1002D000000002020202020202027E000000000090
:1002E0006363635555554941410000000000424693
:1002F000464A4A5252624200000000001C2241411C
:10030000414141221C00000000003E424242621E68
:1003100002020200000000001C2241414141412232
:100320001C60C00000001E2222221E123222420047
:10033000000000007C020206186040403E00000001
:1003400000007F08080808080808080000000000EE
:1003500042424242424242423C000000000081428E
:100360004222241414080800000000008181C959A9
:100370005A5A6666240000000000814224181818AA
:10038000244281000000000081422214180808085D
:100390000800000000007F402010080402017F00D8
:1003A0000000780808080808080808080808780005
:1003B00002040404080818101020202040001E1019
:1003C000101010101010101010101E000010101837
:1003D0002828244442000000000000000000000023
:1003E0000000000000FF00001020000000000000DE
:1003F000000000000000000000003C40407C424241
:10040000FC000000020202023A46424242463A0022
:1004100000000000000078040202020478000000DE
:10042000404040405C62424242625C00000000008A
:1004300000003C44427E02027C0000007008080874
:100440007E080808080808000000000000007C6220
:10045000424242625C40403C020202023A46424250
:10046000424242000000181800001E101010101028
:1004700010000000303000003C20202020202020F0
:10048000201E0202020222120A061A224200000064
:100490001E1010101010101010101000000000009E
:1004A00000006D5B49494949490000000000000017
:1004B0003A464242424242000000000000001C2234
:1004C000414141221C000000000000003A46424227
:1004D00042463A020202000000005C62424242626E
:1004E0005C404040000000003A2602020202020086
:1004F0000000000000003C02061820201E00000042
:10050000000004047F0404040404780000000000D8
:1005100000004242424242625C00000000000000D3
:100520008142422214140800000000000000819162
:100530005A5A6624240000000000000042241818C3
:1005400018244200000000000000814242242418C8
:1005500018080C07000000007F20100804027F002C
:100560000000700808080808060808080808700055
:1005700010101010101010101010101010000E108D
:10058000101010106010101010100E00000000006D
:1005900000869961000000000000000000081C2295
:1005A000414141417F00000000007C020101010146
:1005B00001027C102030000000007E7E7E7E7E7E68
:1005C0007E000000101010101010101010101010ED
:1005D0001010000000000000FF00000000000000FC
:1005E000101010101010F00000000000000010109B
:1005F000101010101F00000000000000000000009C
:100600000000F0101010101010100000000000008A
:100610001F10101010101010000814080000000027
:1006200000000000000011241FBECFEFD8E0DEBFA5
:10063000CDBF13E0A0E0B1E0E8E4FFE302C0059025
:100640000D92A231B107D9F723E0A2E1B3E001C0D6
:100650001D92A434B207E1F70E9475150C94A21FF5
:100660000C9400000F931F93CF93DF93805C9F4FF8
:10067000880F991FF999FECF8C010F5F1F4F0E94C1
:100680008C1F282F30E0D22FCC27F999FECFC8013C
:100690000E948C1F9E01280F311D211580E1380713
:1006A00010F4C90102C080E098E0DF91CF911F9162
:1006B0000F910895892B11F02B9A01C02B982C9A39
:1006C0002C9808954F925F926F927F928F929F9293
:1006D000AF92BF92CF92DF92EF92FF92CF93DF93D0
:1006E0000E94F31C28E23BE64EEE5CE40E94491CAB
:1006F00020E030E040E857E40E947F1D20E030E039
:1007000040E857E40E947F1D0E94BB1C4C01BB24A3
:1007100097FCB094AB2C7401DD24CC249B01AC017C
:100720002C193D094E095F0969017A012A98C0E137
:10073000D0E0412C512C32014394C2018C219D21E7
:100740000E945A03440C551C661C771C2197A9F77C
:10075000C0E1D0E0C12CD12C7601C394C601882120
:1007600099210E945A03CC0CDD1CEE1CFF1C219722
:10077000A9F7C8E0D0E080E090E00E945A032197FA
:10078000D1F72A9ADF91CF91FF90EF90DF90CF9031
:10079000BF90AF909F908F907F906F905F904F90A1
:1007A0000895CF92DF92EF92FF920F931F93440F21
:1007B000551F440F551FFA01E45EFE4F0081118161
:1007C00022813381601771078207930794F0FA0141
:1007D000E85FFE4F31E020E0C080D180E280F3800E
:1007E000C616D706E806F9060CF430E0832F922FE0
:1007F00002C080E090E01F910F91FF90EF90DF909A
:10080000CF9008951092B9008CE08093B80084E0F6
:100810008093BC00089584EA8093BC008091BC0062
:1008200087FFFCCF089584E98093BC0008958093EE
:10083000BB0084E88093BC008091BC0087FFFCCFA4
:1008400008951F93CF93DF931F92CDB7DEB7182F74
:1008500069830E940B0480EC0E941704812F0E9480
:1008600017046981862F0E94170484E98093BC00D5
:100870000F90DF91CF911F91089562ED70E087EBAB
:1008800090E00E94210460E070E083E090E00E942C
:1008900021046FE070E080E190E00E9421046FE2AB
:1008A00070E081E190E00E9421046FE270E082E15B
:1008B00090E00E94210460EA70E081EB90E00E94E9
:1008C00021046FEF70E08AE190E00E9421046FEF55
:1008D00070E08BE190E00E94210460E070E08CE128
:1008E00090E00E94210460E170E08DE190E00E94C0
:1008F000210460E070E08EE190E00E94210460EF4E
:1009000070E08FE190E00E94210460E070E080E2FE
:1009100090E00E94210460E070E081E290E00E949B
:1009200021046FEF70E082E290E00E9421046FEFFB
:1009300070E083E290E00E94210460E070E084E2D5
:1009400090E00E94210460E170E085E290E00E9466
:10095000210460E070E086E290E00E94210460EFF4
:1009600070E087E290E00E94210460E070E088E29D
:1009700090E00E94210460E070E089E290E00C9435
:1009800021048F929F92AF92BF92CF92DF92EF920B
:10099000FF92CF93DF93EC01CB01BA010E94F31CCD
:1009A0009B01AC0164EA73E986E59EE40E94491C60
:1009B0004B015C010E94C21C6B017C010E94F11C76
:1009C0009B01AC01C501B4010E94DC1B20EF3FEF8D
:1009D0004FE759E40E947F1D0E94C21C4B015C013D
:1009E00087E0880C991CAA1CBB1C8A95D1F7C5010D
:1009F000B4012FEF3FEF4FE050E00E94FC1D97E065
:100A0000CC0CDD1CEE1CFF1C9A95D1F782E0D81AA5
:100A1000E108F108C20ED31EE41EF51E6FEF7FEF52
:100A20008FE090E00E94EC1D861A970AA80AB90A86
:100A30006FEF70E0CE010E9421046FEF70E0CE01F5
:100A400001960E942104D701C60188279927A37027
:100A5000BB27BD0188279927CE0102960E94210459
:100A60006D2D70E0CE0103960E942104B601772718
:100A7000CE0104960E942104D501C401882799273C
:100A8000AF70BB27BD01606FCE0105960E942104A7
:100A9000692D70E0CE0106960E942104B4017727EB
:100AA000CE010796DF91CF91FF90EF90DF90CF902E
:100AB000BF90AF909F908F900C942104880F991F46
:100AC000880F991FFC01E05BFE4F408151816281DC
:100AD00073818AE290E00C94C1045C9A2FEF81EE5E
:100AE00094E0215080409040E1F700C000005C9805
:100AF0002FEF81EE94E0215080409040E1F700C05C
:100B000000005C9A2FEF81EE94E0215080409040ED
:100B1000E1F700C000000895672B11F05D9A01C055
:100B20005D985B9827E030E05F98AC01022E02C030
:100B3000559547950A94E2F740FF02C05E9A01C0BE
:100B40005E985F9A2150310978F75B9A089560E0CA
:100B500070E00C948C0561E070E00C948C0581E0F1
:100B600090E00E94A7058FE19EE40197F1F700C095
:100B7000000081E190E00E94A7058FE19EE40197CB
:100B8000F1F700C000008AE390E00E94A70585E02D
:100B900090E00E94AB058FE39CE90197F1F700C05C
:100BA000000081EB90E00E94A70580E090E00E94A9
:100BB000AB0586E090E00E94AB0583E090E00E94E8
:100BC000AB058FE99FE00197F1F700C0000086E3D5
:100BD00090E00E94A70588EC90E00E94AB0586EBB0
:100BE00090E00E94A70585E190E00E94AB0582E0BD
:100BF00090E00E94AB0584EB90E00E94A70580E0A6
:100C000090E00E94AB0580EE90E00E94A70589E08D
:100C100090E00E94AB0586E190E00E94AB0589E080
:100C200090E00E94AB0580E290E00E94AB0581E27B
:100C300090E00E94AB058BE190E00E94AB0583E160
:100C400090E00E94AB0589E190E00E94AB0587E14E
:100C500090E00E94AB0585E190E00E94AB058EE13B
:100C600090E00E94AB058BE290E00E94AB0584E02F
:100C700090E00E94AB0585E090E00E94AB0582E029
:100C800090E00E94AB058EE090E00E94AB0581EE03
:100C900090E00E94A7058BE090E00E94AB0584E104
:100CA00090E00E94AB0588E090E00E94AB058EE1E9
:100CB00090E00E94AB0582E290E00E94AB058DE1DE
:100CC00090E00E94AB0588E190E00E94AB058EE1C8
:100CD00090E00E94AB058BE190E00E94AB058AE1B9
:100CE00090E00E94AB0584E290E00E94AB058BE2AD
:100CF00090E00E94AB0586E090E00E94AB0586E0A4
:100D000090E00E94AB0582E090E00E94AB058FE08E
:100D100090E00E94AB058FE39CE90197F1F700C0DA
:100D2000000083E190E00E94A7058FE39CE9019712
:100D3000F1F700C0000089E290E00C94A705CF9283
:100D4000DF92EF92FF920F931F93CF93DF936C018B
:100D50008B017A01E9018AE290E00E94A70580E018
:100D600090E00E94AB05C6010E94AB0580E090E0D8
:100D70000E94AB05C7010E94AB058BE290E00E9488
:100D8000A70580E090E00E94AB05C8010E94AB057A
:100D900080E090E00E94AB05CE01DF91CF911F91E2
:100DA0000F91FF90EF90DF90CF900C94AB05CF9315
:100DB000DF93D42FC52F9B01AC010E949F068CE2CC
:100DC00090E00E94A7058C2F90E00E94AB058D2F2C
:100DD0009C2FDF91CF910C94AB05EF92FF920F9374
:100DE0001F93CF93DF937C0124E830E044E850E088
:100DF00060E070E080E090E00E949F068CE290E06E
:100E00000E94A70505E810E0C5E8D0E08F2D90E02E
:100E10000E94AB05C7010E94AB052197B9F70150AD
:100E2000110991F7DF91CF911F910F91FF90EF90F2
:100E300008952F923F924F925F926F927F928F927E
:100E40009F92AF92BF92CF92DF92EF92FF920F9359
:100E50001F93CF93DF9300D000D0CDB7DEB7242E01
:100E600039014EE04C9D90014D9D300D1124260F0F
:100E7000371FA701E3E0440F551FEA95E1F7480F3C
:100E8000591F4F5F5F4F6E5F7F4F02960E949F0614
:100E90008CE290E00E94A7052EE0229E1001112412
:100EA0004DE050E033EB231A31E0330AC101841BDB
:100EB000950B9C0128593F4F3A832983812C912C13
:100EC0008C149D040CF03FC0A12CB12CE981FA8157
:100ED000849190E00A2C02C0959587950A94E2F7D8
:100EE000412C512C80FF1DC04E145F047CF4872DD3
:100EF00090E04B835C830E94AB05C3010E94AB056D
:100F0000FFEF4F1A5F0A4B815C81EECF2FEFA21AE1
:100F1000B20A38E0A316B104C9F6EFEF8E1A9E0AA2
:100F2000CFCF4E145F0494F7812F90E04B835C8306
:100F30000E94AB05C8010E94AB058FEF481A580A02
:100F40005C814B81EECF4150510909F0AFCF0F903A
:100F50000F900F900F90DF91CF911F910F91FF9005
:100F6000EF90DF90CF90BF90AF909F908F907F9049
:100F70006F905F904F903F902F9008952F923F92E7
:100F80004F925F926F927F928F929F92AF92BF9299
:100F9000CF92DF92EF92FF920F931F93CF93DF9345
:100FA00000D000D000D0CDB7DEB77C836B831901B1
:100FB00028015701360149835A83470123E0880CF1
:100FC000991C2A95E1F79E838D83E981FA814191ED
:100FD000FA83E983442379F0630175018201910169
:100FE0006B817C818D819E810E9419078D819E81FC
:100FF000880D991DE8CF26960FB6F894DEBF0FBE78
:10100000CDBFDF91CF911F910F91FF90EF90DF90B7
:10101000CF90BF90AF909F908F907F906F905F9098
:101020004F903F902F900895CF92DF92EF92FF92D2
:101030000F931F9320913C0330913D036C017C0181
:1010400089014FE052E060E370E080E090E00E94B0
:10105000BE071F910F91FF90EF90DF90CF90089502
:10106000CF92DF92EF92FF920F931F9320913C0358
:1010700030913D03CC24C394D12CEE24E394F12C85
:1010800002E818EE4EEC51E060E070E088E690E097
:101090000E94BE071F910F91FF90EF90DF90CF90BD
:1010A0000895CF92DF92EF92FF920F931F930091DA
:1010B0003C0310913D03CC24C394D12CEE24E39443
:1010C000F12C20EE37E241ED51E062E670E080E085
:1010D00090E00E94BE071F910F91FF90EF90DF906C
:1010E000CF900895CF92DF92EF92FF920F931F93CC
:1010F0009B012D5F3F4F4EE0429FB001439F700D1B
:101100001124CC24C394D12CEE24E394F12C02E5D9
:1011100017EF23E73AE0AC0188E290E00E94BE07B7
:101120001F910F91FF90EF90DF90CF9008952F9235
:101130003F924F925F926F927F928F929F92AF9267
:10114000BF92CF92DF92EF92FF920F931F93CF93B4
:10115000DF9300D000D000D0CDB7DEB76B017C01AB
:101160005C834B833E832D83611571058105910559
:1011700039F480E3F9018083118281E090E090C02E
:1011800097FF0DC0F094E094D094C094C11CD11C82
:10119000E11CF11C21E030E03A83298302C01A826D
:1011A00019828D819E810C96ED81FE811192E81746
:1011B000F907E1F709E010E0212C312C812C8AECB1
:1011C000982E8AE9A82E8BE3B82E9AE0492E512C4E
:1011D000612C712CC701B601A50194010E941E1E4D
:1011E000E22FA22FB32FA50194010E94481EC61A18
:1011F000D70AE80AF90AD1011996A01BB10B4D8153
:101200005E81A40FB51FE05DEC93C501B401A3019D
:1012100092010E941E1E49015A018B819C81081770
:10122000190779F40115110561F09FEF291A390AA0
:10123000F101E01BF10B2D813E81E20FF31F3EE235
:1012400031870150110930F6ED81FE8130E2CF0186
:101250004D815E81841B950B2081203311F43193E5
:10126000F6CFE981FA81EF2B31F00197FA01E80F0F
:10127000F91F2DE22083ED81FE819F014D815E816A
:10128000241B350BDF01A80FB91F4C91442311F02B
:101290004193F3CFED81FE81E20FF31F1082C9016C
:1012A00026960FB6F894DEBF0FBECDBFDF91CF916B
:1012B0001F910F91FF90EF90DF90CF90BF90AF9074
:1012C0009F908F907F906F905F904F903F902F9066
:1012D0000895FC019F01281B390B41914111FACF60
:1012E000C90108952F923F924F925F926F927F9221
:1012F0008F929F92AF92BF92CF92DF92EF92FF9226
:101300000F931F93CF93DF93CDB7DEB728970FB618
:10131000F894DEBF0FBECDBF3C012B0129833A8379
:101320004B835C831801FE82ED82D886CF827501E3
:10133000640180E190E00E945F1E5C010097F9F07B
:1013400000E110E09C01A10169817A818B819C817F
:101350000E9497080F8118852D813E81A501B20159
:10136000C3010E94BE07F50101900020E9F7319703
:101370007F01EA18FB08C5010E94F41E02C0E12C9F
:10138000F12CC70128960FB6F894DEBF0FBECDBF73
:10139000DF91CF911F910F91FF90EF90DF90CF9051
:1013A000BF90AF909F908F907F906F905F904F9085
:1013B0003F902F9008958F929F92AF92BF92CF92BD
:1013C000DF92EF92FF920F931F93CF93DF93EC0185
:1013D0000E940B0482EC0E94170480E40E94170410
:1013E000CE0124E0959587952A95E1F70E94170490
:1013F0008C2F8F700E94170484E98093BC00C090EA
:101400003C03D0903D039E01DD0F440B550B882417
:101410008394912CAA24A394B12CE2E5EE2EE7EF5D
:10142000FE2E0FEF1FEF60E770E080E590E00E9476
:101430007209DF91CF911F910F91FF90EF90DF9094
:10144000CF90BF90AF909F908F9008958F929F9272
:10145000AF92BF92CF92DF92EF92FF920F931F93C2
:10146000CF93DF93603826E9720728E98207910558
:10147000A4F4611571058105910591F4CA01DF910C
:10148000CF911F910F91FF90EF90DF90CF90BF9081
:10149000AF909F908F900C941408CBE0D0E002C0E6
:1014A000CBE1D0E05A01C0903C03D0903D034130E5
:1014B000510579F488248394912CAA24A394B12C07
:1014C00042E5E42E47EFF42E03E010E09B01AC016F
:1014D0000DC024E630E040E050E00E941E1E4501B1
:1014E00082E5E82E87EFF82E01E010E060E370E07F
:1014F000CE010E947209DF91CF911F910F91FF9051
:10150000EF90DF90CF90BF90AF909F908F90089515
:10151000CF92DF92EF92FF920F931F93CF93DF93BF
:10152000CDB7DEB72A970FB6F894DEBF0FBECDBF9A
:101530002AE0EAE8F1E0DE01119601900D922A9589
:10154000E1F7AC01440F551F059730F4FA01EC5355
:10155000FE4F8081918102C08FEF9FEF20913C036D
:1015600030913D03E1E0F0E0EC0FFD1FE40FF51FCB
:1015700040815181CC24C394D12CEE24E394F12CEE
:10158000672B11F08C0102C089019C0160E070E0C2
:1015900080E090E00E94BE072A960FB6F894DEBF66
:1015A0000FBECDBFDF91CF911F910F91FF90EF90B4
:1015B000DF90CF900895CF92DF92EF92FF920F933A
:1015C0001F93CF93DF9300D000D000D0CDB7DEB70C
:1015D000FE01319626E0DF011D922A95E9F725E903
:1015E00032E03A8329832DE932E03C832B8320913A
:1015F0003C0330913D03880F991FE80FF91F40818C
:101600005181CC24C394D12CEE24E394F12C672B8C
:1016100039F00CE515E760E070E080EC90E007C081
:1016200089012CE535E760E070E080E290E00E94FF
:10163000BE0726960FB6F894DEBF0FBECDBFDF9172
:10164000CF911F910F91FF90EF90DF90CF90089571
:10165000CF93DF93589859985A9897FD37C020E058
:1016600030E0E1E0F0E0AC01022E02C05595479574
:101670000A94E2F740FF09C06BB1AF01022E01C02E
:10168000440F0A94EAF7462B0AC05BB1BF01022E51
:1016900001C0660F0A94EAF7462F409545234BB9DF
:1016A0002F5F3F4F23303105F1F6EC01CC0FDD1FEA
:1016B000CC5BDE4F888199810E945E0560E070E01E
:1016C00088819981DF91CF910C94DB0ADF91CF91D2
:1016D0000895CF92DF92EF92FF920F931F93CF93D3
:1016E000DF9300D000D0CDB7DEB726EF31E03A83EC
:1016F00029832BEF31E03C832B8320913C033091F5
:101700003D03880F991FE1E0F0E0EC0FFD1FE80FAB
:10171000F91F40815181CC24C394D12CEE24E39451
:10172000F12C672B19F006E417EE03C0890126E4BB
:1017300037EE60E070E080E490E00E94BE070F901A
:101740000F900F900F90DF91CF911F910F91FF900D
:10175000EF90DF90CF9008958F929F92AF92BF92BB
:10176000CF92DF92EF92FF920F931F93CF93DF936D
:101770007C0180E190E00E945F1EEC01FC0140963C
:101780001192E817F907E1F706E010E09E0141E049
:1017900050E0B7010F2C000C880B990B0E949708A2
:1017A0004C0163E0880C991C6A95E1F78AE0E81621
:1017B000F10429F452E8A52E58EEB52E04C047EAEC
:1017C000A42E41EBB42EC7010B97029748F08DE091
:1017D000E816F1044CF030EEA32E37E2B32E04C02D
:1017E00025E0A22E25E6B22E00913C0310913D0388
:1017F000CC24C394D12CEE24E394F12C9501AE01BA
:101800006EE070E080E090E00E94BE0700913C0333
:1018100010913D03950140E052E06EE070E0C4019C
:101820000E94BE07CE01DF91CF911F910F91FF90D3
:10183000EF90DF90CF90BF90AF909F908F900C94DF
:10184000F41ECF92DF92EF92FF920F931F93892B9A
:1018500041F01F910F91FF90EF90DF90CF900C948B
:10186000300800913C0310913D03CC24C394D12C4B
:10187000EE24E394F12C20EE37E243E052E060E006
:1018800070E088E690E00E94BE071F910F91FF90E4
:10189000EF90DF90CF900895CF92DF92EF92FF927A
:1018A0000F931F93CF93DF93EC0100913C031091B2
:1018B0003D03CC24C394D12CEE24E394F12C2FEFE0
:1018C0003FEF46E052E060E770E080E090E00E9489
:1018D000BE0700913C0310913D032FEF3FEFAE0197
:1018E00060E770E080E090E00E94BE0780913003E6
:1018F00090913103A0913203B091330380932C0374
:1019000090932D03A0932E03B0932F0381E090E0DA
:101910009093190380931803DF91CF911F910F913A
:10192000FF90EF90DF90CF9008951F93CF93DF93B8
:10193000182F9B01205C3F4F220F331FF999FECFD8
:10194000E9012196692F6F70C9010E94941FF999CE
:10195000FECF612FCE010E94941F87E192E0DF91BC
:10196000CF911F910C944C0C6F927F928F929F920B
:10197000AF92BF92CF92DF92EF92FF920F931F939D
:10198000CF93DF93EC01419714F0C0E1D0E04E011A
:1019900073E0880C991C7A95E1F75E01209126038B
:1019A0003091270321503109A216B306CCF40091DF
:1019B0003C0310913D03CC24C394D12CEE24E3943A
:1019C000F12C20EE37E240E264E570E0C4010E94B1
:1019D00019078FEFA81AB80A88E0880E911CDECF8D
:1019E000612C712C40EE842E47E2942EA12CB12C58
:1019F000AC16BD064CF588E0A816B1046CF08BE07F
:101A0000A816B1042CF432E5832E37EF932E04C0D0
:101A100022E8822E28EE922E00913C0310913D0385
:101A2000CC24C394D12CEE24E394F12C940141E80E
:101A300064E570E0C3010E9419078FEFA81AB80A85
:101A400088E0680E711CD4CF809126039091270303
:101A50008C179D07A4F4D0932703C093260380918D
:101A6000300390913103A0913203B09133038093FE
:101A7000140390931503A0931603B0931703D09308
:101A80001303C0931203DF91CF911F910F91FF9029
:101A9000EF90DF90CF90BF90AF909F908F907F900E
:101AA0006F900895AF92BF92CF92DF92EF92FF9224
:101AB0000F931F93CF93DF93C0912603D0912703F9
:101AC00021975E0123E0AA0CBB1C2A95E1F7C031E7
:101AD000D105BCF400913C0310913D03CC24C39488
:101AE000D12CEE24E394F12C20EE37E240E264E5C1
:101AF00070E0C5010E941907219688E0A80EB11C6C
:101B0000E6CF1092270310922603DF91CF911F9109
:101B10000F91FF90EF90DF90CF90BF90AF9008951E
:101B2000CF92DF92EF92FF920F931F93892B41F494
:101B30001F910F91FF90EF90DF90CF900C94510880
:101B400000913C0310913D03CC24C394D12CEE248E
:101B5000E394F12C22E537EF49E252E062E670E0CF
:101B600080E090E00E94BE071F910F91FF90EF90E0
:101B7000DF90CF9008952F923F924F925F926F9295
:101B80007F928F929F92AF92BF92CF92DF92EF920D
:101B9000FF920F931F93CF93DF9300D000D000D01C
:101BA000CDB7DEB72B013C014A0159011A830983E5
:101BB0001701DC82CB8280913C0390913D030E940F
:101BC000ED061E821D8200913C0310913D03CC2442
:101BD000C394D12CEE24E394F12C26E437EE43E8B1
:101BE00064E270E08D819E810E94190700913C03A0
:101BF00010913D0326E437EE43E86AE470E08D81FE
:101C00009E810E9419078D819E8108969E838D83F7
:101C100080389105C1F642E050E0C301B2010E9454
:101C2000260A60E070E0C4010E94880A60E070E06B
:101C3000C5010E94DB0A60E070E089819A810E9400
:101C4000690BC1010E94AC0B80E090E00E94210C66
:101C50008B819C8126960FB6F894DEBF0FBECDBF58
:101C6000DF91CF911F910F91FF90EF90DF90CF9078
:101C7000BF90AF909F908F907F906F905F904F90AC
:101C80003F902F900C94900D1F920F920FB60F92D1
:101C900011242F933F934F935F938F939F93AF9311
:101CA000BF9383B1837090E09C013595279582277F
:101CB000932720913603309137038217930739F128
:101CC000281B390B237033272250310940913403EC
:101CD00050913503240F351F30933503209334037F
:101CE00090933703809336038091280390912903C2
:101CF000A0912A03B0912B030196A11DB11D8093E1
:101D0000280390932903A0932A03B0932B03D89A16
:101D1000BF91AF919F918F915F914F913F912F9183
:101D20000F900FBE0F901F9018951F920F920FB635
:101D30000F9211248F939F93AF93BF9380913003A1
:101D400090913103A0913203B09133030196A11D0C
:101D5000B11D8093300390933103A0933203B0936D
:101D60003303109228031092290310922A03109231
:101D70002B03BF91AF919F918F910F900FBE0F904A
:101D80001F9018950F931F9340912803509129039A
:101D900060912A0370912B038A019B0182E03595A3
:101DA0002795179507958A95D1F7049FC001059F40
:101DB000900D149F900D11241F910F910895805C38
:101DC00080937C008FE99FE00197F1F700C000004D
:101DD000EAE7F0E08081806480838FE99FE00197EB
:101DE000F1F700C00000209178008091790090E028
:101DF000982F8827820F911D089581E090E00E941E
:101E0000DF0E885691408A30910514F48AE090E004
:101E10009595879595958795089583E090E00E9424
:101E2000DF0E25E0AC01249FC001259F900D1124F9
:101E3000BC01990F880B990B0E94F31C20E030EC39
:101E40004FE754E40E94491C9B01AC0160E070E044
:101E500080EA90E40E94491C20E030E040E85FE323
:101E60000E94DC1B9B01AC0160E070E08AE794E417
:101E70000E94491C20E030EC4BE454E40E94DC1B3F
:101E800023EC35EF4CE051E40E94491C0E94BB1C3E
:101E9000CB0108958F929F92AF92BF92CF92DF9223
:101EA000EF92FF920F931F93CF93DF930E940D0F3A
:101EB0008932910534F08D33910534F4C2E5D7EFC2
:101EC00005C0C0EED7E202C0C2E8D8EEC0903C0325
:101ED000D0903D039C01990F440B550B88248394AB
:101EE000912CAA24A394B12C7E010FEF1FEF6EE07A
:101EF00070E088E590E00E9472090B965C0123E097
:101F0000AA0CBB1C2A95E1F700913C0310913D03FC
:101F1000CC24C394D12CEE24E394F12C9E0148E808
:101F20006EE070E0C5010E94190700913C0310911A
:101F30003D039E0143E46EE070E0C50108960E94F7
:101F40001907DF91CF911F910F91FF90EF90DF90D4
:101F5000CF90BF90AF909F908F900895FF920F9376
:101F60001F93CF93DF93660F771F860F971FEC01A8
:101F70006096CC0FDD1FCC0FDD1FF894CE010E94C0
:101F80008C1FF82ECE0101960E948C1F082FCE01C7
:101F900002960E948C1F182FCE0103960E948C1F60
:101FA000482F78948F2D90E0A0E0B0E0BA2FA92FB1
:101FB000982F8827800F911DA11DB11DDC01992745
:101FC0008827212F30E0322F2227820F931FA11D57
:101FD000B11DBC01CD01640F711D811D911DDF91EB
:101FE000CF911F910F91FF9008954F925F926F9242
:101FF0007F928F929F92AF92BF92CF92DF92EF9299
:10200000FF92CF93DF93EB01CC0FDD1F8C0F9D1F51
:10201000EC016096CC0FDD1FCC0FDD1FF8944A0158
:10202000BB2497FCB094AB2CD40199278827690175
:102030007A01C81AD90AEA0AFB0A652F992767FDAF
:102040009095792F892F4D2C5E2C6F2C772467FC6F
:102050007A94F999FECFCE010E94941FF999FECF90
:10206000682DCE0101960E94941FF999FECF642D30
:10207000CE0102960E94941FF999FECF6C2DCE01DD
:1020800003960E94941F7894DF91CF91FF90EF9078
:10209000DF90CF90BF90AF909F908F907F906F9088
:1020A0005F904F90089507960E948C1F282F30E074
:1020B000823010F4C90108958FEF9FEF08950796BD
:1020C000F999FECF0C94941F80E090E00E948C1F41
:1020D000282F30E0853010F4C90108958FEF9FEF6D
:1020E0000895BF92CF92DF92EF92FF920F931F93CA
:1020F000CF93DF9300D000D0CDB7DEB7C82EB92E76
:102100007B01D42EA9019801682F80E090E02983FB
:102110003A834B835C830E94941FB7018C2D9B2DC7
:102120000E945F106D2D86E090E00E94941F29812F
:102130003A814B815C816C2D7B2DC7010F900F90F4
:102140000F900F90DF91CF911F910F91FF90EF9023
:10215000DF90CF90BF900C94F50FCF93DF93CDB766
:10216000DEB728970FB6F894DEBF0FBECDBF88E06C
:10217000E4E9F1E0DE01119601900D928A95E1F714
:1021800080E090E00E94DF0EFE01319620E030E01A
:1021900041915191BA01695071092F5F3F4F8617E4
:1021A00097073CF0475F5F4F4817590714F0C90184
:1021B00005C02430310561F780E090E028960FB625
:1021C000F894DEBF0FBECDBFDF91CF910895CF93BE
:1021D000DF93E0913A03F0913B03EE0FFF1FE65EC1
:1021E000FC4FC081D1818AE392E00E944C0CCE0169
:1021F0000E94DB090E94AD10892BE1F70E94AD100F
:10220000009769F5809134039091350318161906EB
:1022100084F4CF3F8FE0D8071CF4CC59DF4F02C0C5
:10222000CFEFDFE01092350310923403CE010E940D
:10223000DB09809134039091350397FFDFCF1C16A3
:102240001D061CF4C456D10902C0C0E0D0E01092B3
:10225000350310923403CE010E94DB09CFCF0297E1
:1022600081F460913A0370913B03FB01EE0FFF1F75
:10227000E65EFC4FD183C083CE01DF91CF910C94F9
:10228000950CDF91CF9108952F923F924F925F92DC
:102290006F927F928F929F92AF92BF92CF92DF9276
:1022A000EF92FF920F931F93CF93DF93CDB7DEB7DB
:1022B0002A970FB6F894DEBF0FBECDBF7A87698725
:1022C00058874F8329019A8389831C01E3E0220CFC
:1022D000331CEA95E1F7F3E0440F551FFA95E1F757
:1022E0005C834B838EE0869F9001879F300D112485
:1022F0003E832D835B01812C912C4A145B0444F1B5
:102300006D807E80680C791C00913C0310913D0328
:10231000CC24C394D12CEE24E394F12C2FEF3FEF87
:1023200042E8B301C1010E94190700913C031091DA
:102330003D032FEF3FEF42E8B3018B819C810E9468
:1023400019073FEFA31AB30A4EE0840E911CD5CFB4
:1023500089849A8451E0851A91088EE0889DF00165
:10236000899DF00D1124FE83ED83FFEF4F1A5F0A64
:10237000849D3001859D700C1124A12CB12CE98124
:10238000FA813196FA83E983F8E0AF0EB11C00912F
:102390003C0310913D0329813A814F8158852417D0
:1023A0003507FCF4CC24C394D12CEE24E394F12C17
:1023B0002FEF3FEF43E86D817E81C1018A0D9B1DA8
:1023C0009A8789870E94190700913C0310913D0369
:1023D0002FEF3FEF43E8B30189859A850E941907E3
:1023E000CECF8EE0B82EB49C3001B59C700C112479
:1023F000CC24C394D12CEE24E394F12C2FEF3FEFA7
:1024000044E8B301C1010E94190700913C031091F7
:102410003D032FEF3FEF45E8B3018B819C810E9484
:102420001907B89C3001B99C700C112400913C0331
:1024300010913D032FEF3FEF46E8B301C1010E9429
:10244000190700913C0310913D032FEF3FEF47E840
:10245000B3018B819C810E9419072A960FB6F894CC
:10246000DEBF0FBECDBFDF91CF911F910F91FF90C7
:10247000EF90DF90CF90BF90AF909F908F907F9024
:102480006F905F904F903F902F9008958F929F9202
:10249000AF92BF92CF92DF92EF92FF920F931F9372
:1024A000CF93DF934C018B01FC0101900020E9F7F1
:1024B0008E1B9F0BFC017196F7FD31965F01B59461
:1024C000A79481E190E00E945F1EEC01FC0141961F
:1024D000DE011D92A817B907E1F7CE01409620E270
:1024E0002193E817F907E1F780913C0390913D03B0
:1024F0000E94ED0698012D5F3F4F4DE050E063E0F4
:1025000070E084E090E00E944411CC24C394D12C6C
:10251000EE24E394F12C0CE515E72FEF3FEFAE012D
:102520006EE070E080E090E00E94BE072FEF3FEF8A
:10253000A4016EE070E0C501E3E0880F991FEA9501
:10254000E1F70E94BE07CE01DF91CF911F910F915D
:10255000FF90EF90DF90CF90BF90AF909F908F90C3
:102560000C94F41ECF92DF92EF92FF920F931F9381
:10257000452B41F01F910F91FF90EF90DF90CF908E
:102580000C947208AC0100913C0310913D039B0137
:102590002D5F3F4F8EE0829FB001839F700D11240D
:1025A000CC24C394D12CEE24E394F12C2FEF3FEFF5
:1025B00088E290E00E94BE071F910F91FF90EF907C
:1025C000DF90CF9008958F929F92AF92BF92CF925B
:1025D000DF92EF92FF920F931F93CF93DF93CDB7CC
:1025E000DEB7A8970FB6F894DEBF0FBECDBF5B0174
:1025F00028E2ECE9F1E0DE01119601900D922A95B6
:10260000E1F72AE0289F6001299FD00C112400E007
:1026100010E09C01220F331FA90140505F4F7A0147
:1026200025E0289F4001299F900C1124F70180810B
:102630009181801791074CF10A151B0589F4F4016B
:10264000E00FF11FEE0FFF1F81E090E08C0F9D1F48
:10265000E80FF91FB801808191810E94720812C0B1
:10266000F801EE0FFF1FEC0DFD1D41E050E04C0F97
:102670005D1FE40FF51F40E050E0B80180819181BB
:102680000E94B2120F5F1F4FD1CFA8960FB6F894D9
:10269000DEBF0FBECDBFDF91CF911F910F91FF9095
:1026A000EF90DF90CF90BF90AF909F908F90089564
:1026B000AF92BF92CF92DF92EF92FF920F931F9350
:1026C000CF93DF938C016B015A0141E050E0B501DB
:1026D0000E94E3120E94AD107C01E501E114F104B7
:1026E00009F044C080913403909135030397BCF006
:1026F00040E050E0BE01C8010E94E312CC15DD05A8
:1027000014F4219602C0C0E0D0E041E050E0BE01E8
:10271000C8010E94E3121092350310923403809195
:102720003403909135038E3F9F4FB4F440E050E066
:10273000BE01C8010E94E3121C161D0614F4219765
:1027400001C0E60141E050E0BE01C8010E94E31271
:1027500010923503109234030230110519F4CE01A2
:102760000E945E050E94AD107C01B8CF80914E01A1
:1027700090914F010E945E050E94AD10892BE1F7F8
:1027800082E0E816F10431F023E0E216F10421F4CE
:102790008DEF03C0CE0102C08FEF9FEFDF91CF918D
:1027A0001F910F91FF90EF90DF90CF90BF90AF906F
:1027B00008950E94AD10892BE1F76091000170919E
:1027C000010189EA92E00E94461240913A03509139
:1027D0003B036FEF7FEF80E090E00E94E3124091B7
:1027E0003A0350913B03609100017091010180E038
:1027F00090E00E94581397FD05C0BC01990F880B0B
:10280000990B0895039609F484C00E94AD10892B9A
:10281000E1F7609102017091030182EB92E00E9466
:10282000461240913E0350913F036FEF7FEF81E0EE
:1028300090E00E94E31240913E0350913F0360916B
:1028400002017091030181E090E00E94581397FD0E
:1028500004C0BC01665F7F4F50C0039609F459C0A5
:102860000E94AD10892BE1F7609104017091050180
:102870008DEB92E00E94461240914E0150914F0123
:102880006FEF7FEF82E090E00E94E31240914E01F3
:1028900050914F01609104017091050182E090E038
:1028A0000E94581397FD04C0BC016C5E7F4F25C089
:1028B000039679F10E94AD10892BE1F76091060132
:1028C0007091070186EC92E00E94461240E050E0D1
:1028D0006FEF7FEF83E090E00E94E31260910601CA
:1028E0007091070140E050E083E090E00E945813AF
:1028F00097FD08C0BC01625E7F4F072E000C880B5D
:10290000990B0895039629F06EEF7FEF8FEF9FEFFD
:1029100008956DEF7FEF8FEF9FEF08958F929F9255
:10292000AF92BF92CF92DF92EF92FF920F931F93DD
:10293000CF93DF934C0180913C0390913D030E9423
:10294000ED065401AA0CBB1CAA0CBB1CF501E05BF4
:10295000FE4F608171818281938141E050E00E944D
:10296000260AC0E0D0E0CC24C394D12CEE24E3941A
:10297000F12C0CE515E72FEF3FEF40E26EE070E041
:10298000CE010E9419072896C038D10561F72FEFB4
:102990003FEF4DEC52E06EE070E080E190E00E948D
:1029A000BE07892839F409E11CE32FEF3FEF49ED19
:1029B00052E00CC0CC24C394D12CEE24E394F12C2F
:1029C00009E11CE32FEF3FEF43EE52E06CE170E0D2
:1029D00088E190E00E94BE070E94AD10892BE1F7CC
:1029E000E0913A03F0913B03EE0FFF1FEE0FFF1F44
:1029F000E05DFE4F4081518162817381E501C05BE2
:102A0000DE4F88819981AA81BB818A019B01080FD1
:102A1000191F2A1F3B1FC901B8010E946203809140
:102A20003403909135030397B4F088819981AA818A
:102A3000BB81BC01CD01665F7F4F8F4F9F4F688385
:102A400079838A839B83109235031092340341E08B
:102A500050E00E94260A80913403909135038E3F06
:102A60009F4FB4F488819981AA81BB81BC01CD01BB
:102A70006A50710981099109688379838A839B83EC
:102A8000109235031092340341E050E00E94260A70
:102A9000488159816A817B818AE290E00E94C10469
:102AA0000E94AD108C01892B09F4B9CF0E94AD10A2
:102AB000892BE1F70230110541F4F501E05BFE4F8F
:102AC000608171818281938103C060E070E0CB01FD
:102AD000DF91CF911F910F91FF90EF90DF90CF90FA
:102AE000BF90AF909F908F900895CF93DF9300D0C9
:102AF00000D000D0CDB7DEB7809030039090310386
:102B0000A0903203B09033038CE890E290933D03A1
:102B100080933C038CE384B92D9A8FE99FE0019761
:102B2000F1F700C000002D988FEF8AB981E088B9D5
:102B300083E085B983E880937A0080E090E00E948A
:102B4000DF0E8091680081608093680080916B0047
:102B5000836080936B00109280008DE080938100F1
:102B600086E0809389008BE18093880080916F00DC
:102B7000826080936F008FEF9FEF0E94280B80E1AF
:102B800090E00E945F1E909339038093380380E0A9
:102B900090E0E0913803F0913903E80FF91F1082BB
:102BA000019680319105A9F70E9402040E946D05EB
:102BB0000E94AF050E943D040E94641090933B0365
:102BC00080933A03019631F482E090E090933B03C6
:102BD00080933A0300913A0310913B03C8010E948D
:102BE000531090933F0380933E03019621F410927B
:102BF0003F0310923E03E0903E03F0903F03B80184
:102C0000C7010E94AE0F000F111F0E0D1F1D000FF8
:102C1000111F000F111FF801E45AFE4F60837183EA
:102C20008283938300913A0310913B0380913E038A
:102C300090913F037801EE0CFF1C8E0D9F1D880FB5
:102C4000991F880F991F9C01245A3E4F6901F90171
:102C50006081718182819381A8010E94D103892BB7
:102C600081F4F801EE0FFF1FEE0FFF1FE05DFE4F36
:102C700080819181A281B381F60180839183A283B7
:102C8000B383F701EC5BFE4F8081918190934F01FC
:102C900080934E01C8010E94280B86E090E00E94BC
:102CA000DF0EBC01990F880B990B0E94F31C20E0EA
:102CB00030E040EA50E40E947F1D20E030E040E830
:102CC0005AE30E947F1D20E030E040EC50E40E9477
:102CD0007F1D20E030E040E251E40E947F1D0E9411
:102CE000BB1C2B013C011B01E0913A03F0913B031B
:102CF000EE0FFF1F80913E0390913F03E80FF91FF5
:102D0000EE0FFF1FEE0FFF1FE45AFE4FA0914E0182
:102D1000B0914F01AA0FBB1FAA0FBB1FA05BBE4FF4
:102D200040815181628173818D919D910D90BC9103
:102D3000A02D8A019B01080F191F2A1F3B1FC901E3
:102D4000B8010E946203E0913A03F0913B03EE0F59
:102D5000FF1F80913E0390913F03E80FF91FEE0F94
:102D6000FF1FEE0FFF1FE45AFE4FA0914E01B091DE
:102D70004F01AA0FBB1FAA0FBB1FA05BBE4F408114
:102D80005181628173818D919D910D90BC91A02D97
:102D90008A019B01080F191F2A1F3B1FC901B80197
:102DA0000E94620380914E0190914F010E945E0546
:102DB00040E050E0BA018AE390E00E94C1044091F3
:102DC0003A0350913B0300913E0310913F03209141
:102DD0004E0130914F01FA01EE0FFF1FE00FF11F7E
:102DE000EE0FFF1FEE0FFF1FE45AFE4F608171814F
:102DF00082819381C12CD12C72010E94BB0D0AE10A
:102E000013E0E12C28E0F22EC6010E943203F80103
:102E1000918380838130904118F0F801F182E08243
:102E2000FFEFCF1ADF0A0E5F1F4F25E0C216D10455
:102E300059F7E0913A03F0913B03EE0FFF1FE65E76
:102E4000FC4F808191810E94DB0978948DEE92E0A5
:102E50000E944C0C1E821D823EEC432E55245A9437
:102E6000652C752C1A821982809134039091350358
:102E700003970CF45AC00E94C20EE0913A03F091FD
:102E80003B0320913E0330913F03EE0FFF1FE20F03
:102E9000F31FEE0FFF1FEE0FFF1FE45AFE4F092E28
:102EA000000CAA0BBB0B4081518162817381840F9E
:102EB000951FA61FB71F80839183A283B383E091E0
:102EC0004E01F0914F01EE0FFF1FEE0FFF1FE05B71
:102ED000FE4F40815181628173818C019D01040FFD
:102EE000151F261F371FC901B8010E9462031092E7
:102EF000350310923403E0913A03F0913B03EE0F57
:102F0000FF1F80913E0390913F03E80FF91FEE0FE2
:102F1000FF1FEE0FFF1FE45AFE4F60817181828117
:102F2000938142E050E00E94260A80913403909100
:102F300035038E3F9F4F0CF05AC00E94C20EE091A5
:102F40003A03F0913B0320913E0330913F03EE0F93
:102F5000FF1FE20FF31FEE0FFF1FEE0FFF1FE45ADC
:102F6000FE4FAC01990F660B770B80819181A28196
:102F7000B381841B950BA60BB70B80839183A2832F
:102F8000B383E0914E01F0914F01EE0FFF1FEE0F62
:102F9000FF1FE05BFE4F40815181628173818C0194
:102FA0009D01040F151F261F371FC901B8010E947C
:102FB00062031092350310923403E0913A03F091CA
:102FC0003B03EE0FFF1F80913E0390913F03E80FFC
:102FD000F91FEE0FFF1FEE0FFF1FE45AFE4F608137
:102FE00071818281938142E050E00E94260A0E9412
:102FF000AD108130910509F0CCC160913A03709118
:103000003B0380913E0390913F03FB01EE0FFF1FB6
:10301000E80FF91FEE0FFF1FEE0FFF1FE45AFE4FE0
:1030200020813181428153810E94F50F80913A03C2
:1030300090913B0360913E0370913F03FC01EE0FC2
:10304000FF1FE60FF71FEE0FFF1FEE0FFF1FE45AE3
:10305000FE4F008111812281338140914E015091B8
:103060004F010E9471100E94AD10892BE1F7409131
:103070003E0350913F03E0913A03F0913B03EE0F82
:10308000FF1FE40FF51FEE0FFF1FEE0FFF1FE45AA7
:10309000FE4F60817181828193810E94D9136631D4
:1030A000710584F4643171050CF004C177FD50C1E1
:1030B00065307105B4F0CB010A978230910508F4B0
:1030C000A0C046C16E3171050CF442C16032710579
:1030D0000CF422C16032710509F03AC10E94E71078
:1030E00037C170933B0360933A03CB010E94280BD6
:1030F00000913A0310913B03B80180913E039091F7
:103100003F030E94AE0FA8010E94D10300913A0331
:1031100010913B03E0903E03F0903F03892BA1F018
:10312000B801C7010E94AE0F000F111F0E0D1F1D29
:10313000F801EE0FFF1FEE0FFF1FE45AFE4F6083F2
:103140007183828393831BC0F801EE0FFF1FEE0D86
:10315000FF1DEE0FFF1FEE0FFF1FE45AFE4F000F83
:10316000111F000F111FD801A05DBE4F8D919D91C1
:103170000D90BC91A02D80839183A283B383E091B5
:103180003A03F0913B03EE0FFF1F80913E039091B5
:103190003F03E80FF91FEE0FFF1FEE0FFF1FE45A6A
:1031A000FE4FA0914E01B0914F01AA0FBB1FAA0F75
:1031B000BB1FA05BBE4F40815181628173818D91A5
:1031C0009D910D90BC91A02D8A019B01080F191FA4
:1031D0002A1F3B1FC901B8010E94620360913A0394
:1031E00080E090E00E94941FE0913A03F0913B034D
:1031F000EE0FFF1FE65EFC4F808191810E94DB098C
:10320000A7C090933F0380933E0360E070E00E946C
:10321000690BE0903A03F0903B0300913E0310915C
:103220003F03B701C8010E94AE0FEE0CFF1CE00E79
:10323000F11EF701EE0FFF1FEE0FFF1FE45AFE4FC6
:10324000608371838283938300913A0310913B03DF
:10325000C0903E03D0903F037801EE0CFF1CEC0CB5
:10326000FD1CC701880F991F880F991F9C01245AC4
:103270003E4F7901F9016081718182819381A801BA
:103280000E94D103892B81F4000F111F000F111F21
:10329000F801E05DFE4F80819181A281B381F70149
:1032A00080839183A283B3836C2D85E090E00E949C
:1032B000941F4EC06451710970934F0160934E0189
:1032C000A0913A03B0913B03AA0FBB1F80913E032C
:1032D00090913F03A80FB91FAA0FBB1FAA0FBB1FD6
:1032E000A45ABE4F660F771F660F771FFB01E05B86
:1032F000FE4F4D915D916D917C9180819181A28174
:10330000B3818A019B01080F191F2A1F3B1FC901A6
:10331000B8010E94620316C08B010E511109C80149
:103320000E948E1416161706180619068CF4000F44
:10333000111F000F111FF801E05BFE4F60837183C6
:103340008283938380914E0190914F010E945E058C
:1033500040913A0350913B0300913E0310913F038B
:1033600020914E0130914F01FA01EE0FFF1FE00F47
:10337000F11FEE0FFF1FEE0FFF1FE45AFE4F60819B
:10338000718182819381C12CD12C71010E94BB0D6E
:103390000EC18230910521F50E94AD10892BE1F715
:1033A00080913A0390913B0360913E0370913F03FB
:1033B000FC01EE0FFF1FE60FF71FEE0FFF1FEE0FD2
:1033C000FF1FE45AFE4F0081118122813381409119
:1033D0004E0150914F010E9471108EEF92E0E5C0B6
:1033E0008330910539F40E94AD10892BE1F70E94DA
:1033F000E710DDC0049709F0DAC00E94AD10892BF8
:10340000E1F780913A0390913B038430910534F4C5
:10341000019690933B0380933A0304C010923B03C0
:1034200010923A0360E070E080913A0390913B0380
:103430000E94880A80913A0390913B030E94280BD6
:1034400080E090E0E0913803F0913903E80FF91F34
:103450001082019680319105A9F7E0903A03F0902F
:103460003B0300913E0310913F03B701C8010E9446
:10347000AE0FEE0CFF1CE00EF11EF701EE0FFF1F6A
:10348000EE0FFF1FE45AFE4F6083718382839383A4
:1034900000913A0310913B0320913E0330913F038A
:1034A0006801CC0CDD1C7601E20EF31EC701880F0B
:1034B000991F880F991FAC01445A5E4F7A01FA0197
:1034C0006081718182819381A8012B833C830E945A
:1034D000D1032B813C81892B81F4000F111F000F38
:1034E000111FF801E05DFE4F80819181A281B381BF
:1034F000F70180839183A283B383F601E20FF31F68
:10350000EE0FFF1FEE0FFF1FE45AFE4FA0914E017A
:10351000B0914F01AA0FBB1FAA0FBB1FA05BBE4FEC
:1035200040815181628173818D919D910D90BC91FB
:10353000A02D8A019B01080F191F2A1F3B1FC901DB
:10354000B8010E94620382E090E00E941408E091BA
:103550003A03F0913B03EE0FFF1F80913E039091E1
:103560003F03E80FF91FEE0FFF1FEE0FFF1FE45A96
:10357000FE4F608171818281938142E050E00E9420
:10358000260A60913A0380E090E00E94941FE09147
:103590003A03F0913B03EE0FFF1FE65EFC4F808184
:1035A00091810E94DB098AE093E00E944C0C4091DB
:1035B0003003509131036091320370913303D30192
:1035C000C201C296A11DB11D84179507A607B707B2
:1035D000DCF586E090E00E94DF0EBC01990F880BBD
:1035E000990B0E94F31C20E030E040EA50E40E9476
:1035F0007F1D20E030E040E85AE30E947F1D20E07C
:1036000030E040EC50E40E947F1D20E030E040E2DA
:1036100051E40E947F1D0E94BB1C6B017C011B01B9
:1036200029813A816217730719F0CB010E94AC0B14
:103630000E944A0F40903003509031036090320353
:1036400070903303DA82C982409130035091310384
:1036500060913203709133038091140390911503AC
:10366000A0911603B091170384179507A607B70713
:103670000CF04DC087E090E00E94DF0E893E934041
:1036800074F04D815E81452B51F481E090E00E9401
:10369000900D0E94300881E090E09E838D8387E04A
:1036A00090E00E94DF0E893E93405CF40D811E8104
:1036B000012B59F00E94510880E090E00E94210CFB
:1036C00004C02D813E81232B39F40E94FD0E0E94FF
:1036D000B40C1E821D820BC082E090E00E94DF0EBF
:1036E00026E0959587952A95E1F70E94B40C809184
:1036F000300390913103A0913203B0913303809352
:10370000140390931503A0931603B09317034091ED
:103710003003509131036091320370913303D5012E
:10372000C4014496A11DB11D84179507A607B707CC
:1037300054F40E94520D8090300390903103A09079
:103740003203B090330380912C0390912D03A0910C
:103750002E03B0912F03CC96A11DB11D40913003D3
:1037600050913103609132037091330384179507B0
:10377000A607B7070CF078CB809118039091190336
:10378000892B09F471CB8DEE92E00E944C0C809154
:10379000300390913103A0913203B09133038093B1
:1037A0002C0390932D03A0932E03B0932F0310921C
:1037B00019031092180358CB5058BB27AA270E9410
:1037C000F41B0C94451D0E94371D38F00E943E1DCD
:1037D00020F039F49F3F19F426F40C94341D0EF4B4
:1037E000E095E7FB0C942E1DE92F0E94561D58F31F
:1037F000BA17620773078407950720F079F4A6F5D6
:103800000C94781D0EF4E0950B2EBA2FA02D0B0111
:10381000B90190010C01CA01A0011124FF27591B15
:1038200099F0593F50F4503E68F11A16F040A22F1B
:10383000232F342F4427585FF3CF4695379527958C
:10384000A795F0405395C9F77EF41F16BA0B620B8B
:10385000730B840BBAF09150A1F0FF0FBB1F661FD2
:10386000771F881FC2F70EC0BA0F621F731F841F15
:1038700048F4879577956795B795F7959E3F08F03B
:10388000B0CF9395880F08F09927EE0F97958795FD
:1038900008950E945D1C0C94451D0E943E1D58F029
:1038A0000E94371D40F029F45F3F29F00C942E1D33
:1038B00051110C94791D0C94341D0E94561D68F30F
:1038C0009923B1F3552391F3951B550BBB27AA27D9
:1038D00062177307840738F09F5F5F4F220F331F13
:1038E000441FAA1FA9F335D00E2E3AF0E0E832D0DB
:1038F00091505040E695001CCAF72BD0FE2F29D0DE
:10390000660F771F881FBB1F261737074807AB07AF
:10391000B0E809F0BB0B802DBF01FF2793585F4F24
:103920003AF09E3F510578F00C942E1D0C94791DB1
:103930005F3FE4F3983ED4F3869577956795B79506
:10394000F7959F5FC9F7880F911D9695879597F911
:103950000895E1E0660F771F881FBB1F621773078A
:103960008407BA0720F0621B730B840BBA0BEE1F9F
:1039700088F7E09508950E94C21C6894B1110C94D8
:10398000791D08950E945E1D88F09F5798F0B92F09
:103990009927B751B0F0E1F0660F771F881F991F84
:1039A0001AF0BA95C9F714C0B13091F00E94781D91
:1039B000B1E008950C94781D672F782F8827B85FA1
:1039C00039F0B93FCCF3869577956795B395D9F7DC
:1039D0003EF490958095709561957F4F8F4F9F4FE6
:1039E0000895E89409C097FB3EF4909580957095F2
:1039F00061957F4F8F4F9F4F9923A9F0F92F96E93B
:103A0000BB279395F695879577956795B795F111AF
:103A1000F8CFFAF4BB0F11F460FF1BC06F5F7F4F4C
:103A20008F4F9F4F16C0882311F096E911C077235E
:103A300021F09EE8872F762F05C0662371F096E867
:103A4000862F70E060E02AF09A95660F771F881F36
:103A5000DAF7880F9695879597F9089597F99F67F4
:103A600080E870E060E008959FEF80EC0895002406
:103A70000A941616170618060906089500240A94D3
:103A800012161306140605060895092E0394000C59
:103A900011F4882352F0BB0F40F4BF2B11F460FFE8
:103AA00004C06F5F7F4F8F4F9F4F089557FD905811
:103AB000440F551F59F05F3F71F04795880F97FBF2
:103AC000991F61F09F3F79F08795089512161306AC
:103AD0001406551FF2CF4695F1DF08C016161706DB
:103AE0001806991FF1CF8695710561050894089510
:103AF000E894BB2766277727CB0197F908950E94A2
:103B0000921D0C94451D0E94371D38F00E943E1DE9
:103B100020F0952311F00C942E1D0C94341D1124CB
:103B20000C94791D0E94561D70F3959FC1F3950F5B
:103B300050E0551F629FF001729FBB27F00DB11D31
:103B4000639FAA27F00DB11DAA1F649F6627B00DC1
:103B5000A11D661F829F2227B00DA11D621F739FAA
:103B6000B00DA11D621F839FA00D611D221F749FB8
:103B70003327A00D611D231F849F600D211D822FFF
:103B8000762F6A2F11249F5750409AF0F1F0882326
:103B90004AF0EE0FFF1FBB1F661F771F881F915053
:103BA0005040A9F79E3F510580F00C942E1D0C94B7
:103BB000791D5F3FE4F3983ED4F38695779567953A
:103BC000B795F795E7959F5FC1F7FE2B880F911D7D
:103BD0009695879597F90895DB018F939F930E949F
:103BE0003D1EBF91AF91A29F800D911DA39F900D8F
:103BF000B29F900D11240895A1E21A2EAA1BBB1B9F
:103C0000FD010DC0AA1FBB1FEE1FFF1FA217B307A8
:103C1000E407F50720F0A21BB30BE40BF50B661FBE
:103C2000771F881F991F1A9469F760957095809582
:103C300090959B01AC01BD01CF010895052E97FB26
:103C40001EF400940E94351E57FD07D00E94FC1DF3
:103C500007FC03D04EF40C94351E509540953095DA
:103C600021953F4F4F4F5F4F0895909580957095E8
:103C700061957F4F8F4F9F4F08950E94501EA59FC3
:103C8000900DB49F900DA49F800D911D1124089557
:103C9000B7FF0C943D1E0E943D1E821B930B08959E
:103CA000A29FB001B39FC001A39F700D811D11247D
:103CB000911DB29F700D811D1124911D0895CF9308
:103CC000DF938230910510F482E090E0E0914203AE
:103CD000F091430320E030E0C0E0D0E0309711F1F4
:103CE0004081518148175907C0F04817590761F4BE
:103CF00082819381209719F09B838A832BC09093B4
:103D000043038093420326C02115310519F0421761
:103D1000530718F49A01BE01DF01EF010280F3811D
:103D2000E02DDCCF2115310509F1281B390B24309A
:103D3000310590F412968D919C9113976115710540
:103D400021F0FB019383828304C09093430380930B
:103D50004203FD01329644C0FD01E20FF31F81933F
:103D60009193225031092D933C933AC02091400306
:103D700030914103232B41F420918601309187013A
:103D800030934103209340032091840130918501B9
:103D90002115310541F42DB73EB74091880150916E
:103DA0008901241B350BE0914003F0914103E21798
:103DB000F307A0F42E1B3F0B2817390778F0AC014E
:103DC0004E5F5F4F2417350748F04E0F5F1F50932B
:103DD0004103409340038193919302C0E0E0F0E0FF
:103DE000CF01DF91CF9108950F931F93CF93DF936E
:103DF000009709F48CC0FC01329713821282009163
:103E00004203109143030115110581F42081318192
:103E1000820F931F209140033091410328173907E7
:103E200079F5F0934103E093400371C0D80140E07D
:103E300050E0AE17BF0750F412962D913C911397A6
:103E4000AD012115310509F1D901F3CF9D01DA0149
:103E50003383228360817181860F971F82179307B6
:103E600069F4EC0128813981260F371F2E5F3F4FFF
:103E7000318320838A819B8193838283452B29F41C
:103E8000F0934303E093420342C01396FC93EE93F6
:103E90001297ED01499159919E01240F351FE217A8
:103EA000F30771F480819181840F951F029611961A
:103EB0009C938E938281938113969C938E931297F9
:103EC000E0E0F0E0D80112968D919C911397009755
:103ED00019F0F8018C01F6CF8D919C9198012E5F1D
:103EE0003F4F820F931F20914003309141032817C9
:103EF000390769F4309729F4109243031092420372
:103F000002C0138212821093410300934003DF9199
:103F1000CF911F910F910895F999FECF92BD81BD68
:103F2000F89A992780B50895262FF999FECF1FBAE0
:103F300092BD81BD20BD0FB6F894FA9AF99A0FBED2
:083F400001960895F894FFCFEB
:103F48000400010001000200D0223A0010046E00B3
:103F5800C01DDB0020744701B056C501D0403500B4
:103F6800B0A86A007078D50030484001F017AB015E
:103F7800D0B1370080A46C00A05ED80010DC4401EA
:103F880020E0B20100000000010001000100010072
:103F9800044F89002A5B890040548900D0B137005A
:103FA800D0B1370080A46C0080A46C00C0ACD800ED
:103FB80040E5D90010DC4401B062460120E0B201BE
:103FC800C066B401000044032000E201E601EA01F2
:103FD800EE01F20127004C006700870049025102F8
:103FE800590261026902710279020F020F020F027F
:103FF800810289020F020F020F0291029902A102A7
:104008000F020F025C754FF6E027D7C5D99B5458AD
:104018000053312033203520372039202B313064AC
:10402800420038306D0034306D0032306D0031356B
:104038006D0031306D0056464F410056464F4200E4
:104048005620005258002020202020202020202008
:104058002020202020200054582070726573657439
:104068002073746F7265642E003020322020342053
:1040780020362020382031305700545820505245DF
:104088005345543D202020200038306D202020202A
:104098000034306D202020200032306D2020202078
:1040A8000031356D202020200031306D2020202067
:1040B8000056464F204120200056464F20422020DF
:1040C800004C53422020202000555342202020201D
:1040D80000534554204C53420053455420555342F5
:1040E800005458204741494E0042414E4420534510
:1040F800540056464F2053454C45435400534944B9
:104108004542414E440041444A555354004C4F20C7
:10411800534554204D4F44450020664C4F204C5386
:1041280042200020664C4F2055534220004D696EB6
:10413800693520444B3749482032303230005374B7
:104148006F72696E67204F4B2E00515359204F4BA9
:024158002E0037
:00000001FF
