:100000000C9413030C9430030C9430030C94220FC3
:100010000C9430030C9430030C9430030C94300394
:100020000C9430030C9430030C9430030C94730F35
:100030000C9430030C9430030C9430030C94300374
:100040000C9430030C9430030C9430030C94300364
:100050000C9430030C9430030C9430030C94300354
:100060000C9430030C9430030000000000000000EA
:100070000000000000000008080808080808000840
:1000800008000000242424240000000000000000D8
:10009000000000909048FE4824FF24121200000047
:1000A000083C0A0A0A0C182828281E0800000086A6
:1000B00049292916689494926100000000182424AC
:1000C000140C8B917163FE00000008080808000002
:1000D0000000000000000000603008080404040470
:1000E000040808306000060C10102020202020108A
:1000F000100C060000080866142C24000000000004
:100100000000000000000808087F08080800000040
:100110000000000000000000001818100800000097
:10012000000000007E000000000000000000000051
:1001300000000000001818000000402020201010CF
:1001400018080804040402000018244242424242F3
:1001500042241800000000101E1010101010101083
:10016000FE000000001E20202010100804023E00A7
:100170000000003C40404038404040403C0000000F
:10018000002030282824227E202020000000007C2F
:100190000404041C604040403C000000003804029D
:1001A000023A4642424438000000007E40202010BF
:1001B0000808080404000000003C4242221C2442BB
:1001C00042423C000000001C224242625C4040204F
:1001D0001C000000000000001818000000181800A3
:1001E0000000000000001818000000181810080097
:1001F0000000000040300806083040000000000009
:100200000000007E00007E000000000000000000F2
:10021000020C1060100C02000000003E4240201052
:100220000808000808000000003C46724949496976
:10023000DB223C00000000001018282424427E42EB
:100240008100000000003E4242221E2242423E0047
:10025000000000007C020101010101027C0000009D
:1002600000001F214141414141211F0000000000C9
:100270007E0202023E0202027E00000000007E02B8
:1002800002023E0202020200000000007C020101A4
:10029000017141427C0000000000424242427E4225
:1002A00042424200000000003E0808080808080812
:1002B0003E00000000003C202020202020201E00C6
:1002C000000000004222120A060A12224200000028
:1002D000000002020202020202027E000000000090
:1002E0006363635555554941410000000000424693
:1002F000464A4A5252624200000000001C2241411C
:10030000414141221C00000000003E424242621E68
:1003100002020200000000001C2241414141412232
:100320001C60C00000001E2222221E123222420047
:10033000000000007C020206186040403E00000001
:1003400000007F08080808080808080000000000EE
:1003500042424242424242423C000000000081428E
:100360004222241414080800000000008181C959A9
:100370005A5A6666240000000000814224181818AA
:10038000244281000000000081422214180808085D
:100390000800000000007F402010080402017F00D8
:1003A0000000780808080808080808080808780005
:1003B00002040404080818101020202040001E1019
:1003C000101010101010101010101E000010101837
:1003D0002828244442000000000000000000000023
:1003E0000000000000FF00001020000000000000DE
:1003F000000000000000000000003C40407C424241
:10040000FC000000020202023A46424242463A0022
:1004100000000000000078040202020478000000DE
:10042000404040405C62424242625C00000000008A
:1004300000003C44427E02027C0000007008080874
:100440007E080808080808000000000000007C6220
:10045000424242625C40403C020202023A46424250
:10046000424242000000181800001E101010101028
:1004700010000000303000003C20202020202020F0
:10048000201E0202020222120A061A224200000064
:100490001E1010101010101010101000000000009E
:1004A00000006D5B49494949490000000000000017
:1004B0003A464242424242000000000000001C2234
:1004C000414141221C000000000000003A46424227
:1004D00042463A020202000000005C62424242626E
:1004E0005C404040000000003A2602020202020086
:1004F0000000000000003C02061820201E00000042
:10050000000004047F0404040404780000000000D8
:1005100000004242424242625C00000000000000D3
:100520008142422214140800000000000000819162
:100530005A5A6624240000000000000042241818C3
:1005400018244200000000000000814242242418C8
:1005500018080C07000000007F20100804027F002C
:100560000000700808080808060808080808700055
:1005700010101010101010101010101010000E108D
:10058000101010106010101010100E00000000006D
:1005900000869961000000000000000000081C2295
:1005A000414141417F00000000007C020101010146
:1005B00001027C10203000000000FFFFFFFF000060
:1005C000000000001010101010101010101010106B
:1005D0001010000000000000FF00000000000000FC
:1005E000101010101010F00000000000000010109B
:1005F000101010101F00000000000000000000009C
:100600000000F0101010101010100000000000008A
:100610001F10101010101010000814080000000027
:1006200000000000000011241FBECFEFD8E0DEBFA5
:10063000CDBF13E0A0E0B1E0E8E6F4E502C005902C
:100640000D92AC3EB107D9F724E0ACEEB3E001C0A7
:100650001D92A232B207E1F70E94431E0C94322A87
:100660000C9400000F931F93CF93DF93805C9F4FF8
:10067000880F991FF999FECF8C010F5F1F4F0E94C1
:100680001C2A282F30E0D22FCC27F999FECFC801A1
:100690000E941C2A9E01280F311D211580E1380778
:1006A00010F4C90102C080E098E0DF91CF911F9162
:1006B0000F910895CF92DF92EF92FF920F931F93C5
:1006C000440F551F440F551FFA01EC5DFE4F00818A
:1006D000118122813381601771078207930794F09B
:1006E000FA01E05FFE4F31E020E0C080D180E2807F
:1006F000F380C616D706E806F9060CF430E0832F1F
:10070000922F02C080E090E01F910F91FF90EF9038
:10071000DF90CF900895892B11F02A9A08952A9896
:1007200008951092B9008CE08093B80084E0809323
:10073000BC00089584EA8093BC008091BC0087FFD0
:10074000FCCF089584E98093BC0008958093BB009A
:1007500084E88093BC008091BC0087FFFCCF0895A3
:100760001F93CF93DF931F92CDB7DEB7182F698306
:100770000E949A0380EC0E94A603812F0E94A60388
:100780006981862F0E94A60384E98093BC000F90A4
:10079000DF91CF911F91089562ED70E087EB90E0BB
:1007A0000E94B00360E070E083E090E00E94B0033C
:1007B0006FE070E080E190E00E94B0036FE270E0D3
:1007C00081E190E00E94B0036FE270E082E190E08E
:1007D0000E94B00360EA70E081EB90E00E94B003F9
:1007E0006FEF70E08AE190E00E94B0036FEF70E07D
:1007F0008BE190E00E94B00360E070E08CE190E05B
:100800000E94B00360E170E08DE190E00E94B003CF
:1008100060E070E08EE190E00E94B00360EF70E075
:100820008FE190E00E94B00360E070E080E290E031
:100830000E94B00360E070E081E290E00E94B003AB
:100840006FEF70E082E290E00E94B0036FEF70E023
:1008500083E290E00E94B00360E070E084E290E008
:100860000E94B00360E170E085E290E00E94B00376
:1008700060E070E086E290E00E94B00360EF70E01C
:1008800087E290E00E94B00360E070E088E290E0D0
:100890000E94B00360E070E089E290E00C94B00345
:1008A0008F929F92AF92BF92CF92DF92EF92FF9280
:1008B000CF93DF93EC01CB01BA010E9471279B011A
:1008C000AC0164EA73E986E59EE40E94C7264B0109
:1008D0005C010E9440276B017C010E946F279B01F5
:1008E000AC01C501B4010E945A2620EF3FEF4FE74B
:1008F00059E40E94FD270E9440274B015C0187E0DC
:10090000880C991CAA1CBB1C8A95D1F7C501B4019F
:100910002FEF3FEF4FE050E00E947A2897E0CC0C99
:10092000DD1CEE1CFF1C9A95D1F782E0D81AE10875
:10093000F108C20ED31EE41EF51E6FEF7FEF8FE0AD
:1009400090E00E946A28861A970AA80AB90A6FEFEF
:1009500070E0CE010E94B0036FEF70E0CE0101960F
:100960000E94B003D701C60188279927A370BB272F
:10097000BD0188279927CE0102960E94B0036D2DF4
:1009800070E0CE0103960E94B003B6017727CE0136
:1009900004960E94B003D501C40188279927AF703F
:1009A000BB27BD01606FCE0105960E94B003692D83
:1009B00070E0CE0106960E94B003B4017727CE0105
:1009C0000796DF91CF91FF90EF90DF90CF90BF908F
:1009D000AF909F908F900C94B003880F991F880F51
:1009E000991FFC01E85AFE4F408151816281738159
:1009F0008AE290E00C945004AB01BC0182E390E0E9
:100A00000C9450045C9A2FEF81EE94E021508040CA
:100A10009040E1F700C000005C982FEF81EE94E079
:100A2000215080409040E1F700C000005C9A2FEF19
:100A300081EE94E0215080409040E1F700C000003A
:100A400008955D985B9827E030E05F98AC01022E36
:100A500002C0559547950A94E2F740FF02C05E9A9E
:100A600001C05E985F9A2150310978F75B9A08952A
:100A70005D9A5B9827E030E05F98AC01022E02C0DF
:100A8000559547950A94E2F740FF02C05E9A01C06F
:100A90005E985F9A2150310978F75B9A089581E05A
:100AA00090E00E9421058FE19EE40197F1F700C0DC
:100AB000000081E190E00E9421058FE19EE4019712
:100AC000F1F700C000008AE390E00E94210585E074
:100AD00090E00E9438058FE39CE90197F1F700C090
:100AE000000081EB90E00E94210580E090E00E94F0
:100AF000380586E090E00E94380583E090E00E948F
:100B000038058FE99FE00197F1F700C0000086E308
:100B100090E00E94210588EC90E00E94380586EB69
:100B200090E00E94210585E190E00E94380582E076
:100B300090E00E94380584EB90E00E94210580E05F
:100B400090E00E94380580EE90E00E94210589E047
:100B500090E00E94380586E190E00E94380589E027
:100B600090E00E94380580E290E00E94380581E222
:100B700090E00E9438058BE190E00E94380583E107
:100B800090E00E94380589E190E00E94380587E1F5
:100B900090E00E94380585E190E00E9438058EE1E2
:100BA00090E00E9438058BE290E00E94380584E0D6
:100BB00090E00E94380585E090E00E94380582E0D0
:100BC00090E00E9438058EE090E00E94380581EEAA
:100BD00090E00E9421058BE090E00E94380584E1BE
:100BE00090E00E94380588E090E00E9438058EE190
:100BF00090E00E94380582E290E00E9438058DE185
:100C000090E00E94380588E190E00E9438058EE16E
:100C100090E00E9438058BE190E00E9438058AE15F
:100C200090E00E94380584E290E00E9438058BE253
:100C300090E00E94380586E090E00E94380586E04A
:100C400090E00E94380582E090E00E9438058FE035
:100C500090E00E9438058FE39CE90197F1F700C00E
:100C6000000083E190E00E9421058FE39CE9019759
:100C7000F1F700C0000089E290E00C942105CF92CA
:100C8000DF92EF92FF920F931F93CF93DF936C014C
:100C90008B017A01E9018AE290E00E94210580E05F
:100CA00090E00E943805C6010E94380580E090E07F
:100CB0000E943805C7010E9438058BE290E00E942F
:100CC000210580E090E00E943805C8010E943805A7
:100CD00080E090E00E943805CE01DF91CF911F9116
:100CE0000F91FF90EF90DF90CF900C943805CF9349
:100CF000DF93D42FC52F9B01AC010E943F068CE2ED
:100D000090E00E9421058C2F90E00E9438058D2FE5
:100D10009C2FDF91CF910C9438050F931F93CF93A5
:100D2000DF938C0124E830E044E850E060E070E0BC
:100D300080E090E00E943F068CE290E00E94210556
:100D4000C1E1D4E4812F90E00E943805C8010E94DF
:100D500038052197B9F7DF91CF911F910F91089531
:100D6000EF92FF920F931F93CF93DF93DA01A81BAB
:100D7000B90BF901E61BF70BAE9F7001AF9FF00CAA
:100D8000BE9FF00C11240E943F068CE290E00E946E
:100D90002105C0E0D0E0EC16FD064CF0812F90E07C
:100DA0000E943805C8010E9438052196F4CFDF91D2
:100DB000CF911F910F91FF90EF9008952F923F9246
:100DC0004F925F926F927F928F929F92AF92BF925B
:100DD000CF92DF92EF92FF920F931F93CF93DF9307
:100DE00000D000D0CDB7DEB7242E2983932E0A83FE
:100DF000812E4EE04C9D90014D9D300D1124260F0B
:100E0000371FA701E3E0440F551FEA95E1F7480FAC
:100E1000591F4F5F5F4F6E5F7F4F02960E943F06E4
:100E20008CE290E00E9421058EE0289E10011124A2
:100E300000E010E090EC291A91E0390AF101E00F8E
:100E4000F11FE859FF4FE491612C712C8E2F90E037
:100E50009C838B836C147D04BCF5A12CB12C8B81FD
:100E60009C810A2C02C0959587950A94E2F7412C43
:100E7000512C80FF1AC04E145F0464F4892D90E059
:100E80000E9438058981992D0E9438059FEF491AE3
:100E9000590AF1CFEFEFAE1ABE0AF8E0AF16B1046F
:100EA000F1F69FEF691A790AD5CF4E145F0494F7D3
:100EB000882D90E00E9438058A81982D0E9438057F
:100EC0008FEF481A580AF1CF0F5F1F4F0D301105F1
:100ED00009F0B4CF0F900F900F900F90DF91CF914A
:100EE0001F910F91FF90EF90DF90CF90BF90AF9048
:100EF0009F908F907F906F905F904F903F902F903A
:100F000008952F923F924F925F926F927F928F92AD
:100F10009F92AF92BF92CF92DF92EF92FF920F9388
:100F20001F93CF93DF9300D000D000D0CDB7DEB7B2
:100F30007C836B83190128015701360149835A8349
:100F4000470123E0880C991C2A95E1F79E838D8345
:100F5000E981FA814191FA83E983442379F06301BD
:100F60007501820191016B817C818D819E810E943E
:100F7000DE068D819E81880D991DE8CF26960FB6DD
:100F8000F894DEBF0FBECDBFDF91CF911F910F91BF
:100F9000FF90EF90DF90CF90BF90AF909F908F9099
:100FA0007F906F905F904F903F902F900895CF92D9
:100FB000DF92EF92FF920F931F9320911A043091CA
:100FC0001B046C017C01890142E452E062E370E0A1
:100FD00080E090E00E9481071F910F91FF90EF90B9
:100FE000DF90CF900895CF92DF92EF92FF920F9310
:100FF0001F9320911A0430911B04CC24C394D12C4C
:10100000EE24E394F12C00E61AEF40E052E060E0B9
:1010100070E080E790E00E9481071F910F91FF90A0
:10102000EF90DF90CF900895CF92DF92EF92FF92F2
:101030000F931F939B012D5F3F4F4EE0429FB001E6
:10104000439F700D1124CC24C394D12CEE24E3943F
:10105000F12C00EE17EF23E73AE0AC0188E290E0D4
:101060000E9481071F910F91FF90EF90DF90CF902A
:1010700008952F923F924F925F926F927F928F923C
:101080009F92AF92BF92CF92DF92EF92FF920F9317
:101090001F93CF93DF932B01490138011A015701A8
:1010A00028E0A20EB11CEC01F10141911F01442383
:1010B00079F0CC24C394D12CEE24E394F12C830159
:1010C0009401B201CE010E94DE06CA0DDB1DECCFF9
:1010D000DF91CF911F910F91FF90EF90DF90CF9014
:1010E000BF90AF909F908F907F906F905F904F9048
:1010F0003F902F9008952F923F924F925F926F9260
:101100007F928F929F92AF92BF92CF92DF92EF9297
:10111000FF920F931F93CF93DF9300D000D000D0A6
:10112000CDB7DEB76B017C015C834B833E832D839F
:10113000611571058105910539F480E3F90180831A
:10114000118281E090E090C097FF0DC0F094E09490
:10115000D094C094C11CD11CE11CF11C21E030E0F2
:101160003A83298302C01A8219828D819E810C964E
:10117000ED81FE811192E817F907E1F709E010E02F
:10118000212C312C812C8AEC982E8AE9A82E8BE315
:10119000B82E9AE0492E512C612C712CC701B60152
:1011A000A50194010E949C28E22FA22FB32FA50134
:1011B00094010E94C628C61AD70AE80AF90AD10182
:1011C0001996A01BB10B4D815E81A40FB51FE05D88
:1011D000EC93C501B401A30192010E949C2849012E
:1011E0005A018B819C810817190779F401151105A3
:1011F00061F09FEF291A390AF101E01BF10B2D81F3
:101200003E81E20FF31F3EE231870150110930F6B3
:10121000ED81FE8130E2CF014D815E81841B950B13
:101220002081203311F43193F6CFE981FA81EF2B3D
:1012300031F00197FA01E80FF91F2DE22083ED81CB
:10124000FE819F014D815E81241B350BDF01A80FBC
:10125000B91F4C91442311F04193F3CFED81FE81EE
:10126000E20FF31F1082C90126960FB6F894DEBF75
:101270000FBECDBFDF91CF911F910F91FF90EF90E7
:10128000DF90CF90BF90AF909F908F907F906F90A6
:101290005F904F903F902F9008952F923F924F92E2
:1012A0005F926F927F928F929F92AF92BF92CF92F6
:1012B000DF92EF92FF920F931F93CF93DF93CDB7FF
:1012C000DEB728970FB6F894DEBF0FBECDBF3C0146
:1012D0002B0129833A834B835C831801FE82ED82C4
:1012E000D886CF827501640180E190E00E94DD28FC
:1012F0005C010097F9F000E110E09C01A101698117
:101300007A818B819C810E947B080F8118852D81B9
:101310003E81A501B201C3010E948107F501019040
:101320000020E9F731977F01EA18FB08C5010E9408
:10133000722902C0E12CF12CC70128960FB6F8944F
:10134000DEBF0FBECDBFDF91CF911F910F91FF90F8
:10135000EF90DF90CF90BF90AF909F908F907F9055
:101360006F905F904F903F902F9008958F929F9233
:10137000AF92BF92CF92DF92EF92FF920F931F93A3
:10138000CF93DF93603826E9720728E98207910539
:10139000A4F4611571058105910591F4CA01DF91ED
:1013A000CF911F910F91FF90EF90DF90CF90BF9062
:1013B000AF909F908F900C94D707CBE0D0E002C005
:1013C000CBE1D0E05A01C0901A04D0901B04413008
:1013D000510571F488248394912CAA24A394B12CF0
:1013E000EE24EA94FE2C03E010E09B01AC010CC05B
:1013F00024E630E040E050E00E949C284501EE24C5
:10140000EA94FE2C01E010E062E370E0CE010E945D
:101410004D09DF91CF911F910F91FF90EF90DF90D9
:10142000CF90BF90AF909F908F9008958F929F9292
:10143000AF92BF92CF92DF92EF92FF920F931F93E2
:10144000CF93DF934B015C0180E8881686E998060C
:1014500088E9A806B1041CF0C8E4D0E002C0C0E5E9
:10146000D0E000911A0410911B04CC24C394D12C19
:10147000EE24E394F12C2FEF3FEF42E452E06CE1D5
:1014800070E088E490E00E948107C0901A04D09038
:101490001B04C501B40124E630E040E050E00E94A6
:1014A0009C2888248394912CAA24A394B12CEE2404
:1014B000EA94FE2C01E010E06CE170E0CE010E94A5
:1014C0004D09DF91CF911F910F91FF90EF90DF9029
:1014D000CF90BF90AF909F908F900895CF92DF9262
:1014E000EF92FF920F931F93CF93DF93CDB7DEB7A9
:1014F0002A970FB6F894DEBF0FBECDBF2AE0EEE903
:10150000F1E0DE01119601900D922A95E1F7AC0110
:10151000440F551F059730F4FA01EA50FE4F8081C1
:10152000918102C08FEF9FEF20911A0430911B042C
:10153000E1E0F0E0EC0FFD1FE40FF51F4081518169
:10154000CC24C394D12CEE24E394F12C672B11F01E
:101550008C0102C089019C0160E070E080E090E0B5
:101560000E9481072A960FB6F894DEBF0FBECDBF4A
:10157000DF91CF911F910F91FF90EF90DF90CF906F
:101580000895CF92DF92EF92FF920F931F93CF9324
:10159000DF9300D000D000D0CDB7DEB7FE0131968A
:1015A00026E0DF011D922A95E9F727E433E03A832C
:1015B00029832FE433E03C832B8320911A0430915C
:1015C0001B04880F991FE80FF91F40815181CC241B
:1015D000C394D12CEE24E394F12C672B39F00CE565
:1015E00015E760E070E080EC90E007C089012CE531
:1015F00035E760E070E080E290E00E948107269687
:101600000FB6F894DEBF0FBECDBFDF91CF911F9113
:101610000F91FF90EF90DF90CF900895CF93DF93DD
:10162000589859985A9897FD37C020E030E0E1E08B
:10163000F0E0AC01022E02C0559547950A94E2F7FE
:1016400040FF09C06BB1AF01022E01C0440F0A94E4
:10165000EAF7462B0AC05BB1BF01022E01C0660F3C
:101660000A94EAF7462F409545234BB92F5F3F4F29
:1016700023303105F1F6EC01CC0FDD1FC45BDE4FEA
:10168000888199810E94ED0460E070E088819981F1
:10169000DF91CF910C94C10ADF91CF910895CF9241
:1016A000DF92EF92FF920F931F93CF93DF93CDB70B
:1016B000DEB728970FB6F894DEBF0FBECDBF27E187
:1016C00032E03E832D8320E232E038872F8320E60C
:1016D0003AEF3A83298320EE37E23C832B83009153
:1016E0001A0410911B04880F991FE1E0F0E0EC0F41
:1016F000FD1FE80FF91F2081318144815581CC24E1
:10170000C394D12CEE24E394F12C6CE170E080E0E2
:1017100090E00E94810728960FB6F894DEBF0FBEB6
:10172000CDBFDF91CF911F910F91FF90EF90DF9090
:10173000CF900895CF92DF92EF92FF920F931F9375
:10174000CF93DF9300D000D0CDB7DEB77C0189E224
:1017500092E09A8389838EE292E09C838B8320912E
:1017600018043091190443E0220F331F4A95E1F722
:10177000F901EC59FE4FE114F10429F464817581FB
:101780008681978104C060817181828193810E94EA
:10179000160A00911A0410911B04EE0CFF1CFE01A6
:1017A000EE0DFF1D41815281CC24C394D12CEE2437
:1017B000E394F12C20E03FEF60E070E080E490E003
:1017C0000E9481070F900F900F900F90DF91CF91A3
:1017D0001F910F91FF90EF90DF90CF900895CF92DF
:1017E000DF92EF92FF920F931F93892B19F020EE57
:1017F00037EF02C027ED35EC00911A0410911B045D
:10180000CC24C394D12CEE24E394F12C45E753E08F
:101810006EE070E080E390E00E9481071F910F91DD
:10182000FF90EF90DF90CF9008958F929F92AF92AC
:10183000BF92CF92DF92EF92FF920F931F93CF93BD
:10184000DF937C0180E190E00E94DD28EC01FC0147
:1018500040961192E817F907E1F706E010E09E01C3
:1018600041E050E0B7010F2C000C880B990B0E944F
:101870007B084C0163E0880C991C6A95E1F78AE0CB
:10188000E816F10429F450E6A52E5AEFB52E04C04F
:1018900043E0A42E48EFB42EC7010B97029748F0FF
:1018A0008DE0E816F1044CF030EEA32E37E2B32EB3
:1018B00004C02AEEA22E27E0B22E00911A04109145
:1018C0001B04CC24C394D12CEE24E394F12C950179
:1018D000AE016EE070E080E090E00E948107009130
:1018E0001A0410911B04950143E352E06EE070E08E
:1018F000C4010E948107CE01DF91CF911F910F910A
:10190000FF90EF90DF90CF90BF90AF909F908F901F
:101910000C947229CF92DF92EF92FF920F931F9354
:10192000892B41F01F910F91FF90EF90DF90CF90A6
:101930000C94F30700911A0410911B04CC24C39457
:10194000D12CEE24E394F12C20EE37E246E352E072
:1019500060E070E080E790E00E9481071F910F91A6
:10196000FF90EF90DF90CF900895CF92DF92EF92AB
:10197000FF920F931F93CF93DF93EC0100911A0412
:1019800010911B04CC24C394D12CEE24E394F12CAD
:101990002FEF3FEF49E352E060E770E080E090E036
:1019A0000E94810700911A0410911B042FEF3FEF52
:1019B000AE0160E770E080E090E00E9481078091D6
:1019C0000E0490910F04A0911004B0911104809323
:1019D0000A0490930B04A0930C04B0930D0481E0CF
:1019E00090E09093F7038093F603DF91CF911F91DE
:1019F0000F91FF90EF90DF90CF900895EF92FF92BC
:101A00000F931F93CF93DF938C0180E190E00E94AE
:101A1000DD28EC0180E190E00E94DD287C010E943D
:101A20009A0382EC0E94A60380E40E94A603C801E8
:101A300024E0959587952A95E1F70E94A603802FCB
:101A40008F700E94A60384E98093BC006AE472E070
:101A5000CE010E94152AB801110F880B990B0FE0D7
:101A600010E097014FEF5FEF0E947B08B701CE01B6
:101A70000E940A2ACE010E94B50CCE010E94722952
:101A8000C701DF91CF911F910F91FF90EF900C94C0
:101A900072291F93CF93DF93182F9B01205C3F4F38
:101AA000220F331FF999FECFE9012196692F6F703C
:101AB000C9010E94242AF999FECF612FCE010E940C
:101AC000242A85E592E0DF91CF911F910C94B50C0B
:101AD000DF92EF92FF920F931F93CF93DF938C01CE
:101AE000EB017A01AB014E5F5F4F2EE530E06AE516
:101AF00070E002960E943F068CE290E00E94210571
:101B0000C01BD10BCC0FDD1FCC0FDD1F2396DF2CAC
:101B1000DD0CDD0800E010E0C017D10754F08F2D78
:101B20009D2D0E943805C7010E9438050F5F1F4F89
:101B3000F3CFDF91CF911F910F91FF90EF90DF9046
:101B40000895CF93DF93EC018937910514F0C8E72E
:101B5000D0E040911A0450911B04609104047091EC
:101B60000504CE010E94680DC233D1053CF44AEE53
:101B700057E0BE0180E090E00E94680DCE018154E4
:101B80009109489770F44AEE57E061E470E080E014
:101B900090E00E94680D40EE57EFBE0182E490E0B5
:101BA00018C0C935D105BCF04AEE57E061E470E0D9
:101BB00080E090E00E94680D40EE57EF69E570E02C
:101BC00082E490E00E94680D40E65AEFBE0189E58C
:101BD00090E00E94680D80910404909105048C1798
:101BE0009D07A4F4D0930504C093040480910E04CF
:101BF00090910F04A0911004B09111048093EE0312
:101C00009093EF03A093F003B093F103D093ED030F
:101C1000C093EC03DF91CF91089540911A04509145
:101C20001B04809104049091050464E870E001971E
:101C30000E94680D10920504109204040895CF923A
:101C4000DF92EF92FF920F931F93CF93DF93EC01FC
:101C500000911A0410911B04CC24C394D12CEE24BF
:101C6000E394F12C20EE37EF4AE352E062E670E0B5
:101C700080E090E00E94810700911A0410911B04FB
:101C8000CD2B61F523E0E22EF12C20EE37E247E682
:101C900052E062E670E080E090E00E943908009136
:101CA0001A0410911B04E12CF12C20EE37EF4EE6C4
:101CB00052E062E670E081E490E00E943908009111
:101CC0001A0410911B0420E63AEF42E752E062E664
:101CD00070E089E590E00E94390810C0CC24C394DC
:101CE000D12CEE24E394F12C20EE37EF48E752E0BC
:101CF00062E670E080E090E00E948107DF91CF9182
:101D00001F910F91FF90EF90DF90CF9008952F9249
:101D10003F924F925F926F927F928F929F92AF927B
:101D2000BF92CF92DF92EF92FF920F931F93CF93C8
:101D3000DF93CDB7DEB728970FB6F894DEBF0FBE9E
:101D4000CDBF2B013C014A013A8329831801FC8253
:101D5000EB82DE82CD8280911A0490911B040E9456
:101D60008D0618861F8200911A0410911B04CC2442
:101D7000C394D12CEE24E394F12C20E03FEF43E810
:101D800064E270E08F8198850E94DE0600911A045B
:101D900010911B0420E03FEF43E86AE470E08F817C
:101DA00098850E94DE068F819885089698878F8394
:101DB00080389105C1F642E050E0C301B2010E94B3
:101DC000B60960E070E0C4010E946E0A60E070E055
:101DD00089819A810E94C10A60E070E0C1010E947D
:101DE0009A0B8B819C810E94150C80E090E00E94F0
:101DF0008A0C8D819E810E941F0E60911A04709141
:101E00001B04C5010E944F0B8091F2039091F303D4
:101E100028960FB6F894DEBF0FBECDBFDF91CF91ED
:101E20001F910F91FF90EF90DF90CF90BF90AF90F8
:101E30009F908F907F906F905F904F903F902F90EA
:101E40000C94EF0B1F920F920FB60F9211242F9349
:101E50003F934F935F938F939F93AF93BF9383B1C0
:101E6000837090E09C0135952795822793272091D8
:101E70001404309115048217930739F1281B390B8C
:101E800023703327225031094091120450911304DA
:101E9000240F351F309313042093120490931504DC
:101EA000809314048091060490910704A091080483
:101EB000B09109040196A11DB11D80930604909371
:101EC0000704A0930804B0930904D89ABF91AF9176
:101ED0009F918F915F914F913F912F910F900FBEE6
:101EE0000F901F9018951F920F920FB60F9211240A
:101EF0008F939F93AF93BF9380910E0490910F04A3
:101F0000A0911004B09111040196A11DB11D809300
:101F10000E0490930F04A0931004B0931104109238
:101F2000060410920704109208041092090483B763
:101F30008E7F83BFBF91AF919F918F910F900FBE06
:101F40000F901F9018950F931F9340910604509186
:101F5000070460910804709109048A019B0135957A
:101F6000279517950795049FC001059F900D149F15
:101F7000900D11241F910F910895CF92DF92EF924F
:101F8000FF926B017C0180911204909113048330C5
:101F900091058CF00E94A30F092E000CAA0BBB0B1D
:101FA0001092130410921204BC01CD016C0D7D1D22
:101FB0008E1D9F1D19C08E3F9F4F9CF40E94A30F42
:101FC000092E000CAA0BBB0B1092130410921204E2
:101FD000A7019601281B390B4A0B5B0BCA01B901FB
:101FE00003C060E070E0CB01FF90EF90DF90CF90F6
:101FF0000895805C80937C008FE99FE00197F1F762
:1020000000C00000EAE7F0E08081806480838FE90F
:102010009FE00197F1F700C00000209178008091C7
:10202000790090E0982F8827820F911D089581E014
:1020300090E00E94F90F8C52914097FF02C080E01F
:1020400090E0089583E090E00E94F90F25E0AC0154
:10205000249FC001259F900D1124BC01990F880B6E
:10206000990B0E94712720E030EC4FE754E40E9466
:10207000C7269B01AC0160E070E080EA90E40E941A
:10208000C72620E030E040E85FE30E945A269B012B
:10209000AC0160E070E08AE794E40E94C72620E08B
:1020A00030EC4BE454E40E945A2623EC35EF4CE02C
:1020B00051E40E94C7260E943927CB0108958F92D0
:1020C0009F92AF92BF92CF92DF92EF92FF920F93C7
:1020D0001F93CF93DF930E9422108932910534F031
:1020E0008D33910534F4C0EED7EF05C0C0EED7E2D2
:1020F00002C0C0E6DAEFC0901A04D0901B049C0125
:10210000990F440B550B88248394912CAA24A394F3
:10211000B12C7E010FEF1FEF6EE070E080E690E0E3
:102120000E944D090C965C0123E0AA0CBB1C2A9569
:10213000E1F700911A0410911B04CC24C394D12C14
:10214000EE24E394F12C9E0148E86EE070E0C501B6
:102150000E94DE0600911A0410911B049E0143E4C4
:102160006EE070E0C50108960E94DE06DF91CF9117
:102170001F910F91FF90EF90DF90CF90BF90AF90A5
:102180009F908F900895FF920F931F93CF93DF93AB
:10219000660F771F860F971FEC016096CC0FDD1F2F
:1021A000CC0FDD1FF894CE010E941C2AF82ECE0120
:1021B00001960E941C2A082FCE0102960E941C2A1A
:1021C000182FCE0103960E941C2A482F78948F2D39
:1021D00090E0A0E0B0E0BA2FA92F982F8827800FB9
:1021E000911DA11DB11DDC0199278827212F30E009
:1021F000322F2227820F931FA11DB11DBC01CD01DB
:10220000640F711D811D911DDF91CF911F910F9161
:10221000FF9008954F925F926F927F928F929F925C
:10222000AF92BF92CF92DF92EF92FF92CF93DF9364
:10223000EB01CC0FDD1F8C0F9D1FEC016096CC0FC6
:10224000DD1FCC0FDD1FF8944A01BB2497FCB0942E
:10225000AB2CD4019927882769017A01C81AD90AB9
:10226000EA0AFB0A652F992767FD9095792F892F38
:102270004D2C5E2C6F2C772467FC7A94F999FECF55
:10228000CE010E94242AF999FECF682DCE01019635
:102290000E94242AF999FECF642DCE0102960E9455
:1022A000242AF999FECF6C2DCE0103960E94242A90
:1022B0007894DF91CF91FF90EF90DF90CF90BF9017
:1022C000AF909F908F907F906F905F904F90089508
:1022D00007960E941C2A282F30E0823010F4C90192
:1022E00008958FEF9FEF08950796F999FECF0C940C
:1022F000242A80E090E00E941C2A282F30E08530BC
:1023000010F4C90108958FEF9FEF0895BF92CF9207
:10231000DF92EF92FF920F931F93CF93DF9300D042
:1023200000D0CDB7DEB7C82EB92E7B01D42EA901BF
:102330009801682F80E090E029833A834B835C8387
:102340000E94242AB7018C2D9B2D0E9474116D2DA3
:1023500086E090E00E94242A29813A814B815C81A9
:102360006C2D7B2DC7010F900F900F900F90DF9178
:10237000CF911F910F91FF90EF90DF90CF90BF9082
:102380000C940A11CF93DF93CDB7DEB728970FB621
:10239000F894DEBF0FBECDBF88E0E8EAF1E0DE01D1
:1023A000119601900D928A95E1F780E090E00E94ED
:1023B000F90FFE01319620E030E041915191BA01D0
:1023C000695071092F5F3F4F861797073CF0475FB1
:1023D0005F4F4817590714F0C90105C02430310573
:1023E00061F780E090E028960FB6F894DEBF0FBE4C
:1023F000CDBFDF91CF9108950F931F93CF93DF93BC
:10240000E0911804F0911904EE0FFF1FE850FC4F03
:102410000081118189E892E00E94B50CC8010E94F8
:10242000FE0C0E94C211892BE1F70E94C211009795
:1024300089F580911204909113041816190674F40A
:10244000053F8FE018071CF4E8012A9602C0CFEF81
:10245000DFE0109213041092120401C0E801809191
:1024600012049091130497FF0BC0CB30D10514F0E8
:102470002A9702C0C0E0D0E0109213041092120418
:10248000C017D10719F0CE010E94FE0C0E94C211A4
:102490008E01CDCF029791F46091180470911904C8
:1024A000FB01EE0FFF1FE850FC4F11830083C801B2
:1024B000DF91CF911F910F910C94490DDF91CF9136
:1024C0001F910F9108952F923F924F925F926F92BA
:1024D0007F928F929F92AF92BF92CF92DF92EF92B4
:1024E000FF920F931F93CF93DF93CDB7DEB7609723
:1024F0000FB6F894DEBF0FBECDBF81E190E00E9421
:10250000DD283C01FC014196D3011D92A817B907B3
:10251000E1F7C301409620E22193E817F907E1F7BC
:10252000E0911804F091190423E0EE0FFF1F2A95A3
:10253000E1F79F012C593E4FD9014D915D916D916D
:102540007C9113974D835E836F83788714964D91AA
:102550005D916D917C91179749875A876B877C872E
:102560008D819E81AF81B885481759076A077B071F
:1025700084F039852A859B858C854D815E816F81AC
:10258000788549875A876B877C873D832E839F8315
:10259000888780911A0490911B040E948D06CC2498
:1025A000C394D12CEE24E394F12C0CE515E72FEF26
:1025B0003FEFA3016EE070E080E090E00E948107B1
:1025C0002FEF3FEF48E952E06EE070E080E190E0ED
:1025D0000E948107C3010E9472290E94C211892BA7
:1025E000E1F780E090E00E941F0E49855A856B85D7
:1025F0007C8549835A836B837C8389819A81AB81F3
:10260000BC812D813E814F81588582179307A40795
:10261000B5075CF70E94C2111C01E0915601F091D0
:102620005701EE0FFF1FEE0FFF1FE85AFE4F80818C
:102630009181A281B38129813A814B815C81280FEC
:10264000391F4A1F5B1FCA01B9010E94FC04C090D8
:102650001A04D0901B0469817A818B819C8124E6C5
:1026600030E040E050E00E949C2888248394912C24
:10267000AA24A394B12CEE24EA94FE2C01E010E0ED
:1026800068E370E088E290E00E944D090E94171014
:102690009E878D870E94A10D80E090E0209100012F
:1026A000309101014D855E852417350794F0209106
:1026B0000E0430910F0440911004509111042D87A5
:1026C0003E874F87588B892B09F4C8C020E030E043
:1026D000ACC02114310459F7892B21F484EA92E02B
:1026E0000E94B50C0E9417109E878D870E94A10D35
:1026F0000E94C2111C0169817A818B819C810E9498
:10270000BD0F2B013C01672B682B692BB9F1E091C0
:102710005601F0915701EE0FFF1FEE0FFF1FE85A11
:10272000FE4F80819181A281B381BC01CD01640DF6
:10273000751D861D971D0E94FC04C0901A04D09040
:102740001B04C301B20124E630E040E050E00E94E7
:102750009C2888248394912CAA24A394B12CEE2441
:10276000EA94FE2C01E010E068E370E088E290E07B
:102770000E944D0949825A826B827C8281E090E0FE
:102780008DCF232B21F48DEA92E00E94B50C0E949C
:10279000C2111C01892B21F01D861E861F86188AF6
:1027A00069817A818B819C810E94BD0F2B013C0144
:1027B000672B682B692BB9F1E0915601F091570115
:1027C000EE0FFF1FEE0FFF1FE85AFE4F8081918131
:1027D000A281B381BC01CD01640D751D861D971DBD
:1027E0000E94FC04C0901A04D0901B04C301B201E3
:1027F00024E630E040E050E00E949C288824839446
:10280000912CAA24A394B12CEE24EA94FE2C01E08E
:1028100010E068E370E088E290E00E944D09498290
:102820005A826B827C8221E030E040910E0450910C
:102830000F0460911004709111048D859E85AF8501
:10284000B8894D96A11DB11D84179507A607B70736
:102850000CF097CF88EB92E00E94B50C69817A81E9
:102860008B819C810E94BD0F2B013C01672B682B43
:10287000692BB9F1E0915601F0915701EE0FFF1F5E
:10288000EE0FFF1FE85AFE4F80819181A281B38134
:10289000BC01CD01640D751D861D971D0E94FC04B1
:1028A000C0901A04D0901B04C301B20124E630E0AA
:1028B00040E050E00E949C2888248394912CAA2414
:1028C000A394B12CEE24EA94FE2C01E010E068E31E
:1028D00070E088E290E00E944D0949825A826B8242
:1028E0007C8232E02316310489F043E0241631045F
:1028F00091F069817A818B819C816C597F4F8F4FD8
:102900009F4F69837A838B839C8377CE69817A8199
:102910008B819C8104C060E070E080E090E0609674
:102920000FB6F894DEBF0FBECDBFDF91CF911F91E0
:102930000F91FF90EF90DF90CF90BF90AF909F905E
:102940008F907F906F905F904F903F902F90089561
:102950002F923F924F925F926F927F928F929F92AF
:10296000AF92BF92CF92DF92EF92FF920F931F939D
:10297000CF93DF9300D000D0CDB7DEB781E190E0F8
:102980000E94DD283C01FC014196D3011D92A8174D
:10299000B907E1F7C301409620E22193E817F90750
:1029A000E1F780911A0490911B040E948D06CC24BB
:1029B000C394D12CEE24E394F12C0CE515E72FEF12
:1029C0003FEFA3016EE070E080E090E00E9481079D
:1029D0002FEF3FEF48E952E06EE070E080E190E0D9
:1029E0000E948107C3010E9472290E94C211892B93
:1029F000E1F780E090E00E941F0E24E6222E312CA9
:102A0000412C512C1C821B820E94C2113C01E0917E
:102A10001804F0911904EE0FFF1F2B813C81E20F87
:102A2000F31FEE0FFF1FEE0FFF1FEC59FE4FA0919B
:102A30005601B0915701AA0FBB1FAA0FBB1FA85A7E
:102A4000BE4F40815181628173818D919D910D9026
:102A5000BC91A02D8A019B01080F191F2A1F3B1F43
:102A6000C901B8010E94FC04C0901A04D0901B0454
:102A7000E0911804F0911904EE0FFF1F2B813C81A7
:102A8000E20FF31FEE0FFF1FEE0FFF1FEC59FE4F7B
:102A90006081718182819381A20191010E949C28B1
:102AA00088248394912CAA24A394B12CEE24EA9434
:102AB000FE2C01E010E068E370E088E290E00E9404
:102AC0004D090E9417109A8389830E94A10D0091DD
:102AD0001A0410911B04CC24C394D12CEE24E3944B
:102AE000F12C20EE37EF4B814F5B68E370E088E01C
:102AF00090E00E94DE0680E090E02091000130919D
:102B0000010149815A81241735075CF0C0900E04F9
:102B1000D0900F04E0901004F090110420E030E019
:102B20000BC16114710491F7892B21F484EA92E0BE
:102B30000E94B50C0E9417109A8389830E94A10DF0
:102B40000E94C2113C01E0911804F0911904EE0FAB
:102B5000FF1F4B815C81E40FF51FEE0FFF1FEE0F8F
:102B6000FF1FEC59FE4F60817181828193810E9429
:102B7000BD0F611571058105910509F453C0E09100
:102B80001804F0911904EE0FFF1F0B811C81E00F58
:102B9000F11FEE0FFF1FEE0FFF1FEC59FE4F60837A
:102BA000718382839383E0915601F0915701EE0F78
:102BB000FF1FEE0FFF1FE85AFE4FC080D180E2805A
:102BC000F3806C0D7D1D8E1D9F1D0E94FC04C09026
:102BD0001A04D0901B04E0911804F0911904EE0F30
:102BE000FF1FE00FF11FEE0FFF1FEE0FFF1FEC594D
:102BF000FE4F6081718182819381A20191010E94C7
:102C00009C2888248394912CAA24A394B12CEE248C
:102C1000EA94FE2C01E010E068E370E088E290E0C6
:102C20000E944D0981E090E068CF232B21F48DEACA
:102C300092E00E94B50C0E94C2113C01892B19F050
:102C4000C12CD12C7601E0911804F0911904EE0FFB
:102C5000FF1F8B819C81E80FF91FEE0FFF1FEE0F06
:102C6000FF1FEC59FE4F60817181828193810E9428
:102C7000BD0F611571058105910509F45BC0E091F7
:102C80001804F0911904EE0FFF1F0B811C81E00F57
:102C9000F11FEE0FFF1FEE0FFF1FEC59FE4F608379
:102CA000718382839383E0915601F0915701EE0F77
:102CB000FF1FEE0FFF1FE85AFE4FC080D180E28059
:102CC000F3806C0D7D1D8E1D9F1D0E94FC04C09025
:102CD0001A04D0901B04E0911804F0911904EE0F2F
:102CE000FF1FE00FF11FEE0FFF1FEE0FFF1FEC594C
:102CF000FE4F6081718182819381A20191010E94C6
:102D00009C2888248394912CAA24A394B12CEE248B
:102D1000EA94FE2C01E010E068E370E088E290E0C5
:102D20000E944D09C0900E04D0900F04E090100452
:102D3000F090110421E030E040910E0450910F0416
:102D40006091100470911104D701C6014D96A11D28
:102D5000B11D84179507A607B7070CF066CFE09161
:102D60001804F0911904EE0FFF1F2B813C81E20F34
:102D7000F31FEE0FFF1FEE0FFF1FEC59FE4F608198
:102D80007181828193810E94BD0F6115710581055A
:102D9000910509F455C0E0911804F0911904EE0F63
:102DA000FF1F4B815C81E40FF51FEE0FFF1FEE0F3D
:102DB000FF1FEC59FE4F6083718382839383E09100
:102DC0005601F0915701EE0FFF1FEE0FFF1FE85A5B
:102DD000FE4FC080D180E280F3806C0D7D1D8E1D82
:102DE0009F1D0E94FC04C0901A04D0901B04E09127
:102DF0001804F0911904EE0FFF1F8B819C81E80FDE
:102E0000F91FEE0FFF1FEE0FFF1FEC59FE4F608101
:102E1000718182819381A20191010E949C28882462
:102E20008394912CAA24A394B12CEE24EA94FE2C32
:102E300001E010E068E370E088E290E00E944D0954
:102E400092E06916710429F0E3E06E167104C1F195
:102E50002CC00B811C81C801012E000CAA0BBB0BDE
:102E6000AC01BD018CE1440F551F661F771F8A9589
:102E7000D1F78091180490911904880F991F800F41
:102E8000911F880F991F880F991F8C599E4FFC0125
:102E900080819181A281B3818A019B01080F191F52
:102EA0002A1F3B1FC901B8010EC02B813C81213074
:102EB000310509F4A7CD01E010E01C830B83A4CDFC
:102EC00060E070E0CB010F900F900F900F90DF91BA
:102ED000CF911F910F91FF90EF90DF90CF90BF9017
:102EE000AF909F908F907F906F905F904F903F90AA
:102EF0002F9008958F929F92AF92BF92CF92DF92C0
:102F0000EF92FF920F931F93CF93DF9381E190E0B5
:102F10000E94DD28EC01FC014196DE011D92A817FC
:102F2000B907E1F7CE01409620E22193E817F907AF
:102F3000E1F780911A0490911B040E948D06CC2425
:102F4000C394D12CEE24E394F12C0CE515E72FEF7C
:102F50003FEFAE016EE070E080E090E00E948107FC
:102F60002FEF3FEF44EC52E06EE070E088E090E03D
:102F70000E948107CE010E947229809100019091E8
:102F800001010E94A10D80E090E00E941F0EC09000
:102F90001A04D0901B042091000130910101032EEE
:102FA000000C440B550B88248394912CAA24A394E1
:102FB000B12CEE24EA94FE2C0FEF1FEF68E370E0D3
:102FC00088E290E00E944D098091000190910101FA
:102FD0000E94A10D809112049091130403970CF4A8
:102FE00047C080910001909101018C3091052CF433
:102FF00001969093010180930001809100019091CE
:1030000001010E94A10D00911A0410911B04CC240F
:10301000C394D12CEE24E394F12C2FEF3FEF45E441
:1030200052E068E370E088E290E00E948107C0907F
:103030001A04D0901B042091000130910101032E4D
:10304000000C440B550B88248394912CAA24A39440
:10305000B12CEE24EA94FE2C0FEF1FEF68E370E032
:1030600088E290E00E944D0910921304109212041D
:1030700080911204909113048E3F9F4FB4F480917D
:10308000000190910101181619062CF401979093F4
:1030900001018093000180910001909101010E9443
:1030A000A10D10921304109212040E94C2110097F5
:1030B00009F490CF029791F4609100018AE890E0C2
:1030C000DF91CF911F910F91FF90EF90DF90CF9004
:1030D000BF90AF909F908F900C94242ADF91CF9156
:1030E0001F910F91FF90EF90DF90CF90BF90AF9026
:1030F0009F908F9008952F923F924F925F926F9280
:103100007F928F929F92AF92BF92CF92DF92EF9277
:10311000FF920F931F93CF93DF93CDB7DEB72A971C
:103120000FB6F894DEBF0FBECDBF7A876987588788
:103130004F8329019A8389831C01E3E0220C331C0D
:10314000EA95E1F7F3E0440F551FFA95E1F75C8348
:103150004B838EE0869F9001879F300D11243E8324
:103160002D835B01812C912C4A145B0444F16D800A
:103170007E80680C791C00911A0410911B04CC24E9
:10318000C394D12CEE24E394F12C2FEF3FEF42E8CF
:10319000B301C1010E94DE0600911A0410911B04C4
:1031A0002FEF3FEF42E8B3018B819C810E94DE0646
:1031B0003FEFA31AB30A4EE0840E911CD5CF898449
:1031C0009A8451E0851A91088EE0889DF001899DCE
:1031D000F00D1124FE83ED83FFEF4F1A5F0A849DEB
:1031E0003001859D700C1124A12CB12CE981FA814C
:1031F0003196FA83E983F8E0AF0EB11C00911A040E
:1032000010911B0429813A814F8158852417350775
:10321000FCF4CC24C394D12CEE24E394F12C2FEFB6
:103220003FEF43E86D817E81C1018A0D9B1D9A8726
:1032300089870E94DE0600911A0410911B042FEF6B
:103240003FEF43E8B30189859A850E94DE06CECF21
:103250008EE0B82EB49C3001B59C700C1124CC24A7
:10326000C394D12CEE24E394F12C2FEF3FEF44E8EC
:10327000B301C1010E94DE0600911A0410911B04E3
:103280002FEF3FEF45E8B3018B819C810E94DE0662
:10329000B89C3001B99C700C112400911A04109153
:1032A0001B042FEF3FEF46E8B301C1010E94DE0689
:1032B00000911A0410911B042FEF3FEF47E8B30170
:1032C0008B819C810E94DE062A960FB6F894DEBFA1
:1032D0000FBECDBFDF91CF911F910F91FF90EF9067
:1032E000DF90CF90BF90AF909F908F907F906F9026
:1032F0005F904F903F902F9008958F929F92AF9242
:10330000BF92CF92DF92EF92FF920F931F93CF93D2
:10331000DF934C018B01FC0101900020E9F78E1B2B
:103320009F0B41965C01B694A79481E190E00E94C6
:10333000DD28EC01FC014196DE011D92A817B907BA
:10334000E1F7CE01409620E22193E817F907E1F773
:1033500098012D5F3F4F4DE050E063E070E084E066
:1033600090E00E947B18CC24C394D12CEE24E394EB
:10337000F12C0CE515E72FEF3FEFAE016EE070E0AA
:1033800080E090E00E9481072FEF3FEFA4016EE004
:1033900070E0C501E3E0880F991FEA95E1F70E940C
:1033A0008107CE01DF91CF911F910F91FF90EF9098
:1033B000DF90CF90BF90AF909F908F900C94722928
:1033C000CF92DF92EF92FF920F931F93452B41F024
:1033D0001F910F91FF90EF90DF90CF900C94140805
:1033E000AC0100911A0410911B049B012D5F3F4F0B
:1033F0008EE0829FB001839F700D1124CC24C39472
:10340000D12CEE24E394F12C2FEF3FEF88E290E0F3
:103410000E9481071F910F91FF90EF90DF90CF9056
:1034200008958F929F92AF92BF92CF92DF92EF92C8
:10343000FF920F931F93CF93DF93CDB7DEB7C654A0
:10344000D1090FB6F894DEBF0FBECDBF5B0126E4F5
:10345000E0EBF1E0DE01119601900D922A95E1F783
:103460002AE0289F6001299FD00C112400E010E081
:103470009C01220F331FA9014E5F5E4F7A0125E0A8
:10348000289F4001299F900C1124F7018081918190
:10349000801791074CF10A151B0589F4F401E00F20
:1034A000F11FEE0FFF1F81E090E08C0F9D1FE80FD2
:1034B000F91FB801808191810E94140812C0F8019F
:1034C000EE0FFF1FEC0DFD1D41E050E04C0F5D1FA6
:1034D000E40FF51F40E050E0B801808191810E9427
:1034E000E0190F5F1F4FD1CFCA5BDF4F0FB6F894C3
:1034F000DEBF0FBECDBFDF91CF911F910F91FF9027
:10350000EF90DF90CF90BF90AF909F908F900895F5
:103510002F923F924F925F926F927F928F929F92E3
:10352000AF92BF92CF92DF92EF92FF920F931F93D1
:10353000CF93DF9300D000D0CDB7DEB73C017A83C4
:1035400069832A0141E050E0B2010E94111A0E94F1
:10355000C2116C014B825C82F4E62F2E312C412C7F
:10356000512CC114D10409F0C1C080911204909172
:103570001304039704F140E050E06B817C81C301A8
:103580000E94111A0B811C8129813A8102171307AD
:103590002CF40F5F1F4F1C830B8302C01C821B8205
:1035A00041E050E06B817C81C3010E94111A1092AE
:1035B00013041092120480911204909113048E3F10
:1035C0009F4FFCF440E050E06B817C81C3010E947E
:1035D000111A8B819C811816190624F401979C837B
:1035E0008B8304C0E981FA81FC83EB8341E050E0E6
:1035F0006B817C81C3010E94111A109213041092F6
:103600001204F1E06F16710429F48B819C810E94F1
:103610008B0368C002E06016710409F05BC0E091A2
:103620001804F0911904EE0FFF1F2B813C81E20F6B
:10363000F31FEE0FFF1FEE0FFF1FEC59FE4FA0917F
:103640005601B0915701AA0FBB1FAA0FBB1FA85A62
:10365000BE4F40815181628173818D919D910D900A
:10366000BC91A02D8A019B01080F191F2A1F3B1F27
:10367000C901B8010E94FC04C0901A04D0901B0438
:10368000E0911804F0911904EE0FFF1F2B813C818B
:10369000E20FF31FEE0FFF1FEE0FFF1FEC59FE4F5F
:1036A0006081718182819381A20191010E949C2895
:1036B00088248394912CAA24A394B12CEE24EA9418
:1036C000FE2C01E010E064E570E080E290E00E94F2
:1036D0004D0908C033E06316710421F48B819C818D
:1036E0000E94ED040E94C2116C013BCF80915601F3
:1036F000909157010E94ED040E94C211892BE1F7BD
:1037000082E0C816D10431F093E0C916D10429F43F
:103710008DEF04C08B819C8102C08FEF9FEF0F90D3
:103720000F900F900F90DF91CF911F910F91FF900D
:10373000EF90DF90CF90BF90AF909F908F907F9051
:103740006F905F904F903F902F9008950F931F932D
:1037500080911A0490911B040E948D060E94C21150
:10376000892BE1F7609102017091030183E693E0F8
:103770000E947D1940911804509119046FEF7FEF5A
:1037800080E090E00E94111A4091180450911904B1
:10379000609102017091030180E090E00E94881A1C
:1037A00097FD05C0BC01990F880B990B5AC1039670
:1037B00009F453C100911A0410911B0420E830E071
:1037C00040E750E06CE170E080E290E00E94B006DB
:1037D0000E94C211892BE1F76091040170910501EB
:1037E0008CE693E00E947D194091F2035091F3031F
:1037F0006FEF7FEF81E090E00E94111A4091F20399
:103800005091F303609104017091050181E090E013
:103810000E94881A97FD04C0BC01665F7F4F11C1EA
:10382000039609F41AC100911A0410911B0420E8B0
:1038300030E040E750E06CE170E080E290E00E9410
:10384000B0060E94C211892BE1F7609106017091C8
:10385000070189E793E00E947D1940911C04509173
:103860001D046FEF7FEF82E090E00E94111A4091FB
:103870001C0450911D04609106017091070182E0C3
:1038800090E00E94881A97FD04C0BC016C5E7F4FD7
:10389000D8C0039609F4E1C000911A0410911B04EA
:1038A00020E830E040E750E06CE170E080E290E03A
:1038B0000E94B0060E94C211892BE1F760910801B5
:1038C0007091090184E893E00E947D1940915601AE
:1038D000509157016FEF7FEF83E090E00E94111A43
:1038E0004091560150915701609108017091090172
:1038F00083E090E00E94881A97FD04C0BC01625EDC
:103900007F4F9FC0039609F4A8C000911A0410913C
:103910001B0420E830E040E750E06CE170E080E21A
:1039200090E00E94B0060E94C211892BE1F76091DD
:103930000A0170910B018DE893E00E947D1941E02E
:1039400050E060E070E084E090E00E94111A609125
:103950000A0170910B0140E050E084E090E00E9489
:10396000881A97FD04C0BC01685D7F4F6AC003964A
:1039700009F473C000911A0410911B0420E830E090
:1039800040E750E06CE170E080E290E00E94B00619
:103990000E94C211892BE1F760910C0170910D0119
:1039A00087E993E00E947D1941E050E060E070E01B
:1039B00085E090E00E94111A4091F4035091F503C4
:1039C00060910C0170910D0185E090E00E94881AD1
:1039D00097FD04C0BC016E5C7F4F33C00396E9F1D4
:1039E00000911A0410911B0420E830E040E750E0F9
:1039F0006CE170E080E290E00E94B0060E94C2118B
:103A0000892BE1F760910E0170910F018DE993E030
:103A10000E947D1940E050E06FEF7FEF86E090E07C
:103A20000E94111A60910E0170910F0140E050E068
:103A300086E090E00E94881A97FD08C0BC01645C93
:103A40007F4F072E000C880B990B0BC0039629F0B3
:103A50006EEF7FEF8FEF9FEF04C06DEF7FEF8FEF83
:103A60009FEF1F910F910895AF92BF92CF92DF9277
:103A7000EF92FF920F931F93CF93DF93EC0180910E
:103A80001A0490911B040E948D06A12CB12CCC2409
:103A9000C394D12CEE24E394F12C0CE515E72FEF21
:103AA0003FEF40E26EE070E0C5010E94DE0628E0D4
:103AB000A20EB11C80E8A816B10449F72FEF3FEF22
:103AC00044EA53E06EE070E080E190E00E948107FC
:103AD000209739F409E11CE32FEF3FEF40EB53E06F
:103AE0000CC0CC24C394D12CEE24E394F12C09E136
:103AF0001CE32FEF3FEF4AEB53E06CE170E088E10D
:103B000090E00E9481070E94C211892BE1F7E091A9
:103B10001804F0911904EE0FFF1F80911C0490917E
:103B20001D04E80FF91FEE0FFF1FEE0FFF1FEC59EA
:103B3000FE4F8E01000F111F000F111FE801C85A20
:103B4000DE4F408151816281738188819981AA8190
:103B5000BB816A017B01C80ED91EEA1EFB1EC7018C
:103B6000B6010E94FC04488159816A817B818AE206
:103B700090E00E945004688179818A819B8141E0B4
:103B800050E00E94B60980911204909113040397AB
:103B9000E4F0488159816A817B81465F5F4F6F4FB6
:103BA0007F4F488359836A837B831092130410925A
:103BB00012048AE290E00E945004688179818A812F
:103BC0009B8141E050E00E94B609809112049091DF
:103BD00013048E3F9F4FE4F4488159816A817B81B1
:103BE0004A50510961097109488359836A837B836B
:103BF00010921304109212048AE290E00E94500482
:103C0000688179818A819B8141E050E00E94B609F8
:103C10000E94C2115C01892B09F4B5CF0E94C21128
:103C2000892BE1F782E0A816B10441F4E801C85AF3
:103C3000DE4F688179818A819B8103C060E070E0FA
:103C4000CB01DF91CF911F910F91FF90EF90DF900B
:103C5000CF90BF90AF90089584EC93E00E94B50C94
:103C600080E090E00E94A10D83B7817F8C6083BFCC
:103C700083B7816083BF889583B78E7F83BF89E4D4
:103C800092E00C94B50CCF93DF9300D000D000D01D
:103C9000CDB7DEB700910E0410910F0420911004EF
:103CA0003091110409831A832B833C8310921B04E7
:103CB00010921A048FEF8AB9229A81E088B983E0C2
:103CC00085B983E880937A0080E090E00E94F90F44
:103CD0008091680081608093680080916B008360B0
:103CE00080936B00109280008DE08093810086E0CD
:103CF000809389008BE18093880080916F008260BF
:103D000080936F008FEF9FEF0E940E0B80E190E099
:103D10000E94DD28909317048093160480E090E0C1
:103D2000E0911604F0911704E80FF91F1082019634
:103D300080319105A9F70E9491030E9402050E941B
:103D40004F050E94CC030E9479119093190480932F
:103D50001804019631F482E090E090931904809366
:103D600018040091180410911904C8010E946811E8
:103D700090931D0480931C04019621F410921D045D
:103D800010921C04E0901C04F0901D04B801C701BF
:103D90000E94C310000F111F0E0D1F1D000F111FD9
:103DA000000F111FF801EC59FE4F6083718382836D
:103DB0009383009118041091190480911C04909130
:103DC0001D047801EE0CFF1C8E0D9F1D880F991F9E
:103DD000880F991FDC01AC59BE4F6D016D917D912B
:103DE0008D919C91A8010E945A03892B81F4F801BE
:103DF000EE0FFF1FEE0FFF1FE85CFE4F80819181E9
:103E0000A281B381F60180839183A283B383F701FA
:103E1000E45BFE4F8081918190935701809356011E
:103E2000C8010E940E0B8AE890E00E941C2A282FED
:103E300030E030930101209300018D3030F088E0B4
:103E400090E0909301018093000186E090E00E9451
:103E5000F90FBC01990F880B990B0E94712720E084
:103E600030E040EA50E40E94FD2720E030E040E8E6
:103E70005AE30E94FD2720E030E040EC50E40E942D
:103E8000FD2720E030E040E251E40E94FD270E943F
:103E900039272B013C011B01E0911804F091190412
:103EA000EE0FFF1F80911C0490911D04E80FF91F75
:103EB000EE0FFF1FEE0FFF1FEC59FE4FA0915601B2
:103EC000B0915701AA0FBB1FAA0FBB1FA85ABE4F24
:103ED00040815181628173818D919D910D90BC9142
:103EE000A02D8A019B01080F191F2A1F3B1FC90122
:103EF000B8010E94FC04E0911804F0911904EE0F3F
:103F0000FF1F80911C0490911D04E80FF91FEE0F14
:103F1000FF1FEE0FFF1FEC59FE4FA0915601B0910D
:103F20005701AA0FBB1FAA0FBB1FA85ABE4F408143
:103F30005181628173818D919D910D90BC91A02DD5
:103F40008A019B01080F191F2A1F3B1FC901B801D5
:103F50000E94FC0480915601909157010E94ED044B
:103F600040E050E0BA018AE390E00E9450048CE8FF
:103F700090E00E941C2A282F30E03093F303209316
:103F8000F203823020F01092F3031092F20380913A
:103F9000F2039091F3030E948B0340911804509117
:103FA000190400911C0410911D04A090F403B0901A
:103FB000F5032091560130915701FA01EE0FFF1FD2
:103FC000E00FF11FEE0FFF1FEE0FFF1FEC59FE4F2A
:103FD0006081718182819381C12CD12C72010E94F8
:103FE000870E08EF13E0E12C28E0F22EC6010E94B4
:103FF0003203D8018D939C938130904118F0F801E1
:10400000F182E082FFEFCF1ADF0A0E5F1F4F25E03B
:10401000C216D10459F7E0911804F0911904EE0F7B
:10402000FF1FE850FC4F808191810E94FE0C789424
:104030008FEC93E00E94B50C812C912C1EEC412E4C
:1040400055245A94652C752C1E821D82E09118040B
:10405000F0911904EE0FFF1F80911C0490911D0434
:10406000E80FF91FEE0FFF1FEE0FFF1FEC59FE4F79
:1040700060817181828193810E94BD0F61157105FC
:104080008105910509F444C0E0911804F0911904E8
:10409000EE0FFF1F20911C0430911D04E20FF31F4F
:1040A000EE0FFF1FEE0FFF1FEC59FE4F6083718371
:1040B00082839383E0915601F0915701EE0FFF1F29
:1040C000EE0FFF1FE85AFE4F0081118122813381DC
:1040D000600F711F821F931F0E94FC04E09118045F
:1040E000F0911904EE0FFF1F80911C0490911D04A4
:1040F000E80FF91FEE0FFF1FEE0FFF1FEC59FE4FE9
:10410000608171818281938142E050E00E94B60912
:104110000E94C2118130910509F0D6C26091180445
:104120007091190480911C0490911D04FB01EE0F05
:10413000FF1FE80FF91FEE0FFF1FEE0FFF1FEC59D7
:10414000FE4F20813181428153810E940A1180916A
:1041500018049091190460911C0470911D04FC01D5
:10416000EE0FFF1FE60FF71FEE0FFF1FEE0FFF1FF3
:10417000EC59FE4F0081118122813381409156011B
:10418000509157010E9486110E94C211892BE1F7BC
:1041900040911C0450911D04E0911804F091190401
:1041A000EE0FFF1FE40FF51FEE0FFF1FEE0FFF1FB7
:1041B000EC59FE4F60817181828193810E94A61B20
:1041C0006832710509F4BFC10CF056C06B3071053F
:1041D00009F42BC19CF477FD52C2653071050CF4D3
:1041E00092C06A30710509F04AC21092F30310922E
:1041F000F20380E090E00E948B031EC164317105E0
:104200000CF43DC2663171050CF41DC16E5171098B
:104210006230710508F033C2709357016093560104
:10422000A0911804B0911904AA0FBB1F80911C041F
:1042300090911D04A80FB91FAA0FBB1FAA0FBB1F87
:10424000AC59BE4F660F771F660F771FFB01E85A08
:10425000FE4F4D915D916D917C9180819181A28104
:10426000B3818A019B01080F191F2A1F3B1FC90137
:10427000B8010E94FC04FAC1643371057CF4623316
:1042800071050CF0D0C16932710509F47FC16A3241
:10429000710509F0F4C10E947A17F1C16E337105FE
:1042A00009F4EBC12CF46C3371050CF0C9C1E7C102
:1042B0006F33710509F0E3C140911804509119045E
:1042C00000911C0410911D04A090F403B090F5031C
:1042D0002091560130915701FA01EE0FFF1FE00FB8
:1042E000F11FEE0FFF1FEE0FFF1FEC59FE4F608115
:1042F000718182819381C12CD12C71010E94870E22
:104300000E942C1EBCC17093190460931804CB0149
:104310000E940E0B0091180410911904B8018091AD
:104320001C0490911D040E94C310A8010E945A030E
:10433000E0901804F090190400911C0410911D04E1
:10434000892BB1F0B701C8010E94C3109701220F59
:10435000331F200F311F220F331F220F331F2C5901
:104360003E4FD9016D937D938D939C9313971BC002
:10437000F701EE0FFF1FE00FF11FEE0FFF1FEE0F13
:10438000FF1FEC59FE4FC701880F991F880F991F17
:10439000885C9E4FDC014D915D916D917C914083D5
:1043A0005183628373838091180490911904880F5C
:1043B000991F20911C0430911D04820F931F880FB8
:1043C000991F880F991FDC01AC59BE4FE09156012F
:1043D000F0915701EE0FFF1FEE0FFF1FE85AFE4F3F
:1043E0004D915D916D917C9180819181A281B3818C
:1043F0008A019B01080F191F2A1F3B1FC901B80121
:104400000E94FC046091180480E090E00E94242A3D
:10441000E0911804F0911904EE0FFF1FE850FC4FD3
:10442000808191810E94FE0C2AC121E030E030930E
:10443000F3032093F2032A9A6091F2038CE890E050
:104440000E94242A1CC1CB01449790931D048093A1
:104450001C0460E070E00E949A0B00911804109117
:104460001904E0901C04F0901D04B801C7010E94DB
:10447000C310000F111F0E0D1F1D000F111F000F85
:10448000111FF801EC59FE4F60837183828393837F
:104490000091180410911904A0901C04B0901D0400
:1044A0006801CC0CDD1C7601EA0CFB1CC701880FEF
:1044B000991F880F991FDC01AC59BE4F7D016D918A
:1044C0007D918D919C91A8010E945A03892B81F4C2
:1044D000000F111F000F111FF801E85CFE4F8081D3
:1044E0009181A281B381F70180839183A283B383F9
:1044F000CA0CDB1CC601880F991F880F991F8C59A5
:104500009E4FE0915601F0915701EE0FFF1FEE0F05
:10451000FF1FE85AFE4FDC014D915D916D917C913A
:1045200080819181A281B3818A019B01080F191FAB
:104530002A1F3B1FC901B8010E94FC0460911C04A2
:1045400085E090E07DCF0E9463126B017C010091B9
:10455000180410911904A8010E945A03892B09F428
:104560008EC0000F111F80911C0490911D04800FBC
:10457000911F880F991F880F991F8C599E4FDC013E
:10458000CD92DD92ED92FC92139736C00E94A81452
:104590006B017C01BFE0FB22C114D104E104F104F2
:1045A00009F46DC0DC01CB011CE1B595A795979589
:1045B00087951A95D1F790931D0480931C04609100
:1045C0001A0470911B040E949A0B209118043091D8
:1045D0001904220F331F80911C0490911D04F901CE
:1045E000E80FF91FEE0FFF1FEE0FFF1FEC59FE4FF4
:1045F000C082D182E282F382E0915601F0915701AC
:10460000EE0FFF1FEE0FFF1FE85AFE4F80819181D2
:10461000A281B381BC01CD016C0D7D1D8E1D9F1D3E
:104620000E94FC042CC0CB01C2979093F5038093A9
:10463000F40360911A0470911B040E944F0B1FC079
:104640008B010C531109C8010E94341D1616170660
:1046500018061906A4F4000F111F000F111FF8010E
:10466000E85AFE4F60837183828393838091560161
:10467000909157010E94ED0402C00E94FC114091EC
:1046800018045091190400911C0410911D04A0906D
:10469000F403B090F5032091560130915701FA01CF
:1046A000EE0FFF1FE00FF11FEE0FFF1FEE0FFF1FBA
:1046B000EC59FE4F6081718182819381C12CD12C94
:1046C00071010E94870E11C18230910531F50E945F
:1046D000C211892BE1F7809118049091190460911F
:1046E0001C0470911D04FC01EE0FFF1FE60FF71F65
:1046F000EE0FFF1FEE0FFF1FEC59FE4F00811181DF
:104700002281338140915601509157010E948611B8
:1047100080EE93E00E94B50CE8C08330910539F437
:104720000E94C211892BE1F70E94FC11DEC00497A0
:1047300009F0DBC00E94C211892BE1F780911804B7
:10474000909119048430910534F4019690931904E2
:104750008093180404C0109219041092180460E0A9
:1047600070E080911804909119040E946E0A809163
:104770001804909119040E940E0B80E090E0E091E3
:104780001604F0911704E80FF91F1082019680318A
:104790009105A9F70091180410911904E0901C04E8
:1047A000F0901D04B801C7010E94C310000F111F33
:1047B0000E0D1F1D000F111F000F111FF801EC59E6
:1047C000FE4F60837183828393830091180410915C
:1047D0001904A0901C04B0901D046801CC0CDD1CD1
:1047E0007601EA0CFB1CC701880F991F880F991FDF
:1047F000FC01EC59FE4F7F016081718182819381C0
:10480000A8010E945A03892B81F4000F111F000F89
:10481000111FF801E85CFE4F80819181A281B38174
:10482000F70180839183A283B383CA0CDB1CC6018A
:10483000880F991F880F991F8C599E4FE091560140
:10484000F0915701EE0FFF1FEE0FFF1FE85AFE4FCA
:10485000DC014D915D916D917C9180819181A2816E
:10486000B3818A019B01080F191F2A1F3B1FC90131
:10487000B8010E94FC0482E090E00E94D707E0911A
:104880001804F0911904EE0FFF1F80911C04909101
:104890001D04E80FF91FEE0FFF1FEE0FFF1FEC596D
:1048A000FE4F608171818281938142E050E00E94DD
:1048B000B60960911A0470911B0480911C049091B8
:1048C0001D040E949A0B6091180480E090E00E9401
:1048D000242AE0911804F0911904EE0FFF1FE8500C
:1048E000FC4F808191810E94FE0C40910E045091FA
:1048F0000F046091100470911104D301C201C2969B
:10490000A11DB11D84179507A607B707DCF586E042
:1049100090E00E94F90FBC01990F880B990B0E943F
:10492000712720E030E040EA50E40E94FD2720E0BB
:1049300030E040E85AE30E94FD2720E030E040EC00
:1049400050E40E94FD2720E030E040E251E40E9464
:10495000FD270E9439276B017C011B012D813E81BF
:104960006217730719F0CB010E94150C0E945F10AB
:1049700040900E0450900F04609010047090110449
:10498000DE82CD8240910E0450910F04609110049C
:10499000709111048091EE039091EF03A091F003C8
:1049A000B091F10384179507A607B7070CF027C14C
:1049B00087E090E00E94F90F893E93400CF479C0A3
:1049C000892809F073C081E090E00E941F0E0E94C8
:1049D000F3078091F4039091F503892B09F466C0E5
:1049E00040911C0450911D04209118043091190429
:1049F000809156019091570113E0220F331F1A95B1
:104A0000E1F7F901EC59FE4F880F991F880F991FA4
:104A1000DC01A85ABE4F452B19F5448155816681AA
:104A200077818D919D910D90BC91A02D8A019B0164
:104A3000080F191F2A1F3B1FC901B8010E94FC045F
:104A4000E0911804F0911904B3E0EE0FFF1FBA953E
:104A5000E1F7EC59FE4F648175818681978122C010
:104A600040815181628173818D919D910D90BC91A6
:104A7000A02D8A019B01080F191F2A1F3B1FC90186
:104A8000B8010E94FC04E0911804F0911904A3E01D
:104A9000EE0FFF1FAA95E1F7EC59FE4F608171817F
:104AA0008281938142E050E00E94B6098824839479
:104AB000912C87E090E00E94F90F893E93400CF022
:104AC00079C0892809F479C080E090E00E941F0E27
:104AD00080E090E00E948A0C8091F4039091F503AD
:104AE000892B09F46AC040911C0450911D04209147
:104AF000180430911904809156019091570163E098
:104B0000220F331F6A95E1F7F901EC59FE4F880F28
:104B1000991F880F991FDC01A85ABE4F452B19F524
:104B200040815181628173818D919D910D90BC91E5
:104B3000A02D8A019B01080F191F2A1F3B1FC901C5
:104B4000B8010E94FC04E0911804F091190443E0BC
:104B5000EE0FFF1F4A95E1F7EC59FE4F608171811E
:104B60008281938122C044815581668177818D91B4
:104B70009D910D90BC91A02D8A019B01080F191FDA
:104B80002A1F3B1FC901B8010E94FC04E0911804D0
:104B9000F091190433E0EE0FFF1F3A95E1F7EC595D
:104BA000FE4F648175818681978142E050E00E94CA
:104BB000B60903C08114910439F40E9417100E94B1
:104BC000A10D812C912C0BC082E090E00E94F90F86
:104BD00023E0959587952A95E1F70E94A10D809194
:104BE0000E0490910F04A0911004B09111048093D1
:104BF000EE039093EF03A093F003B093F103409181
:104C00000E0450910F046091100470911104898179
:104C10009A81AB81BC814496A11DB11D8417950773
:104C2000A607B70774F40E940D0E80910E049091B0
:104C30000F04A0911004B091110489839A83AB836F
:104C4000BC8380910A0490910B04A0910C04B09154
:104C50000D04CC96A11DB11D40910E0450910F047E
:104C6000609110047091110484179507A607B70787
:104C70000CF0ECC98091F6039091F703892B09F4AD
:104C8000E5C98FEC93E00E94B50C80910E049091E1
:104C90000F04A0911004B091110480930A04909322
:104CA0000B04A0930C04B0930D041092F703109220
:104CB000F603CCC95058BB27AA270E9472260C9431
:104CC000C3270E94B52738F00E94BC2720F039F492
:104CD0009F3F19F426F40C94B2270EF4E095E7FBFD
:104CE0000C94AC27E92F0E94D42758F3BA17620717
:104CF00073078407950720F079F4A6F50C94F6273E
:104D00000EF4E0950B2EBA2FA02D0B01B9019001E6
:104D10000C01CA01A0011124FF27591B99F0593F2A
:104D200050F4503E68F11A16F040A22F232F342F72
:104D30004427585FF3CF469537952795A795F040C0
:104D40005395C9F77EF41F16BA0B620B730B840BD5
:104D5000BAF09150A1F0FF0FBB1F661F771F881F8D
:104D6000C2F70EC0BA0F621F731F841F48F48795E5
:104D700077956795B795F7959E3F08F0B0CF9395D7
:104D8000880F08F09927EE0F9795879508950E9450
:104D9000DB260C94C3270E94BC2758F00E94B5273D
:104DA00040F029F45F3F29F00C94AC2751110C948A
:104DB000F7270C94B2270E94D42768F39923B1F304
:104DC000552391F3951B550BBB27AA276217730731
:104DD000840738F09F5F5F4F220F331F441FAA1FC5
:104DE000A9F335D00E2E3AF0E0E832D09150504081
:104DF000E695001CCAF72BD0FE2F29D0660F771F2F
:104E0000881FBB1F261737074807AB07B0E809F014
:104E1000BB0B802DBF01FF2793585F4F3AF09E3F99
:104E2000510578F00C94AC270C94F7275F3FE4F31E
:104E3000983ED4F3869577956795B795F7959F5FDC
:104E4000C9F7880F911D9695879597F90895E1E028
:104E5000660F771F881FBB1F621773078407BA0787
:104E600020F0621B730B840BBA0BEE1F88F7E095E2
:104E700008950E9440276894B1110C94F727089573
:104E80000E94DC2788F09F5798F0B92F9927B751D7
:104E9000B0F0E1F0660F771F881F991F1AF0BA95DE
:104EA000C9F714C0B13091F00E94F627B1E008951F
:104EB0000C94F627672F782F8827B85F39F0B93F11
:104EC000CCF3869577956795B395D9F73EF4909591
:104ED0008095709561957F4F8F4F9F4F0895E8940F
:104EE00009C097FB3EF490958095709561957F4F32
:104EF0008F4F9F4F9923A9F0F92F96E9BB279395E0
:104F0000F695879577956795B795F111F8CFFAF4EF
:104F1000BB0F11F460FF1BC06F5F7F4F8F4F9F4F20
:104F200016C0882311F096E911C0772321F09EE87E
:104F3000872F762F05C0662371F096E8862F70E0E4
:104F400060E02AF09A95660F771F881FDAF7880FBE
:104F50009695879597F9089597F99F6780E870E08F
:104F600060E008959FEF80EC089500240A941616DF
:104F7000170618060906089500240A941216130647
:104F8000140605060895092E0394000C11F48823D5
:104F900052F0BB0F40F4BF2B11F460FF04C06F5FF1
:104FA0007F4F8F4F9F4F089557FD9058440F551FC7
:104FB00059F05F3F71F04795880F97FB991F61F09B
:104FC0009F3F79F087950895121613061406551F12
:104FD000F2CF4695F1DF08C0161617061806991F7E
:104FE000F1CF86957105610508940895E894BB2773
:104FF00066277727CB0197F908950E9410280C9413
:10500000C3270E94B52738F00E94BC2720F09523C3
:1050100011F00C94AC270C94B22711240C94F727B0
:105020000E94D42770F3959FC1F3950F50E0551F50
:10503000629FF001729FBB27F00DB11D639FAA27ED
:10504000F00DB11DAA1F649F6627B00DA11D661F3C
:10505000829F2227B00DA11D621F739FB00DA11D5D
:10506000621F839FA00D611D221F749F3327A00D17
:10507000611D231F849F600D211D822F762F6A2FB3
:1050800011249F5750409AF0F1F088234AF0EE0F18
:10509000FF1FBB1F661F771F881F91505040A9F745
:1050A0009E3F510580F00C94AC270C94F7275F3F8E
:1050B000E4F3983ED4F3869577956795B795F79581
:1050C000E7959F5FC1F7FE2B880F911D96958795F9
:1050D00097F90895DB018F939F930E94BB28BF919E
:1050E000AF91A29F800D911DA39F900DB29F900D37
:1050F00011240895A1E21A2EAA1BBB1BFD010DC0AD
:10510000AA1FBB1FEE1FFF1FA217B307E407F50777
:1051100020F0A21BB30BE40BF50B661F771F881F53
:10512000991F1A9469F760957095809590959B01E9
:10513000AC01BD01CF010895052E97FB1EF400942C
:105140000E94B32857FD07D00E947A2807FC03D09D
:105150004EF40C94B32850954095309521953F4FCF
:105160004F4F5F4F089590958095709561957F4F53
:105170008F4F9F4F08950E94CE28A59F900DB49FFA
:10518000900DA49F800D911D11240895B7FF0C94DC
:10519000BB280E94BB28821B930B0895A29FB001DD
:1051A000B39FC001A39F700D811D1124911DB29F5B
:1051B000700D811D1124911D0895CF93DF938230CE
:1051C000910510F482E090E0E0912004F091210438
:1051D00020E030E0C0E0D0E0309711F14081518113
:1051E00048175907C0F04817590761F48281938125
:1051F000209719F09B838A832BC09093210480937E
:10520000200426C02115310519F04217530718F460
:105210009A01BE01DF01EF010280F381E02DDCCFB6
:105220002115310509F1281B390B2430310590F483
:1052300012968D919C9113976115710521F0FB01D8
:105240009383828304C09093210480932004FD0102
:10525000329644C0FD01E20FF31F819391932250D7
:1052600031092D933C933AC020911E0430911F04C4
:10527000232B41F420919A0130919B0130931F041C
:1052800020931E0420919801309199012115310538
:1052900041F42DB73EB740919C0150919D01241BD4
:1052A000350BE0911E04F0911F04E217F307A0F400
:1052B0002E1B3F0B2817390778F0AC014E5F5F4F6C
:1052C0002417350748F04E0F5F1F50931F0440937B
:1052D0001E048193919302C0E0E0F0E0CF01DF91E2
:1052E000CF9108950F931F93CF93DF93009709F405
:1052F0008CC0FC013297138212820091200410911D
:1053000021040115110581F420813181820F931F41
:1053100020911E0430911F042817390779F5F09366
:105320001F04E0931E0471C0D80140E050E0AE17A6
:10533000BF0750F412962D913C911397AD012115A2
:10534000310509F1D901F3CF9D01DA0133832283BD
:1053500060817181860F971F8217930769F4EC01B2
:1053600028813981260F371F2E5F3F4F31832083DD
:105370008A819B8193838283452B29F4F0932104B6
:10538000E093200442C01396FC93EE931297ED0134
:10539000499159919E01240F351FE217F30771F4CB
:1053A00080819181840F951F029611969C938E9314
:1053B0008281938113969C938E931297E0E0F0E0A4
:1053C000D80112968D919C911397009719F0F801CE
:1053D0008C01F6CF8D919C9198012E5F3F4F820FEB
:1053E000931F20911E0430911F042817390769F478
:1053F000309729F4109221041092200402C01382E5
:10540000128210931F0400931E04DF91CF911F910D
:105410000F910895FB01DC010D900020E9F7119731
:1054200001900D920020E1F70895FB01DC0101904D
:105430000D920020E1F70895F999FECF92BD81BD4C
:10544000F89A992780B50895262FF999FECF1FBAAB
:1054500092BD81BD20BD0FB6F894FA9AF99A0FBE9D
:0854600001960895F894FFCFB6
:105468000500040001000100010002000100030022
:10547800D0223A0010046E00C01DDB0090401501D8
:1054880020744701D0403500B0A86A007078D50074
:10549800E092130130484001D0B1370080A46C007D
:1054A800A05ED800202F140110DC44010000000089
:1054B8000100010001000100A63DA300B84EA300B1
:1054C800404F9FF9D0B13700D0B1370080A46C00AD
:1054D80080A46C00C0ACD80040E5D90000E11301FD
:1054E80070F2140110DC4401B0624601A63DA3002D
:1054F800B84EA300000000000000220420000302B0
:1055080007020B020F02130227004C0067008700F6
:10551800D302DB02E302EB02F302FB0203034202C3
:10552800420242020B0313034202420242021B03DD
:1055380023034202420242022B0333033B0342028B
:105548004202FB02030342024202420243034B03AC
:1055580053035B0342025C754FF6E027D7C5D99B1E
:1055680054580038306D0034306D0032306D0031E1
:10557800376D0031356D0053504C54204F4646006E
:1055880053504C54204F4E200056464F410056462B
:105598004F42005620005258002020202020202072
:1055A8002020202020202020200054582050524520
:1055B8005345543A005458207072657365742073CB
:1055C800746F7265642E00533133353739002B31CF
:1055D80030002B323064420030203220203420202A
:1055E8003620203820313057005458205052455327
:1055F80045543D20202020005343414E4E494E47FC
:105608002E2E2E0053746F707065642E00576169DA
:1056180074696E672E2E2E005363616E6E696E6715
:105628002E2E2E005343414E205448524553482EA7
:105638002E2E0038306D202020200034306D2020A0
:1056480020200032306D202020200031376D2020AE
:1056580020200031356D20202020004F4646202094
:105668002020004F4E20202020200056464F204169
:1056780020200056464F20422020004C5342202034
:10568800202000555342202020200066302E2E6610
:1056980031200056464F20412F420054485245536E
:1056A800482000534554204C53420053455420553C
:1056B8005342005458204741494E00534C454550E9
:1056C80020200042414E442053455400313020648C
:1056D80042205258204154540056464F2053454CBE
:1056E800454354005349444542414E4400534341C5
:1056F8004E2046554E430053504C49540041444AAD
:10570800555354004C4F20534554204D4F444500A9
:1057180020664C4F204C5342200020664C4F2055A9
:1057280053422000536C6565706D6F64652E004DA3
:10573800696E693520444B37494820323032300091
:0C57480053746F72696E67204F4B2E0087
:00000001FF
