:100000000C9413030C9430030C9430030C94200FC5
:100010000C9430030C9430030C9430030C94300394
:100020000C9430030C9430030C9430030C94710F37
:100030000C9430030C9430030C9430030C94300374
:100040000C9430030C9430030C9430030C94300364
:100050000C9430030C9430030C9430030C94300354
:100060000C9430030C9430030000000000000000EA
:100070000000000000000008080808080808000840
:1000800008000000242424240000000000000000D8
:10009000000000909048FE4824FF24121200000047
:1000A000083C0A0A0A0C182828281E0800000086A6
:1000B00049292916689494926100000000182424AC
:1000C000140C8B917163FE00000008080808000002
:1000D0000000000000000000603008080404040470
:1000E000040808306000060C10102020202020108A
:1000F000100C060000080866142C24000000000004
:100100000000000000000808087F08080800000040
:100110000000000000000000001818100800000097
:10012000000000007E000000000000000000000051
:1001300000000000001818000000402020201010CF
:1001400018080804040402000018244242424242F3
:1001500042241800000000101E1010101010101083
:10016000FE000000001E20202010100804023E00A7
:100170000000003C40404038404040403C0000000F
:10018000002030282824227E202020000000007C2F
:100190000404041C604040403C000000003804029D
:1001A000023A4642424438000000007E40202010BF
:1001B0000808080404000000003C4242221C2442BB
:1001C00042423C000000001C224242625C4040204F
:1001D0001C000000000000001818000000181800A3
:1001E0000000000000001818000000181810080097
:1001F0000000000040300806083040000000000009
:100200000000007E00007E000000000000000000F2
:10021000020C1060100C02000000003E4240201052
:100220000808000808000000003C46724949496976
:10023000DB223C00000000001018282424427E42EB
:100240008100000000003E4242221E2242423E0047
:10025000000000007C020101010101027C0000009D
:1002600000001F214141414141211F0000000000C9
:100270007E0202023E0202027E00000000007E02B8
:1002800002023E0202020200000000007C020101A4
:10029000017141427C0000000000424242427E4225
:1002A00042424200000000003E0808080808080812
:1002B0003E00000000003C202020202020201E00C6
:1002C000000000004222120A060A12224200000028
:1002D000000002020202020202027E000000000090
:1002E0006363635555554941410000000000424693
:1002F000464A4A5252624200000000001C2241411C
:10030000414141221C00000000003E424242621E68
:1003100002020200000000001C2241414141412232
:100320001C60C00000001E2222221E123222420047
:10033000000000007C020206186040403E00000001
:1003400000007F08080808080808080000000000EE
:1003500042424242424242423C000000000081428E
:100360004222241414080800000000008181C959A9
:100370005A5A6666240000000000814224181818AA
:10038000244281000000000081422214180808085D
:100390000800000000007F402010080402017F00D8
:1003A0000000780808080808080808080808780005
:1003B00002040404080818101020202040001E1019
:1003C000101010101010101010101E000010101837
:1003D0002828244442000000000000000000000023
:1003E0000000000000FF00001020000000000000DE
:1003F000000000000000000000003C40407C424241
:10040000FC000000020202023A46424242463A0022
:1004100000000000000078040202020478000000DE
:10042000404040405C62424242625C00000000008A
:1004300000003C44427E02027C0000007008080874
:100440007E080808080808000000000000007C6220
:10045000424242625C40403C020202023A46424250
:10046000424242000000181800001E101010101028
:1004700010000000303000003C20202020202020F0
:10048000201E0202020222120A061A224200000064
:100490001E1010101010101010101000000000009E
:1004A00000006D5B49494949490000000000000017
:1004B0003A464242424242000000000000001C2234
:1004C000414141221C000000000000003A46424227
:1004D00042463A020202000000005C62424242626E
:1004E0005C404040000000003A2602020202020086
:1004F0000000000000003C02061820201E00000042
:10050000000004047F0404040404780000000000D8
:1005100000004242424242625C00000000000000D3
:100520008142422214140800000000000000819162
:100530005A5A6624240000000000000042241818C3
:1005400018244200000000000000814242242418C8
:1005500018080C07000000007F20100804027F002C
:100560000000700808080808060808080808700055
:1005700010101010101010101010101010000E108D
:10058000101010106010101010100E00000000006D
:1005900000869961000000000000000000081C2295
:1005A000414141417F00000000007C020101010146
:1005B00001027C10203000000000FFFFFFFF000060
:1005C000000000001010101010101010101010106B
:1005D0001010000000000000FF00000000000000FC
:1005E000101010101010F00000000000000010109B
:1005F000101010101F00000000000000000000009C
:100600000000F0101010101010100000000000008A
:100610001F10101010101010000814080000000027
:1006200000000000000011241FBECFEFD8E0DEBFA5
:10063000CDBF14E0A0E0B1E0E4EAF6E502C0059029
:100640000D92A237B107D9F724E0A2E7B4E001C0C8
:100650001D92AA3AB207E1F70E94371F0C94502B63
:100660000C9400000F931F93CF93DF93805C9F4FF8
:10067000880F991FF999FECF8C010F5F1F4F0E94C1
:100680003A2B282F30E0D22FCC27F999FECFC80182
:100690000E943A2B9E01280F311D211580E1380759
:1006A00010F4C90102C080E098E0DF91CF911F9162
:1006B0000F910895CF92DF92EF92FF920F931F93C5
:1006C000440F551F440F551FFA01EA5DFE4F00818C
:1006D000118122813381601771078207930794F09B
:1006E000FA01EE5EFE4F31E020E0C080D180E28072
:1006F000F380C616D706E806F9060CF430E0832F1F
:10070000922F02C080E090E01F910F91FF90EF9038
:10071000DF90CF900895892B11F02A9A08952A9896
:100720000895892B11F02C9808952C9A0895109211
:10073000B9008CE08093B80084E08093BC000895F9
:1007400084EA8093BC008091BC0087FFFCCF0895B1
:1007500084E98093BC0008958093BB0084E8809373
:10076000BC008091BC0087FFFCCF08951F93CF93FE
:10077000DF931F92CDB7DEB7182F69830E94A003C5
:1007800080EC0E94AC03812F0E94AC036981862F0C
:100790000E94AC0384E98093BC000F90DF91CF915D
:1007A0001F91089562ED70E087EB90E00E94B60320
:1007B00060E070E083E090E00E94B6036FE070E0DC
:1007C00080E190E00E94B6036FE270E081E190E08A
:1007D0000E94B6036FE270E082E190E00E94B603EF
:1007E00060EA70E081EB90E00E94B6036FEF70E08A
:1007F0008AE190E00E94B6036FEF70E08BE190E039
:100800000E94B60360E070E08CE190E00E94B603C5
:1008100060E170E08DE190E00E94B60360E070E07E
:100820008EE190E00E94B60360EF70E08FE190E00F
:100830000E94B60360E070E080E290E00E94B603A0
:1008400060E070E081E290E00E94B6036FEF70E03C
:1008500082E290E00E94B6036FEF70E083E290E0E6
:100860000E94B60360E070E084E290E00E94B6036C
:1008700060E170E085E290E00E94B60360E070E025
:1008800086E290E00E94B60360EF70E087E290E0BD
:100890000E94B60360E070E088E290E00E94B60338
:1008A00060E070E089E290E00C94B6038F929F9232
:1008B000AF92BF92CF92DF92EF92FF92CF93DF93EE
:1008C000EC01CB01BA010E948F289B01AC0164EAC4
:1008D00073E986E59EE40E94E5274B015C010E94D6
:1008E0005E286B017C010E948D289B01AC01C50133
:1008F000B4010E94782720EF3FEF4FE759E40E94B0
:100900001B290E945E284B015C0187E0880C991C22
:10091000AA1CBB1C8A95D1F7C501B4012FEF3FEF8C
:100920004FE050E00E94982997E0CC0CDD1CEE1CB3
:10093000FF1C9A95D1F782E0D81AE108F108C20E9F
:10094000D31EE41EF51E6FEF7FEF8FE090E00E9454
:100950008829861A970AA80AB90A6FEF70E0CE01B3
:100960000E94B6036FEF70E0CE0101960E94B603BD
:10097000D701C60188279927A370BB27BD01882707
:100980009927CE0102960E94B6036D2D70E0CE012C
:1009900003960E94B603B6017727CE0104960E9403
:1009A000B603D501C40188279927AF70BB27BD01C5
:1009B000606FCE0105960E94B603692D70E0CE01EE
:1009C00006960E94B603B4017727CE010796DF9101
:1009D000CF91FF90EF90DF90CF90BF90AF909F901E
:1009E0008F900C94B603880F991F880F991FFC01F4
:1009F000E65AFE4F40815181628173818AE290E024
:100A00000C945604AB01BC0182E390E00C945604B4
:100A10005C9A2FEF81EE94E0215080409040E1F706
:100A200000C000005C982FEF81EE94E021508040E0
:100A30009040E1F700C000005C9A2FEF81EE94E057
:100A4000215080409040E1F700C0000008955D987B
:100A50005B9827E030E05F98AC01022E02C055950C
:100A600047950A94E2F740FF02C05E9A01C05E9883
:100A70005F9A2150310978F75B9A08955D9A5B98E7
:100A800027E030E05F98AC01022E02C055954795F3
:100A90000A94E2F740FF02C05E9A01C05E985F9A36
:100AA0002150310978F75B9A089581E090E00E9427
:100AB00027058FE19EE40197F1F700C0000081E176
:100AC00090E00E9427058FE19EE40197F1F700C0B6
:100AD00000008AE390E00E94270585E090E00E94F4
:100AE0003E058FE39CE90197F1F700C0000081EB20
:100AF00090E00E94270580E090E00E943E0586E09D
:100B000090E00E943E0583E090E00E943E058FE960
:100B10009FE00197F1F700C0000086E390E00E949B
:100B2000270588EC90E00E943E0586EB90E00E944D
:100B3000270585E190E00E943E0582E090E00E945A
:100B40003E0584EB90E00E94270580E090E00E9443
:100B50003E0580EE90E00E94270589E090E00E942B
:100B60003E0586E190E00E943E0589E090E00E940B
:100B70003E0580E290E00E943E0581E290E00E9406
:100B80003E058BE190E00E943E0583E190E00E94EB
:100B90003E0589E190E00E943E0587E190E00E94D9
:100BA0003E0585E190E00E943E058EE190E00E94C6
:100BB0003E058BE290E00E943E0584E090E00E94BA
:100BC0003E0585E090E00E943E0582E090E00E94B4
:100BD0003E058EE090E00E943E0581EE90E00E948E
:100BE00027058BE090E00E943E0584E190E00E94A2
:100BF0003E0588E090E00E943E058EE190E00E9474
:100C00003E0582E290E00E943E058DE190E00E9468
:100C10003E0588E190E00E943E058EE190E00E9452
:100C20003E058BE190E00E943E058AE190E00E9443
:100C30003E0584E290E00E943E058BE290E00E9437
:100C40003E0586E090E00E943E0586E090E00E942E
:100C50003E0582E090E00E943E058FE090E00E9419
:100C60003E058FE39CE90197F1F700C0000083E1A6
:100C700090E00E9427058FE39CE90197F1F700C0FF
:100C8000000089E290E00C942705CF92DF92EF926A
:100C9000FF920F931F93CF93DF936C018B017A0127
:100CA000E9018AE290E00E94270580E090E00E943E
:100CB0003E05C6010E943E0580E090E00E943E0590
:100CC000C7010E943E058BE290E00E94270580E06C
:100CD00090E00E943E05C8010E943E0580E090E041
:100CE0000E943E05CE01DF91CF911F910F91FF90A1
:100CF000EF90DF90CF900C943E05CF93DF93D42FED
:100D0000C52F9B01AC010E9445068CE290E00E9439
:100D100027058C2F90E00E943E058D2F9C2FDF91A0
:100D2000CF910C943E050F931F93CF93DF938C01CB
:100D300024E830E044E850E060E070E080E090E0DB
:100D40000E9445068CE290E00E942705C1E1D4E4B0
:100D5000812F90E00E943E05C8010E943E05219728
:100D6000B9F7DF91CF911F910F910895EF92FF9204
:100D70000F931F93CF93DF93DA01A81BB90BF901EF
:100D8000E61BF70BAE9F7001AF9FF00CBE9FF00CFF
:100D900011240E9445068CE290E00E942705C0E0E5
:100DA000D0E0EC16FD064CF0812F90E00E943E054D
:100DB000C8010E943E052196F4CFDF91CF911F918B
:100DC0000F91FF90EF9008952F923F924F925F9274
:100DD0006F927F928F929F92AF92BF92CF92DF924B
:100DE000EF92FF920F931F93CF93DF9300D000D029
:100DF000CDB7DEB7242E2983932E0A83812E4EE0B1
:100E00004C9D90014D9D300D1124260F371FA701D9
:100E1000E3E0440F551FEA95E1F7480F591F4F5F74
:100E20005F4F6E5F7F4F02960E9445068CE290E016
:100E30000E9427058EE0289E1001112400E010E09A
:100E400090EC291A91E0390AF101E00FF11FE859FD
:100E5000FF4FE491612C712C8E2F90E09C838B834B
:100E60006C147D04BCF5A12CB12C8B819C810A2CC7
:100E700002C0959587950A94E2F7412C512C80FF8A
:100E80001AC04E145F0464F4892D90E00E943E0560
:100E90008981992D0E943E059FEF491A590AF1CF89
:100EA000EFEFAE1ABE0AF8E0AF16B104F1F69FEF0D
:100EB000691A790AD5CF4E145F0494F7882D90E013
:100EC0000E943E058A81982D0E943E058FEF481AA8
:100ED000580AF1CF0F5F1F4F0D30110509F0B4CF45
:100EE0000F900F900F900F90DF91CF911F910F9166
:100EF000FF90EF90DF90CF90BF90AF909F908F903A
:100F00007F906F905F904F903F902F9008952F9219
:100F10003F924F925F926F927F928F929F92AF9289
:100F2000BF92CF92DF92EF92FF920F931F93CF93D6
:100F3000DF9300D000D000D0CDB7DEB77C836B83C9
:100F4000190128015701360149835A83470123E0DB
:100F5000880C991C2A95E1F79E838D83E981FA819B
:100F60004191FA83E983442379F063017501820199
:100F700091016B817C818D819E810E94E4068D812F
:100F80009E81880D991DE8CF26960FB6F894DEBF96
:100F90000FBECDBFDF91CF911F910F91FF90EF90CA
:100FA000DF90CF90BF90AF909F908F907F906F9089
:100FB0005F904F903F902F900895CF92DF92EF92E5
:100FC000FF920F931F932091A2043091A3046C0110
:100FD0007C0189014FED52E062E370E080E090E037
:100FE0000E9487071F910F91FF90EF90DF90CF90A5
:100FF0000895CF92DF92EF92FF920F931F9320916B
:10100000A2043091A304CC24C394D12CEE24E39405
:10101000F12C00E61AEF4CE952E060E070E080E766
:1010200090E00E9487071F910F91FF90EF90DF9053
:10103000CF9008952F923F924F925F926F927F923E
:101040008F929F92AF92BF92CF92DF92EF92FF92D8
:101050000F931F93CF93DF932B01490138011A019E
:10106000570128E0A20EB11CEC01F10141911F01D2
:10107000442379F0CC24C394D12CEE24E394F12CB6
:1010800083019401B201CE010E94E406CA0DDB1D6A
:10109000ECCFDF91CF911F910F91FF90EF90DF90F8
:1010A000CF90BF90AF909F908F907F906F905F9008
:1010B0004F903F902F9008952F923F924F925F92C2
:1010C0006F927F928F929F92AF92BF92CF92DF9258
:1010D000EF92FF920F931F93CF93DF9300D000D036
:1010E00000D0CDB7DEB76B017C015C834B833E83C0
:1010F0002D83611571058105910539F480E3F901AE
:101100008083118281E090E090C097FF0DC0F09441
:10111000E094D094C094C11CD11CE11CF11C21E0CE
:1011200030E03A83298302C01A8219828D819E8120
:101130000C96ED81FE811192E817F907E1F709E0BD
:1011400010E0212C312C812C8AEC982E8AE9A82ED3
:101150008BE3B82E9AE0492E512C612C712CC701DB
:10116000B601A50194010E94BA29E22FA22FB32F44
:10117000A50194010E94E429C61AD70AE80AF90ACF
:10118000D1011996A01BB10B4D815E81A40FB51F33
:10119000E05DEC93C501B401A30192010E94BA295C
:1011A00049015A018B819C810817190779F40115AF
:1011B000110561F09FEF291A390AF101E01BF10BCB
:1011C0002D813E81E20FF31F3EE23187015011096C
:1011D00030F6ED81FE8130E2CF014D815E81841BCE
:1011E000950B2081203311F43193F6CFE981FA81F8
:1011F000EF2B31F00197FA01E80FF91F2DE2208360
:10120000ED81FE819F014D815E81241B350BDF0145
:10121000A80FB91F4C91442311F04193F3CFED81F6
:10122000FE81E20FF31F1082C90126960FB6F894D3
:10123000DEBF0FBECDBFDF91CF911F910F91FF9009
:10124000EF90DF90CF90BF90AF909F908F907F9066
:101250006F905F904F903F902F9008952F923F9204
:101260004F925F926F927F928F929F92AF92BF92B6
:10127000CF92DF92EF92FF920F931F93CF93DF9362
:10128000CDB7DEB728970FB6F894DEBF0FBECDBF3F
:101290003C012B0129833A834B835C831801FE8236
:1012A000ED82D886CF827501640180E190E00E94D2
:1012B000FB295C010097F9F000E110E09C01A1011D
:1012C00069817A818B819C810E945C080F811885DD
:1012D0002D813E81A501B201C3010E948707F5015E
:1012E00001900020E9F731977F01EA18FB08C5015A
:1012F0000E94902A02C0E12CF12CC70128960FB65B
:10130000F894DEBF0FBECDBFDF91CF911F910F913B
:10131000FF90EF90DF90CF90BF90AF909F908F9015
:101320007F906F905F904F903F902F9008958F9295
:101330009F92AF92BF92CF92DF92EF92FF920F9364
:101340001F93CF93DF93603826E9720728E982075D
:101350009105A4F4611571058105910591F4CA0107
:10136000DF91CF911F910F91FF90EF90DF90CF9081
:10137000BF90AF909F908F900C94DD07CBE0D0E0B2
:1013800002C0CBE1D0E05A01C090A204D090A304E7
:101390004130510571F488248394912CAA24A3949C
:1013A000B12CEE24EA94FE2C03E010E09B01AC018A
:1013B0000CC024E630E040E050E00E94BA2945012C
:1013C000EE24EA94FE2C01E010E062E370E0CE012E
:1013D0000E942E09DF91CF911F910F91FF90EF9006
:1013E000DF90CF90BF90AF909F908F9008958F9295
:1013F0009F92AF92BF92CF92DF92EF92FF920F93A4
:101400001F93CF93DF934B015C0180E8881686E938
:10141000980688E9A806B1041CF0C8E4D0E002C030
:10142000C0E5D0E00091A2041091A304CC24C394A1
:10143000D12CEE24E394F12C2FEF3FEF4FED52E04F
:101440006CE170E088E490E00E948707C090A204FD
:10145000D090A304C501B40124E630E040E050E0A0
:101460000E94BA2988248394912CAA24A394B12C95
:10147000EE24EA94FE2C01E010E06CE170E0CE0175
:101480000E942E09DF91CF911F910F91FF90EF9055
:10149000DF90CF90BF90AF909F908F900895CF92A4
:1014A000DF92EF92FF920F931F93CF93DF93CDB70D
:1014B000DEB72A970FB6F894DEBF0FBECDBF2AE085
:1014C000E0EAF1E0DE01119601900D922A95E1F734
:1014D000AC01440F551F059730F4FA01EE56FD4F4D
:1014E0008081918102C08FEF9FEF2091A204309103
:1014F000A304E1E0F0E0EC0FFD1FE40FF51F4081D5
:101500005181CC24C394D12CEE24E394F12C672B8D
:1015100011F08C0102C089019C0160E070E080E064
:1015200090E00E9487072A960FB6F894DEBF0FBEA0
:10153000CDBFDF91CF911F910F91FF90EF90DF9082
:10154000CF900895CF92DF92EF92FF920F931F9367
:10155000CF93DF9300D000D000D0CDB7DEB7FE012F
:10156000319626E0DF011D922A95E9F724EF33E05A
:101570003A8329832CEF33E03C832B832091A20410
:101580003091A304880F991FE80FF91F4081518102
:10159000CC24C394D12CEE24E394F12C672B39F0A6
:1015A0000CE515E760E070E080EC90E007C0890191
:1015B0002CE535E760E070E080E290E00E9487076C
:1015C00026960FB6F894DEBF0FBECDBFDF91CF9148
:1015D0001F910F91FF90EF90DF90CF900895CF93E0
:1015E000DF93589859985A9897FD37C020E030E01B
:1015F000E1E0F0E0AC01022E02C0559547950A9457
:10160000E2F740FF09C06BB1AF01022E01C0440FE9
:101610000A94EAF7462B0AC05BB1BF01022E01C053
:10162000660F0A94EAF7462F409545234BB92F5F82
:101630003F4F23303105F1F6EC01CC0FDD1FC25BCB
:10164000DE4F888199810E94F30460E070E0888118
:101650009981DF91CF910C94A20ADF91CF910895E7
:10166000CF92DF92EF92FF920F931F93CF93DF936E
:1016700000D000D0CDB7DEB727ED35EC3A83298313
:1016800020E63AEF3C832B830091A2041091A3043F
:10169000880F991FFE01E80FF91F21813281CC24A8
:1016A000C394D12CEE24E394F12C43EB52E06CE193
:1016B00070E080E090E00E9487070F900F900F90FD
:1016C0000F90DF91CF911F910F91FF90EF90DF90DE
:1016D000CF900895CF92DF92EF92FF920F931F93D6
:1016E000CF93DF9300D000D0CDB7DEB77C0188EB7D
:1016F00092E09A8389838DEB92E09C838B83209187
:10170000A0043091A10443E0220F331F4A95E1F772
:10171000F901EA59FE4FE114F10429F4648175815D
:101720008681978104C060817181828193810E944A
:10173000F7090091A2041091A304EE0CFF1CFE0116
:10174000EE0DFF1D41815281CC24C394D12CEE2497
:10175000E394F12C20E03FEF60E070E080E490E063
:101760000E9487070F900F900F900F90DF91CF91FD
:101770001F910F91FF90EF90DF90CF900895CF923F
:10178000DF92EF92FF920F931F93892B19F020EEB7
:1017900037EF02C027ED35EC0091A2041091A304AD
:1017A000CC24C394D12CEE24E394F12C42EC52E0EF
:1017B0006CE170E088E290E00E9487071F910F9132
:1017C000FF90EF90DF90CF900895CF92DF92EF924D
:1017D000FF920F931F930091A2041091A304CC24B5
:1017E000C394D12CEE24E394F12C892B29F020EE24
:1017F00037EF46EC52E004C020E03FEF4BEC52E004
:101800006EE070E080E390E00E9487071F910F91E7
:10181000FF90EF90DF90CF9008958F929F92AF92BC
:10182000BF92CF92DF92EF92FF920F931F93CF93CD
:10183000DF937C0180E190E00E94FB29EC01FC0138
:1018400040961192E817F907E1F706E010E09E01D3
:1018500041E050E0B7010F2C000C880B990B0E945F
:101860005C084C0163E0880C991C6A95E1F78AE0FA
:10187000E816F10429F450E6A52E5AEFB52E04C05F
:1018800043E0A42E48EFB42EC7010B97029748F00F
:101890008DE0E816F1044CF030EEA32E37E2B32EC3
:1018A00004C02AEEA22E27E0B22E0091A2041091CD
:1018B000A304CC24C394D12CEE24E394F12C950101
:1018C000AE016EE070E080E090E00E94870700913A
:1018D000A2041091A304950140ED52E06EE070E087
:1018E000C4010E948707CE01DF91CF911F910F9114
:1018F000FF90EF90DF90CF90BF90AF909F908F9030
:101900000C94902ACF92DF92EF92FF920F931F9345
:10191000892B41F01F910F91FF90EF90DF90CF90B6
:101920000C94F9070091A2041091A304CC24C39451
:10193000D12CEE24E394F12C20EE37E243ED52E07B
:1019400060E070E080E790E00E9487071F910F91B0
:10195000FF90EF90DF90CF900895CF92DF92EF92BB
:10196000FF920F931F93CF93DF93EC010091A2049A
:101970001091A304CC24C394D12CEE24E394F12C35
:101980002FEF3FEF46ED52E060E770E080E090E03F
:101990000E9487070091A2041091A3042FEF3FEF4C
:1019A000AE0160E770E080E090E00E9487078091E0
:1019B000960490919704A0919804B0919904809313
:1019C000920490939304A0939404B093950481E0BF
:1019D00090E090937F0480937E04DF91CF911F91DC
:1019E0000F91FF90EF90DF90CF900895EF92FF92CC
:1019F0000F931F93CF93DF938C0180E190E00E94BF
:101A0000FB29EC0180E190E00E94FB297C010E940F
:101A1000A00382EC0E94AC0380E40E94AC03C801E6
:101A200024E0959587952A95E1F70E94AC03802FD5
:101A30008F700E94AC0384E98093BC0067EE72E073
:101A4000CE010E94332BB801110F880B990B0FE0C8
:101A500010E097014FEF5FEF0E945C08B701CE01E5
:101A60000E94282BCE010E94AD0CCE010E94902A2C
:101A7000C701DF91CF911F910F91FF90EF900C94D0
:101A8000902A1F93CF93DF93182F9B01205C3F4F29
:101A9000220F331FF999FECFE9012196692F6F704C
:101AA000C9010E94422BF999FECF612FCE010E94FD
:101AB000422B82EF92E0DF91CF911F910C94AD0CFD
:101AC000DF92EF92FF920F931F93CF93DF938C01DE
:101AD000EB017A01AB014E5F5F4F2EE530E06AE526
:101AE00070E002960E9445068CE290E00E94270575
:101AF000C01BD10BCC0FDD1FCC0FDD1F2396DF2CBD
:101B0000DD0CDD0800E010E0C017D10754F08F2D88
:101B10009D2D0E943E05C7010E943E050F5F1F4F8D
:101B2000F3CFDF91CF911F910F91FF90EF90DF9056
:101B30000895CF93DF93EC018937910514F0C8E73E
:101B4000D0E04091A2045091A30460918C04709164
:101B50008D04CE010E94600DC233D1053CF44AEEE3
:101B600057E0BE0180E090E00E94600DCE018154FC
:101B70009109489770F44AEE57E061E470E080E024
:101B800090E00E94600D40EE57EFBE0182E490E0CD
:101B900018C0C935D105BCF04AEE57E061E470E0E9
:101BA00080E090E00E94600D40EE57EF69E570E044
:101BB00082E490E00E94600D40E65AEFBE0189E5A4
:101BC00090E00E94600D80918C0490918D048C17A0
:101BD0009D07A4F4D0938D04C0938C048091960447
:101BE00090919704A0919804B09199048093740403
:101BF00090937504A0937604B0937704D093730404
:101C0000C0937204DF91CF9108954091A204509146
:101C1000A30480918C0490918D0464E870E0019796
:101C20000E94600D10928D0410928C040895CF9242
:101C3000DF92EF92FF920F931F93CF93DF93EC010C
:101C40000091A2041091A304CC24C394D12CEE24BF
:101C5000E394F12C20EE37EF47ED52E062E670E0BE
:101C600080E090E00E9487070091A2041091A304F5
:101C7000CD2B61F523E0E22EF12C20EE37E244E09B
:101C800053E062E670E080E090E00E941A08009164
:101C9000A2041091A304E12CF12C20EE37EF4BE0CD
:101CA00053E062E670E081E490E00E941A0800913F
:101CB000A2041091A30420E63AEF4FE053E062E65D
:101CC00070E089E590E00E941A0810C0CC24C3940B
:101CD000D12CEE24E394F12C20EE37EF45E153E0D4
:101CE00062E670E080E090E00E948707DF91CF918C
:101CF0001F910F91FF90EF90DF90CF9008952F925A
:101D00003F924F925F926F927F928F929F92AF928B
:101D1000BF92CF92DF92EF92FF920F931F93CF93D8
:101D2000DF93CDB7DEB728970FB6F894DEBF0FBEAE
:101D3000CDBF2B013C014A013A8329831801FC8263
:101D4000EB82DE82CD828091A2049091A3040E9456
:101D5000930618861F820091A2041091A304CC243C
:101D6000C394D12CEE24E394F12C20E03FEF43E820
:101D700064E270E08F8198850E94E4060091A204DD
:101D80001091A30420E03FEF43E86AE470E08F8104
:101D900098850E94E4068F819885089698878F839E
:101DA00080389105C1F642E050E0C301B2010E94C3
:101DB000970960E070E0C4010E944F0A60E070E0A3
:101DC00089819A810E94A20A60E070E0C1010E94AC
:101DD0006A0B8B819C810E940D0C80E090E00E9438
:101DE000820C8D819E810E94170E6091A2047091D9
:101DF000A304C5010E94300B80917A0490917B046A
:101E00000E94BF0B809178049091790428960FB6B8
:101E1000F894DEBF0FBECDBFDF91CF911F910F9120
:101E2000FF90EF90DF90CF90BF90AF909F908F90FA
:101E30007F906F905F904F903F902F900C94E50BA8
:101E40001F920F920FB60F9211242F933F934F932F
:101E50005F938F939F93AF93BF9383B1837090E011
:101E60009C01359527958227932720919C043091DA
:101E70009D048217930739F1281B390B23703327F0
:101E80002250310940919A0450919B04240F351F30
:101E900030939B0420939A0490939D0480939C0418
:101EA00080918E0490918F04A0919004B091910440
:101EB0000196A11DB11D80938E0490938F04A09371
:101EC0009004B0939104D89ABF91AF919F918F9154
:101ED0005F914F913F912F910F900FBE0F901F90E8
:101EE00018951F920F920FB60F9211248F939F9304
:101EF000AF93BF938091960490919704A09198041A
:101F0000B09199040196A11DB11D80939604909300
:101F10009704A0939804B093990410928E041092A1
:101F20008F04109290041092910483B78E7F83BF28
:101F3000BF91AF919F918F910F900FBE0F901F9007
:101F400018950F931F9340918E0450918F046091C8
:101F50009004709191048A019B01359527951795FE
:101F60000795049FC001059F900D149F900D1124AB
:101F70001F910F910895CF92DF92EF92FF926B0124
:101F80007C0180919A0490919B04833091058CF0A0
:101F90000E94A10F092E000CAA0BBB0B10929B04F0
:101FA00010929A04BC01CD016C0D7D1D8E1D9F1DEC
:101FB00019C08E3F9F4F9CF40E94A10F092E000C68
:101FC000AA0BBB0B10929B0410929A04A7019601D6
:101FD000281B390B4A0B5B0BCA01B90103C060E037
:101FE00070E0CB01FF90EF90DF90CF900895805C80
:101FF00080937C008FE99FE00197F1F700C000001B
:10200000EAE7F0E08081806480838FE99FE00197B8
:10201000F1F700C00000209178008091790090E0F5
:10202000982F8827820F911D089581E090E00E94EB
:10203000F70F8C52914097FF02C080E090E0089526
:1020400083E090E00E94F70F25E0AC01249FC001DF
:10205000259F900D1124BC01990F880B990B0E94AC
:102060008F2820E030EC4FE754E40E94E5279B01E5
:10207000AC0160E070E080EA90E40E94E52720E097
:1020800030E040E85FE30E9478279B01AC0160E00C
:1020900070E08AE794E40E94E52720E030EC4BE40E
:1020A00054E40E94782723EC35EF4CE051E40E9481
:1020B000E5270E945728CB0108958F929F92AF92F7
:1020C000BF92CF92DF92EF92FF920F931F93CF9325
:1020D000DF930E9420108932910534F08D339105F1
:1020E00034F4C0EED7EF05C0C0EED7E202C0C0E6C0
:1020F000DAEFC090A204D090A3049C01990F440B86
:10210000550B88248394912CAA24A394B12C7E018E
:102110000FEF1FEF6EE070E080E690E00E942E0966
:102120000C965C0123E0AA0CBB1C2A95E1F70091F8
:10213000A2041091A304CC24C394D12CEE24E394E4
:10214000F12C9E0148E86EE070E0C5010E94E406B3
:102150000091A2041091A3049E0143E46EE070E09C
:10216000C50108960E94E406DF91CF911F910F915F
:10217000FF90EF90DF90CF90BF90AF909F908F90A7
:102180000895FF920F931F93CF93DF93660F771FEE
:10219000860F971FEC016096CC0FDD1FCC0FDD1F63
:1021A000F894CE010E943A2BF82ECE0101960E949F
:1021B0003A2B082FCE0102960E943A2B182FCE01FF
:1021C00003960E943A2B482F78948F2D90E0A0E040
:1021D000B0E0BA2FA92F982F8827800F911DA11D3D
:1021E000B11DDC0199278827212F30E0322F2227CB
:1021F000820F931FA11DB11DBC01CD01640F711D84
:10220000811D911DDF91CF911F910F91FF90089536
:102210004F925F926F927F928F929F92AF92BF92F6
:10222000CF92DF92EF92FF92CF93DF93EB01CC0F2F
:10223000DD1F8C0F9D1FEC016096CC0FDD1FCC0FB6
:10224000DD1FF8944A01BB2497FCB094AB2CD40159
:102250009927882769017A01C81AD90AEA0AFB0A6C
:10226000652F992767FD9095792F892F4D2C5E2C2E
:102270006F2C772467FC7A94F999FECFCE010E94E7
:10228000422BF999FECF682DCE0101960E94422B78
:10229000F999FECF642DCE0102960E94422BF99946
:1022A000FECF6C2DCE0103960E94422B7894DF91D5
:1022B000CF91FF90EF90DF90CF90BF90AF909F9025
:1022C0008F907F906F905F904F90089507960E9437
:1022D0003A2B282F30E0823010F4C90108958FEF97
:1022E0009FEF08950796F999FECF0C94422B80E05A
:1022F00090E00E943A2B282F30E0853010F4C9017D
:1023000008958FEF9FEF0895BF92CF92DF92EF92E3
:10231000FF920F931F93CF93DF9300D000D0CDB7E0
:10232000DEB7C82EB92E7B01D42EA9019801682FE3
:1023300080E090E029833A834B835C830E94422BA8
:10234000B7018C2D9B2D0E9472116D2D86E090E0BF
:102350000E94422B29813A814B815C816C2D7B2D1F
:10236000C7010F900F900F900F90DF91CF911F91A9
:102370000F91FF90EF90DF90CF90BF900C940811D9
:10238000CF93DF93CDB7DEB728970FB6F894DEBFB3
:102390000FBECDBF88E0EAEAF1E0DE0111960190C0
:1023A0000D928A95E1F780E090E00E94F70FFE0120
:1023B000319620E030E041915191BA0169507109A4
:1023C0002F5F3F4F861797073CF0475F5F4F4817D7
:1023D000590714F0C90105C02430310561F780E0C8
:1023E00090E028960FB6F894DEBF0FBECDBFDF9108
:1023F000CF9108950F931F93CF93DF93E091A004A3
:10240000F091A104EE0FFF1FE058FB4F00811181F6
:1024100086E293E00E94AD0CC8010E94F60C0E9477
:10242000C011892BE1F70E94C011009789F58091B6
:102430009A0490919B041816190674F4053F8FE0D6
:1024400018071CF4E8012A9602C0CFEFDFE01092D3
:102450009B0410929A0401C0E80180919A04909123
:102460009B0497FF0BC0CB30D10514F02A9702C014
:10247000C0E0D0E010929B0410929A04C017D107DC
:1024800019F0CE010E94F60C0E94C0118E01CDCF32
:10249000029791F46091A0047091A104FB01EE0FEA
:1024A000FF1FE058FB4F11830083C801DF91CF91DC
:1024B0001F910F910C94410DDF91CF911F910F91BE
:1024C00008952F923F924F925F926F927F928F92D8
:1024D0009F92AF92BF92CF92DF92EF92FF920F93B3
:1024E0001F93CF93DF93CDB7DEB760970FB6F89405
:1024F000DEBF0FBECDBF81E190E00E94FB293C0111
:10250000FC014196D3011D92A817B907E1F7C30159
:10251000409620E22193E817F907E1F7E091A00443
:10252000F091A10423E0EE0FFF1F2A95E1F79F0130
:102530002A593E4FD9014D915D916D917C91139730
:102540004D835E836F83788714964D915D916D9175
:102550007C91179749875A876B877C878D819E81ED
:10256000AF81B885481759076A077B0784F039851A
:102570002A859B858C854D815E816F817885498711
:102580005A876B877C873D832E839F8388878091C2
:10259000A2049091A3040E949306CC24C394D12C4E
:1025A000EE24E394F12C0CE515E72FEF3FEFA301A8
:1025B0006EE070E080E090E00E9487072FEF3FEF31
:1025C00045E353E06EE070E080E190E00E94870711
:1025D000C3010E94902A0E94C011892BE1F780E07C
:1025E00090E00E94170E49855A856B857C8549834A
:1025F0005A836B837C8389819A81AB81BC812D81D5
:102600003E814F81588582179307A407B5075CF771
:102610000E94C0111C01E0915801F0915901EE0F88
:10262000FF1FEE0FFF1FE65AFE4F80819181A281AE
:10263000B38129813A814B815C81280F391F4A1F60
:102640005B1FCA01B9010E940205C090A204D0908C
:10265000A30469817A818B819C8124E630E040E08B
:1026600050E00E94BA2988248394912CAA24A39430
:10267000B12CEE24EA94FE2C01E010E068E370E057
:1026800088E290E00E942E090E9415109E878D8797
:102690000E94990D80E090E02091000130910101AD
:1026A0004D855E852417350794F02091960430916E
:1026B000970440919804509199042D873E874F8745
:1026C000588B892B09F4C8C020E030E0ACC021143D
:1026D000310459F7892B21F481E493E00E94AD0C79
:1026E0000E9415109E878D870E94990D0E94C0112F
:1026F0001C0169817A818B819C810E94BB0F2B0117
:102700003C01672B682B692BB9F1E0915801F091DE
:102710005901EE0FFF1FEE0FFF1FE65AFE4F80819B
:102720009181A281B381BC01CD01640D751D861D0F
:10273000971D0E940205C090A204D090A304C3017B
:10274000B20124E630E040E050E00E94BA2988243B
:102750008394912CAA24A394B12CEE24EA94FE2C09
:1027600001E010E068E370E088E290E00E942E094A
:1027700049825A826B827C8281E090E08DCF232B4C
:1027800021F48AE493E00E94AD0C0E94C0111C0168
:10279000892B21F01D861E861F86188A69817A8101
:1027A0008B819C810E94BB0F2B013C01672B682B06
:1027B000692BB9F1E0915801F0915901EE0FFF1F1B
:1027C000EE0FFF1FE65AFE4F80819181A281B381F7
:1027D000BC01CD01640D751D861D971D0E9402056B
:1027E000C090A204D090A304C301B20124E630E05B
:1027F00040E050E00E94BA2988248394912CAA24B6
:10280000A394B12CEE24EA94FE2C01E010E068E3DE
:1028100070E088E290E00E942E0949825A826B8221
:102820007C8221E030E040919604509197046091C1
:102830009804709199048D859E85AF85B8894D96D1
:10284000A11DB11D84179507A607B7070CF097CFF8
:1028500085E593E00E94AD0C69817A818B819C8132
:102860000E94BB0F2B013C01672B682B692BB9F130
:10287000E0915801F0915901EE0FFF1FEE0FFF1F7D
:10288000E65AFE4F80819181A281B381BC01CD01C6
:10289000640D751D861D971D0E940205C090A2043F
:1028A000D090A304C301B20124E630E040E050E040
:1028B0000E94BA2988248394912CAA24A394B12C31
:1028C000EE24EA94FE2C01E010E068E370E088E278
:1028D00090E00E942E0949825A826B827C8232E00B
:1028E0002316310489F043E02416310491F0698104
:1028F0007A818B819C816C597F4F8F4F9F4F698369
:102900007A838B839C8377CE69817A818B819C814A
:1029100004C060E070E080E090E060960FB6F8944C
:10292000DEBF0FBECDBFDF91CF911F910F91FF9002
:10293000EF90DF90CF90BF90AF909F908F907F905F
:102940006F905F904F903F902F9008952F923F92FD
:102950004F925F926F927F928F929F92AF92BF92AF
:10296000CF92DF92EF92FF920F931F93CF93DF935B
:1029700000D000D0CDB7DEB781E190E00E94FB2906
:102980003C01FC014196D3011D92A817B907E1F75C
:10299000C301409620E22193E817F907E1F78091FF
:1029A000A2049091A3040E949306CC24C394D12C3A
:1029B000EE24E394F12C0CE515E72FEF3FEFA30194
:1029C0006EE070E080E090E00E9487072FEF3FEF1D
:1029D00045E353E06EE070E080E190E00E948707FD
:1029E000C3010E94902A0E94C011892BE1F780E068
:1029F00090E00E94170E24E6222E312C412C512CFF
:102A00001C821B820E94C0113C01E091A004F09145
:102A1000A104EE0FFF1F2B813C81E20FF31FEE0F8D
:102A2000FF1FEE0FFF1FEA59FE4FA0915801B09112
:102A30005901AA0FBB1FAA0FBB1FA65ABE4F408148
:102A40005181628173818D919D910D90BC91A02DDA
:102A50008A019B01080F191F2A1F3B1FC901B801DA
:102A60000E940205C090A204D090A304E091A004AB
:102A7000F091A104EE0FFF1F2B813C81E20FF31FA9
:102A8000EE0FFF1FEE0FFF1FEA59FE4F60817181AD
:102A900082819381A20191010E94BA2988248394A2
:102AA000912CAA24A394B12CEE24EA94FE2C01E0EC
:102AB00010E068E370E088E290E00E942E090E9436
:102AC00015109A8389830E94990D0091A204109198
:102AD000A304CC24C394D12CEE24E394F12C20EE57
:102AE00037EF4B814F5B68E370E088E090E00E9435
:102AF000E40680E090E020910001309101014981DD
:102B00005A81241735075CF0C0909604D090970442
:102B1000E0909804F090990420E030E00BC161143B
:102B2000710491F7892B21F481E493E00E94AD0CAC
:102B30000E9415109A8389830E94990D0E94C011EA
:102B40003C01E091A004F091A104EE0FFF1F4B8126
:102B50005C81E40FF51FEE0FFF1FEE0FFF1FEA5918
:102B6000FE4F60817181828193810E94BB0F61154C
:102B700071058105910509F453C0E091A004F0911D
:102B8000A104EE0FFF1F0B811C81E00FF11FEE0F60
:102B9000FF1FEE0FFF1FEA59FE4F60837183828390
:102BA0009383E0915801F0915901EE0FFF1FEE0F52
:102BB000FF1FE65AFE4FC080D180E280F3806C0D8B
:102BC0007D1D8E1D9F1D0E940205C090A204D09005
:102BD000A304E091A004F091A104EE0FFF1FE00F09
:102BE000F11FEE0FFF1FEE0FFF1FEA59FE4F60812E
:102BF000718182819381A20191010E94BA29882466
:102C00008394912CAA24A394B12CEE24EA94FE2C54
:102C100001E010E068E370E088E290E00E942E0995
:102C200081E090E068CF232B21F48AE493E00E94B6
:102C3000AD0C0E94C0113C01892B19F0C12CD12C84
:102C40007601E091A004F091A104EE0FFF1F8B81AB
:102C50009C81E80FF91FEE0FFF1FEE0FFF1FEA59CF
:102C6000FE4F60817181828193810E94BB0F61154B
:102C700071058105910509F45BC0E091A004F09114
:102C8000A104EE0FFF1F0B811C81E00FF11FEE0F5F
:102C9000FF1FEE0FFF1FEA59FE4F6083718382838F
:102CA0009383E0915801F0915901EE0FFF1FEE0F51
:102CB000FF1FE65AFE4FC080D180E280F3806C0D8A
:102CC0007D1D8E1D9F1D0E940205C090A204D09004
:102CD000A304E091A004F091A104EE0FFF1FE00F08
:102CE000F11FEE0FFF1FEE0FFF1FEA59FE4F60812D
:102CF000718182819381A20191010E94BA29882465
:102D00008394912CAA24A394B12CEE24EA94FE2C53
:102D100001E010E068E370E088E290E00E942E0994
:102D2000C0909604D0909704E0909804F090990495
:102D300021E030E04091960450919704609198040E
:102D400070919904D701C6014D96A11DB11D84173C
:102D50009507A607B7070CF066CFE091A004F091A5
:102D6000A104EE0FFF1F2B813C81E20FF31FEE0F3A
:102D7000FF1FEE0FFF1FEA59FE4F608171818281B4
:102D800093810E94BB0F611571058105910509F4BE
:102D900055C0E091A004F091A104EE0FFF1F4B81FC
:102DA0005C81E40FF51FEE0FFF1FEE0FFF1FEA59C6
:102DB000FE4F6083718382839383E0915801F09189
:102DC0005901EE0FFF1FEE0FFF1FE65AFE4FC080A6
:102DD000D180E280F3806C0D7D1D8E1D9F1D0E94B1
:102DE0000205C090A204D090A304E091A004F09149
:102DF000A104EE0FFF1F8B819C81E80FF91FEE0FDE
:102E0000FF1FEE0FFF1FEA59FE4F60817181828123
:102E10009381A20191010E94BA2988248394912C64
:102E2000AA24A394B12CEE24EA94FE2C01E010E035
:102E300068E370E088E290E00E942E0992E0691653
:102E4000710429F0E3E06E167104C1F12CC00B810E
:102E50001C81C801012E000CAA0BBB0BAC01BD01EB
:102E60008CE1440F551F661F771F8A95D1F780911B
:102E7000A0049091A104880F991F800F911F880FC3
:102E8000991F880F991F8A599E4FFC01808191815B
:102E9000A281B3818A019B01080F191F2A1F3B1FC2
:102EA000C901B8010EC02B813C812130310509F4E4
:102EB000A7CD01E010E01C830B83A4CD60E070E09F
:102EC000CB010F900F900F900F90DF91CF911F913A
:102ED0000F91FF90EF90DF90CF90BF90AF909F90B9
:102EE0008F907F906F905F904F903F902F900895BC
:102EF0008F929F92AF92BF92CF92DF92EF92FF920A
:102F00000F931F93CF93DF9381E190E00E94FB2901
:102F1000EC01FC014196DE011D92A817B907E1F70B
:102F2000CE01409620E22193E817F907E1F780915E
:102F3000A2049091A3040E949306CC24C394D12CA4
:102F4000EE24E394F12C0CE515E72FEF3FEFAE01F3
:102F50006EE070E080E090E00E9487072FEF3FEF87
:102F600041E653E06EE070E088E090E00E94870761
:102F7000CE010E94902A80910001909101010E944F
:102F8000990D80E090E00E94170EC090A204D090AE
:102F9000A3042091000130910101032E000C440B89
:102FA000550B88248394912CAA24A394B12CEE244D
:102FB000EA94FE2C0FEF1FEF68E370E088E290E0E8
:102FC0000E942E0980910001909101010E94990DAB
:102FD00080919A0490919B0403970CF447C08091D0
:102FE0000001909101018C3091052CF40196909391
:102FF00001018093000180910001909101010E94E4
:10300000990D0091A2041091A304CC24C394D12C57
:10301000EE24E394F12C2FEF3FEF42EE52E068E311
:1030200070E088E290E00E948707C090A204D090F0
:10303000A3042091000130910101032E000C440BE8
:10304000550B88248394912CAA24A394B12CEE24AC
:10305000EA94FE2C0FEF1FEF68E370E088E290E047
:103060000E942E0910929B0410929A0480919A0457
:1030700090919B048E3F9F4FB4F4809100019091FA
:103080000101181619062CF4019790930101809301
:10309000000180910001909101010E94990D109210
:1030A0009B0410929A040E94C011009709F490CFDB
:1030B000029791F4609100018AE890E0DF91CF914E
:1030C0001F910F91FF90EF90DF90CF90BF90AF9046
:1030D0009F908F900C94422BDF91CF911F910F9175
:1030E000FF90EF90DF90CF90BF90AF909F908F9028
:1030F00008952F923F924F925F926F927F928F929C
:103100009F92AF92BF92CF92DF92EF92FF920F9376
:103110001F93CF93DF93CDB7DEB72A970FB6F894FE
:10312000DEBF0FBECDBF7A87698758874F832901DD
:103130009A8389831C01E3E0220C331CEA95E1F7B2
:10314000F3E0440F551FFA95E1F75C834B838EE063
:10315000869F9001879F300D11243E832D835B0154
:10316000812C912C4A145B0444F16D807E80680CA4
:10317000791C0091A2041091A304CC24C394D12CF7
:10318000EE24E394F12C2FEF3FEF42E8B301C101AD
:103190000E94E4060091A2041091A3042FEF3FEFD8
:1031A00042E8B3018B819C810E94E4063FEFA31AA1
:1031B000B30A4EE0840E911CD5CF89849A8451E0E5
:1031C000851A91088EE0889DF001899DF00D1124EB
:1031D000FE83ED83FFEF4F1A5F0A849D3001859DCA
:1031E000700C1124A12CB12CE981FA813196FA835B
:1031F000E983F8E0AF0EB11C0091A2041091A30482
:1032000029813A814F81588524173507FCF4CC2455
:10321000C394D12CEE24E394F12C2FEF3FEF43E83D
:103220006D817E81C1018A0D9B1D9A8789870E94CD
:10323000E4060091A2041091A3042FEF3FEF43E8AE
:10324000B30189859A850E94E406CECF8EE0B82E20
:10325000B49C3001B59C700C1124CC24C394D12CA7
:10326000EE24E394F12C2FEF3FEF44E8B301C101CA
:103270000E94E4060091A2041091A3042FEF3FEFF7
:1032800045E8B3018B819C810E94E406B89C300123
:10329000B99C700C11240091A2041091A3042FEF8B
:1032A0003FEF46E8B301C1010E94E4060091A20489
:1032B0001091A3042FEF3FEF47E8B3018B819C816E
:1032C0000E94E4062A960FB6F894DEBF0FBECDBF6B
:1032D000DF91CF911F910F91FF90EF90DF90CF90F2
:1032E000BF90AF909F908F907F906F905F904F9026
:1032F0003F902F9008958F929F92AF92BF92CF925E
:10330000DF92EF92FF920F931F93CF93DF934C01C5
:103310008B01FC0101900020E9F78E1B9F0B419669
:103320005C01B694A79481E190E00E94FB29EC0136
:10333000FC014196DE011D92A817B907E1F7CE0105
:10334000409620E22193E817F907E1F798012D5FF5
:103350003F4F4DE050E063E070E084E090E00E9479
:103360007918CC24C394D12CEE24E394F12C0CE5F1
:1033700015E72FEF3FEFAE016EE070E080E090E0E8
:103380000E9487072FEF3FEFA4016EE070E0C501B8
:10339000E3E0880F991FEA95E1F70E948707CE01C5
:1033A000DF91CF911F910F91FF90EF90DF90CF9021
:1033B000BF90AF909F908F900C94902ACF92DF9205
:1033C000EF92FF920F931F93CF93DF93CDB7DEB7AA
:1033D000C055D1090FB6F894DEBF0FBECDBF20E5B2
:1033E000E2EBF1E0DE01119601900D922A95E1F7F2
:1033F0009B012D5F3F4F452B19F145E0489FF001A0
:10340000499FF00D1124E60FF71FEE0FFF1F81E01B
:1034100090E08C0F9D1FE80FF91F408151818EE0D5
:10342000829FB001839F700D1124CC24C394D12CB2
:10343000EE24E394F12C0FEF1FEF20E030E024C0E6
:103440000091A2041091A30445E0489FF001499F18
:10345000F00D1124E60FF71FEE0FFF1F81E090E043
:103460008C0F9D1FE80FF91F408151818EE0829FD4
:10347000B001839F700D1124CC24C394D12CEE2471
:10348000E394F12C2FEF3FEF88E290E00E94870752
:10349000C05BDF4F0FB6F894DEBF0FBECDBFDF912C
:1034A000CF911F910F91FF90EF90DF90CF900895F3
:1034B000CF92DF92EF92FF920F931F93CF93DF9300
:1034C0007C016B01C0E0D0E08C01000F111F0E5F8A
:1034D0001E4FF801808191818C179D0774F0CC15E7
:1034E000DD0519F441E050E002C040E050E0BE01CB
:1034F000C7010E94DE192196ECCFDF91CF911F9179
:103500000F91FF90EF90DF90CF9008952F923F9210
:103510004F925F926F927F928F929F92AF92BF92E3
:10352000CF92DF92EF92FF920F931F93CF93DF938F
:1035300000D000D0CDB7DEB73C017A8369832A0181
:10354000BA010E94581A0E94C011892BE1F70E940B
:10355000C0116C014B825C82F4E62F2E312C412C81
:10356000512CC114D10409F0CDC080919A049091DE
:103570009B04039704F140E050E06B817C81C30120
:103580000E94DE190B811C8129813A8102171307E1
:103590002CF40F5F1F4F1C830B8302C01C821B8205
:1035A00041E050E06B817C81C3010E94DE191092E2
:1035B0009B0410929A0480919A0490919B048E3FF0
:1035C0009F4FFCF440E050E06B817C81C3010E947E
:1035D000DE198B819C811816190624F401979C83AF
:1035E0008B8304C0E981FA81FC83EB8341E050E0E6
:1035F0006B817C81C3010E94DE1910929B041092A2
:103600009A04F2E06F167104D1F054F411E06116DF
:10361000710409F073C08B819C810E948B036EC082
:1036200023E06216710409F465C036E06316710484
:1036300009F064C08B819C810E9491035FC0E0917E
:10364000A004F091A104EE0FFF1F8B819C81E80F75
:10365000F91FEE0FFF1FEE0FFF1FEA59FE4FA0915B
:103660005801B0915901AA0FBB1FAA0FBB1FA65A40
:10367000BE4F40815181628173818D919D910D90EA
:10368000BC91A02D8A019B01080F191F2A1F3B1F07
:10369000C901B8010E940205C090A204D090A30401
:1036A000E091A004F091A104EE0FFF1F2B813C815B
:1036B000E20FF31FEE0FFF1FEE0FFF1FEA59FE4F41
:1036C0006081718182819381A20191010E94BA2956
:1036D00088248394912CAA24A394B12CEE24EA94F8
:1036E000FE2C01E010E064E570E080E290E00E94D2
:1036F0002E0904C08B819C810E94F3040E94C0119A
:103700006C012FCF80915801909159010E94F304D0
:1037100032E0C316D10431F083E0C816D10429F495
:103720008DEF04C08B819C8102C08FEF9FEF0F90C3
:103730000F900F900F90DF91CF911F910F91FF90FD
:10374000EF90DF90CF90BF90AF909F908F907F9041
:103750006F905F904F903F902F90089526E0880FD4
:10376000991F2A95E1F74096089503962EE0AC0143
:10377000249FC001259F900D11240895EF92FF9280
:103780000F931F93CF93DF93CDB7DEB7C055D10909
:103790000FB6F894DEBF0FBECDBF890180E5E2E031
:1037A000F2E0DE01119601900D928A95E1F7809189
:1037B000A2049091A3040E9493060E94C011892B39
:1037C000E1F77801EE0CFF1CF701EE5FFE4F608120
:1037D00071812AE0209FC001219F900D112421E0DA
:1037E00030E02C0F3D1F820F931F0E947B19023087
:1037F000110529F16CF401151105D1F00130110505
:1038000099F560917A0470917B0481E090E02FC07B
:1038100005301105D9F006301105F9F00330110516
:1038200019F5609158017091590183E090E01FC033
:103830006091A0047091A10480E090E018C06091B4
:10384000A4047091A50482E090E011C060917C0412
:1038500070917D0485E090E00AC0609178047091D9
:10386000790486E090E003C060E070E0C8010E9447
:10387000581A4091A0045091A104F701EE5FFE4F49
:1038800060817181C8010E94861A97FD0DC02AE0EF
:10389000209FB001219F700D1124680F791F072E02
:1038A000000C880B990B19C0039699F00091A204A3
:1038B0001091A30420E830E040E750E06CE170E0B4
:1038C00080E290E00E94B6066EEF7FEF8FEF9FEFF1
:1038D00004C06DEF7FEF8FEF9FEFC05BDF4F0FB640
:1038E000F894DEBF0FBECDBFDF91CF911F910F9136
:1038F000FF90EF9008952F923F924F925F926F92B8
:103900007F928F929F92AF92BF92CF92DF92EF926F
:10391000FF920F931F93CF93DF93CDB7DEB7C254BF
:10392000D1090FB6F894DEBF0FBECDBF1B012C012D
:1039300023965FAF4EAF239780E4E2E5F2E0DE012D
:10394000119601900D928A95E1F70E94C011892B82
:10395000E1F78091A2049091A3040E949306CC24E5
:10396000C394D12CEE24E394F12C07ED15EC20E068
:103970003FEF48E154E061E070E080E090E00E94B9
:1039800087079E012F5F3F4F4901A12CB12C3501C4
:103990003AE2630E711C0091A2041091A304CC249E
:1039A000C394D12CEE24E394F12C2FEF3FEFA4012C
:1039B000B30180E190E00E9487070091A20410917A
:1039C000A304A401485F5F4F2FEF3FEFB30180E5F1
:1039D00090E00E9487078EE0A80EB11C90E1890E4E
:1039E000911C28E3A216B10491F626E030E04EE0E7
:1039F00050E063E070E081E090E00E94791820914F
:103A0000A2043091A3040FEF1FEFAE014F5F5F4F91
:103A10006AE270E080E190E00E948707A12CB12C5F
:103A20004EE0942E80919A0490919B0403970CF49D
:103A300067C037E0A316B1040CF05EC0C5019595D0
:103A400087950091A2041091A304A50163E0440F9F
:103A5000551F6A95E1F721E030E02C0F3D1F420F22
:103A6000531F9C012D5F3F4F929EB001939E700D9E
:103A70001124880F991F9501281B390BC901F6E005
:103A8000880F991FFA95E1F7CC24C394D12CEE242A
:103A9000E394F12C2FEF3FEF40960E9487073FEF12
:103AA000A31AB30AC50195958795A50103E0440FB4
:103AB000551F0A95E1F721E030E02C0F3D1F420F22
:103AC000531F9C012D5F3F4F929EB001939E700D3E
:103AD0001124880F991F9501281B390BC90136E065
:103AE000880F991F3A95E1F70FEF1FEF23E73AE0B0
:103AF000805F9B4F0E94870710929B0410929A044C
:103B000080919A0490919B048E3F9F4F0CF066C069
:103B1000A114B10409F45EC0C50195958795009183
:103B2000A2041091A304A50133E0440F551F3A9558
:103B3000E1F721E030E02C0F3D1F420F531F9C01A5
:103B40002D5F3F4F929EB001939E700D1124880F00
:103B5000991F9501281B390BC901F6E0880F991FA1
:103B6000FA95E1F7CC24C394D12CEE24E394F12C04
:103B70002FEF3FEF40960E94870731E0A31AB1086C
:103B8000C50195958795A50103E0440F551F0A953A
:103B9000E1F721E030E02C0F3D1F420F531F9C0145
:103BA0002D5F3F4F929EB001939E700D1124880FA0
:103BB000991F9501281B390BC90136E0880F991F01
:103BC0003A95E1F70FEF1FEF23E73AE0805F9B4F55
:103BD0000E94870710929B0410929A040E94C011C1
:103BE000009709F41FCF029751F4950123964EAD2B
:103BF0005FAD2397C201B1010E94BE1B04C06EEFEE
:103C00007FEF8FEF9FEFCE5BDF4F0FB6F894DEBFF5
:103C10000FBECDBFDF91CF911F910F91FF90EF901D
:103C2000DF90CF90BF90AF909F908F907F906F90DC
:103C30005F904F903F902F900895AF92BF92CF9298
:103C4000DF92EF92FF920F931F93CF93DF93EC01DC
:103C50008091A2049091A3040E949306A12CB12C00
:103C6000CC24C394D12CEE24E394F12C0CE515E77D
:103C70002FEF3FEF40E26EE070E0C5010E94E406E6
:103C800028E0A20EB11C80E8A816B10449F72FEF76
:103C90003FEF4AE254E06EE070E080E190E00E9485
:103CA0008707209739F409E11CE32FEF3FEF46E344
:103CB00054E00CC0CC24C394D12CEE24E394F12C1A
:103CC00009E11CE32FEF3FEF40E454E06CE170E0CA
:103CD00088E190E00E9487070E94C011892BE1F7DC
:103CE000E091A004F091A104EE0FFF1F8091A404C5
:103CF0009091A504E80FF91FEE0FFF1FEE0FFF1FB5
:103D0000EA59FE4F8E01000F111F000F111FE8012D
:103D1000C65ADE4F408151816281738188819981C9
:103D2000AA81BB816A017B01C80ED91EEA1EFB1E57
:103D3000C701B6010E940205488159816A817B81D1
:103D40008AE290E00E945604688179818A819B8191
:103D500041E050E00E94970980919A0490919B0461
:103D60000397E4F0488159816A817B81465F5F4F08
:103D70006F4F7F4F488359836A837B8310929B04E4
:103D800010929A048AE290E00E9456046881798138
:103D90008A819B8141E050E00E94970980919A04BA
:103DA00090919B048E3F9F4FE4F4488159816A8132
:103DB0007B814A50510961097109488359836A839B
:103DC0007B8310929B0410929A048AE290E00E94F6
:103DD0005604688179818A819B8141E050E00E948C
:103DE00097090E94C0115C01892B09F4B5CF0E948C
:103DF000C011892BE1F782E0A816B10441F4E80173
:103E0000C65ADE4F688179818A819B8103C060E058
:103E100070E0CB01DF91CF911F910F91FF90EF9058
:103E2000DF90CF90BF90AF9008958AE494E00E9415
:103E3000AD0C80E090E00E94990D83B7817F8C608B
:103E400083BF83B7816083BF889583B78E7F83BF2D
:103E500086EE92E00C94AD0C2B9A0E94C011892B37
:103E6000E1F70E94C011892BE1F32B980895CF93BD
:103E7000DF9300D000D000D0CDB7DEB7009196041C
:103E800010919704209198043091990409831A8322
:103E90002B833C831092A3041092A2048FEF8AB963
:103EA000229A239A249A81E088B983E085B983E82D
:103EB00080937A0080E090E00E94F70F8091680084
:103EC00081608093680080916B00836080936B00B9
:103ED000109280008DE08093810086E080938900BD
:103EE0008BE18093880080916F00826080936F00E7
:103EF0008FEF9FEF0E94EF0A80E190E00E94FB2984
:103F000090939F0480939E0480E090E0E0919E0453
:103F1000F0919F04E80FF91F1082019680319105FE
:103F2000A9F70E9497030E9408050E9455050E9468
:103F3000D2030E9477119093A1048093A00401966C
:103F400031F482E090E09093A1048093A00400916A
:103F5000A0041091A104C8010E9466119093A504C9
:103F60008093A404019621F41092A5041092A40455
:103F7000E090A404F090A504B801C7010E94C1100C
:103F8000000F111F0E0D1F1D000F111F000F111F1D
:103F9000F801EA59FE4F6083718382839383009115
:103FA000A0041091A1048091A4049091A50478012B
:103FB000EE0CFF1C8E0D9F1D880F991F880F991FF7
:103FC000DC01AA59BE4F6D016D917D918D919C913F
:103FD000A8010E945A03892B81F4F801EE0FFF1FFC
:103FE000EE0FFF1FE65CFE4F80819181A281B381BD
:103FF000F60180839183A283B383F701E25BFE4FD6
:10400000808191819093590180935801C8010E9449
:10401000EF0A8AE890E00E943A2B282F30E0309394
:104020000101209300018D3030F088E090E0909302
:1040300001018093000186E090E00E94F70FBC012F
:10404000990F880B990B0E948F2820E030E040EAFE
:1040500050E40E941B2920E030E040E85AE30E942F
:104060001B2920E030E040EC50E40E941B2920E0B6
:1040700030E040E251E40E941B290E9457282B01A6
:104080003C011B01E091A004F091A104EE0FFF1F81
:104090008091A4049091A504E80FF91FEE0FFF1F73
:1040A000EE0FFF1FEA59FE4FA0915801B091590140
:1040B000AA0FBB1FAA0FBB1FA65ABE4F408151813A
:1040C000628173818D919D910D90BC91A02D8A018B
:1040D0009B01080F191F2A1F3B1FC901B8010E942D
:1040E0000205E091A004F091A104EE0FFF1F809162
:1040F000A4049091A504E80FF91FEE0FFF1FEE0F27
:10410000FF1FEA59FE4FA0915801B0915901AA0F23
:10411000BB1FAA0FBB1FA65ABE4F408151816281AF
:1041200073818D919D910D90BC91A02D8A019B0171
:10413000080F191F2A1F3B1FC901B8010E94020561
:1041400080915801909159010E94F30440E050E0A1
:10415000BA018AE390E00E9456048CE890E00E9445
:104160003A2B282F30E030937B0420937A0482305E
:1041700020F010927B0410927A0480917A0490913E
:104180007B040E948B034091A0045091A1040091F4
:10419000A4041091A504A0907C04B0907D0420910B
:1041A000580130915901FA01EE0FFF1FE00FF11F86
:1041B000EE0FFF1FEE0FFF1FEA59FE4F6081718166
:1041C00082819381C12CD12C72010E947F0E00E864
:1041D00014E0E12C28E0F22EC6010E943203D8013F
:1041E0008D939C938130904118F0F801F182E08228
:1041F000FFEFCF1ADF0A0E5F1F4F25E0C216D10472
:1042000059F7E091A004F091A104EE0FFF1FE058D0
:10421000FB4F808191810E94F60C789485E594E0B3
:104220000E94AD0C812C912C1EEC412E55245A94E9
:10423000652C752C1E821D82E091A004F091A104D2
:10424000EE0FFF1F8091A4049091A504E80FF91FC1
:10425000EE0FFF1FEE0FFF1FEA59FE4F60817181C5
:10426000828193810E94BB0F6115710581059105C3
:1042700009F444C0E091A004F091A104EE0FFF1FE7
:104280002091A4043091A504E20FF31FEE0FFF1F4D
:10429000EE0FFF1FEA59FE4F608371838283938381
:1042A000E0915801F0915901EE0FFF1FEE0FFF1F33
:1042B000E65AFE4F0081118122813381600F711F08
:1042C000821F931F0E940205E091A004F091A104B7
:1042D000EE0FFF1F8091A4049091A504E80FF91F31
:1042E000EE0FFF1FEE0FFF1FEA59FE4F6081718135
:1042F0008281938142E050E00E9497090E94C011A0
:104300008130910509F0FDC26091A0047091A10473
:104310008091A4049091A504FB01EE0FFF1FE80F0C
:10432000F91FEE0FFF1FEE0FFF1FEA59FE4F20810E
:104330003181428153810E9408118091A0049091A3
:10434000A1046091A4047091A504FC01EE0FFF1F6D
:10435000E60FF71FEE0FFF1FEE0FFF1FEA59FE4F8C
:10436000008111812281338140915801509159017E
:104370000E9484110E94C011892BE1F74091A4048E
:104380005091A504E091A004F091A104EE0FFF1F4D
:10439000E40FF51FEE0FFF1FEE0FFF1FEA59FE4F50
:1043A00060817181828193810E947B1C69327105D9
:1043B00009F4D6C154F566317105D4F46431710540
:1043C0000CF0F9C06A30710509F4E6C02CF46530D0
:1043D000710508F44FC070C26B30710509F06CC2F2
:1043E00021E030E030937B0420937A042A9ADCC0E9
:1043F0006E3171050CF460C2603271050CF45BC162
:104400006832710509F489C157C26D33710509F429
:1044100001C2DCF4643371055CF4623371050CF0A5
:10442000ECC16A32710509F047C20E94781744C294
:104430006C33710509F040C210927904109278042F
:1044400080E090E00E949103ECC16834710509F4AA
:104450000AC22CF4663471050CF0E8C12DC269342F
:10446000710509F403C26A34710509F025C20E947E
:104470002C1F22C27093A1046093A004CB010E9460
:10448000EF0A0091A0041091A104B8018091A40446
:104490009091A5040E94C110A8010E945A03E090C7
:1044A000A004F090A1040091A4041091A504892B0C
:1044B000B1F0B701C8010E94C1109701220F331F4C
:1044C000200F311F220F331F220F331F2A593E4F57
:1044D000D9016D937D938D939C9313971BC0F70126
:1044E000EE0FFF1FE00FF11FEE0FFF1FEE0FFF1F7C
:1044F000EA59FE4FC701880F991F880F991F865CE4
:104500009E4FDC014D915D916D917C914083518373
:10451000628373838091A0049091A104880F991FF6
:104520002091A4043091A504820F931F880F991F36
:10453000880F991FDC01AA59BE4FE0915801F091F4
:104540005901EE0FFF1FEE0FFF1FE65AFE4F4D9170
:104550005D916D917C9180819181A281B3818A016D
:104560009B01080F191F2A1F3B1FC901B8010E9498
:1045700002056091A00480E090E00E94422BE0914F
:10458000A004F091A104EE0FFF1FE058FB4F8081C3
:1045900091810E94F60C90C110927B0410927A04D3
:1045A00080E090E00E948B0360917A048CE890E0B8
:1045B0000E94422B81C1CB0144979093A504809324
:1045C000A40460E070E00E946A0B0091A0041091C6
:1045D000A104E090A404F090A504B801C7010E94D2
:1045E000C110000F111F0E0D1F1D000F111F000F16
:1045F000111FF801EA59FE4F608371838283938310
:104600000091A0041091A104A090A404B090A5046E
:104610006801CC0CDD1C7601EA0CFB1CC701880F7D
:10462000991F880F991FDC01AA59BE4F7D016D911A
:104630007D918D919C91A8010E945A03892B81F450
:10464000000F111F000F111FF801E65CFE4F808163
:104650009181A281B381F70180839183A283B38387
:10466000CA0CDB1CC601880F991F880F991F8A5935
:104670009E4FE0915801F0915901EE0FFF1FEE0F90
:10468000FF1FE65AFE4FDC014D915D916D917C91CB
:1046900080819181A281B3818A019B01080F191F3A
:1046A0002A1F3B1FC901B8010E9402056091A404A2
:1046B00085E090E07DCF6E51710970935901609350
:1046C0005801A091A004B091A104AA0FBB1F809132
:1046D000A4049091A504A80FB91FAA0FBB1FAA0F8D
:1046E000BB1FAA59BE4F660F771F660F771FFB01CE
:1046F000E65AFE4F4D915D916D917C918081918143
:10470000A281B3818A019B01080F191F2A1F3B1F39
:10471000C901B8010E9402059FC00E9461126B018D
:104720007C010091A0041091A104A8010E945A03E9
:10473000892B09F4C1C0000F111F8091A40490912E
:10474000A504800F911F880F991F880F991F8A5900
:104750009E4FDC01CD92DD92ED92FC92139736C014
:104760000E94A6146B017C01BFE0FB22C114D1049E
:10477000E104F10409F4A0C0DC01CB011CE1B59512
:10478000A795979587951A95D1F79093A50480934F
:10479000A4046091A2047091A3040E946A0B20916A
:1047A000A0043091A104220F331F8091A4049091A2
:1047B000A504F901E80FF91FEE0FFF1FEE0FFF1F11
:1047C000EA59FE4FC082D182E282F382E091580121
:1047D000F0915901EE0FFF1FEE0FFF1FE65AFE4F3B
:1047E00080819181A281B381BC01CD016C0D7D1DC1
:1047F0008E1D9F1D0E9402055FC0CB01C297909342
:104800007D0480937C046091A2047091A3040E94B3
:10481000300B52C0E1E0F0E0F0937904E0937804CB
:104820002C9860917A048EE890E0C2CE8B010654F9
:104830001109C8010E941D1E161617061806190632
:10484000DCF5000F111F000F111FF801E65AFE4F93
:104850006083718382839383809158019091590181
:104860000E94F30429C00E94FA1126C04091A004BE
:104870005091A1040091A4041091A504A0907C047F
:10488000B0907D042091580130915901FA01EE0F4A
:10489000FF1FE00FF11FEE0FFF1FEE0FFF1FEA5982
:1048A000FE4F6081718182819381C12CD12C710175
:1048B0000E947F0E0E94151F4091A0045091A104F8
:1048C0000091A4041091A504A0907C04B0907D04F4
:1048D0002091580130915901FA01EE0FFF1FE00FAE
:1048E000F11FEE0FFF1FEE0FFF1FEA59FE4F608111
:1048F000718182819381C12CD12C71010E947F0E24
:1049000012C18230910531F50E94C011892BE1F767
:104910008091A0049091A1046091A4047091A504D9
:10492000FC01EE0FFF1FE60FF71FEE0FFF1FEE0F4C
:10493000FF1FEA59FE4F008111812281338140918E
:104940005801509159010E94841186E694E00E941A
:10495000AD0CE9C08330910539F40E94C011892B58
:10496000E1F70E94FA11DFC0049709F0DCC00E9451
:10497000C011892BE1F78091A0049091A1048430AB
:10498000910534F401969093A1048093A00404C08F
:104990001092A1041092A00460E070E08091A00445
:1049A0009091A1040E944F0A8091A0049091A104CB
:1049B0000E94EF0A80E090E0E0919E04F0919F0455
:1049C000E80FF91F1082019680319105A9F7009137
:1049D000A0041091A104E090A404F090A504B801F3
:1049E000C7010E94C110000F111F0E0D1F1D000FE7
:1049F000111F000F111FF801EA59FE4F60837183E8
:104A0000828393830091A0041091A104A090A40438
:104A1000B090A5046801CC0CDD1C7601EA0CFB1CEF
:104A2000C701880F991F880F991F9C012A593E4F73
:104A30007901D9016D917D918D919C91A8010E9480
:104A40005A03892B81F4000F111F000F111FF80169
:104A5000E65CFE4F80819181A281B381F701808362
:104A60009183A283B383CA0CDB1CC601880F991FF4
:104A7000880F991F8A599E4FE0915801F091590172
:104A8000EE0FFF1FEE0FFF1FE65AFE4FDC014D91A8
:104A90005D916D917C9180819181A281B3818A0128
:104AA0009B01080F191F2A1F3B1FC901B8010E9453
:104AB000020582E090E00E94DD07E091A004F09101
:104AC000A104EE0FFF1F8091A4049091A504E80FAC
:104AD000F91FEE0FFF1FEE0FFF1FEA59FE4F608117
:104AE00071818281938142E050E00E949709609138
:104AF000A2047091A3048091A4049091A5040E9443
:104B00006A0B6091A00480E090E00E94422BE0914B
:104B1000A004F091A104EE0FFF1FE058FB4F80812D
:104B200091810E94F60C40919604509197046091F7
:104B3000980470919904D301C2010A96A11DB11D78
:104B400084179507A607B707DCF586E090E00E947A
:104B5000F70FBC01990F880B990B0E948F2820E05A
:104B600030E040EA50E40E941B2920E030E040E8B9
:104B70005AE30E941B2920E030E040EC50E40E9400
:104B80001B2920E030E040E251E40E941B290E94F2
:104B900057286B017C011B012D813E816217730731
:104BA00019F0CB010E940D0C0E945D1040909604FC
:104BB000509097046090980470909904DE82CD82A2
:104BC00040919604509197046091980470919904D3
:104BD0008091740490917504A0917604B09177044B
:104BE00084179507A607B7070CF027C187E090E068
:104BF0000E94F70F893E93400CF479C0892809F090
:104C000073C081E090E00E94170E0E94F907809126
:104C10007C0490917D04892B09F466C04091A40422
:104C20005091A5042091A0043091A10480915801D5
:104C30009091590113E0220F331F1A95E1F7F90102
:104C4000EA59FE4F880F991F880F991FDC01A65A59
:104C5000BE4F452B19F544815581668177818D9131
:104C60009D910D90BC91A02D8A019B01080F191FE9
:104C70002A1F3B1FC901B8010E940205E091A00450
:104C8000F091A104B3E0EE0FFF1FBA95E1F7EA59E6
:104C9000FE4F648175818681978122C04081518158
:104CA000628173818D919D910D90BC91A02D8A019F
:104CB0009B01080F191F2A1F3B1FC901B8010E9441
:104CC0000205E091A004F091A104A3E0EE0FFF1F04
:104CD000AA95E1F7EA59FE4F608171818281938143
:104CE00042E050E00E94970988248394912C87E049
:104CF00090E00E94F70F893E93400CF079C089281C
:104D000009F479C080E090E00E94170E80E090E006
:104D10000E94820C80917C0490917D04892B09F47F
:104D20006AC04091A4045091A5042091A004309140
:104D3000A104809158019091590163E0220F331F23
:104D40006A95E1F7F901EA59FE4F880F991F880F1C
:104D5000991FDC01A65ABE4F452B19F540815181A0
:104D6000628173818D919D910D90BC91A02D8A01DE
:104D70009B01080F191F2A1F3B1FC901B8010E9480
:104D80000205E091A004F091A10443E0EE0FFF1FA3
:104D90004A95E1F7EA59FE4F6081718182819381E2
:104DA00022C044815581668177818D919D910D90BE
:104DB000BC91A02D8A019B01080F191F2A1F3B1FC0
:104DC000C901B8010E940205E091A004F091A1047C
:104DD00033E0EE0FFF1F3A95E1F7EA59FE4F648189
:104DE00075818681978142E050E00E94970903C057
:104DF0008114910439F40E9415100E94990D812CA0
:104E0000912C0BC082E090E00E94F70F23E0959573
:104E100087952A95E1F70E94990D809196049091CB
:104E20009704A0919804B09199048093740490938E
:104E30007504A0937604B093770440919604509142
:104E40009704609198047091990489819A81AB814B
:104E5000BC814496A11DB11D84179507A607B7070D
:104E600074F40E94050E8091960490919704A0918D
:104E70009804B091990489839A83AB83BC83809111
:104E8000920490919304A0919404B0919504CC96CF
:104E9000A11DB11D40919604509197046091980412
:104EA0007091990484179507A607B7070CF0C4C939
:104EB00080917E0490917F04892B09F4BDC985E51A
:104EC00094E00E94AD0C8091960490919704A0917B
:104ED0009804B09199048093920490939304A093C2
:104EE0009404B093950410927F0410927E04A4C998
:104EF0005058BB27AA270E9490270C94E1280E94B3
:104F0000D32838F00E94DA2820F039F49F3F19F4B2
:104F100026F40C94D0280EF4E095E7FB0C94CA28F4
:104F2000E92F0E94F22858F3BA1762077307840723
:104F3000950720F079F4A6F50C9414290EF4E09569
:104F40000B2EBA2FA02D0B01B90190010C01CA0143
:104F5000A0011124FF27591B99F0593F50F4503EEE
:104F600068F11A16F040A22F232F342F4427585FE0
:104F7000F3CF469537952795A795F0405395C9F7F8
:104F80007EF41F16BA0B620B730B840BBAF09150B0
:104F9000A1F0FF0FBB1F661F771F881FC2F70EC04F
:104FA000BA0F621F731F841F48F487957795679522
:104FB000B795F7959E3F08F0B0CF9395880F08F00E
:104FC0009927EE0F9795879508950E94F9270C94DD
:104FD000E1280E94DA2858F00E94D32840F029F4F2
:104FE0005F3F29F00C94CA2851110C9415290C9498
:104FF000D0280E94F22868F39923B1F3552391F346
:10500000951B550BBB27AA2762177307840738F037
:105010009F5F5F4F220F331F441FAA1FA9F335D094
:105020000E2E3AF0E0E832D091505040E695001C48
:10503000CAF72BD0FE2F29D0660F771F881FBB1F02
:10504000261737074807AB07B0E809F0BB0B802DE0
:10505000BF01FF2793585F4F3AF09E3F510578F00C
:105060000C94CA280C9415295F3FE4F3983ED4F3BE
:10507000869577956795B795F7959F5FC9F7880FE0
:10508000911D9695879597F90895E1E0660F771F32
:10509000881FBB1F621773078407BA0720F0621BC3
:1050A000730B840BBA0BEE1F88F7E09508950E94EE
:1050B0005E286894B1110C94152908950E94FA286D
:1050C00088F09F5798F0B92F9927B751B0F0E1F0C9
:1050D000660F771F881F991F1AF0BA95C9F714C079
:1050E000B13091F00E941429B1E008950C94142974
:1050F000672F782F8827B85F39F0B93FCCF38695B2
:1051000077956795B395D9F73EF49095809570950E
:1051100061957F4F8F4F9F4F0895E89409C097FB8B
:105120003EF490958095709561957F4F8F4F9F4F7E
:105130009923A9F0F92F96E9BB279395F6958795C2
:1051400077956795B795F111F8CFFAF4BB0F11F485
:1051500060FF1BC06F5F7F4F8F4F9F4F16C088232C
:1051600011F096E911C0772321F09EE8872F762F62
:1051700005C0662371F096E8862F70E060E02AF0A3
:105180009A95660F771F881FDAF7880F969587958F
:1051900097F9089597F99F6780E870E060E00895B7
:1051A0009FEF80EC089500240A941616170618063F
:1051B0000906089500240A9412161306140605061B
:1051C0000895092E0394000C11F4882352F0BB0FAC
:1051D00040F4BF2B11F460FF04C06F5F7F4F8F4F0F
:1051E0009F4F089557FD9058440F551F59F05F3F4A
:1051F00071F04795880F97FB991F61F09F3F79F0F9
:1052000087950895121613061406551FF2CF46957A
:10521000F1DF08C0161617061806991FF1CF8695FC
:105220007105610508940895E894BB2766277727E0
:10523000CB0197F908950E942E290C94E1280E9431
:10524000D32838F00E94DA2820F0952311F00C942E
:10525000CA280C94D02811240C9415290E94F228F5
:1052600070F3959FC1F3950F50E0551F629FF001B9
:10527000729FBB27F00DB11D639FAA27F00DB11DD2
:10528000AA1F649F6627B00DA11D661F829F22275B
:10529000B00DA11D621F739FB00DA11D621F839FE2
:1052A000A00D611D221F749F3327A00D611D231FB8
:1052B000849F600D211D822F762F6A2F11249F5706
:1052C00050409AF0F1F088234AF0EE0FFF1FBB1F09
:1052D000661F771F881F91505040A9F79E3F5105C8
:1052E00080F00C94CA280C9415295F3FE4F3983E93
:1052F000D4F3869577956795B795F795E7959F5F72
:10530000C1F7FE2B880F911D9695879597F9089503
:10531000DB018F939F930E94D929BF91AF91A29FE8
:10532000800D911DA39F900DB29F900D11240895A3
:10533000A1E21A2EAA1BBB1BFD010DC0AA1FBB1F99
:10534000EE1FFF1FA217B307E407F50720F0A21B0B
:10535000B30BE40BF50B661F771F881F991F1A9478
:1053600069F760957095809590959B01AC01BD01A2
:10537000CF010895052E97FB1EF400940E94D129B9
:1053800057FD07D00E94982907FC03D04EF40C94D7
:10539000D12950954095309521953F4F4F4F5F4F04
:1053A000089590958095709561957F4F8F4F9F4F91
:1053B00008950E94EC29A59F900DB49F900DA49F85
:1053C000800D911D11240895B7FF0C94D9290E94D6
:1053D000D929821B930B0895A29FB001B39FC001EE
:1053E000A39F700D811D1124911DB29F700D811D11
:1053F0001124911D0895CF93DF938230910510F40D
:1054000082E090E0E091A804F091A90420E030E06F
:10541000C0E0D0E0309711F1408151814817590721
:10542000C0F04817590761F482819381209719F0E1
:105430009B838A832BC09093A9048093A80426C0E1
:105440002115310519F04217530718F49A01BE01CE
:10545000DF01EF010280F381E02DDCCF2115310562
:1054600009F1281B390B2430310590F412968D91E7
:105470009C9113976115710521F0FB019383828341
:1054800004C09093A9048093A804FD01329644C0FF
:10549000FD01E20FF31F81939193225031092D9367
:1054A0003C933AC02091A6043091A704232B41F4E9
:1054B00020919C0130919D013093A7042093A60474
:1054C00020919A0130919B012115310541F42DB7AE
:1054D0003EB740919E0150919F01241B350BE091F6
:1054E000A604F091A704E217F307A0F42E1B3F0BCC
:1054F0002817390778F0AC014E5F5F4F2417350746
:1055000048F04E0F5F1F5093A7044093A604819369
:10551000919302C0E0E0F0E0CF01DF91CF910895D8
:105520000F931F93CF93DF93009709F48CC0FC0176
:105530003297138212820091A8041091A9040115D8
:10554000110581F420813181820F931F2091A604DF
:105550003091A7042817390779F5F093A704E09351
:10556000A60471C0D80140E050E0AE17BF0750F468
:1055700012962D913C911397AD012115310509F13A
:10558000D901F3CF9D01DA013383228360817181D8
:10559000860F971F8217930769F4EC0128813981E0
:1055A000260F371F2E5F3F4F318320838A819B81D7
:1055B00093838283452B29F4F093A904E093A804F4
:1055C00042C01396FC93EE931297ED0149915991C5
:1055D0009E01240F351FE217F30771F4808191813A
:1055E000840F951F029611969C938E9382819381CE
:1055F00013969C938E931297E0E0F0E0D8011296F8
:105600008D919C911397009719F0F8018C01F6CFBA
:105610008D919C9198012E5F3F4F820F931F209197
:10562000A6043091A7042817390769F4309729F4A4
:105630001092A9041092A80402C01382128210933F
:10564000A7040093A604DF91CF911F910F910895B5
:10565000FB01DC010D900020E9F7119701900D92FC
:105660000020E1F70895FB01DC0101900D9200207C
:10567000E1F70895F999FECF92BD81BDF89A992777
:1056800080B50895262FF999FECF1FBA92BD81BD2E
:1056900020BD0FB6F894FA9AF99A0FBE01960895B4
:0456A000F894FFCFAC
:1056A40005000400010001000100020001000100E6
:1056B4000400D0223A0010046E00C01DDB009040AC
:1056C400150120744701D0403500B0A86A007078F5
:1056D400D500E092130130484001D0B1370080A4D6
:1056E4006C00A05ED800202F140110DC44010000DF
:1056F40000000100010001000100A63DA300B84E16
:10570400A300404F9FF9D0B13700D0B1370080A437
:105714006C0080A46C00C0ACD80040E5D90000E166
:10572400130170F2140110DC4401B0624601A63D7D
:10573400A300B84EA300000000000000AA0420004B
:105744009F02A302A702AB02AF0227004C0067002E
:105754008700700378038003880390039803A003F1
:10576400DF02DF02DF02A803B003DF02DF02DF0291
:10577400B803C003DF02DF02DF02C803D003D8038B
:10578400DF02DF029803A003DF02DF02DF02E0038F
:10579400E803DF02DF02DF02F003F8030004080479
:1057A400100442414E4420534554000052582041B5
:1057B40054540000000056464F0000000000000052
:1057C4005349444542414E4400005343414E000076
:1057D4000000000053504C495400000000004147B1
:1057E400430000000000000041444A5553540000A7
:1057F400000042414E440000000041545420000087
:10580400000056464F200000000053494445000064
:1058140000005343414E0000000053504C5400001C
:105824000000414743200000000041444A2000009A
:1058340000005C754FF6E027D7C5D99B5458003853
:10584400306D0034306D0032306D0031376D003111
:10585400356D0053504C540056464F410056464F48
:10586400420041545400534C4F5700464153540096
:1058740056200052580020202020202020202020C4
:1058840020202020202000545820505245534554B5
:105894003A005458207072657365742073746F7283
:1058A40065642E00533133353739002B3130002BEA
:1058B4003230644200302032202034202036202030
:1058C4003820313057005458205052455345543DE8
:1058D40020202020005343414E4E494E472E2E2E69
:1058E4000053746F707065642E0057616974696E3B
:1058F400672E2E2E005363616E6E696E672E2E2EF8
:10590400005343414E205448524553482E2E2E00F6
:1059140038306D202020200034306D2020202000DD
:1059240032306D202020200031376D2020202000CF
:1059340031356D20202020004F46462020202000B5
:105944004F4E20202020200056464F20412020008A
:1059540056464F20422020004C5342202020200055
:10596400555342202020200066302E2E6631200020
:1059740056464F20412F4200544852455348200078
:105984004641535420202000534C4F5720202000E0
:10599400534554204C534200534554205553420020
:1059A4005458204741494E00534C4545502020004F
:1059B40054554E45202020002020204D454E552092
:1059C40053454C454354202020004C4F205345540C
:1059D400204D4F44450020664C4F204C534220003C
:1059E40020664C4F205553422000536C6565706D02
:1059F4006F64652E004D696E693520444B37494804
:105A040020323032300053746F72696E67204F4B0E
:025A14002E0062
:00000001FF
