:100000000C941B030C9438030C9438030C940C0FC1
:100010000C9438030C9438030C9438030C94380374
:100020000C9438030C9438030C9438030C945D0F33
:100030000C9438030C9438030C9438030C94380354
:100040000C9438030C9438030C9438030C94380344
:100050000C9438030C9438030C9438030C94380334
:100060000C9438030C943803F61B091C1C1C2F1C21
:10007000421C7B1C551C681C000000000000000096
:100080000000000000000008080808080808000830
:1000900008000000242424240000000000000000C8
:1000A000000000909048FE4824FF24121200000037
:1000B000083C0A0A0A0C182828281E080000008696
:1000C000492929166894949261000000001824249C
:1000D000140C8B917163FE000000080808080000F2
:1000E0000000000000000000603008080404040460
:1000F000040808306000060C10102020202020107A
:10010000100C060000080866142C240000000000F3
:100110000000000000000808087F08080800000030
:100120000000000000000000001818100800000087
:10013000000000007E000000000000000000000041
:1001400000000000001818000000402020201010BF
:1001500018080804040402000018244242424242E3
:1001600042241800000000101E1010101010101073
:10017000FE000000001E20202010100804023E0097
:100180000000003C40404038404040403C000000FF
:10019000002030282824227E202020000000007C1F
:1001A0000404041C604040403C000000003804028D
:1001B000023A4642424438000000007E40202010AF
:1001C0000808080404000000003C4242221C2442AB
:1001D00042423C000000001C224242625C4040203F
:1001E0001C00000000000000181800000018180093
:1001F0000000000000001818000000181810080087
:1002000000000000403008060830400000000000F8
:100210000000007E00007E000000000000000000E2
:10022000020C1060100C02000000003E4240201042
:100230000808000808000000003C46724949496966
:10024000DB223C00000000001018282424427E42DB
:100250008100000000003E4242221E2242423E0037
:10026000000000007C020101010101027C0000008D
:1002700000001F214141414141211F0000000000B9
:100280007E0202023E0202027E00000000007E02A8
:1002900002023E0202020200000000007C02010194
:1002A000017141427C0000000000424242427E4215
:1002B00042424200000000003E0808080808080802
:1002C0003E00000000003C202020202020201E00B6
:1002D000000000004222120A060A12224200000018
:1002E000000002020202020202027E000000000080
:1002F0006363635555554941410000000000424683
:10030000464A4A5252624200000000001C2241410B
:10031000414141221C00000000003E424242621E58
:1003200002020200000000001C2241414141412222
:100330001C60C00000001E2222221E123222420037
:10034000000000007C020206186040403E000000F1
:1003500000007F08080808080808080000000000DE
:1003600042424242424242423C000000000081427E
:100370004222241414080800000000008181C95999
:100380005A5A66662400000000008142241818189A
:10039000244281000000000081422214180808084D
:1003A0000800000000007F402010080402017F00C8
:1003B00000007808080808080808080808087800F5
:1003C00002040404080818101020202040001E1009
:1003D000101010101010101010101E000010101827
:1003E0002828244442000000000000000000000013
:1003F0000000000000FF00001020000000000000CE
:10040000000000000000000000003C40407C424230
:10041000FC000000020202023A46424242463A0012
:1004200000000000000078040202020478000000CE
:10043000404040405C62424242625C00000000007A
:1004400000003C44427E02027C0000007008080864
:100450007E080808080808000000000000007C6210
:10046000424242625C40403C020202023A46424240
:10047000424242000000181800001E101010101018
:1004800010000000303000003C20202020202020E0
:10049000201E0202020222120A061A224200000054
:1004A0001E1010101010101010101000000000008E
:1004B00000006D5B49494949490000000000000007
:1004C0003A464242424242000000000000001C2224
:1004D000414141221C000000000000003A46424217
:1004E00042463A020202000000005C62424242625E
:1004F0005C404040000000003A2602020202020076
:100500000000000000003C02061820201E00000031
:10051000000004047F0404040404780000000000C8
:1005200000004242424242625C00000000000000C3
:100530008142422214140800000000000000819152
:100540005A5A6624240000000000000042241818B3
:1005500018244200000000000000814242242418B8
:1005600018080C07000000007F20100804027F001C
:100570000000700808080808060808080808700045
:1005800010101010101010101010101010000E107D
:10059000101010106010101010100E00000000005D
:1005A00000869961000000000000000000081C2285
:1005B000414141417F00000000007C020101010136
:1005C00001027C10203000000000FFFFFFFF000050
:1005D000000000001010101010101010101010105B
:1005E0001010000000000000FF00000000000000EC
:1005F000101010101010F00000000000000010108B
:10060000101010101F00000000000000000000008B
:100610000000F0101010101010100000000000007A
:100620001F10101010101010000814080000000017
:1006300000000000000011241FBECFEFD8E0DEBF95
:10064000CDBF14E0A0E0B1E0E2ECF7E502C0059018
:100650000D92A03AB107D9F724E0A0EAB4E001C0B6
:100660001D92AA3DB207E1F70E94A11F0C94DF2B57
:100670000C9400000F931F93CF93DF93805C9F4FE8
:10068000880F991FF999FECF8C010F5F1F4F0E94B1
:10069000C92B282F30E0D22FCC27F999FECFC801E3
:1006A0000E94C92B9E01280F311D211580E13807BA
:1006B00010F4C90102C080E098E0DF91CF911F9152
:1006C0000F910895CF92DF92EF92FF920F931F93B5
:1006D000440F551F440F551FFA01E85DFE4F00817E
:1006E000118122813381601771078207930794F08B
:1006F000FA01EC5EFE4F31E020E0C080D180E28064
:10070000F380C616D706E806F9060CF430E0832F0E
:10071000922F02C080E090E01F910F91FF90EF9028
:10072000DF90CF900895892B11F02A9A08952A9886
:100730000895892B11F02C9808952C9A0895892BEF
:1007400011F02D9808952D9A08951092B9008CE01B
:100750008093B80084E08093BC00089584EA80937D
:10076000BC008091BC0087FFFCCF089584E9809392
:10077000BC0008958093BB0084E88093BC00809106
:10078000BC0087FFFCCF08951F93CF93DF931F9288
:10079000CDB7DEB7182F69830E94AE0380EC0E94AC
:1007A000BA03812F0E94BA036981862F0E94BA037F
:1007B00084E98093BC000F90DF91CF911F91089541
:1007C00062ED70E087EB90E00E94C40360E070E0AF
:1007D00083E090E00E94C4036FE070E080E190E06D
:1007E0000E94C4036FE270E081E190E00E94C403C4
:1007F0006FE270E082E190E00E94C40360EA70E082
:1008000081EB90E00E94C4036FEF70E08AE190E01A
:100810000E94C4036FEF70E08BE190E00E94C4037C
:1008200060E070E08CE190E00E94C40360E170E061
:100830008DE190E00E94C40360E070E08EE190E002
:100840000E94C40360EF70E08FE190E00E94C40357
:1008500060E070E080E290E00E94C40360E070E03D
:1008600081E290E00E94C4036FEF70E082E290E0CA
:100870000E94C4036FEF70E083E290E00E94C40323
:1008800060E070E084E290E00E94C40360E170E008
:1008900085E290E00E94C40360E070E086E290E0B0
:1008A0000E94C40360EF70E087E290E00E94C403FE
:1008B00060E070E088E290E00E94C40360E070E0D5
:1008C00089E290E00C94C4038F929F92AF92BF9202
:1008D000CF92DF92EF92FF92CF93DF93EC01CB01A7
:1008E000BA010E9418299B01AC0164EA73E986E50C
:1008F0009EE40E946E284B015C010E94E7286B0178
:100900007C010E9416299B01AC01C501B4010E9423
:10091000012820EF3FEF4FE759E40E94A4290E94ED
:10092000E7284B015C0187E0880C991CAA1CBB1CC2
:100930008A95D1F7C501B4012FEF3FEF4FE050E0AA
:100940000E94212A97E0CC0CDD1CEE1CFF1C9A951E
:10095000D1F782E0D81AE108F108C20ED31EE41ED6
:10096000F51E6FEF7FEF8FE090E00E94112A861A4C
:10097000970AA80AB90A6FEF70E0CE010E94C4037B
:100980006FEF70E0CE0101960E94C403D701C6014B
:1009900088279927A370BB27BD0188279927CE01F7
:1009A00002960E94C4036D2D70E0CE0103960E9452
:1009B000C403B6017727CE0104960E94C403D50173
:1009C000C40188279927AF70BB27BD01606FCE0196
:1009D00005960E94C403692D70E0CE0106960E9420
:1009E000C403B4017727CE010796DF91CF91FF9022
:1009F000EF90DF90CF90BF90AF909F908F900C942E
:100A0000C403880F991F880F991FFC01E45AFE4FF9
:100A100040815181628173818AE290E00C94640488
:100A2000AB01BC0182E390E00C9464045C9A2FEF6C
:100A300081EE94E0215080409040E1F700C000003A
:100A40005C982FEF81EE94E0215080409040E1F7D8
:100A500000C000005C9A2FEF81EE94E021508040AE
:100A60009040E1F700C0000008955D985B9827E092
:100A700030E05F98AC01022E02C0559547950A946C
:100A8000E2F740FF02C05E9A01C05E985F9A215073
:100A9000310978F75B9A08955D9A5B9827E030E01A
:100AA0005F98AC01022E02C0559547950A94E2F773
:100AB00040FF02C05E9A01C05E985F9A21503109E2
:100AC00078F75B9A089581E090E00E9435058FE108
:100AD0009EE40197F1F700C0000081E190E00E94E0
:100AE00035058FE19EE40197F1F700C000008AE32D
:100AF00090E00E94350585E090E00E944C058FE370
:100B00009CE90197F1F700C0000081EB90E00E94A2
:100B1000350580E090E00E944C0586E090E00E9460
:100B20004C0583E090E00E944C058FE99FE001971F
:100B3000F1F700C0000086E390E00E94350588ECE4
:100B400090E00E944C0586EB90E00E94350585E11F
:100B500090E00E944C0582E090E00E944C0584EBFE
:100B600090E00E94350580E090E00E944C0580EE08
:100B700090E00E94350589E090E00E944C0586E1F6
:100B800090E00E944C0589E090E00E944C0580E2D4
:100B900090E00E944C0581E290E00E944C058BE1C0
:100BA00090E00E944C0583E190E00E944C0589E1B1
:100BB00090E00E944C0587E190E00E944C0585E1A1
:100BC00090E00E944C058EE190E00E944C058BE283
:100BD00090E00E944C0584E090E00E944C0585E086
:100BE00090E00E944C0582E090E00E944C058EE06F
:100BF00090E00E944C0581EE90E00E9435058BE06C
:100C000090E00E944C0584E190E00E944C0588E051
:100C100090E00E944C058EE190E00E944C0582E23B
:100C200090E00E944C058DE190E00E944C0588E127
:100C300090E00E944C058EE190E00E944C058BE113
:100C400090E00E944C058AE190E00E944C0584E20D
:100C500090E00E944C058BE290E00E944C0586E0FB
:100C600090E00E944C0586E090E00E944C0582E0F6
:100C700090E00E944C058FE090E00E944C058FE3CD
:100C80009CE90197F1F700C0000083E190E00E9429
:100C900035058FE39CE90197F1F700C0000089E278
:100CA00090E00C943505CF92DF92EF92FF920F9374
:100CB0001F93CF93DF936C018B017A01E9018AE2E4
:100CC00090E00E94350580E090E00E944C05C6014E
:100CD0000E944C0580E090E00E944C05C7010E94F4
:100CE0004C058BE290E00E94350580E090E00E9488
:100CF0004C05C8010E944C0580E090E00E944C0524
:100D0000CE01DF91CF911F910F91FF90EF90DF9077
:100D1000CF900C944C05CF93DF93D42FC52F9B011C
:100D2000AC010E9453068CE290E00E9435058C2FA6
:100D300090E00E944C058D2F9C2FDF91CF910C9459
:100D40004C050F931F93CF93DF938C0124E830E081
:100D500044E850E060E070E080E090E00E945306DC
:100D60008CE290E00E943505C1E1D4E4812F90E04F
:100D70000E944C05C8010E944C052197B9F7DF91EC
:100D8000CF911F910F910895EF92FF920F931F93B0
:100D9000CF93DF93DA01A81BB90BF901E61BF70B20
:100DA000AE9F7001AF9FF00CBE9FF00C11240E940B
:100DB00053068CE290E00E943505C0E0D0E0EC16CE
:100DC000FD064CF0812F90E00E944C05C8010E9466
:100DD0004C052196F4CFDF91CF911F910F91FF9099
:100DE000EF9008952F923F924F925F926F927F9271
:100DF0008F929F92AF92BF92CF92DF92EF92FF922B
:100E00000F931F93CF93DF9300D000D0CDB7DEB701
:100E1000242E2983932E0A83812E4EE04C9D90012F
:100E20004D9D300D1124260F371FA701E3E0440F1D
:100E3000551FEA95E1F7480F591F4F5F5F4F6E5FEF
:100E40007F4F02960E9453068CE290E00E94350587
:100E50008EE0289E1001112400E010E090EC291A89
:100E600091E0390AF101E00FF11FE858FF4FE491DA
:100E7000612C712C8E2F90E09C838B836C147D04ED
:100E8000BCF5A12CB12C8B819C810A2C02C09595BC
:100E900087950A94E2F7412C512C80FF1AC04E141A
:100EA0005F0464F4892D90E00E944C058981992D9E
:100EB0000E944C059FEF491A590AF1CFEFEFAE1A85
:100EC000BE0AF8E0AF16B104F1F69FEF691A790A8D
:100ED000D5CF4E145F0494F7882D90E00E944C0506
:100EE0008A81982D0E944C058FEF481A580AF1CF3D
:100EF0000F5F1F4F0D30110509F0B4CF0F900F9009
:100F00000F900F90DF91CF911F910F91FF90EF9075
:100F1000DF90CF90BF90AF909F908F907F906F9019
:100F20005F904F903F902F9008952F923F924F9255
:100F30005F926F927F928F929F92AF92BF92CF9269
:100F4000DF92EF92FF920F931F93CF93DF9300D026
:100F500000D000D0CDB7DEB77C836B8319012801A8
:100F60005701360149835A83470123E0880C991CB5
:100F70002A95E1F79E838D83E981FA814191FA8375
:100F8000E983442379F063017501820191016B814A
:100F90007C818D819E810E94F2068D819E81880DCB
:100FA000991DE8CF26960FB6F894DEBF0FBECDBFD1
:100FB000DF91CF911F910F91FF90EF90DF90CF9035
:100FC000BF90AF909F908F907F906F905F904F9069
:100FD0003F902F900895CF92DF92EF92FF920F9360
:100FE0001F932091D2043091D3046C017C018901BC
:100FF0004DEF52E062E370E080E090E00E949507E0
:101000001F910F91FF90EF90DF90CF9008952F9256
:101010003F924F925F926F927F928F929F92AF9288
:10102000BF92CF92DF92EF92FF920F931F93CF93D5
:10103000DF932B01490138011A01570128E0A20E64
:10104000B11CEC01F10141911F01442379F0CC2442
:10105000C394D12CEE24E394F12C83019401B201CA
:10106000CE010E94F206CA0DDB1DECCFDF91CF91BD
:101070001F910F91FF90EF90DF90CF90BF90AF90B6
:101080009F908F907F906F905F904F903F902F90A8
:1010900008952F923F924F925F926F927F928F921C
:1010A0009F92AF92BF92CF92DF92EF92FF920F93F7
:1010B0001F93CF93DF9300D000D000D0CDB7DEB721
:1010C0006B017C015C834B833E832D83611571052D
:1010D0008105910539F480E3F9018083118281E073
:1010E00090E090C097FF0DC0F094E094D094C0942D
:1010F000C11CD11CE11CF11C21E030E03A832983A2
:1011000002C01A8219828D819E810C96ED81FE812A
:101110001192E817F907E1F709E010E0212C312CD2
:10112000812C8AEC982E8AE9A82E8BE3B82E9AE0BF
:10113000492E512C612C712CC701B601A5019401D7
:101140000E94432AE22FA22FB32FA50194010E94EF
:10115000732AC61AD70AE80AF90AD1011996A01B00
:10116000B10B4D815E81A40FB51FE05DEC93C5010D
:10117000B401A30192010E94432A49015A018B81C3
:101180009C810817190779F40115110561F09FEF8B
:10119000291A390AF101E01BF10B2D813E81E20F82
:1011A000F31F3EE231870150110930F6ED81FE81D7
:1011B00030E2CF014D815E81841B950B208120336D
:1011C00011F43193F6CFE981FA81EF2B31F00197D9
:1011D000FA01E80FF91F2DE22083ED81FE819F01C6
:1011E0004D815E81241B350BDF01A80FB91F4C9187
:1011F000442311F04193F3CFED81FE81E20FF31F01
:101200001082C90126960FB6F894DEBF0FBECDBF7F
:10121000DF91CF911F910F91FF90EF90DF90CF90D2
:10122000BF90AF909F908F907F906F905F904F9006
:101230003F902F9008952F923F924F925F926F921E
:101240007F928F929F92AF92BF92CF92DF92EF9256
:10125000FF920F931F93CF93DF93CDB7DEB72897FD
:101260000FB6F894DEBF0FBECDBF3C012B01298322
:101270003A834B835C831801FE82ED82D886CF824D
:101280007501640180E190E00E948A2A5C01009768
:10129000F9F000E110E09C01A10169817A818B8164
:1012A0009C810E9449080F8118852D813E81A501EE
:1012B000B201C3010E949507F50101900020E9F7F2
:1012C00031977F01EA18FB08C5010E941F2B02C05D
:1012D000E12CF12CC70128960FB6F894DEBF0FBEA3
:1012E000CDBFDF91CF911F910F91FF90EF90DF90D5
:1012F000CF90BF90AF909F908F907F906F905F90B6
:101300004F903F902F9008958F929F92AF92BF92EF
:10131000CF92DF92EF92FF920F931F93CF93DF93C1
:10132000603826E9720728E982079105A4F461155F
:1013300071058105910591F4CA01DF91CF911F914B
:101340000F91FF90EF90DF90CF90BF90AF909F9064
:101350008F900C94EB07CBE0D0E002C0CBE1D0E063
:101360005A01C090D204D090D3044130510571F499
:1013700088248394912CAA24A394B12CEE24EA947B
:10138000FE2C03E010E09B01AC010CC024E630E031
:1013900040E050E00E94432A4501EE24EA94FE2CEE
:1013A00001E010E062E370E0CE010E941B09DF91D2
:1013B000CF911F910F91FF90EF90DF90CF90BF9052
:1013C000AF909F908F9008958F929F92AF92BF920F
:1013D000CF92DF92EF92FF920F931F93CF93DF9301
:1013E0004B015C0180E8881686E9980688E9A80622
:1013F000B1041CF0C8E4D0E002C0C0E5D0E0009128
:10140000D2041091D304CC24C394D12CEE24E394C1
:10141000F12C2FEF3FEF4DEF52E06CE170E088E4EC
:1014200090E00E949507C090D204D090D304C501EB
:10143000B40124E630E040E050E00E94432A8824D2
:101440008394912CAA24A394B12CEE24EA94FE2C2C
:1014500001E010E06CE170E0CE010E941B09DF9119
:10146000CF911F910F91FF90EF90DF90CF90BF90A1
:10147000AF909F908F900895CF92DF92EF92FF925E
:101480000F931F93CF93DF93CDB7DEB72A970FB695
:10149000F894DEBF0FBECDBF2AE0E2EAF1E0DE0144
:1014A000119601900D922A95E1F7AC01440F551F5A
:1014B000059730F4FA01E055FD4F8081918102C01B
:1014C0008FEF9FEF2091D2043091D304E1E0F0E060
:1014D000EC0FFD1FE40FF51F40815181CC24C39414
:1014E000D12CEE24E394F12C672B11F08C0102C077
:1014F00089019C0160E070E080E090E00E94950727
:101500002A960FB6F894DEBF0FBECDBFDF91CF9104
:101510001F910F91FF90EF90DF90CF900895CF92A1
:10152000DF92EF92FF920F931F93CF93DF9300D040
:1015300000D000D0CDB7DEB7FE01319626E0DF0146
:101540001D922A95E9F722E234E03A8329832AE2C0
:1015500034E03C832B832091D2043091D304880F54
:10156000991FE80FF91F40815181CC24C394D12CDD
:10157000EE24E394F12C672B39F00CE515E760E0DD
:1015800070E080EC90E007C089012CE535E760E071
:1015900070E080E290E00E94950726960FB6F894DE
:1015A000DEBF0FBECDBFDF91CF911F910F91FF9096
:1015B000EF90DF90CF900895CF93DF93589859988C
:1015C0005A9897FD37C020E030E0E1E0F0E0AC0150
:1015D000022E02C0559547950A94E2F740FF09C0D4
:1015E0006BB1AF01022E01C0440F0A94EAF7462BFB
:1015F0000AC05BB1BF01022E01C0660F0A94EAF770
:10160000462F409545234BB92F5F3F4F233031057F
:10161000F1F6EC01CC0FDD1FC05BDE4F88819981B4
:101620000E94010560E070E088819981DF91CF918F
:101630000C948F0ADF91CF910895CF92DF92EF92B1
:10164000FF920F931F93CF93DF9300D000D0CDB7BD
:10165000DEB727ED35EC3A83298320E63AEF3C8369
:101660002B830091D2041091D304880F991FFE019F
:10167000E80FF91F21813281CC24C394D12CEE24B0
:10168000E394F12C4EEC52E06CE170E080E090E0ED
:101690000E9495070F900F900F900F90DF91CF91C0
:1016A0001F910F91FF90EF90DF90CF900895CF9210
:1016B000DF92EF92FF920F931F93CF93DF9300D0AF
:1016C00000D0CDB7DEB77C0183ED92E09A838983A9
:1016D00088ED92E09C838B832091D0043091D104DB
:1016E00043E0220F331F4A95E1F7F901E859FE4F15
:1016F000E114F10429F4648175818681978104C025
:1017000060817181828193810E94E4090091D204F9
:101710001091D304EE0CFF1CFE01EE0DFF1D418164
:101720005281CC24C394D12CEE24E394F12C20E0FC
:101730003FEF60E070E080E490E00E9495070F903A
:101740000F900F900F90DF91CF911F910F91FF900D
:10175000EF90DF90CF900895CF92DF92EF92FF92BB
:101760000F931F93892B19F020EE37EF02C027ED5E
:1017700035EC0091D2041091D304CC24C394D12C25
:10178000EE24E394F12C4DED52E06CE170E088E240
:1017900090E00E9495071F910F91FF90EF90DF90CE
:1017A000CF900895CF92DF92EF92FF920F931F9305
:1017B0000091D2041091D304CC24C394D12CEE24F4
:1017C000E394F12C892B29F020EE37EF41EE52E023
:1017D00004C020E03FEF46EE52E06EE070E080E3B0
:1017E00090E00E9495071F910F91FF90EF90DF907E
:1017F000CF9008958F929F92AF92BF92CF92DF9237
:10180000EF92FF920F931F93CF93DF937C0180E1C0
:1018100090E00E948A2AEC01FC0140961192E817A0
:10182000F907E1F706E010E09E0141E050E0B70162
:101830000F2C000C880B990B0E9449084C0163E0A7
:10184000880C991C6A95E1F78AE0E816F10429F4FE
:1018500050E6A52E5AEFB52E04C043E0A42E48EF63
:10186000B42EC7010B97029748F08DE0E816F104FB
:101870004CF030EEA32E37E2B32E04C02AEEA22E97
:1018800027E0B22E0091D2041091D304CC24C3944B
:10189000D12CEE24E394F12C9501AE016EE070E0C2
:1018A00080E090E00E9495070091D2041091D3044B
:1018B00095014BEE52E06EE070E0C4010E94950786
:1018C000CE01DF91CF911F910F91FF90EF90DF90AC
:1018D000CF90BF90AF909F908F900C941F2BCF9282
:1018E000DF92EF92FF920F931F930091D204109119
:1018F000D304CC24C394D12CEE24E394F12C892B73
:1019000029F420E03FEF4EEE52E004C020EC3EEF21
:1019100041EF52E060E070E080E790E00E949507C0
:101920001F910F91FF90EF90DF90CF900895CF928D
:10193000DF92EF92FF920F931F93CF93DF93EC010F
:101940000091D2041091D304CC24C394D12CEE2462
:10195000E394F12C2FEF3FEF44EF52E060E770E0AB
:1019600080E090E00E9495070091D2041091D3048A
:101970002FEF3FEFAE0160E770E080E090E00E9463
:1019800095078091C6049091C704A091C804B091B6
:10199000C9048093C2049093C304A093C404B09379
:1019A000C50481E090E09093AF048093AE04DF9192
:1019B000CF911F910F91FF90EF90DF90CF900895FE
:1019C000EF92FF920F931F93CF93DF938C0180E1EF
:1019D00090E00E948A2AEC0180E190E00E948A2A2D
:1019E0007C010E94AE0382EC0E94BA0380E40E9454
:1019F000BA03C80124E0959587952A95E1F70E94DE
:101A0000BA03802F8F700E94BA0384E98093BC00D0
:101A100065E073E0CE010E94C22BB801110F880B64
:101A2000990B0FE010E097014FEF5FEF0E9449081C
:101A3000B701CE010E94B72BCE010E94970CCE01B8
:101A40000E941F2BC701DF91CF911F910F91FF9033
:101A5000EF900C941F2B1F93CF93DF93182F9B01B4
:101A6000205C3F4F220F331FF999FECFE9012196E9
:101A7000692F6F70C9010E94D12BF999FECF612F98
:101A8000CE010E94D12B80E193E0DF91CF911F9195
:101A90000C94970CDF92EF92FF920F931F93CF93CA
:101AA000DF938C01EB017A01AB014E5F5F4F2EE5B6
:101AB00030E06AE570E002960E9453068CE290E006
:101AC0000E943505C01BD10BCC0FDD1FCC0FDD1FD5
:101AD0002396DF2CDD0CDD0800E010E0C017D107F5
:101AE00054F08F2D9D2D0E944C05C7010E944C057E
:101AF0000F5F1F4FF3CFDF91CF911F910F91FF9099
:101B0000EF90DF900895CF93DF93EC018937910533
:101B100014F0C8E7D0E04091D2045091D304609112
:101B2000BC047091BD04CE010E944A0DC233D105A0
:101B30003CF44AEE57E0BE0180E090E00E944A0D7E
:101B4000CE0181549109489770F44AEE57E061E460
:101B500070E080E090E00E944A0D40EE57EFBE0139
:101B600082E490E018C0C935D105BCF04AEE57E0D8
:101B700061E470E080E090E00E944A0D40EE57EF93
:101B800069E570E082E490E00E944A0D40E65AEF79
:101B9000BE0189E590E00E944A0D8091BC049091BD
:101BA000BD048C179D07A4F4D093BD04C093BC045E
:101BB0008091C6049091C704A091C804B091C90453
:101BC0008093A2049093A304A093A404B093A504CB
:101BD000D093A104C093A004DF91CF9108954091C8
:101BE000D2045091D3048091BC049091BD0464E868
:101BF00070E001970E944A0D1092BD041092BC043F
:101C00000895CF92DF92EF92FF920F931F93CF939D
:101C1000DF93EC010091D2041091D304CC24C3943F
:101C2000D12CEE24E394F12C20EE37EF45EF52E077
:101C300062E670E080E090E00E9495070091D20497
:101C40001091D304CD2B61F523E0E22EF12C20EE90
:101C500037E242E253E062E670E080E090E00E940A
:101C600007080091D2041091D304E12CF12C20EE4E
:101C700037EF49E253E062E670E081E490E00E94D1
:101C800007080091D2041091D30420E63AEF4DE208
:101C900053E062E670E089E590E00E94070810C01A
:101CA000CC24C394D12CEE24E394F12C20EE37EF16
:101CB00043E353E062E670E080E090E00E94950725
:101CC000DF91CF911F910F91FF90EF90DF90CF9018
:101CD00008952F923F924F925F926F927F928F92D0
:101CE0009F92AF92BF92CF92DF92EF92FF920F93AB
:101CF0001F93CF93DF93CDB7DEB728970FB6F89435
:101D0000DEBF0FBECDBF2B013C014A013A832983C0
:101D10001801FC82EB82DE82CD828091D204909108
:101D2000D3040E94A10618861F820091D20410914C
:101D3000D304CC24C394D12CEE24E394F12C20E0E2
:101D40003FEF43E864E270E08F8198850E94F206DD
:101D50000091D2041091D30420E03FEF43E86AE4FD
:101D600070E08F8198850E94F2068F819885089691
:101D700098878F8380389105C1F642E050E0C30117
:101D8000B2010E94840960E070E0C4010E943C0A34
:101D900060E070E089819A810E948F0A60E070E0C3
:101DA000C1010E94570B8B819C810E94FA0B80918C
:101DB000A6049091A7040E946F0C8D819E810E94C1
:101DC000010E6091D2047091D304C5010E941D0BD5
:101DD0008091AA049091AB040E94AC0B8091A8045E
:101DE0009091A90428960FB6F894DEBF0FBECDBF20
:101DF000DF91CF911F910F91FF90EF90DF90CF90E7
:101E0000BF90AF909F908F907F906F905F904F901A
:101E10003F902F900C94D20B1F920F920FB60F92FF
:101E200011242F933F934F935F938F939F93AF937F
:101E3000BF9383B1837090E09C01359527958227ED
:101E400093272091CC043091CD048217930739F168
:101E5000281B390B23703327225031094091CA04C3
:101E60005091CB04240F351F3093CB042093CA0428
:101E70009093CD048093CC048091BE049091BF04D4
:101E8000A091C004B091C1040196A11DB11D809321
:101E9000BE049093BF04A093C004B093C104D89A29
:101EA000BF91AF919F918F915F914F913F912F91F2
:101EB0000F900FBE0F901F9018951F920F920FB6A4
:101EC0000F9211248F939F93AF93BF938091C60479
:101ED0009091C704A091C804B091C9040196A11DB6
:101EE000B11D8093C6049093C704A093C804B09317
:101EF000C9041092BE041092BF041092C004109244
:101F0000C10483B78E7F83BFBF91AF919F918F91A3
:101F10000F900FBE0F901F9018950F931F93409135
:101F2000BE045091BF046091C0047091C1048A0145
:101F30009B013595279517950795049FC001059F2F
:101F4000900D149F900D11241F910F910895CF9221
:101F5000DF92EF92FF926B017C018091CA04909115
:101F6000CB04833091058CF00E948D0F092E000C5C
:101F7000AA0BBB0B1092CB041092CA04BC01CD017A
:101F80006C0D7D1D8E1D9F1D19C08E3F9F4F9CF4B3
:101F90000E948D0F092E000CAA0BBB0B1092CB04D4
:101FA0001092CA04A7019601281B390B4A0B5B0B40
:101FB000CA01B90103C060E070E0CB01FF90EF906F
:101FC000DF90CF900895805C80937C008FE99FE044
:101FD0000197F1F700C00000EAE7F0E0808180643B
:101FE00080838FE99FE00197F1F700C00000209106
:101FF00078008091790090E0982F8827820F911DBA
:10200000089581E090E00E94E30F8C52914097FF89
:1020100002C080E090E0089583E090E00E94E30F2A
:1020200025E0AC01249FC001259F900D1124BC0127
:10203000990F880B990B0E94182920E030EC4FE78C
:1020400054E40E946E289B01AC0160E070E080EADD
:1020500090E40E946E2820E030E040E85FE30E94B8
:1020600001289B01AC0160E070E08AE794E40E94E3
:102070006E2820E030EC4BE454E40E94012823EC6D
:1020800035EF4CE051E40E946E280E94E028CB011D
:1020900008958F929F92AF92BF92CF92DF92EF926C
:1020A000FF920F931F93CF93DF930E940C108932FE
:1020B000910534F08D33910534F4C0EED7EF05C0AF
:1020C000C0EED7E202C0C0E6DAEFC090D204D090F2
:1020D000D3049C01990F440B550B88248394912CB5
:1020E000AA24A394B12C7E010FEF1FEF6EE070E0E5
:1020F00080E690E00E941B090C965C0123E0AA0C8C
:10210000BB1C2A95E1F70091D2041091D304CC2492
:10211000C394D12CEE24E394F12C9E0148E86EE0A8
:1021200070E0C5010E94F2060091D2041091D30420
:102130009E0143E46EE070E0C50108960E94F2063D
:10214000DF91CF911F910F91FF90EF90DF90CF9093
:10215000BF90AF909F908F900895FF920F931F9321
:10216000CF93DF93660F771F860F971FEC01609662
:10217000CC0FDD1FCC0FDD1FF894CE010E94C92BC0
:10218000F82ECE0101960E94C92B082FCE0102968F
:102190000E94C92B182FCE0103960E94C92B482FED
:1021A00078948F2D90E0A0E0B0E0BA2FA92F982F5F
:1021B0008827800F911DA11DB11DDC01992788275B
:1021C000212F30E0322F2227820F931FA11DB11D36
:1021D000BC01CD01640F711D811D911DDF91CF9157
:1021E0001F910F91FF9008954F925F926F927F928F
:1021F0008F929F92AF92BF92CF92DF92EF92FF9217
:10220000CF93DF93EB01CC0FDD1F8C0F9D1FEC01F3
:102210006096CC0FDD1FCC0FDD1FF8944A01BB2464
:1022200097FCB094AB2CD4019927882769017A01D7
:10223000C81AD90AEA0AFB0A652F992767FD909503
:10224000792F892F4D2C5E2C6F2C772467FC7A9484
:10225000F999FECFCE010E94D12BF999FECF682DBE
:10226000CE0101960E94D12BF999FECF642DCE01AB
:1022700002960E94D12BF999FECF6C2DCE010396C8
:102280000E94D12B7894DF91CF91FF90EF90DF9057
:10229000CF90BF90AF909F908F907F906F905F9006
:1022A0004F90089507960E94C92B282F30E0823066
:1022B00010F4C90108958FEF9FEF08950796F999DB
:1022C000FECF0C94D12B80E090E00E94C92B282FE8
:1022D00030E0853010F4C90108958FEF9FEF089525
:1022E000BF92CF92DF92EF92FF920F931F93CF9303
:1022F000DF9300D000D0CDB7DEB7C82EB92E7B015A
:10230000D42EA9019801682F80E090E029833A83B8
:102310004B835C830E94D12BB7018C2D9B2D0E9497
:102320005E116D2D86E090E00E94D12B29813A81CB
:102330004B815C816C2D7B2DC7010F900F900F900E
:102340000F90DF91CF911F910F91FF90EF90DF9051
:10235000CF90BF900C94F410CF93DF93CDB7DEB73E
:1023600028970FB6F894DEBF0FBECDBF88E0ECEA29
:10237000F1E0DE01119601900D928A95E1F780E07F
:1023800090E00E94E30FFE01319620E030E04191A1
:102390005191BA01695071092F5F3F4F8617970716
:1023A0003CF0475F5F4F4817590714F0C90105C05B
:1023B0002430310561F780E090E028960FB6F8945C
:1023C000DEBF0FBECDBFDF91CF9108950F931F9356
:1023D000CF93DF93E091D004F091D104EE0FFF1F73
:1023E000E055FB4F0081118184E493E00E94970C3B
:1023F000C8010E94E00C0E94AC11892BE1F70E94F9
:10240000AC11009789F58091CA049091CB041816FD
:10241000190674F4053F8FE018071CF4E8012A96AA
:1024200002C0CFEFDFE01092CB041092CA0401C0CB
:10243000E8018091CA049091CB0497FF0BC0CB3088
:10244000D10514F02A9702C0C0E0D0E01092CB046E
:102450001092CA04C017D10719F0CE010E94E00CF7
:102460000E94AC118E01CDCF029791F46091D004FF
:102470007091D104FB01EE0FFF1FE055FB4F11835C
:102480000083C801DF91CF911F910F910C942B0D08
:10249000DF91CF911F910F9108952F923F924F920C
:1024A0005F926F927F928F929F92AF92BF92CF92E4
:1024B000DF92EF92FF920F931F93CF93DF93CDB7ED
:1024C000DEB760970FB6F894DEBF0FBECDBF81E1D7
:1024D00090E00E948A2A3C01FC014196D3011D92A2
:1024E000A817B907E1F7C301409620E22193E81746
:1024F000F907E1F7E091D004F091D10423E0EE0F69
:10250000FF1F2A95E1F79F0128593E4FD9014D91B0
:102510005D916D917C9113974D835E836F83788776
:1025200014964D915D916D917C91179749875A87CB
:102530006B877C878D819E81AF81B885481759074D
:102540006A077B0784F039852A859B858C854D81B8
:102550005E816F81788549875A876B877C873D8349
:102560002E839F8388878091D2049091D3040E9408
:10257000A106CC24C394D12CEE24E394F12C0CE5D9
:1025800015E72FEF3FEFA3016EE070E080E090E0F1
:102590000E9495072FEF3FEF43E553E06EE070E0B8
:1025A00080E190E00E949507C3010E941F2B0E94CA
:1025B000AC11892BE1F780E090E00E94010E498583
:1025C0005A856B857C8549835A836B837C8389819B
:1025D0009A81AB81BC812D813E814F8158858217C4
:1025E0009307A407B5075CF70E94AC111C01E091AA
:1025F0005A01F0915B01EE0FFF1FEE0FFF1FE45A2F
:10260000FE4F80819181A281B38129813A814B81E2
:102610005C81280F391F4A1F5B1FCA01B9010E9444
:102620001005C090D204D090D30469817A818B8147
:102630009C8124E630E040E050E00E94432A882458
:102640008394912CAA24A394B12CEE24EA94FE2C1A
:1026500001E010E068E370E088E290E00E941B096E
:102660000E9401109E878D870E94830D80E090E07C
:1026700020910001309101014D855E8524173507B9
:1026800094F02091C6043091C7044091C804509141
:10269000C9042D873E874F87588B892B09F4C8C002
:1026A00020E030E0ACC02114310459F7892B21F42B
:1026B0008FE593E00E94970C0E9401109E878D8702
:1026C0000E94830D0E94AC111C0169817A818B816B
:1026D0009C810E94A70F2B013C01672B682B692B63
:1026E000B9F1E0915A01F0915B01EE0FFF1FEE0F7F
:1026F000FF1FE45AFE4F80819181A281B381BC010A
:10270000CD01640D751D861D971D0E941005C0909A
:10271000D204D090D304C301B20124E630E040E0FB
:1027200050E00E94432A88248394912CAA24A394E5
:10273000B12CEE24EA94FE2C01E010E068E370E096
:1027400088E290E00E941B0949825A826B827C8257
:1027500081E090E08DCF232B21F488E693E00E9466
:10276000970C0E94AC111C01892B21F01D861E863E
:102770001F86188A69817A818B819C810E94A70FAC
:102780002B013C01672B682B692BB9F1E0915A01B1
:10279000F0915B01EE0FFF1FEE0FFF1FE45AFE4F9B
:1027A00080819181A281B381BC01CD01640D751D31
:1027B000861D971D0E941005C090D204D090D304AE
:1027C000C301B20124E630E040E050E00E94432A19
:1027D00088248394912CAA24A394B12CEE24EA9407
:1027E000FE2C01E010E068E370E088E290E00E94D7
:1027F0001B0949825A826B827C8221E030E0409141
:10280000C6045091C7046091C8047091C9048D85B5
:102810009E85AF85B8894D96A11DB11D841795077A
:10282000A607B7070CF097CF83E793E00E94970CB9
:1028300069817A818B819C810E94A70F2B013C01C9
:10284000672B682B692BB9F1E0915A01F0915B017C
:10285000EE0FFF1FEE0FFF1FE45AFE4F80819181A4
:10286000A281B381BC01CD01640D751D861D971D2C
:102870000E941005C090D204D090D304C301B201CD
:1028800024E630E040E050E00E94432A882483940C
:10289000912CAA24A394B12CEE24EA94FE2C01E0FE
:1028A00010E068E370E088E290E00E941B09498232
:1028B0005A826B827C8232E02316310489F043E035
:1028C0002416310491F069817A818B819C816C5945
:1028D0007F4F8F4F9F4F69837A838B839C8377CE03
:1028E00069817A818B819C8104C060E070E080E026
:1028F00090E060960FB6F894DEBF0FBECDBFDF91BB
:10290000CF911F910F91FF90EF90DF90CF90BF90EC
:10291000AF909F908F907F906F905F904F903F907F
:102920002F9008952F923F924F925F926F927F92D5
:102930008F929F92AF92BF92CF92DF92EF92FF92CF
:102940000F931F93CF93DF9300D000D0CDB7DEB7A6
:1029500081E190E00E948A2A3C01FC014196D3016A
:102960001D92A817B907E1F7C301409620E2219311
:10297000E817F907E1F78091D2049091D3040E94FF
:10298000A106CC24C394D12CEE24E394F12C0CE5C5
:1029900015E72FEF3FEFA3016EE070E080E090E0DD
:1029A0000E9495072FEF3FEF43E553E06EE070E0A4
:1029B00080E190E00E949507C3010E941F2B0E94B6
:1029C000AC11892BE1F780E090E00E94010E24E633
:1029D000222E312C412C512C1C821B820E94AC11C6
:1029E0003C01E091D004F091D104EE0FFF1F2B8148
:1029F0003C81E20FF31FEE0FFF1FEE0FFF1FE859A0
:102A0000FE4FA0915A01B0915B01AA0FBB1FAA0F04
:102A1000BB1FA45ABE4F40815181628173818D9149
:102A20009D910D90BC91A02D8A019B01080F191F4B
:102A30002A1F3B1FC901B8010E941005C090D20493
:102A4000D090D304E091D004F091D104EE0FFF1F99
:102A50002B813C81E20FF31FEE0FFF1FEE0FFF1FD4
:102A6000E859FE4F6081718182819381A2019101B9
:102A70000E94432A88248394912CAA24A394B12CE5
:102A8000EE24EA94FE2C01E010E068E370E088E2B6
:102A900090E00E941B090E9401109A8389830E9482
:102AA000830D0091D2041091D304CC24C394D12C73
:102AB000EE24E394F12C20EE37EF4B814F5B68E37B
:102AC00070E088E090E00E94F20680E090E02091C3
:102AD00000013091010149815A81241735075CF0CA
:102AE000C090C604D090C704E090C804F090C90418
:102AF00020E030E00BC16114710491F7892B21F4BF
:102B00008FE593E00E94970C0E9401109A838983BD
:102B10000E94830D0E94AC113C01E091D004F09121
:102B2000D104EE0FFF1F4B815C81E40FF51FEE0F08
:102B3000FF1FEE0FFF1FE859FE4F608171818281F8
:102B400093810E94A70F611571058105910509F414
:102B500053C0E091D004F091D104EE0FFF1F0B8120
:102B60001C81E00FF11FEE0FFF1FEE0FFF1FE85952
:102B7000FE4F6083718382839383E0915A01F091C9
:102B80005B01EE0FFF1FEE0FFF1FE45AFE4FC080E8
:102B9000D180E280F3806C0D7D1D8E1D9F1D0E94F3
:102BA0001005C090D204D090D304E091D004F091ED
:102BB000D104EE0FFF1FE00FF11FEE0FFF1FEE0F0E
:102BC000FF1FE859FE4F6081718182819381A201CC
:102BD00091010E94432A88248394912CAA24A394CF
:102BE000B12CEE24EA94FE2C01E010E068E370E0E2
:102BF00088E290E00E941B0981E090E068CF232BDF
:102C000021F488E693E00E94970C0E94AC113C01ED
:102C1000892B19F0C12CD12C7601E091D004F091D0
:102C2000D104EE0FFF1F8B819C81E80FF91FEE0F7F
:102C3000FF1FEE0FFF1FE859FE4F608171818281F7
:102C400093810E94A70F611571058105910509F413
:102C50005BC0E091D004F091D104EE0FFF1F0B8117
:102C60001C81E00FF11FEE0FFF1FEE0FFF1FE85951
:102C7000FE4F6083718382839383E0915A01F091C8
:102C80005B01EE0FFF1FEE0FFF1FE45AFE4FC080E7
:102C9000D180E280F3806C0D7D1D8E1D9F1D0E94F2
:102CA0001005C090D204D090D304E091D004F091EC
:102CB000D104EE0FFF1FE00FF11FEE0FFF1FEE0F0D
:102CC000FF1FE859FE4F6081718182819381A201CB
:102CD00091010E94432A88248394912CAA24A394CE
:102CE000B12CEE24EA94FE2C01E010E068E370E0E1
:102CF00088E290E00E941B09C090C604D090C704EF
:102D0000E090C804F090C90421E030E04091C6048E
:102D10005091C7046091C8047091C904D701C601DD
:102D20004D96A11DB11D84179507A607B7070CF096
:102D300066CFE091D004F091D104EE0FFF1F2B81FC
:102D40003C81E20FF31FEE0FFF1FEE0FFF1FE8594C
:102D5000FE4F60817181828193810E94A70F61156E
:102D600071058105910509F455C0E091D004F091F9
:102D7000D104EE0FFF1F4B815C81E40FF51FEE0FB6
:102D8000FF1FEE0FFF1FE859FE4F608371838283A0
:102D90009383E0915A01F0915B01EE0FFF1FEE0F5C
:102DA000FF1FE45AFE4FC080D180E280F3806C0D9B
:102DB0007D1D8E1D9F1D0E941005C090D204D090D5
:102DC000D304E091D004F091D104EE0FFF1F8B816A
:102DD0009C81E80FF91FEE0FFF1FEE0FFF1FE85950
:102DE000FE4F6081718182819381A20191010E94D5
:102DF000432A88248394912CAA24A394B12CEE24F2
:102E0000EA94FE2C01E010E068E370E088E290E0D4
:102E10000E941B0992E06916710429F0E3E06E1626
:102E20007104C1F12CC00B811C81C801012E000C62
:102E3000AA0BBB0BAC01BD018CE1440F551F661FF3
:102E4000771F8A95D1F78091D0049091D104880F93
:102E5000991F800F911F880F991F880F991F8859FC
:102E60009E4FFC0180819181A281B3818A019B01E7
:102E7000080F191F2A1F3B1FC901B8010EC02B8163
:102E80003C812130310509F4A7CD01E010E01C831D
:102E90000B83A4CD60E070E0CB010F900F900F90FA
:102EA0000F90DF91CF911F910F91FF90EF90DF90E6
:102EB000CF90BF90AF909F908F907F906F905F90DA
:102EC0004F903F902F9008958F929F92AF92BF9214
:102ED000CF92DF92EF92FF920F931F93CF93DF93E6
:102EE00081E190E00E948A2AEC01FC014196DE011A
:102EF0001D92A817B907E1F7CE01409620E2219371
:102F0000E817F907E1F78091D2049091D3040E9469
:102F1000A106CC24C394D12CEE24E394F12C0CE52F
:102F200015E72FEF3FEFAE016EE070E080E090E03C
:102F30000E9495072FEF3FEF4FE753E06EE070E000
:102F400088E090E00E949507CE010E941F2B80919F
:102F50000001909101010E94830D80E090E00E94A9
:102F6000010EC090D204D090D30420910001309182
:102F70000101032E000C440B550B88248394912CE3
:102F8000AA24A394B12CEE24EA94FE2C0FEF1FEF99
:102F900068E370E088E290E00E941B0980910001E4
:102FA000909101010E94830D8091CA049091CB04FD
:102FB00003970CF447C080910001909101018C307F
:102FC00091052CF40196909301018093000180916A
:102FD0000001909101010E94830D0091D204109193
:102FE000D304CC24C394D12CEE24E394F12C2FEF02
:102FF0003FEF40E053E068E370E088E290E00E9439
:103000009507C090D204D090D30420910001309154
:103010000101032E000C440B550B88248394912C42
:10302000AA24A394B12CEE24EA94FE2C0FEF1FEFF8
:1030300068E370E088E290E00E941B091092CB04E4
:103040001092CA048091CA049091CB048E3F9F4F86
:10305000B4F48091000190910101181619062CF426
:10306000019790930101809300018091000190915C
:1030700001010E94830D1092CB041092CA040E9499
:10308000AC11009709F490CF029791F46091000180
:103090008AE890E0DF91CF911F910F91FF90EF9020
:1030A000DF90CF90BF90AF909F908F900C94D12BDA
:1030B000DF91CF911F910F91FF90EF90DF90CF9014
:1030C000BF90AF909F908F9008952F923F924F9214
:1030D0005F926F927F928F929F92AF92BF92CF92A8
:1030E000DF92EF92FF920F931F93CF93DF93CDB7B1
:1030F000DEB72A970FB6F894DEBF0FBECDBF7A8732
:10310000698758874F8329019A8389831C01E3E0EB
:10311000220C331CEA95E1F7F3E0440F551FFA95B2
:10312000E1F75C834B838EE0869F9001879F300D93
:1031300011243E832D835B01812C912C4A145B0466
:1031400044F16D807E80680C791C0091D20410914E
:10315000D304CC24C394D12CEE24E394F12C2FEF90
:103160003FEF42E8B301C1010E94F2060091D20490
:103170001091D3042FEF3FEF42E8B3018B819C8184
:103180000E94F2063FEFA31AB30A4EE0840E911C90
:10319000D5CF89849A8451E0851A91088EE0889D64
:1031A000F001899DF00D1124FE83ED83FFEF4F1A8E
:1031B0005F0A849D3001859D700C1124A12CB12CD7
:1031C000E981FA813196FA83E983F8E0AF0EB11C08
:1031D0000091D2041091D30429813A814F815885FE
:1031E00024173507FCF4CC24C394D12CEE24E394AB
:1031F000F12C2FEF3FEF43E86D817E81C1018A0DF5
:103200009B1D9A8789870E94F2060091D204109133
:10321000D3042FEF3FEF43E8B30189859A850E94DD
:10322000F206CECF8EE0B82EB49C3001B59C700C67
:103230001124CC24C394D12CEE24E394F12C2FEF51
:103240003FEF44E8B301C1010E94F2060091D204AD
:103250001091D3042FEF3FEF45E8B3018B819C81A0
:103260000E94F206B89C3001B99C700C11240091A8
:10327000D2041091D3042FEF3FEF46E8B301C10110
:103280000E94F2060091D2041091D3042FEF3FEF79
:1032900047E8B3018B819C810E94F2062A960FB603
:1032A000F894DEBF0FBECDBFDF91CF911F910F917C
:1032B000FF90EF90DF90CF90BF90AF909F908F9056
:1032C0007F906F905F904F903F902F9008958F92D6
:1032D0009F92AF92BF92CF92DF92EF92FF920F93A5
:1032E0001F93CF93DF934C018B01FC0101900020D1
:1032F000E9F78E1B9F0B41965C01B694A79481E180
:1033000090E00E948A2AEC01FC014196DE011D92A8
:10331000A817B907E1F7CE01409620E22193E817FC
:10332000F907E1F798012D5F3F4F4DE050E063E072
:1033300070E084E090E00E946518CC24C394D12C06
:10334000EE24E394F12C0CE515E72FEF3FEFAE01EF
:103350006EE070E080E090E00E9495072FEF3FEF75
:10336000A4016EE070E0C501E3E0880F991FEA95C3
:10337000E1F70E949507CE01DF91CF911F910F9148
:10338000FF90EF90DF90CF90BF90AF909F908F9085
:103390000C941F2BCF92DF92EF92FF920F931F930B
:1033A000CF93DF93CDB7DEB7CA55D1090FB6F894E6
:1033B000DEBF0FBECDBF2AE5E4EBF1E0DE011196E2
:1033C00001900D922A95E1F79B012D5F3F4F452B10
:1033D00019F145E0489FF001499FF00D1124E60FD7
:1033E000F71FEE0FFF1F81E090E08C0F9D1FE80F8D
:1033F000F91F408151818EE0829FB001839F700D43
:103400001124CC24C394D12CEE24E394F12C0FEF9F
:103410001FEF20E030E024C00091D2041091D304CB
:1034200045E0489FF001499FF00D1124E60FF71F7A
:10343000EE0FFF1F81E090E08C0F9D1FE80FF91F3A
:10344000408151818EE0829FB001839F700D1124D5
:10345000CC24C394D12CEE24E394F12C2FEF3FEF36
:1034600088E290E00E949507C65ADF4F0FB6F894A5
:10347000DEBF0FBECDBFDF91CF911F910F91FF90A7
:10348000EF90DF90CF900895CF92DF92EF92FF926E
:103490000F931F93CF93DF937C016B01C0E0D0E0CB
:1034A0008C01000F111F0E5F1E4FF801808191816A
:1034B0008C179D0774F0CC15DD0519F441E050E040
:1034C00002C040E050E0BE01C7010E94CA19219627
:1034D000ECCFDF91CF911F910F91FF90EF90DF9094
:1034E000CF9008952F923F924F925F926F927F926A
:1034F0008F929F92AF92BF92CF92DF92EF92FF9204
:103500000F931F93CF93DF9300D000D0CDB7DEB7DA
:103510003C017A8369832A01BA010E94441A0E94FD
:10352000AC11892BE1F70E94AC116C014B825C82DB
:10353000F4E62F2E312C412C512CC114D10409F06A
:10354000D7C08091CA049091CB04039704F140E066
:1035500050E06B817C81C3010E94CA190B811C81E0
:1035600029813A81021713072CF40F5F1F4F1C8328
:103570000B8302C01C821B8241E050E06B817C8186
:10358000C3010E94CA191092CB041092CA04809100
:10359000CA049091CB048E3F9F4FFCF440E050E072
:1035A0006B817C81C3010E94CA198B819C81181692
:1035B000190624F401979C838B8304C0E981FA8166
:1035C000FC83EB8341E050E06B817C81C3010E946E
:1035D000CA191092CB041092CA04F3E06F1671045A
:1035E00009F479C00CF065C011E06116710409F4AA
:1035F0006DC022E06216710409F076C0E091D0043B
:10360000F091D104EE0FFF1F0B811C81E00FF11F21
:10361000EE0FFF1FEE0FFF1FE859FE4FA0915A015A
:10362000B0915B01AA0FBB1FAA0FBB1FA45ABE4FCC
:1036300040815181628173818D919D910D90BC91EA
:10364000A02D8A019B01080F191F2A1F3B1FC901CA
:10365000B8010E941005C090D204D090D304E0912C
:10366000D004F091D104EE0FFF1F2B813C81E20FBB
:10367000F31FEE0FFF1FEE0FFF1FE859FE4F608193
:10368000718182819381A20191010E94432A882441
:103690008394912CAA24A394B12CEE24EA94FE2CBA
:1036A00001E010E064E570E080E290E00E941B0918
:1036B0001BC034E06316710499F087E0681671044A
:1036C00099F48B819C810E9499030EC08B819C810F
:1036D0000E94930309C08B819C810E94010504C054
:1036E0008B819C810E949F030E94AC116C0125CFAD
:1036F00080915A0190915B010E94010532E0C3164E
:10370000D10431F083E0C816D10429F48DEF04C050
:103710008B819C8102C08FEF9FEF0F900F900F90D5
:103720000F90DF91CF911F910F91FF90EF90DF905D
:10373000CF90BF90AF909F908F907F906F905F9051
:103740004F903F902F90089526E0880F991F2A955B
:10375000E1F74096089502962EE0AC01249FC00147
:10376000259F900D11240895EF92FF920F931F93C0
:10377000CF93DF93CDB7DEB7CA55D1090FB6F89412
:10378000DEBF0FBECDBF89018AE5EEE0F2E0DE01CB
:10379000119601900D928A95E1F78091D204909153
:1037A000D3040E94A1060E94AC11892BE1F7780195
:1037B000EE0CFF1CF701EE5FFE4F608171812AE085
:1037C000209FC001219F900D112421E030E02C0F9B
:1037D0003D1F820F931F0E9467190830110508F0E2
:1037E0008AC0F801EC5CFF4F0C94622A6091D0040F
:1037F0007091D10480E090E00E94441A4091D0047E
:103800005091D104609102017091030180E090E039
:103810007FC06091AA047091AB0481E090E00E94A7
:10382000441A4091AA045091AB0460910401709134
:10383000050181E090E06CC06091D4047091D504E2
:1038400082E090E00E94441A4091D4045091D50443
:10385000609106017091070182E090E059C060918B
:103860005A0170915B0183E090E00E94441A4091FC
:103870005A0150915B01609108017091090183E048
:1038800090E046C060915A0170915B0184E090E045
:103890000E94441A4091A6045091A70460910A0125
:1038A00070910B0184E090E033C06091AC047091A2
:1038B000AD0486E090E00E94441A4091AC0450911F
:1038C000AD0460910E0170910F0186E090E020C080
:1038D0006091A8047091A90487E090E00E94441AC6
:1038E0004091A8045091A9046091100170911101B8
:1038F00087E090E00DC060E070E0C8010E94441ACB
:10390000F701EE5FFE4F608171814FEF5FEFC801FD
:103910000E94721A97FD0DC02AE0209FB001219FDE
:10392000700D1124680F791F072E000C880B990B5E
:1039300019C0039699F00091D2041091D30420E8A5
:1039400030E040E750E06CE170E080E290E00E94FF
:10395000C4066EEF7FEF8FEF9FEF04C06DEF7FEF38
:103960008FEF9FEFC65ADF4F0FB6F894DEBF0FBE42
:10397000CDBFDF91CF911F910F91FF90EF900895F0
:103980002F923F924F925F926F927F928F929F926F
:10399000AF92BF92CF92DF92EF92FF920F931F935D
:1039A000CF93DF93CDB7DEB7C854D1090FB6F894E3
:1039B000DEBF0FBECDBF2B013C011A0188E4E8E653
:1039C000F2E0DE01119601900D928A95E1F70E94D6
:1039D000AC11892BE1F78091D2049091D3040E941D
:1039E000A106CC24C394D12CEE24E394F12C07ED52
:1039F00015EC20E03FEF46E454E061E070E080E049
:103A000090E00E9495074CE1842E912CA12CB12CC2
:103A100029E0A216B1045CF18EE0880E911C92E6BA
:103A200089169104A9F726E030E04EE050E062E00C
:103A300070E081E090E00E9465182091D2043091FE
:103A4000D304CC24C394D12CEE24E394F12C0FEFB7
:103A50001FEFAE014F5F5F4F6CE170E080E190E0DF
:103A60000E949507A12CB12C6EE0962EBAC0009151
:103A7000D2041091D304A501E3E0440F551FEA9549
:103A8000E1F781E090E08C0F9D1F480F591FCC2477
:103A9000C394D12CEE24E394F12C2FEF3FEFB4012B
:103AA00080E190E00E949507A5014F5F5F4F49308C
:103AB000510501F10091D2041091D304B3E0440FF9
:103AC000551FBA95E1F721E030E02C0F3D1F420F62
:103AD000531FCC24C394D12CEE24E394F12C2FEF6C
:103AE0003FEFB40180E590E00E94950732E0A30E1D
:103AF000B11C92CF79E0A72EB12C8ECF98E0A916F9
:103B0000B1040CF05EC0C501959587950091D20473
:103B10001091D304A50163E0440F551F6A95E1F7A6
:103B200021E030E02C0F3D1F420F531F9C012E5F00
:103B30003F4F929EB001939E700D1124880F991FE4
:103B40009501281B390BC901F6E0880F991FFA95DA
:103B5000E1F7CC24C394D12CEE24E394F12C2FEF85
:103B60003FEF40960E9495073FEFA31AB30AC501A5
:103B700095958795A50103E0440F551F0A95E1F738
:103B800021E030E02C0F3D1F420F531F9C012E5FA0
:103B90003F4F929EB001939E700D1124880F991F84
:103BA0009501281B390BC90136E0880F991F3A95FA
:103BB000E1F70FEF1FEF23E73AE0805F9B4F0E9492
:103BC00095071092CB041092CA048091CA04909178
:103BD000CB048E3F9F4F6CF00E94AC11009709F010
:103BE0006FC08091CA049091CB0403970CF086CFEC
:103BF000ECCFA114B10409F45EC0C5019595879579
:103C00000091D2041091D304A50133E0440F551F55
:103C10003A95E1F721E030E02C0F3D1F420F531F92
:103C20009C012E5F3F4F929EB001939E700D112418
:103C3000880F991F9501281B390BC901F6E0880FE1
:103C4000991FFA95E1F7CC24C394D12CEE24E39488
:103C5000F12C2FEF3FEF40960E94950731E0A31A19
:103C6000B108C50195958795A50103E0440F551F3F
:103C70000A95E1F721E030E02C0F3D1F420F531F62
:103C80009C012E5F3F4F929EB001939E700D1124B8
:103C9000880F991F9501281B390BC90136E0880F41
:103CA000991F3A95E1F70FEF1FEF23E73AE0805FA6
:103CB0009B4F0E9495071092CB041092CA048CCFA0
:103CC000029739F49501A101C301B2010E94B41B0E
:103CD00004C06EEF7FEF8FEF9FEFC85BDF4F0FB633
:103CE000F894DEBF0FBECDBFDF91CF911F910F9132
:103CF000FF90EF90DF90CF90BF90AF909F908F900C
:103D00007F906F905F904F903F902F900895AF926B
:103D1000BF92CF92DF92EF92FF920F931F93CF93B8
:103D2000DF93EC018091D2049091D3040E94A1060C
:103D3000A12CB12CCC24C394D12CEE24E394F12CEF
:103D40000CE515E72FEF3FEF40E26EE070E0C501B4
:103D50000E94F20628E0A20EB11C80E8A816B10469
:103D600049F72FEF3FEF48E554E06EE070E080E167
:103D700090E00E949507209739F409E11CE32FEFAA
:103D80003FEF44E654E00CC0CC24C394D12CEE2485
:103D9000E394F12C09E11CE32FEF3FEF4EE654E0F2
:103DA0006CE170E088E190E00E9495070E94AC1100
:103DB000892BE1F7E091D004F091D104EE0FFF1FC1
:103DC0008091D4049091D504E80FF91FEE0FFF1FE6
:103DD000EE0FFF1FE859FE4F8E01000F111F000F5D
:103DE000111FE801C45ADE4F408151816281738105
:103DF00088819981AA81BB816A017B01C80ED91E85
:103E0000EA1EFB1EC701B6010E94100548815981B8
:103E10006A817B818AE290E00E94640468817981F2
:103E20008A819B8141E050E00E9484098091CA040C
:103E30009091CB040397E4F0488159816A817B819A
:103E4000465F5F4F6F4F7F4F488359836A837B8301
:103E50001092CB041092CA048AE290E00E9464049B
:103E6000688179818A819B8141E050E00E948409C8
:103E70008091CA049091CB048E3F9F4FE4F4488117
:103E800059816A817B814A505109610971094883CE
:103E900059836A837B831092CB041092CA048AE20E
:103EA00090E00E946404688179818A819B8141E06D
:103EB00050E00E9484090E94AC115C01892B09F436
:103EC000B5CF0E94AC11892BE1F782E0A816B104AE
:103ED00041F4E801C45ADE4F688179818A819B816F
:103EE00003C060E070E0CB01DF91CF911F910F9193
:103EF000FF90EF90DF90CF90BF90AF90089588E74C
:103F000094E00E94970C80E090E00E94830D83B7BC
:103F1000817F8C6083BF83B7816083BF889583B7BF
:103F20008E7F83BF84E093E00C94970C2B9A0E94C1
:103F3000AC11892BE1F70E94AC11892BE1F32B988E
:103F40000895CF93DF9300D000D000D0CDB7DEB777
:103F50000091C6041091C7042091C8043091C9048F
:103F600009831A832B833C831092D3041092D204CA
:103F70008FEF8AB9229A239A249A259A81E088B9E8
:103F800083E085B983E880937A0080E090E00E9426
:103F9000E30F8091680081608093680080916B00DE
:103FA000836080936B00109280008DE0809381008D
:103FB00086E0809389008BE18093880080916F0078
:103FC000826080936F008FEF9FEF0E94DC0A80E198
:103FD00090E00E948A2A9093CF048093CE0480E0E0
:103FE00090E0E091CE04F091CF04E80FF91F108229
:103FF000019680319105A9F70E94A5030E9416053C
:104000000E9463050E94E0030E9463119093D10413
:104010008093D004019631F482E090E09093D10433
:104020008093D0040091D0041091D104C8010E9463
:1040300052119093D5048093D404019621F41092E8
:10404000D5041092D404E090D404F090D504B801C3
:10405000C7010E94AD10000F111F0E0D1F1D000F94
:10406000111F000F111FF801E859FE4F6083718383
:10407000828393830091D0041091D1048091D40461
:104080009091D5047801EE0CFF1C8E0D9F1D880FBA
:10409000991F880F991FDC01A859BE4F6D016D91C2
:1040A0007D918D919C91A8010E946203892B81F4DE
:1040B000F801EE0FFF1FEE0FFF1FE45CFE4F808143
:1040C0009181A281B381F60180839183A283B3831E
:1040D000F701E05BFE4F8081918190935B018093BB
:1040E0005A01C8010E94DC0A8AE890E00E94C92BAC
:1040F000282F30E030930101209300018D3030F003
:1041000088E090E0909301018093000186E090E0C8
:104110000E94E30FBC01990F880B990B0E9418298C
:1041200020E030E040EA50E40E94A42920E030E0A2
:1041300040E85AE30E94A42920E030E040EC50E43B
:104140000E94A42920E030E040E251E40E94A4292A
:104150000E94E0282B013C011B01E091D004F0916A
:10416000D104EE0FFF1F8091D4049091D504E80F85
:10417000F91FEE0FFF1FEE0FFF1FE859FE4FA09132
:104180005A01B0915B01AA0FBB1FAA0FBB1FA45A13
:10419000BE4F40815181628173818D919D910D90BF
:1041A000BC91A02D8A019B01080F191F2A1F3B1FDC
:1041B000C901B8010E941005E091D004F091D1042A
:1041C000EE0FFF1F8091D4049091D504E80FF91FE2
:1041D000EE0FFF1FEE0FFF1FE859FE4FA0915A018F
:1041E000B0915B01AA0FBB1FAA0FBB1FA45ABE4F01
:1041F00040815181628173818D919D910D90BC911F
:10420000A02D8A019B01080F191F2A1F3B1FC901FE
:10421000B8010E94100580915A0190915B010E94A3
:10422000010540E050E0BA018AE390E00E94640496
:104230008CE890E00E94C92B282F30E03093AB042B
:104240002093AA04823020F01092AB041092AA04AA
:104250008091AA049091AB040E9493038EE890E0B1
:104260000E94C92B282F30E03093A7042093A60486
:10427000823020F01092A7041092A6048091A60428
:104280009091A7040E949F034091D0045091D104C3
:104290000091D4041091D504A090AC04B090AD046A
:1042A00020915A0130915B01FA01EE0FFF1FE00FE0
:1042B000F11FEE0FFF1FEE0FFF1FE859FE4F608149
:1042C000718182819381C12CD12C72010E94690E6F
:1042D00000EB14E0E12C28E0F22EC6010E943A0324
:1042E000D8018D939C938130904118F0F801F182B0
:1042F000E082FFEFCF1ADF0A0E5F1F4F25E0C216E4
:10430000D10459F7E091D004F091D104EE0FFF1FD2
:10431000E055FB4F808191810E94E00C789483E806
:1043200094E00E94970C812C912C1EEC412E552478
:104330005A94652C752C1E821D82E091D004F09158
:10434000D104EE0FFF1F8091D4049091D504E80FA3
:10435000F91FEE0FFF1FEE0FFF1FE859FE4F6081A0
:104360007181828193810E94A70F6115710581057A
:10437000910509F444C0E091D004F091D104EE0F0E
:10438000FF1F2091D4043091D504E20FF31FEE0FEC
:10439000FF1FEE0FFF1FE859FE4F6083718382837A
:1043A0009383E0915A01F0915B01EE0FFF1FEE0F36
:1043B000FF1FE45AFE4F0081118122813381600F7B
:1043C000711F821F931F0E941005E091D004F0918D
:1043D000D104EE0FFF1F8091D4049091D504E80F13
:1043E000F91FEE0FFF1FEE0FFF1FE859FE4F608110
:1043F00071818281938142E050E00E9484090E9491
:10440000AC118130910509F00BC36091D00470911B
:10441000D1048091D4049091D504FB01EE0FFF1FCD
:10442000E80FF91FEE0FFF1FEE0FFF1FE859FE4FB9
:1044300020813181428153810E94F4108091D00407
:104440009091D1046091D4047091D504FC01EE0FD9
:10445000FF1FE60FF71FEE0FFF1FEE0FFF1FE859BC
:10446000FE4F008111812281338140915A01509188
:104470005B010E9470110E94AC11892BE1F7409101
:10448000D4045091D504E091D004F091D104EE0F02
:10449000FF1FE40FF51FEE0FFF1FEE0FFF1FE85980
:1044A000FE4F60817181828193810E94C01C6233C2
:1044B000710509F4C1C1A4F566317105D4F4643104
:1044C00071050CF007C16A30710509F4F4C02CF4D1
:1044D0006530710508F45DC07EC26B30710509F06E
:1044E0007AC221E030E03093AB042093AA042A9AE8
:1044F000EAC06E3171050CF46EC2603271050CF4C5
:1045000069C1CB0188978230910508F064C290930D
:10451000A7048093A6040E949F036091A60412C280
:104520006734710509F405C2FCF46E3371057CF43F
:104530006C3371050CF0F0C16333710509F49FC150
:104540006433710509F047C20E94641744C266349F
:10455000710509F040C21092A9041092A80480E0ED
:1045600090E00E949903ECC16235710509F40AC21A
:104570002CF4603571050CF0E8C12DC2633571056E
:1045800009F403C26435710509F025C20E94961F23
:1045900022C27093D1046093D004CB010E94DC0A44
:1045A0000091D0041091D104B8018091D40490916D
:1045B000D5040E94AD10A8010E946203E090D004CF
:1045C000F090D1040091D4041091D504892BB1F05E
:1045D000B701C8010E94AD109701220F331F200FB1
:1045E000311F220F331F220F331F28593E4FD9018D
:1045F0006D937D938D939C9313971BC0F701EE0FE2
:10460000FF1FE00FF11FEE0FFF1FEE0FFF1FE85916
:10461000FE4FC701880F991F880F991F845C9E4F1A
:10462000DC014D915D916D917C914083518362835A
:1046300073838091D0049091D104880F991F2091A9
:10464000D4043091D504820F931F880F991F880FCF
:10465000991FDC01A859BE4FE0915A01F0915B010E
:10466000EE0FFF1FEE0FFF1FE45AFE4F4D915D91BD
:104670006D917C9180819181A281B3818A019B019E
:10468000080F191F2A1F3B1FC901B8010E941005FE
:104690006091D00480E090E00E94D12BE091D004A2
:1046A000F091D104EE0FFF1FE055FB4F8081918107
:1046B0000E94E00C90C11092AB041092AA0480E01A
:1046C00090E00E9493036091AA048CE890E00E941D
:1046D000D12B81C1CB0144979093D5048093D4040E
:1046E00060E070E00E94570B0091D0041091D1045B
:1046F000E090D404F090D504B801C7010E94AD1039
:10470000000F111F0E0D1F1D000F111F000F111F95
:10471000F801E859FE4F608371838283938300918F
:10472000D0041091D104A090D404B090D5046801B5
:10473000CC0CDD1C7601EA0CFB1CC701880F991F0D
:10474000880F991FDC01A859BE4F7D016D917D91A5
:104750008D919C91A8010E946203892B81F4000F26
:10476000111F000F111FF801E45CFE4F8081918141
:10477000A281B381F70180839183A283B383CA0CA2
:10478000DB1CC601880F991F880F991F88599E4FFF
:10479000E0915A01F0915B01EE0FFF1FEE0FFF1F3A
:1047A000E45AFE4FDC014D915D916D917C918081C9
:1047B0009181A281B3818A019B01080F191F2A1FD1
:1047C0003B1FC901B8010E9410056091D40485E027
:1047D00090E07DCF6E51710970935B0160935A0137
:1047E000A091D004B091D104AA0FBB1F8091D40432
:1047F0009091D504A80FB91FAA0FBB1FAA0FBB1F0A
:10480000A859BE4F660F771F660F771FFB01E45A4A
:10481000FE4F4D915D916D917C9180819181A2813E
:10482000B3818A019B01080F191F2A1F3B1FC90171
:10483000B8010E9410059FC00E944D126B017C01BF
:104840000091D0041091D104A8010E946203892B29
:1048500009F4C1C0000F111F8091D4049091D504B8
:10486000800F911F880F991F880F991F88599E4F9D
:10487000DC01CD92DD92ED92FC92139736C00E943E
:1048800092146B017C01BFE0FB22C114D104E1044E
:10489000F10409F4A0C0DC01CB011CE1B595A7959A
:1048A000979587951A95D1F79093D5048093D40462
:1048B0006091D2047091D3040E94570B2091D004D0
:1048C0003091D104220F331F8091D4049091D504EC
:1048D000F901E80FF91FEE0FFF1FEE0FFF1FE85958
:1048E000FE4FC082D182E282F382E0915A01F091C0
:1048F0005B01EE0FFF1FEE0FFF1FE45AFE4F80819A
:104900009181A281B381BC01CD016C0D7D1D8E1DF5
:104910009F1D0E9410055FC0CB01CC979093AD0402
:104920008093AC046091D2047091D3040E941D0B5B
:1049300052C0E1E0F0E0F093A904E093A8042C98C1
:104940006091AA048EE890E0C2CE8B010055110957
:10495000C8010E94871E1616170618061906DCF5F0
:10496000000F111F000F111FF801E45AFE4F608362
:1049700071838283938380915A0190915B010E949D
:10498000010529C00E94E61126C04091D004509133
:10499000D1040091D4041091D504A090AC04B0903F
:1049A000AD0420915A0130915B01FA01EE0FFF1F17
:1049B000E00FF11FEE0FFF1FEE0FFF1FE859FE4F34
:1049C0006081718182819381C12CD12C71010E94FF
:1049D000690E0E947F1F4091D0045091D104009134
:1049E000D4041091D504A090AC04B090AD042091F3
:1049F0005A0130915B01FA01EE0FFF1FE00FF11F2A
:104A0000EE0FFF1FEE0FFF1FE859FE4F608171810F
:104A100082819381C12CD12C71010E94690E12C137
:104A20008230910531F50E94AC11892BE1F780911C
:104A3000D0049091D1046091D4047091D504FC010C
:104A4000EE0FFF1FE60FF71FEE0FFF1FEE0FFF1F0A
:104A5000E859FE4F008111812281338140915A0132
:104A600050915B010E94701184E994E00E94970CC0
:104A7000E9C08330910539F40E94AC11892BE1F72C
:104A80000E94E611DFC0049709F0DCC00E94AC115F
:104A9000892BE1F78091D0049091D1048430910565
:104AA00034F401969093D1048093D00404C0109202
:104AB000D1041092D00460E070E08091D004909115
:104AC000D1040E943C0A8091D0049091D1040E94AC
:104AD000DC0A80E090E0E091CE04F091CF04E80F92
:104AE000F91F1082019680319105A9F70091D00439
:104AF0001091D104E090D404F090D504B801C7011E
:104B00000E94AD10000F111F0E0D1F1D000F111F71
:104B1000000F111FF801E859FE4F608371838283F3
:104B200093830091D0041091D104A090D404B0904C
:104B3000D5046801CC0CDD1C7601EA0CFB1CC70116
:104B4000880F991F880F991F9C0128593E4F7901A2
:104B5000D9016D917D918D919C91A8010E94620374
:104B6000892B81F4000F111F000F111FF801E45C65
:104B7000FE4F80819181A281B381F701808391836F
:104B8000A283B383CA0CDB1CC601880F991F880F50
:104B9000991F88599E4FE0915A01F0915B01EE0FE9
:104BA000FF1FEE0FFF1FE45AFE4FDC014D915D9198
:104BB0006D917C9180819181A281B3818A019B0159
:104BC000080F191F2A1F3B1FC901B8010E941005B9
:104BD00082E090E00E94EB07E091D004F091D104D4
:104BE000EE0FFF1F8091D4049091D504E80FF91FB8
:104BF000EE0FFF1FEE0FFF1FE859FE4F608171811E
:104C00008281938142E050E00E9484096091D20445
:104C10007091D3048091D4049091D5040E94570BD5
:104C20006091D00480E090E00E94D12BE091D0040C
:104C3000F091D104EE0FFF1FE055FB4F8081918171
:104C40000E94E00C4091C6045091C7046091C804D2
:104C50007091C904D301C2010A96A11DB11D841728
:104C60009507A607B707DCF586E090E00E94E30F02
:104C7000BC01990F880B990B0E94182920E030E0A5
:104C800040EA50E40E94A42920E030E040E85AE3E2
:104C90000E94A42920E030E040EC50E40E94A429C6
:104CA00020E030E040E251E40E94A4290E94E02884
:104CB0006B017C011B012D813E816217730719F086
:104CC000CB010E94FA0B0E9449104090C6045090FC
:104CD000C7046090C8047090C904DE82CD82409100
:104CE000C6045091C7046091C8047091C9048091B2
:104CF000A2049091A304A091A404B091A5048417E8
:104D00009507A607B7070CF021C187E090E00E9445
:104D1000E30F893E93400CF477C0892809F071C0F5
:104D200081E090E00E94010E8091AC049091AD046E
:104D3000892B09F466C04091D4045091D504209188
:104D4000D0043091D10480915A0190915B0113E01D
:104D5000220F331F1A95E1F7F901E859FE4F880F2A
:104D6000991F880F991FDC01A45ABE4F452B19F5D6
:104D700044815581668177818D919D910D90BC9183
:104D8000A02D8A019B01080F191F2A1F3B1FC90173
:104D9000B8010E941005E091D004F091D104B3E075
:104DA000EE0FFF1FBA95E1F7E859FE4F6481758158
:104DB0008681978122C040815181628173818D916A
:104DC0009D910D90BC91A02D8A019B01080F191F88
:104DD0002A1F3B1FC901B8010E941005E091D004B1
:104DE000F091D104A3E0EE0FFF1FAA95E1F7E85977
:104DF000FE4F608171818281938142E050E00E9488
:104E0000840988248394912C87E090E00E94E30F2A
:104E1000893E93400CF075C0892809F475C080E084
:104E200090E00E94010E8091AC049091AD04892B1A
:104E300009F46AC04091D4045091D5042091D00463
:104E40003091D10480915A0190915B0163E0220F6F
:104E5000331F6A95E1F7F901E859FE4F880F991F52
:104E6000880F991FDC01A45ABE4F452B19F54081CC
:104E70005181628173818D919D910D90BC91A02D86
:104E80008A019B01080F191F2A1F3B1FC901B80186
:104E90000E941005E091D004F091D10443E0EE0FA0
:104EA000FF1F4A95E1F7E859FE4F608171818281C9
:104EB000938122C044815581668177818D919D9136
:104EC0000D90BC91A02D8A019B01080F191F2A1F6C
:104ED0003B1FC901B8010E941005E091D004F09178
:104EE000D10433E0EE0FFF1F3A95E1F7E859FE4F8A
:104EF000648175818681978142E050E00E94840937
:104F000003C08114910439F40E9401100E94830DA2
:104F1000812C912C0BC082E090E00E94E30F23E0F3
:104F2000959587952A95E1F70E94830D8091C60497
:104F30009091C704A091C804B091C9048093A204C1
:104F40009093A304A093A404B093A5044091C60435
:104F50005091C7046091C8047091C90489819A81F5
:104F6000AB81BC814496A11DB11D84179507A6078E
:104F7000B70774F40E94EF0D8091C6049091C704A6
:104F8000A091C804B091C90489839A83AB83BC8380
:104F90008091C2049091C304A091C404B091C5044F
:104FA000CC96A11DB11D4091C6045091C7046091DB
:104FB000C8047091C90484179507A607B7070CF0B9
:104FC000BCC98091AE049091AF04892B09F4B5C996
:104FD00083E894E00E94970C8091C6049091C704E6
:104FE000A091C804B091C9048093C2049093C304F3
:104FF000A093C404B093C5041092AF041092AE0401
:105000009CC95058BB27AA270E9419280C946A29CA
:105010000E945C2938F00E94632920F039F49F3FF8
:1050200019F426F40C9459290EF4E095E7FB0C943E
:105030005329E92F0E947B2958F3BA176207730797
:105040008407950720F079F4A6F50C949D290EF4B9
:10505000E0950B2EBA2FA02D0B01B90190010C0188
:10506000CA01A0011124FF27591B99F0593F50F4A0
:10507000503E68F11A16F040A22F232F342F4427F8
:10508000585FF3CF469537952795A795F0405395F0
:10509000C9F77EF41F16BA0B620B730B840BBAF0C0
:1050A0009150A1F0FF0FBB1F661F771F881FC2F72B
:1050B0000EC0BA0F621F731F841F48F4879577953F
:1050C0006795B795F7959E3F08F0B0CF9395880FF9
:1050D00008F09927EE0F9795879508950E948228EA
:1050E0000C946A290E94632958F00E945C2940F0C0
:1050F00029F45F3F29F00C94532951110C949E29F7
:105100000C9459290E947B2968F39923B1F3552304
:1051100091F3951B550BBB27AA27621773078407CA
:1051200038F09F5F5F4F220F331F441FAA1FA9F360
:1051300035D00E2E3AF0E0E832D091505040E6954E
:10514000001CCAF72BD0FE2F29D0660F771F881FAF
:10515000BB1F261737074807AB07B0E809F0BB0BA2
:10516000802DBF01FF2793585F4F3AF09E3F5105B6
:1051700078F00C9453290C949E295F3FE4F3983EF9
:10518000D4F3869577956795B795F7959F5FC9F79F
:10519000880F911D9695879597F90895E1E0660F20
:1051A000771F881FBB1F621773078407BA0720F099
:1051B000621B730B840BBA0BEE1F88F7E095089502
:1051C0000E94E7286894B1110C949E2908950E94CA
:1051D000832988F09F5798F0B92F9927B751B0F0DD
:1051E000E1F0660F771F881F991F1AF0BA95C9F76B
:1051F00014C0B13091F00E949D29B1E008950C9443
:105200009D29672F782F8827B85F39F0B93FCCF3F5
:10521000869577956795B395D9F73EF490958095E7
:10522000709561957F4F8F4F9F4F0895E89409C007
:1052300097FB3EF490958095709561957F4F8F4FC9
:105240009F4F9923A9F0F92F96E9BB279395F695DF
:10525000879577956795B795F111F8CFFAF4BB0F5D
:1052600011F460FF1BC06F5F7F4F8F4F9F4F16C0C1
:10527000882311F096E911C0772321F09EE8872F4B
:10528000762F05C0662371F096E8862F70E060E007
:105290002AF09A95660F771F881FDAF7880F969580
:1052A000879597F9089597F99F6780E870E060E027
:1052B00008959FEF80EC089500240A9416161706AF
:1052C00018060906089500240A94121613061406F7
:1052D00005060895092E0394000C11F4882352F05A
:1052E000BB0F40F4BF2B11F460FF04C06F5F7F4F12
:1052F0008F4F9F4F089557FD9058440F551F59F0F9
:105300005F3F71F04795880F97FB991F61F09F3FB2
:1053100079F087950895121613061406551FF2CFDB
:105320004695F1DF08C0161617061806991FF1CF2B
:1053300086957105610508940895E894BB27662752
:105340007727CB0197F908950E94B7290C946A2911
:105350000E945C2938F00E94632920F0952311F007
:105360000C9453290C94592911240C949E290E94C1
:105370007B2970F3959FC1F3950F50E0551F629FF5
:10538000F001729FBB27F00DB11D639FAA27F00D9E
:10539000B11DAA1F649F6627B00DA11D661F829FC5
:1053A0002227B00DA11D621F739FB00DA11D621FAA
:1053B000839FA00D611D221F749F3327A00D611DC7
:1053C000231F849F600D211D822F762F6A2F1124A9
:1053D0009F5750409AF0F1F088234AF0EE0FFF1FDC
:1053E000BB1F661F771F881F91505040A9F79E3F33
:1053F000510580F00C9453290C949E295F3FE4F3EF
:10540000983ED4F3869577956795B795F795E79588
:105410009F5FC1F7FE2B880F911D9695879597F991
:105420000895DB018F939F930E94682ABF91AF91EB
:10543000A29F800D911DA39F900DB29F900D1124EE
:105440000895A1E21A2EAA1BBB1BFD010DC0AA1FC5
:10545000BB1FEE1FFF1FA217B307E407F50720F0DD
:10546000A21BB30BE40BF50B661F771F881F991F58
:105470001A9469F760957095809590959B01AC01A1
:10548000BD01CF010895052E97FB1EF400940E94E4
:105490005A2A57FD07D00E94212A07FC03D04EF458
:1054A0000C945A2A50954095309521953F4F4F4F77
:1054B0005F4F089590958095709561957F4F8F4FC0
:1054C0009F4F0895EE0FFF1F0590F491E02D099472
:1054D0000E947B2AA59F900DB49F900DA49F800DE4
:1054E000911D11240895B7FF0C94682A0E94682A20
:1054F000821B930B0895A29FB001B39FC001A39F8D
:10550000700D811D1124911DB29F700D811D1124FC
:10551000911D0895CF93DF938230910510F482E0BE
:1055200090E0E091D804F091D90420E030E0C0E0B0
:10553000D0E0309711F14081518148175907C0F0F0
:105540004817590761F482819381209719F09B8352
:105550008A832BC09093D9048093D80426C0211548
:10556000310519F04217530718F49A01BE01DF0103
:10557000EF010280F381E02DDCCF2115310509F127
:10558000281B390B2430310590F412968D919C9193
:1055900013976115710521F0FB019383828304C089
:1055A0009093D9048093D804FD01329644C0FD0144
:1055B000E20FF31F81939193225031092D933C9375
:1055C0003AC02091D6043091D704232B41F4209186
:1055D0009E0130919F013093D7042093D6042091EF
:1055E0009C0130919D012115310541F42DB73EB745
:1055F0004091A0015091A101241B350BE091D604EC
:10560000F091D704E217F307A0F42E1B3F0B2817E5
:10561000390778F0AC014E5F5F4F2417350748F02B
:105620004E0F5F1F5093D7044093D60481939193FC
:1056300002C0E0E0F0E0CF01DF91CF9108950F9339
:105640001F93CF93DF93009709F48CC0FC0132972E
:10565000138212820091D8041091D904011511050A
:1056600081F420813181820F931F2091D6043091E3
:10567000D7042817390779F5F093D704E093D604B7
:1056800071C0D80140E050E0AE17BF0750F4129649
:105690002D913C911397AD012115310509F1D901E7
:1056A000F3CF9D01DA013383228360817181860FFC
:1056B000971F8217930769F4EC0128813981260F1F
:1056C000371F2E5F3F4F318320838A819B819383D5
:1056D0008283452B29F4F093D904E093D80442C087
:1056E0001396FC93EE931297ED01499159919E0107
:1056F000240F351FE217F30771F480819181840F25
:10570000951F029611969C938E9382819381139696
:105710009C938E931297E0E0F0E0D80112968D9161
:105720009C911397009719F0F8018C01F6CF8D9199
:105730009C9198012E5F3F4F820F931F2091D604BA
:105740003091D7042817390769F4309729F410925B
:10575000D9041092D80402C0138212821093D70485
:105760000093D604DF91CF911F910F910895FB0113
:10577000DC010D900020E9F7119701900D920020B7
:10578000E1F70895FB01DC0101900D920020E1F7A3
:105790000895F999FECF92BD81BDF89A992780B5F9
:1057A0000895262FF999FECF1FBA92BD81BD20BD65
:1057B0000FB6F894FA9AF99A0FBE01960895F894E4
:0257C000FFCF19
:1057C20005000400010001000100010002000100C7
:1057D20001000400D0223A0010046E00C01DDB005C
:1057E2009040150120744701D0403500B0A86A00EE
:1057F2007078D500E092130130484001D0B13700F3
:1058020080A46C00A05ED800202F140110DC44019B
:10581200000000000100010001000100A63DA300FC
:10582200B84EA300404F9FF9D0B13700D0B1370036
:1058320080A46C0080A46C00C0ACD80040E5D90004
:1058420000E1130170F2140110DC4401B062460160
:10585200A63DA300B84EA300000000000000DA0439
:105862002000BA02BE02C202C602CA0227004C00CF
:10587200670087008E0396039E03A603AE03B6035A
:10588200BE03FD02FD02FD02C603CE03FD02FD02C0
:10589200FD02D603DE03FD02FD02FD02E603EE0376
:1058A200FD02FD02FD02F603FE030604FD02FD02F7
:1058B200B603BE03FD02FD02FD020E041604FD0244
:1058C200FD02FD021E0426042E0436043E0442415B
:1058D2004E44205345540000525820415454000075
:1058E200000056464F0000000000000053494445A6
:1058F20042414E440000544F4E450000000000005B
:105902005343414E00000000000053504C495400E4
:105912000000000041474300000000000000414435
:105922004A5553540000000042414E44000000001A
:10593200415454200000000056464F200000000051
:105942005349444500000000544F4E4500000000FA
:105952005343414E0000000053504C5400000000DD
:10596200414743200000000041444A20000000005B
:105972005C754FF6E027D7C5D99B38306D003430BF
:105982006D0032306D0031376D0031356D0053508E
:105992004C540056464F410056464F420041545423
:1059A20000534C4F570046415354005620004C4F71
:1059B20000484900202020202020202020202020D4
:1059C20020202020005458205052455345543A007C
:1059D2005458207072657365742073746F726564B5
:1059E2002E00533133353739002B3130002B323012
:1059F20064420030203220203420203620203820FB
:105A0200313057005458205052455345543D2020C0
:105A12002020005343414E4E494E472E2E2E005316
:105A2200746F707065642E0057616974696E672EB9
:105A32002E2E005363616E6E696E672E2E2E0053FA
:105A420043414E205448524553482E2E2E003830A2
:105A52006D202020200034306D20202020003230A4
:105A62006D202020200031376D202020200031358C
:105A72006D20202020004F464620202020004F4E3F
:105A820020202020200056464F204120200056464C
:105A92004F20422020004C5342202020200055530A
:105AA2004220202020004C4F202020202000484966
:105AB20020202020200066302E2E663120005646FF
:105AC2004F20412F4200544852455348200046413E
:105AD200535420202000534C4F5720202000534580
