:100000000C9413030C9430030C9430030C94F90EED
:100010000C9430030C9430030C9430030C94300394
:100020000C9430030C9430030C9430030C944A0F5E
:100030000C9430030C9430030C9430030C94300374
:100040000C9430030C9430030C9430030C94300364
:100050000C9430030C9430030C9430030C94300354
:100060000C9430030C9430030000000000000000EA
:100070000000000000000008080808080808000840
:1000800008000000242424240000000000000000D8
:10009000000000909048FE4824FF24121200000047
:1000A000083C0A0A0A0C182828281E0800000086A6
:1000B00049292916689494926100000000182424AC
:1000C000140C8B917163FE00000008080808000002
:1000D0000000000000000000603008080404040470
:1000E000040808306000060C10102020202020108A
:1000F000100C060000080866142C24000000000004
:100100000000000000000808087F08080800000040
:100110000000000000000000001818100800000097
:10012000000000007E000000000000000000000051
:1001300000000000001818000000402020201010CF
:1001400018080804040402000018244242424242F3
:1001500042241800000000101E1010101010101083
:10016000FE000000001E20202010100804023E00A7
:100170000000003C40404038404040403C0000000F
:10018000002030282824227E202020000000007C2F
:100190000404041C604040403C000000003804029D
:1001A000023A4642424438000000007E40202010BF
:1001B0000808080404000000003C4242221C2442BB
:1001C00042423C000000001C224242625C4040204F
:1001D0001C000000000000001818000000181800A3
:1001E0000000000000001818000000181810080097
:1001F0000000000040300806083040000000000009
:100200000000007E00007E000000000000000000F2
:10021000020C1060100C02000000003E4240201052
:100220000808000808000000003C46724949496976
:10023000DB223C00000000001018282424427E42EB
:100240008100000000003E4242221E2242423E0047
:10025000000000007C020101010101027C0000009D
:1002600000001F214141414141211F0000000000C9
:100270007E0202023E0202027E00000000007E02B8
:1002800002023E0202020200000000007C020101A4
:10029000017141427C0000000000424242427E4225
:1002A00042424200000000003E0808080808080812
:1002B0003E00000000003C202020202020201E00C6
:1002C000000000004222120A060A12224200000028
:1002D000000002020202020202027E000000000090
:1002E0006363635555554941410000000000424693
:1002F000464A4A5252624200000000001C2241411C
:10030000414141221C00000000003E424242621E68
:1003100002020200000000001C2241414141412232
:100320001C60C00000001E2222221E123222420047
:10033000000000007C020206186040403E00000001
:1003400000007F08080808080808080000000000EE
:1003500042424242424242423C000000000081428E
:100360004222241414080800000000008181C959A9
:100370005A5A6666240000000000814224181818AA
:10038000244281000000000081422214180808085D
:100390000800000000007F402010080402017F00D8
:1003A0000000780808080808080808080808780005
:1003B00002040404080818101020202040001E1019
:1003C000101010101010101010101E000010101837
:1003D0002828244442000000000000000000000023
:1003E0000000000000FF00001020000000000000DE
:1003F000000000000000000000003C40407C424241
:10040000FC000000020202023A46424242463A0022
:1004100000000000000078040202020478000000DE
:10042000404040405C62424242625C00000000008A
:1004300000003C44427E02027C0000007008080874
:100440007E080808080808000000000000007C6220
:10045000424242625C40403C020202023A46424250
:10046000424242000000181800001E101010101028
:1004700010000000303000003C20202020202020F0
:10048000201E0202020222120A061A224200000064
:100490001E1010101010101010101000000000009E
:1004A00000006D5B49494949490000000000000017
:1004B0003A464242424242000000000000001C2234
:1004C000414141221C000000000000003A46424227
:1004D00042463A020202000000005C62424242626E
:1004E0005C404040000000003A2602020202020086
:1004F0000000000000003C02061820201E00000042
:10050000000004047F0404040404780000000000D8
:1005100000004242424242625C00000000000000D3
:100520008142422214140800000000000000819162
:100530005A5A6624240000000000000042241818C3
:1005400018244200000000000000814242242418C8
:1005500018080C07000000007F20100804027F002C
:100560000000700808080808060808080808700055
:1005700010101010101010101010101010000E108D
:10058000101010106010101010100E00000000006D
:1005900000869961000000000000000000081C2295
:1005A000414141417F00000000007C020101010146
:1005B00001027C10203000000000FFFFFFFFFFFF62
:1005C000000000001010101010101010101010106B
:1005D0001010000000000000FF00000000000000FC
:1005E000101010101010F00000000000000010109B
:1005F000101010101F00000000000000000000009C
:100600000000F0101010101010100000000000008A
:100610001F10101010101010000814080000000027
:1006200000000000000011241FBECFEFD8E0DEBFA5
:10063000CDBF13E0A0E0B1E0EAEFF1E502C0059024
:100640000D92A43BB107D9F723E0A4EBB3E001C0BE
:100650001D92A83EB207E1F70E946B1D0C94FB2887
:100660000C9400000F931F93CF93DF93805C9F4FF8
:10067000880F991FF999FECF8C010F5F1F4F0E94C1
:10068000E528282F30E0D22FCC27F999FECFC801DA
:100690000E94E5289E01280F311D211580E13807B1
:1006A00010F4C90102C080E098E0DF91CF911F9162
:1006B0000F910895892B11F02B9A01C02B982C9A39
:1006C0002C9808954F925F926F927F928F929F9293
:1006D000AF92BF92CF92DF92EF92FF92CF93DF93D0
:1006E0000E943A2628E23BE64EEE5CE40E9490250A
:1006F00020E030E040E857E40E94C62620E030E0E9
:1007000040E857E40E94C6260E9402264C01BB2402
:1007100097FCB094AB2C7401DD24CC249B01AC017C
:100720002C193D094E095F0969017A012A98C0E137
:10073000D0E0412C512C32014394C2018C219D21E7
:100740000E945A03440C551C661C771C2197A9F77C
:10075000C0E1D0E0C12CD12C7601C394C601882120
:1007600099210E945A03CC0CDD1CEE1CFF1C219722
:10077000A9F7C8E0D0E080E090E00E945A032197FA
:10078000D1F72A9ADF91CF91FF90EF90DF90CF9031
:10079000BF90AF909F908F907F906F905F904F90A1
:1007A0000895CF92DF92EF92FF920F931F93440F21
:1007B000551F440F551FFA01EE5DFE4F0081118158
:1007C00022813381601771078207930794F0FA0141
:1007D000E25FFE4F31E020E0C080D180E280F38014
:1007E000C616D706E806F9060CF430E0832F922FE0
:1007F00002C080E090E01F910F91FF90EF90DF909A
:10080000CF9008951092B9008CE08093B80084E0F6
:100810008093BC00089584EA8093BC008091BC0062
:1008200087FFFCCF089584E98093BC0008958093EE
:10083000BB0084E88093BC008091BC0087FFFCCFA4
:1008400008951F93CF93DF931F92CDB7DEB7182F74
:1008500069830E940B0480EC0E941704812F0E9480
:1008600017046981862F0E94170484E98093BC00D5
:100870000F90DF91CF911F91089562ED70E087EBAB
:1008800090E00E94210460E070E083E090E00E942C
:1008900021046FE070E080E190E00E9421046FE2AB
:1008A00070E081E190E00E9421046FE270E082E15B
:1008B00090E00E94210460EA70E081EB90E00E94E9
:1008C00021046FEF70E08AE190E00E9421046FEF55
:1008D00070E08BE190E00E94210460E070E08CE128
:1008E00090E00E94210460E170E08DE190E00E94C0
:1008F000210460E070E08EE190E00E94210460EF4E
:1009000070E08FE190E00E94210460E070E080E2FE
:1009100090E00E94210460E070E081E290E00E949B
:1009200021046FEF70E082E290E00E9421046FEFFB
:1009300070E083E290E00E94210460E070E084E2D5
:1009400090E00E94210460E170E085E290E00E9466
:10095000210460E070E086E290E00E94210460EFF4
:1009600070E087E290E00E94210460E070E088E29D
:1009700090E00E94210460E070E089E290E00C9435
:1009800021048F929F92AF92BF92CF92DF92EF920B
:10099000FF92CF93DF93EC01CB01BA010E943A267C
:1009A0009B01AC0164EA73E986E59EE40E94902510
:1009B0004B015C010E9409266B017C010E943826D4
:1009C0009B01AC01C501B4010E94232520EF3FEF3C
:1009D0004FE759E40E94C6260E9409264B015C019C
:1009E00087E0880C991CAA1CBB1C8A95D1F7C5010D
:1009F000B4012FEF3FEF4FE050E00E94432797E014
:100A0000CC0CDD1CEE1CFF1C9A95D1F782E0D81AA5
:100A1000E108F108C20ED31EE41EF51E6FEF7FEF52
:100A20008FE090E00E943327861A970AA80AB90A35
:100A30006FEF70E0CE010E9421046FEF70E0CE01F5
:100A400001960E942104D701C60188279927A37027
:100A5000BB27BD0188279927CE0102960E94210459
:100A60006D2D70E0CE0103960E942104B601772718
:100A7000CE0104960E942104D501C401882799273C
:100A8000AF70BB27BD01606FCE0105960E942104A7
:100A9000692D70E0CE0106960E942104B4017727EB
:100AA000CE010796DF91CF91FF90EF90DF90CF902E
:100AB000BF90AF909F908F900C942104880F991F46
:100AC000880F991FFC01EA5AFE4F408151816281D3
:100AD00073818AE290E00C94C1045C9A2FEF81EE5E
:100AE00094E0215080409040E1F700C000005C9805
:100AF0002FEF81EE94E0215080409040E1F700C05C
:100B000000005C9A2FEF81EE94E0215080409040ED
:100B1000E1F700C000000895672B11F05D9A01C055
:100B20005D985B9827E030E05F98AC01022E02C030
:100B3000559547950A94E2F740FF02C05E9A01C0BE
:100B40005E985F9A2150310978F75B9A089560E0CA
:100B500070E00C948C0561E070E00C948C0581E0F1
:100B600090E00E94A7058FE19EE40197F1F700C095
:100B7000000081E190E00E94A7058FE19EE40197CB
:100B8000F1F700C000008AE390E00E94A70585E02D
:100B900090E00E94AB058FE39CE90197F1F700C05C
:100BA000000081EB90E00E94A70580E090E00E94A9
:100BB000AB0586E090E00E94AB0583E090E00E94E8
:100BC000AB058FE99FE00197F1F700C0000086E3D5
:100BD00090E00E94A70588EC90E00E94AB0586EBB0
:100BE00090E00E94A70585E190E00E94AB0582E0BD
:100BF00090E00E94AB0584EB90E00E94A70580E0A6
:100C000090E00E94AB0580EE90E00E94A70589E08D
:100C100090E00E94AB0586E190E00E94AB0589E080
:100C200090E00E94AB0580E290E00E94AB0581E27B
:100C300090E00E94AB058BE190E00E94AB0583E160
:100C400090E00E94AB0589E190E00E94AB0587E14E
:100C500090E00E94AB0585E190E00E94AB058EE13B
:100C600090E00E94AB058BE290E00E94AB0584E02F
:100C700090E00E94AB0585E090E00E94AB0582E029
:100C800090E00E94AB058EE090E00E94AB0581EE03
:100C900090E00E94A7058BE090E00E94AB0584E104
:100CA00090E00E94AB0588E090E00E94AB058EE1E9
:100CB00090E00E94AB0582E290E00E94AB058DE1DE
:100CC00090E00E94AB0588E190E00E94AB058EE1C8
:100CD00090E00E94AB058BE190E00E94AB058AE1B9
:100CE00090E00E94AB0584E290E00E94AB058BE2AD
:100CF00090E00E94AB0586E090E00E94AB0586E0A4
:100D000090E00E94AB0582E090E00E94AB058FE08E
:100D100090E00E94AB058FE39CE90197F1F700C0DA
:100D2000000083E190E00E94A7058FE39CE9019712
:100D3000F1F700C0000089E290E00C94A705CF9283
:100D4000DF92EF92FF920F931F93CF93DF936C018B
:100D50008B017A01E9018AE290E00E94A70580E018
:100D600090E00E94AB05C6010E94AB0580E090E0D8
:100D70000E94AB05C7010E94AB058BE290E00E9488
:100D8000A70580E090E00E94AB05C8010E94AB057A
:100D900080E090E00E94AB05CE01DF91CF911F91E2
:100DA0000F91FF90EF90DF90CF900C94AB05CF9315
:100DB000DF93D42FC52F9B01AC010E949F068CE2CC
:100DC00090E00E94A7058C2F90E00E94AB058D2F2C
:100DD0009C2FDF91CF910C94AB05EF92FF920F9374
:100DE0001F93CF93DF937C0124E830E044E850E088
:100DF00060E070E080E090E00E949F068CE290E06E
:100E00000E94A70505E810E0C5E8D0E08F2D90E02E
:100E10000E94AB05C7010E94AB052197B9F70150AD
:100E2000110991F7DF91CF911F910F91FF90EF90F2
:100E300008952F923F924F925F926F927F928F927E
:100E40009F92AF92BF92CF92DF92EF92FF920F9359
:100E50001F93CF93DF9300D000D0CDB7DEB7242E01
:100E60002983932E0A83812E4EE04C9D90014D9D47
:100E7000300D1124260F371FA701E3E0440F551F43
:100E8000EA95E1F7480F591F4F5F5F4F6E5F7F4F45
:100E900002960E949F068CE290E00E94A7058EE0D9
:100EA000289E1001112400E010E090EC291A91E036
:100EB000390AF101E00FF11FE859FF4FE491612C6D
:100EC000712C8E2F90E09C838B836C147D04BCF579
:100ED000A12CB12C8B819C810A2C02C09595879501
:100EE0000A94E2F7412C512C80FF1AC04E145F0483
:100EF00064F4892D90E00E94AB058981992D0E94B0
:100F0000AB059FEF491A590AF1CFEFEFAE1ABE0AAF
:100F1000F8E0AF16B104F1F69FEF691A790AD5CF60
:100F20004E145F0494F7882D90E00E94AB058A81EF
:100F3000982D0E94AB058FEF481A580AF1CF0F5F2A
:100F40001F4F0D30110509F0B4CF0F900F900F9087
:100F50000F90DF91CF911F910F91FF90EF90DF9055
:100F6000CF90BF90AF909F908F907F906F905F9049
:100F70004F903F902F9008952F923F924F925F9203
:100F80006F927F928F929F92AF92BF92CF92DF9299
:100F9000EF92FF920F931F93CF93DF9300D000D077
:100FA00000D0CDB7DEB77C836B83190128015701D0
:100FB000360149835A83470123E0880C991C2A95FE
:100FC000E1F79E838D83E981FA814191FA83E98378
:100FD000442379F063017501820191016B817C8169
:100FE0008D819E810E9419078D819E81880D991D9A
:100FF000E8CF26960FB6F894DEBF0FBECDBFDF91C7
:10100000CF911F910F91FF90EF90DF90CF90BF9005
:10101000AF909F908F907F906F905F904F903F9098
:101020002F900895CF92DF92EF92FF920F931F932C
:101030002091E0033091E1036C017C0189014BE3D5
:1010400052E060E370E080E090E00E94BC071F91F6
:101050000F91FF90EF90DF90CF900895CF92DF92A5
:10106000EF92FF920F931F932091E0033091E103E1
:10107000CC24C394D12CEE24E394F12C02E818EE96
:1010800048EE51E060E070E080E790E00E94BC072D
:101090001F910F91FF90EF90DF90CF900895CF9226
:1010A000DF92EF92FF920F931F930091E003109154
:1010B000E103CC24C394D12CEE24E394F12C20EE54
:1010C00037E24BEE51E062E670E080E090E00E9493
:1010D000BC071F910F91FF90EF90DF90CF90089584
:1010E000CF92DF92EF92FF920F931F939B012D5FA0
:1010F0003F4F4EE0429FB001439F700D1124CC241E
:10110000C394D12CEE24E394F12C02E517EF23E7EE
:101110003AE0AC0188E290E00E94BC071F910F9179
:10112000FF90EF90DF90CF9008952F923F924F92D3
:101130005F926F927F928F929F92AF92BF92CF9267
:10114000DF92EF92FF920F931F93CF93DF9300D024
:1011500000D000D0CDB7DEB76B017C015C834B8340
:101160003E832D83611571058105910539F480E376
:10117000F9018083118281E090E090C097FF0DC05B
:10118000F094E094D094C094C11CD11CE11CF11CDB
:1011900021E030E03A83298302C01A8219828D81CE
:1011A0009E810C96ED81FE811192E817F907E1F717
:1011B00009E010E0212C312C812C8AEC982E8AE950
:1011C000A82E8BE3B82E9AE0492E512C612C712C5D
:1011D000C701B601A50194010E946527E22FA22F45
:1011E000B32FA50194010E948F27C61AD70AE80AD7
:1011F000F90AD1011996A01BB10B4D815E81A40F94
:10120000B51FE05DEC93C501B401A30192010E94FA
:10121000652749015A018B819C810817190779F4C8
:101220000115110561F09FEF291A390AF101E01B40
:10123000F10B2D813E81E20FF31F3EE23187015019
:10124000110930F6ED81FE8130E2CF014D815E81E2
:10125000841B950B2081203311F43193F6CFE98163
:10126000FA81EF2B31F00197FA01E80FF91F2DE217
:101270002083ED81FE819F014D815E81241B350B12
:10128000DF01A80FB91F4C91442311F04193F3CF14
:10129000ED81FE81E20FF31F1082C90126960FB681
:1012A000F894DEBF0FBECDBFDF91CF911F910F919C
:1012B000FF90EF90DF90CF90BF90AF909F908F9076
:1012C0007F906F905F904F903F902F9008952F9256
:1012D0003F924F925F926F927F928F929F92AF92C6
:1012E000BF92CF92DF92EF92FF920F931F93CF9313
:1012F000DF93CDB7DEB728970FB6F894DEBF0FBEE9
:10130000CDBF3C012B0129833A834B835C831801B9
:10131000FE82ED82D886CF827501640180E190E083
:101320000E94A6275C010097F9F000E110E09C0103
:10133000A10169817A818B819C810E9495080F812E
:1013400018852D813E81A501B201C3010E94BC0711
:10135000F50101900020E9F731977F01EA18FB08B9
:10136000C5010E943B2802C0E12CF12CC701289640
:101370000FB6F894DEBF0FBECDBFDF91CF911F91A6
:101380000F91FF90EF90DF90CF90BF90AF909F9024
:101390008F907F906F905F904F903F902F90089527
:1013A0008F929F92AF92BF92CF92DF92EF92FF9275
:1013B0000F931F93CF93DF93603826E9720728E9D4
:1013C00082079105A4F4611571058105910591F4D9
:1013D000CA01DF91CF911F910F91FF90EF90DF90A5
:1013E000CF90BF90AF909F908F900C941208CBE05D
:1013F000D0E002C0CBE1D0E05A01C090E003D09031
:10140000E1034130510579F488248394912CAA2476
:10141000A394B12C42E5E42E47EFF42E03E010E054
:101420009B01AC010DC024E630E040E050E00E949A
:101430006527450182E5E82E87EFF82E01E010E0F0
:1014400060E370E0CE010E946709DF91CF911F91A8
:101450000F91FF90EF90DF90CF90BF90AF909F9053
:101460008F9008958F929F92AF92BF92CF92DF920A
:10147000EF92FF920F931F93CF93DF934B015C0189
:1014800080E8881686E9980688E9A806B1041CF069
:10149000C8E4D0E002C0C0E5D0E00091E0031091C4
:1014A000E103CC24C394D12CEE24E394F12C2FEF50
:1014B0003FEF4BE352E06CE170E088E490E00E9483
:1014C000BC07C090E003D090E103C501B40124E65D
:1014D00030E040E050E00E94652788248394912CFE
:1014E000AA24A394B12CEE24EA94FE2C01E010E08F
:1014F0006CE170E0CE010E946709DF91CF911F91EE
:101500000F91FF90EF90DF90CF90BF90AF909F90A2
:101510008F900895CF92DF92EF92FF920F931F93D7
:10152000CF93DF93CDB7DEB72A970FB6F894DEBF1F
:101530000FBECDBF2AE0E0E9F1E0DE011196019097
:101540000D922A95E1F7AC01440F551F059730F431
:10155000FA01E252FE4F8081918102C08FEF9FEF2E
:101560002091E0033091E103E1E0F0E0EC0FFD1F9A
:10157000E40FF51F40815181CC24C394D12CEE247B
:10158000E394F12C672B11F08C0102C089019C01BE
:1015900060E070E080E090E00E94BC072A960FB601
:1015A000F894DEBF0FBECDBFDF91CF911F910F9199
:1015B000FF90EF90DF90CF900895CF92DF92EF925F
:1015C000FF920F931F93CF93DF9300D000D000D0F2
:1015D000CDB7DEB7FE01319626E0DF011D922A95D8
:1015E000E9F72FE233E03A83298327E333E03C83B2
:1015F0002B832091E0033091E103880F991FE80FBE
:10160000F91F40815181CC24C394D12CEE24E39462
:10161000F12C672B39F00CE515E760E070E080EC09
:1016200090E007C089012CE535E760E070E080E2DA
:1016300090E00E94BC0726960FB6F894DEBF0FBE5E
:10164000CDBFDF91CF911F910F91FF90EF90DF9071
:10165000CF900895CF93DF93589859985A9897FD53
:1016600037C020E030E0E1E0F0E0AC01022E02C043
:10167000559547950A94E2F740FF09C06BB1AF0159
:10168000022E01C0440F0A94EAF7462B0AC05BB150
:10169000BF01022E01C0660F0A94EAF7462F40955B
:1016A00045234BB92F5F3F4F23303105F1F6EC0155
:1016B000CC0FDD1FC65BDE4F888199810E945E05DD
:1016C00060E070E088819981DF91CF910C94DD0A10
:1016D000DF91CF910895CF92DF92EF92FF920F9317
:1016E0001F93CF93DF93CDB7DEB728970FB6F8944B
:1016F000DEBF0FBECDBF20E132E03E832D8329E166
:1017000032E038872F8320E03AEF3A83298320EEB6
:1017100037E23C832B830091E0031091E103880FB3
:10172000991FE1E0F0E0EC0FFD1FE80FF91F2081A9
:10173000318144815581CC24C394D12CEE24E3948F
:10174000F12C6CE170E080E090E00E94BC072896EC
:101750000FB6F894DEBF0FBECDBFDF91CF911F91C2
:101760000F91FF90EF90DF90CF900895CF92DF928E
:10177000EF92FF920F931F93CF93DF9300D000D08F
:10178000CDB7DEB77C0182E292E09A83898387E25B
:1017900092E09C838B832091DE033091DF0343E052
:1017A000220F331F4A95E1F7F901EE59FE4FE1147C
:1017B000F10429F4648175818681978104C0608178
:1017C0007181828193810E94320A0091E00310911D
:1017D000E103EE0CFF1CFE01EE0DFF1D4181528165
:1017E000CC24C394D12CEE24E394F12C26E437EEE0
:1017F00060E070E080E490E00E94BC070F900F90E2
:101800000F900F90DF91CF911F910F91FF90EF906C
:10181000DF90CF9008958F929F92AF92BF92CF9218
:10182000DF92EF92FF920F931F93CF93DF937C0190
:1018300080E190E00E94A627EC01FC014096119205
:10184000E817F907E1F706E010E09E0141E050E0FB
:10185000B7010F2C000C880B990B0E9495084C01C6
:1018600063E0880C991C6A95E1F78AE0E816F104B8
:1018700029F452E8A52E58EEB52E04C047EAA42E4E
:1018800041EBB42EC7010B97029748F08DE0E816A4
:10189000F1044CF030EEA32E37E2B32E04C025E065
:1018A000A22E25E6B22E0091E0031091E103CC2494
:1018B000C394D12CEE24E394F12C9501AE016EE09B
:1018C00070E080E090E00E94BC070091E00310917E
:1018D000E10395014CE252E06EE070E0C4010E9429
:1018E000BC07CE01DF91CF911F910F91FF90EF9038
:1018F000DF90CF90BF90AF909F908F900C943B283B
:10190000CF92DF92EF92FF920F931F93892B41F0BA
:101910001F910F91FF90EF90DF90CF900C942E08C5
:101920000091E0031091E103CC24C394D12CEE2468
:10193000E394F12C20EE37E24FE252E060E070E0F9
:1019400080E790E00E94BC071F910F91FF90EF90FD
:10195000DF90CF900895CF92DF92EF92FF920F9396
:101960001F93CF93DF93EC010091E0031091E1030B
:10197000CC24C394D12CEE24E394F12C2FEF3FEF31
:1019800042E352E060E770E080E090E00E94BC0734
:101990000091E0031091E1032FEF3FEFAE0160E70C
:1019A00070E080E090E00E94BC078091D4039091A9
:1019B000D503A091D603B091D7038093D003909321
:1019C000D103A093D203B093D30381E090E090932E
:1019D000BD038093BC03DF91CF911F910F91FF90C6
:1019E000EF90DF90CF900895EF92FF920F931F93A7
:1019F000CF93DF938C0180E190E00E94A627EC0159
:101A000080E190E00E94A6277C010E940B0482ECFA
:101A10000E94170480E40E941704C80124E09595F1
:101A200087952A95E1F70E941704802F8F700E94F6
:101A3000170484E98093BC0063E472E0CE010E9445
:101A4000DE28B801110F880B990B0FE010E0970109
:101A50004FEF5FEF0E949508B701CE010E94D32897
:101A6000CE010E94AB0CCE010E943B28C701DF9142
:101A7000CF911F910F91FF90EF900C943B281F93F3
:101A8000CF93DF93182F9B01205C3F4F220F331F12
:101A9000F999FECFE9012196692F6F70C9010E9463
:101AA000ED28F999FECF612FCE010E94ED288EE43A
:101AB00092E0DF91CF911F910C94AB0C6F927F92CB
:101AC0008F929F92AF92BF92CF92DF92EF92FF924E
:101AD0000F931F93CF93DF93EC01419714F0C0E174
:101AE000D0E04E0173E0880C991C7A95E1F75E0115
:101AF0002091CA033091CB0321503109A216B306BD
:101B0000CCF40091E0031091E103CC24C394D12CD8
:101B1000EE24E394F12C20EE37E240E264E570E03D
:101B2000C4010E9419078FEFA81AB80A88E0880E2E
:101B3000911CDECF612C712C40EE842E47E2942E56
:101B4000A12CB12CAC16BD0644F588E0A816B10452
:101B500064F08BE0A816B1042CF432E5832E37EF45
:101B6000932E03C0812C2AEF922E0091E003109156
:101B7000E103CC24C394D12CEE24E394F12C940102
:101B800041E864E570E0C3010E9419078FEFA81ACD
:101B9000B80A88E0680E711CD5CF8091CA03909175
:101BA000CB038C179D07A4F4D093CB03C093CA0337
:101BB0008091D4039091D503A091D603B091D7031F
:101BC0008093B6039093B703A093B803B093B9037F
:101BD000D093B503C093B403DF91CF911F910F91C0
:101BE000FF90EF90DF90CF90BF90AF909F908F903D
:101BF0007F906F900895AF92BF92CF92DF92EF9255
:101C0000FF920F931F93CF93DF93C091CA03D0919C
:101C1000CB0321975E0123E0AA0CBB1C2A95E1F7B8
:101C2000C031D105BCF40091E0031091E103CC2454
:101C3000C394D12CEE24E394F12C20EE37E240E261
:101C400064E570E0C5010E941907219688E0A80E9E
:101C5000B11CE6CF1092CB031092CA03DF91CF9153
:101C60001F910F91FF90EF90DF90CF90BF90AF90BA
:101C70000895CF92DF92EF92FF920F931F93892BDB
:101C800041F41F910F91FF90EF90DF90CF900C9453
:101C90004F080091E0031091E103CC24C394D12CB0
:101CA000EE24E394F12C22E537EF40E652E062E6C1
:101CB00070E080E090E00E94BC071F910F91FF90C0
:101CC000EF90DF90CF9008952F923F924F925F92C6
:101CD0006F927F928F929F92AF92BF92CF92DF923C
:101CE000EF92FF920F931F93CF93DF93CDB7DEB7A1
:101CF00028970FB6F894DEBF0FBECDBF2B013C0175
:101D00004A013A8329831801FC82EB82DE82CD826C
:101D10008091E0039091E1030E94ED0618861F82F6
:101D20000091E0031091E103CC24C394D12CEE2464
:101D3000E394F12C26E437EE43E864E270E08F810F
:101D400098850E9419070091E0031091E10326E4B1
:101D500037EE43E86AE470E08F8198850E941907A6
:101D60008F819885089698878F8380389105C1F672
:101D700042E050E0C301B2010E94D00960E070E08F
:101D8000C4010E948A0A60E070E089819A810E9401
:101D9000DD0A60E070E0C1010E94B60B8B819C817E
:101DA0000E940B0C80E090E00E94800C8D819E814F
:101DB0000E94390E6091E0037091E103C5012896FD
:101DC0000FB6F894DEBF0FBECDBFDF91CF911F914C
:101DD0000F91FF90EF90DF90CF90BF90AF909F90CA
:101DE0008F907F906F905F904F903F902F900C94CA
:101DF0006B0B1F920F920FB60F9211242F933F93EC
:101E00004F935F938F939F93AF93BF9383B18370EF
:101E100090E09C0135952795822793272091DA033E
:101E20003091DB038217930739F1281B390B23709C
:101E30003327225031094091D8035091D903240F00
:101E4000351F3093D9032093D8039093DB038093FD
:101E5000DA038091CC039091CD03A091CE03B09191
:101E6000CF030196A11DB11D8093CC039093CD03A8
:101E7000A093CE03B093CF03D89ABF91AF919F9117
:101E80008F915F914F913F912F910F900FBE0F90C7
:101E90001F9018951F920F920FB60F9211248F93D7
:101EA0009F93AF93BF938091D4039091D503A0915A
:101EB000D603B091D7030196A11DB11D8093D40321
:101EC0009093D503A093D603B093D7031092CC037D
:101ED0001092CD031092CE031092CF03BF91AF9119
:101EE0009F918F910F900FBE0F901F9018950F9399
:101EF0001F934091CC035091CD036091CE0370911C
:101F0000CF038A019B013595279517950795049F67
:101F1000C001059F900D149F900D11241F910F91EA
:101F20000895CF92DF92EF92FF926B017C01809136
:101F3000D8039091D903833091058CF00E94770FDC
:101F4000092E000CAA0BBB0B1092D9031092D803D8
:101F5000BC01CD016C0D7D1D8E1D9F1D19C08E3FD6
:101F60009F4F9CF40E94770F092E000CAA0BBB0B0D
:101F70001092D9031092D803A7019601281B390BA0
:101F80004A0B5B0BCA01B90103C060E070E0CB01F2
:101F9000FF90EF90DF90CF900895805C80937C005D
:101FA0008FE99FE00197F1F700C00000EAE7F0E059
:101FB0008081806480838FE99FE00197F1F700C002
:101FC0000000209178008091790090E0982F882778
:101FD000820F911D089581E090E00E94CD0F8856F8
:101FE00091408A30910514F48AE090E095958795A8
:101FF00095958795089583E090E00E94CD0F25E0A8
:10200000AC01249FC001259F900D1124BC01990FA4
:10201000880B990B0E943A2620E030EC4FE754E4FD
:102020000E9490259B01AC0160E070E080EA90E4A2
:102030000E94902520E030E040E85FE30E942325E5
:102040009B01AC0160E070E08AE794E40E94902577
:1020500020E030EC4BE454E40E94232523EC35EFE0
:102060004CE051E40E9490250E940226CB01089585
:102070008F929F92AF92BF92CF92DF92EF92FF9298
:102080000F931F93CF93DF930E94FB0F893291052B
:1020900034F08D33910534F4C2E5D7EF05C0C0EEBE
:1020A000D7E202C0C2E8D8EEC090E003D090E103CE
:1020B0009C01990F440B550B88248394912CAA24DE
:1020C000A394B12C7E010FEF1FEF6EE070E080E66D
:1020D00090E00E9467090C965C0123E0AA0CBB1CEF
:1020E0002A95E1F70091E0031091E103CC24C39419
:1020F000D12CEE24E394F12C9E0148E86EE070E0D0
:10210000C5010E9419070091E0031091E1039E01AF
:1021100043E46EE070E0C50108960E941907DF9164
:10212000CF911F910F91FF90EF90DF90CF90BF90D4
:10213000AF909F908F900895FF920F931F93CF932E
:10214000DF93660F771F860F971FEC016096CC0F09
:10215000DD1FCC0FDD1FF894CE010E94E528F82E7C
:10216000CE0101960E94E528082FCE0102960E941A
:10217000E528182FCE0103960E94E528482F789471
:102180008F2D90E0A0E0B0E0BA2FA92F982F8827DC
:10219000800F911DA11DB11DDC0199278827212FDA
:1021A00030E0322F2227820F931FA11DB11DBC01E9
:1021B000CD01640F711D811D911DDF91CF911F9184
:1021C0000F91FF9008954F925F926F927F928F923E
:1021D0009F92AF92BF92CF92DF92EF92FF92CF93F6
:1021E000DF93EB01CC0FDD1F8C0F9D1FEC01609680
:1021F000CC0FDD1FCC0FDD1FF8944A01BB2497FCE8
:10220000B094AB2CD4019927882769017A01C81AA8
:10221000D90AEA0AFB0A652F992767FD9095792F5D
:10222000892F4D2C5E2C6F2C772467FC7A94F999BA
:10223000FECFCE010E94ED28F999FECF682DCE0188
:1022400001960E94ED28F999FECF642DCE010296E9
:102250000E94ED28F999FECF6C2DCE0103960E94C5
:10226000ED287894DF91CF91FF90EF90DF90CF90A1
:10227000BF90AF909F908F907F906F905F904F90A6
:10228000089507960E94E528282F30E0823010F448
:10229000C90108958FEF9FEF08950796F999FECF32
:1022A0000C94ED2880E090E00E94E528282F30E093
:1022B000853010F4C90108958FEF9FEF0895BF9204
:1022C000CF92DF92EF92FF920F931F93CF93DF9302
:1022D00000D000D0CDB7DEB7C82EB92E7B01D42EEA
:1022E000A9019801682F80E090E029833A834B830D
:1022F0005C830E94ED28B7018C2D9B2D0E944D110F
:102300006D2D86E090E00E94ED2829813A814B8175
:102310005C816C2D7B2DC7010F900F900F900F905B
:10232000DF91CF911F910F91FF90EF90DF90CF90B1
:10233000BF900C94E310CF93DF93CDB7DEB728970F
:102340000FB6F894DEBF0FBECDBF88E0EAE9F1E03A
:10235000DE01119601900D928A95E1F780E090E000
:102360000E94CD0FFE01319620E030E04191519165
:10237000BA01695071092F5F3F4F861797073CF0EC
:10238000475F5F4F4817590714F0C90105C0243053
:10239000310561F780E090E028960FB6F894DEBF33
:1023A0000FBECDBFDF91CF910895CF93DF93E09122
:1023B000DE03F091DF03EE0FFF1FE254FC4FC081FC
:1023C000D18181E792E00E94AB0CCE010E94F40C17
:1023D0000E949B11892BE1F70E949B11009789F5C0
:1023E0008091D8039091D9031816190694F4CF3F21
:1023F0008FE0D8072CF40E94770FC80FD91F02C0B6
:10240000CFEFDFE01092D9031092D803CE010E94E3
:10241000F40C8091D8039091D90397FFDDCF1C165F
:102420001D062CF40E94770FC81BD90B02C0C0E018
:10243000D0E01092D9031092D803CE010E94F40C80
:10244000CBCF029781F46091DE037091DF03FB0133
:10245000EE0FFF1FE254FC4FD183C083CE01DF910A
:10246000CF910C943F0DDF91CF9108952F923F9221
:102470004F925F926F927F928F929F92AF92BF9294
:10248000CF92DF92EF92FF920F931F93CF93DF9340
:10249000CDB7DEB760970FB6F894DEBF0FBECDBFE5
:1024A00081E190E00E94A6273C01FC014196D30106
:1024B0001D92A817B907E1F7C301409620E22193C6
:1024C000E817F907E1F7E091DE03F091DF0323E07D
:1024D000EE0FFF1F2A95E1F79F012E593E4FD901BC
:1024E0004D915D916D917C9113974D835E836F83C8
:1024F000788714964D915D916D917C9117974987DE
:102500005A876B877C878D819E81AF81B8854817FC
:1025100059076A077B0784F039852A859B858C8556
:102520004D815E816F81788549875A876B877C876B
:102530003D832E839F8388878091E0039091E10300
:102540000E94ED06CC24C394D12CEE24E394F12C0C
:102550000CE515E72FEF3FEFA3016EE070E080E0A0
:1025600090E00E94BC072FEF3FEF40E852E06EE0A2
:1025700070E080E190E00E94BC07C3010E943B280C
:102580000E949B11892BE1F70E944F0849855A85CB
:102590006B857C8549835A836B837C8389819A818F
:1025A000AB81BC812D813E814F8158858217930775
:1025B000A407B5075CF70E949B111C01E091540130
:1025C000F0915501EE0FFF1FEE0FFF1FEA5AFE4F6D
:1025D00080819181A281B38129813A814B815C8183
:1025E000280F391F4A1F5B1FCA01B9010E946203ED
:1025F000C090E003D090E10369817A818B819C8156
:1026000024E630E040E050E00E946527882483946F
:10261000912CAA24A394B12CEE24EA94FE2C01E080
:1026200010E068E370E088E290E00E9467090E9491
:10263000EB0F9E878D870E945E0D80E090E02091D9
:102640000001309101014D855E852417350794F016
:102650002091D4033091D5034091D6035091D703F4
:102660002D873E874F87588B892B09F4C8C020E0FF
:1026700030E0ACC02114310459F7892B21F48CE8E7
:1026800092E00E94AB0C0E94EB0F9E878D870E9408
:102690005E0D0E949B111C0169817A818B819C8156
:1026A0000E94910F2B013C01672B682B692BB9F11C
:1026B000E0915401F0915501EE0FFF1FEE0FFF1F47
:1026C000EA5AFE4F80819181A281B381BC01CD0184
:1026D000640D751D861D971D0E946203C090E00366
:1026E000D090E103C301B20124E630E040E050E0C5
:1026F0000E94652788248394912CAA24A394B12C4A
:10270000EE24EA94FE2C01E010E068E370E088E239
:1027100090E00E94670949825A826B827C8281E044
:1027200090E08DCF232B21F485E992E00E94AB0C41
:102730000E949B111C01892B21F01D861E861F867D
:10274000188A69817A818B819C810E94910F2B016B
:102750003C01672B682B692BB9F1E0915401F09192
:102760005501EE0FFF1FEE0FFF1FEA5AFE4F80814B
:102770009181A281B381BC01CD01640D751D861DBF
:10278000971D0E946203C090E003D090E103C30153
:10279000B20124E630E040E050E00E946527882442
:1027A0008394912CAA24A394B12CEE24EA94FE2CB9
:1027B00001E010E068E370E088E290E00E946709C1
:1027C00049825A826B827C8221E030E04091D403BE
:1027D0005091D5036091D6037091D7038D859E8566
:1027E000AF85B8894D96A11DB11D84179507A60721
:1027F000B7070CF097CF80EA92E00E94AB0C69819A
:102800007A818B819C810E94910F2B013C01672B67
:10281000682B692BB9F1E0915401F0915501EE0F4D
:10282000FF1FEE0FFF1FEA5AFE4F80819181A281A8
:10283000B381BC01CD01640D751D861D971D0E94DD
:102840006203C090E003D090E103C301B20124E62B
:1028500030E040E050E00E94652788248394912C6A
:10286000AA24A394B12CEE24EA94FE2C01E010E0FB
:1028700068E370E088E290E00E94670949825A822A
:102880006B827C8232E02316310489F043E0241607
:10289000310491F069817A818B819C816C597F4FE1
:1028A0008F4F9F4F69837A838B839C8377CE698117
:1028B0007A818B819C8104C060E070E080E090E0D0
:1028C00060960FB6F894DEBF0FBECDBFDF91CF91FB
:1028D0001F910F91FF90EF90DF90CF90BF90AF903E
:1028E0009F908F907F906F905F904F903F902F9030
:1028F00008952F923F924F925F926F927F928F92A4
:102900009F92AF92BF92CF92DF92EF92FF920F937E
:102910001F93CF93DF9300D000D0CDB7DEB781E116
:1029200090E00E94A6273C01FC014196D3011D9234
:10293000A817B907E1F7C301409620E22193E817F1
:10294000F907E1F78091E0039091E1030E94ED0621
:10295000CC24C394D12CEE24E394F12C0CE515E7A0
:102960002FEF3FEFA3016EE070E080E090E00E9467
:10297000BC072FEF3FEF40E852E06EE070E080E1EF
:1029800090E00E94BC07C3010E943B280E949B115B
:10299000892BE1F70E944F0824E6222E312C412C8E
:1029A000512C1C821B820E949B113C01E091DE0392
:1029B000F091DF03EE0FFF1F2B813C81E20FF31F2D
:1029C000EE0FFF1FEE0FFF1FEE59FE4FA0915401B7
:1029D000B0915501AA0FBB1FAA0FBB1FAA5ABE4F29
:1029E00040815181628173818D919D910D90BC9147
:1029F000A02D8A019B01080F191F2A1F3B1FC90127
:102A0000B8010E946203C090E003D090E103E0911E
:102A1000DE03F091DF03EE0FFF1F2B813C81E20FFD
:102A2000F31FEE0FFF1FEE0FFF1FEE59FE4F6081E9
:102A3000718182819381A20191010E94652788247E
:102A40008394912CAA24A394B12CEE24EA94FE2C16
:102A500001E010E068E370E088E290E00E9467091E
:102A60000E94EB0F9A8389830E945E0D0091E00320
:102A70001091E103CC24C394D12CEE24E394F12CE7
:102A800022E537EF4B814F5B68E370E088E090E030
:102A90000E94190780E090E020910001309101012F
:102AA00049815A81241735075CF0C090D403D09037
:102AB000D503E090D603F090D70320E030E00BC1BF
:102AC0006114710491F7892B21F48CE892E00E9443
:102AD000AB0C0E94EB0F9A8389830E945E0D0E94CB
:102AE0009B113C01E091DE03F091DF03EE0FFF1F2D
:102AF0004B815C81E40FF51FEE0FFF1FEE0FFF1FF0
:102B0000EE59FE4F60817181828193810E94910F05
:102B1000611571058105910509F453C0E091DE034B
:102B2000F091DF03EE0FFF1F0B811C81E00FF11FFF
:102B3000EE0FFF1FEE0FFF1FEE59FE4F60837183F4
:102B400082839383E0915401F0915501EE0FFF1FB2
:102B5000EE0FFF1FEA5AFE4FC080D180E280F38063
:102B60006C0D7D1D8E1D9F1D0E946203C090E003B1
:102B7000D090E103E091DE03F091DF03EE0FFF1F41
:102B8000E00FF11FEE0FFF1FEE0FFF1FEE59FE4F7C
:102B90006081718182819381A20191010E946527E8
:102BA00088248394912CAA24A394B12CEE24EA9433
:102BB000FE2C01E010E068E370E088E290E00E9403
:102BC000670981E090E068CF232B21F485E992E04A
:102BD0000E94AB0C0E949B113C01892B19F0C12C67
:102BE000D12C7601E091DE03F091DF03EE0FFF1FA1
:102BF0008B819C81E80FF91FEE0FFF1FEE0FFF1F67
:102C0000EE59FE4F60817181828193810E94910F04
:102C1000611571058105910509F45BC0E091DE0342
:102C2000F091DF03EE0FFF1F0B811C81E00FF11FFE
:102C3000EE0FFF1FEE0FFF1FEE59FE4F60837183F3
:102C400082839383E0915401F0915501EE0FFF1FB1
:102C5000EE0FFF1FEA5AFE4FC080D180E280F38062
:102C60006C0D7D1D8E1D9F1D0E946203C090E003B0
:102C7000D090E103E091DE03F091DF03EE0FFF1F40
:102C8000E00FF11FEE0FFF1FEE0FFF1FEE59FE4F7B
:102C90006081718182819381A20191010E946527E7
:102CA00088248394912CAA24A394B12CEE24EA9432
:102CB000FE2C01E010E068E370E088E290E00E9402
:102CC0006709C090D403D090D503E090D603F0906C
:102CD000D70321E030E04091D4035091D5036091B7
:102CE000D6037091D703D701C6014D96A11DB11D22
:102CF00084179507A607B7070CF066CFE091DE03AF
:102D0000F091DF03EE0FFF1F2B813C81E20FF31FD9
:102D1000EE0FFF1FEE0FFF1FEE59FE4F6081718116
:102D2000828193810E94910F611571058105910542
:102D300009F455C0E091DE03F091DF03EE0FFF1FB1
:102D40004B815C81E40FF51FEE0FFF1FEE0FFF1F9D
:102D5000EE59FE4F6083718382839383E091540127
:102D6000F0915501EE0FFF1FEE0FFF1FEA5AFE4FC5
:102D7000C080D180E280F3806C0D7D1D8E1D9F1D73
:102D80000E946203C090E003D090E103E091DE0373
:102D9000F091DF03EE0FFF1F8B819C81E80FF91F7D
:102DA000EE0FFF1FEE0FFF1FEE59FE4F6081718186
:102DB00082819381A20191010E94652788248394D6
:102DC000912CAA24A394B12CEE24EA94FE2C01E0C9
:102DD00010E068E370E088E290E00E94670992E00A
:102DE0006916710429F0E3E06E167104C1F12CC07C
:102DF0000B811C81C801012E000CAA0BBB0BAC017E
:102E0000BD018CE1440F551F661F771F8A95D1F7CE
:102E10008091DE039091DF03880F991F800F911F2F
:102E2000880F991F880F991F8E599E4FFC01808132
:102E30009181A281B3818A019B01080F191F2A1F6A
:102E40003B1FC901B8010EC02B813C8121303105E7
:102E500009F4A7CD01E010E01C830B83A4CD60E052
:102E600070E0CB010F900F900F900F90DF91CF91FA
:102E70001F910F91FF90EF90DF90CF90BF90AF9098
:102E80009F908F907F906F905F904F903F902F908A
:102E900008958F929F92AF92BF92CF92DF92EF925E
:102EA000FF920F931F93CF93DF9381E190E00E94F5
:102EB000A627EC01FC014196DE011D92A817B90777
:102EC000E1F7CE01409620E22193E817F907E1F7F8
:102ED0008091E0039091E1030E94ED06CC24C3941D
:102EE000D12CEE24E394F12C0CE515E72FEF3FEF06
:102EF000AE016EE070E080E090E00E94BC072FEF32
:102F00003FEF4CEA52E06EE070E088E090E00E9413
:102F1000BC07CE010E943B288091000190910101E5
:102F20000E945E0D0E944F08C090E003D090E10324
:102F30002091000130910101032E000C440B550B30
:102F400088248394912CAA24A394B12CEE24EA948F
:102F5000FE2C0FEF1FEF68E370E088E290E00E9424
:102F6000670980910001909101010E945E0D80919E
:102F7000D8039091D90303970CF447C080910001C6
:102F8000909101018C3091052CF4019690930101F0
:102F90008093000180910001909101010E945E0DDB
:102FA0000091E0031091E103CC24C394D12CEE24D2
:102FB000E394F12C2FEF3FEF4EE352E068E370E033
:102FC00088E290E00E94BC07C090E003D090E1034B
:102FD0002091000130910101032E000C440B550B90
:102FE00088248394912CAA24A394B12CEE24EA94EF
:102FF000FE2C0FEF1FEF68E370E088E290E00E9484
:1030000067091092D9031092D8038091D803909148
:10301000D9038E3F9F4FB4F480910001909101013C
:10302000181619062CF40197909301018093000162
:1030300080910001909101010E945E0D1092D903D0
:103040001092D8030E949B11009709F490CF029729
:1030500091F4609100018AE890E0DF91CF911F9197
:103060000F91FF90EF90DF90CF90BF90AF909F9027
:103070008F900C94ED28DF91CF911F910F91FF90CD
:10308000EF90DF90CF90BF90AF909F908F9008957A
:103090002F923F924F925F926F927F928F929F9268
:1030A000AF92BF92CF92DF92EF92FF920F931F9356
:1030B000CF93DF93CDB7DEB72A970FB6F894DEBF74
:1030C0000FBECDBF7A87698758874F8329019A83BE
:1030D00089831C01E3E0220C331CEA95E1F7F3E05D
:1030E000440F551FFA95E1F75C834B838EE0869F72
:1030F0009001879F300D11243E832D835B01812C2D
:10310000912C4A145B0444F16D807E80680C791C1C
:103110000091E0031091E103CC24C394D12CEE2460
:10312000E394F12C2FEF3FEF42E8B301C1010E947D
:1031300019070091E0031091E1032FEF3FEF42E800
:10314000B3018B819C810E9419073FEFA31AB30A38
:103150004EE0840E911CD5CF89849A8451E0851A63
:1031600091088EE0889DF001899DF00D1124FE8369
:10317000ED83FFEF4F1A5F0A849D3001859D700C2F
:103180001124A12CB12CE981FA813196FA83E983CB
:10319000F8E0AF0EB11C0091E0031091E10329812A
:1031A0003A814F81588524173507FCF4CC24C39409
:1031B000D12CEE24E394F12C2FEF3FEF43E86D8107
:1031C0007E81C1018A0D9B1D9A8789870E941907FC
:1031D0000091E0031091E1032FEF3FEF43E8B301CB
:1031E00089859A850E941907CECF8EE0B82EB49CAF
:1031F0003001B59C700C1124CC24C394D12CEE2446
:10320000E394F12C2FEF3FEF44E8B301C1010E949A
:1032100019070091E0031091E1032FEF3FEF45E81C
:10322000B3018B819C810E941907B89C3001B99C25
:10323000700C11240091E0031091E1032FEF3FEF98
:1032400046E8B301C1010E9419070091E003109103
:10325000E1032FEF3FEF47E8B3018B819C810E9490
:1032600019072A960FB6F894DEBF0FBECDBFDF91C7
:10327000CF911F910F91FF90EF90DF90CF90BF9073
:10328000AF909F908F907F906F905F904F903F9006
:103290002F9008958F929F92AF92BF92CF92DF921C
:1032A000EF92FF920F931F93CF93DF934C018B010B
:1032B000FC0101900020E9F78E1B9F0B41965C01F9
:1032C000B694A79481E190E00E94A627EC01FC014E
:1032D0004196DE011D92A817B907E1F7CE0140968D
:1032E00020E22193E817F907E1F78091E00390913C
:1032F000E1030E94ED0698012D5F3F4F4DE050E045
:1033000063E070E084E090E00E944818CC24C3940D
:10331000D12CEE24E394F12C0CE515E72FEF3FEFD1
:10332000AE016EE070E080E090E00E94BC072FEFFD
:103330003FEFA4016EE070E0C501E3E0880F991F44
:10334000EA95E1F70E94BC07CE01DF91CF911F9172
:103350000F91FF90EF90DF90CF90BF90AF909F9034
:103360008F900C943B28CF92DF92EF92FF920F93B5
:103370001F93452B41F01F910F91FF90EF90DF902D
:10338000CF900C947008AC010091E0031091E10320
:103390009B012D5F3F4F8EE0829FB001839F700D98
:1033A0001124CC24C394D12CEE24E394F12C2FEFE0
:1033B0003FEF88E290E00E94BC071F910F91FF90C1
:1033C000EF90DF90CF9008958F929F92AF92BF922F
:1033D000CF92DF92EF92FF920F931F93CF93DF93E1
:1033E000CDB7DEB7EC970FB6F894DEBF0FBECDBFFA
:1033F0005B012CE3E2EAF1E0DE01119601900D920F
:103400002A95E1F72AE0289F6001299FD00C11241A
:1034100000E010E09C01220F331FA9014E5F5E4FB8
:103420007A0125E0289F4001299F900C1124F70183
:1034300080819181801791074CF10A151B0589F451
:10344000F401E00FF11FEE0FFF1F81E090E08C0F01
:103450009D1FE80FF91FB801808191810E947008BB
:1034600012C0F801EE0FFF1FEC0DFD1D41E050E012
:103470004C0F5D1FE40FF51F40E050E0B801808164
:1034800091810E94B3190F5F1F4FD1CFEC960FB6F9
:10349000F894DEBF0FBECDBFDF91CF911F910F918A
:1034A000FF90EF90DF90CF90BF90AF909F908F9064
:1034B00008952F923F924F925F926F927F928F92D8
:1034C0009F92AF92BF92CF92DF92EF92FF920F93B3
:1034D0001F93CF93DF9300D000D0CDB7DEB73C0170
:1034E0007A8369832A0141E050E0B2010E94E41925
:1034F0000E949B116C014B825C82F4E62F2E312CD2
:10350000412C512CC114D10409F0B8C08091D803CA
:103510009091D903039704F140E050E06B817C81E6
:10352000C3010E94E4190B811C8129813A81021791
:1035300013072CF40F5F1F4F1C830B8302C01C82E8
:103540001B8241E050E06B817C81C3010E94E41941
:103550001092D9031092D8038091D8039091D90387
:103560008E3F9F4FFCF440E050E06B817C81C301B3
:103570000E94E4198B819C811816190624F4019786
:103580009C838B8304C0E981FA81FC83EB8341E057
:1035900050E06B817C81C3010E94E4191092D90331
:1035A0001092D803F1E06F16710409F05BC0E0914E
:1035B000DE03F091DF03EE0FFF1F0B811C81E00F94
:1035C000F11FEE0FFF1FEE0FFF1FEE59FE4FA091F0
:1035D0005401B0915501AA0FBB1FAA0FBB1FAA5AD5
:1035E000BE4F40815181628173818D919D910D907B
:1035F000BC91A02D8A019B01080F191F2A1F3B1F98
:10360000C901B8010E946203C090E003D090E103B9
:10361000E091DE03F091DF03EE0FFF1F2B813C8171
:10362000E20FF31FEE0FFF1FEE0FFF1FEE59FE4FCD
:103630006081718182819381A20191010E9465273D
:1036400088248394912CAA24A394B12CEE24EA9488
:10365000FE2C01E010E064E570E080E290E00E9462
:10366000670908C032E06316710421F48B819C81E4
:103670000E945E050E949B116C0144CF8091540111
:10368000909155010E945E050E949B11892BE1F7E4
:1036900082E0C816D10431F093E0C916D10429F4B0
:1036A0008DEF04C08B819C8102C08FEF9FEF0F9044
:1036B0000F900F900F90DF91CF911F910F91FF907E
:1036C000EF90DF90CF90BF90AF909F908F907F90C2
:1036D0006F905F904F903F902F9008950E949B11A4
:1036E000892BE1F7609102017091030183E493E07B
:1036F0000E944A194091DE035091DF036FEF7FEF84
:1037000080E090E00E94E4194091DE035091DF03D5
:10371000609102017091030180E090E00E94591ACB
:1037200097FD05C0BC01990F880B990B089503966E
:1037300009F4D4C00E949B11892BE1F76091040128
:10374000709105018CE493E00E944A194091E203D4
:103750005091E3036FEF7FEF81E090E00E94E41966
:103760004091E2035091E3036091040170910501DF
:1037700081E090E00E94591A97FD04C0BC01665F89
:103780007F4FA0C0039609F4A9C00E949B11892B0A
:10379000E1F7609106017091070187E593E00E94CF
:1037A0004A1940915401509155016FEF7FEF82E02B
:1037B00090E00E94E41940915401509155016091AC
:1037C00006017091070182E090E00E94591A97FD6E
:1037D00004C0BC016C5E7F4F75C0039609F47EC0C7
:1037E0000E949B11892BE1F76091080170910901FA
:1037F00080E693E00E944A1941E050E060E070E00A
:1038000083E090E00E94E419609108017091090141
:1038100040E050E083E090E00E94591A97FD04C018
:10382000BC01625E7F4F4EC0039609F457C00E94F0
:103830009B11892BE1F760910A0170910B018AE6D7
:1038400093E00E944A1941E050E060E070E084E0BB
:1038500090E00E94E4194091BA035091BB0360913B
:103860000A0170910B0184E090E00E94591A97FDC3
:1038700004C0BC01685D7F4F25C0039679F10E94AA
:103880009B11892BE1F760910C0170910D0180E78C
:1038900093E00E944A1940E050E06FEF7FEF85E02F
:1038A00090E00E94E41960910C0170910D0140E0DC
:1038B00050E085E090E00E94591A97FD08C0BC01D5
:1038C0006E5C7F4F072E000C880B990B08950396B2
:1038D00029F06EEF7FEF8FEF9FEF08956DEF7FEF91
:1038E0008FEF9FEF0895AF92BF92CF92DF92EF924A
:1038F000FF920F931F93CF93DF93EC018091E0032E
:103900009091E1030E94ED06A12CB12CCC24C3942C
:10391000D12CEE24E394F12C0CE515E72FEF3FEFCB
:1039200040E26EE070E0C5010E94190728E0A20E97
:10393000B11C80E8A816B10449F72FEF3FEF47E725
:1039400053E06EE070E080E190E00E94BC072097B9
:1039500039F409E11CE32FEF3FEF43E853E00CC0DB
:10396000CC24C394D12CEE24E394F12C09E11CE384
:103970002FEF3FEF4DE853E06CE170E088E190E01D
:103980000E94BC070E949B11892BE1F7E091DE03A6
:10399000F091DF03EE0FFF1F8091E2039091E303AC
:1039A000E80FF91FEE0FFF1FEE0FFF1FEE59FE4F3E
:1039B0008E01000F111F000F111FE801CA5ADE4FC0
:1039C000408151816281738188819981AA81BB8103
:1039D0006A017B01C80ED91EEA1EFB1EC701B60193
:1039E0000E946203488159816A817B818AE290E06A
:1039F0000E94C104688179818A819B8141E050E005
:103A00000E94D0098091D8039091D9030397E4F0E4
:103A1000488159816A817B81465F5F4F6F4F7F4F3D
:103A2000488359836A837B831092D9031092D80309
:103A30008AE290E00E94C104688179818A819B8139
:103A400041E050E00E94D0098091D8039091D903C1
:103A50008E3F9F4FE4F4488159816A817B814A50AF
:103A6000510961097109488359836A837B831092E4
:103A7000D9031092D8038AE290E00E94C1046881C1
:103A800079818A819B8141E050E00E94D0090E94A7
:103A90009B115C01892B09F4B5CF0E949B11892BE6
:103AA000E1F782E0A816B10441F4E801CA5ADE4FFA
:103AB000688179818A819B8103C060E070E0CB01DD
:103AC000DF91CF911F910F91FF90EF90DF90CF90FA
:103AD000BF90AF900895CF93DF9300D000D000D077
:103AE000CDB7DEB70091D4031091D5032091D60352
:103AF0003091D70309831A832B833C831092E1030F
:103B00001092E0038CE384B92D9A8FE99FE001972E
:103B1000F1F700C000002D988FEF8AB981E088B9D5
:103B200083E085B983E880937A0080E090E00E948A
:103B3000CD0F8091680081608093680080916B0058
:103B4000836080936B00109280008DE080938100F1
:103B500086E0809389008BE18093880080916F00DC
:103B6000826080936F008FEF9FEF0E942A0B80E1AD
:103B700090E00E94A6279093DD038093DC0380E011
:103B800090E0E091DC03F091DD03E80FF91F108273
:103B9000019680319105A9F70E9402040E946D05EB
:103BA0000E94AF050E943D040E9452119093DF03D2
:103BB0008093DE03019631F482E090E09093DF037E
:103BC0008093DE030091DE031091DF03C8010E94A1
:103BD00041119093E3038093E203019621F4109244
:103BE000E3031092E203E090E203F090E303B801F4
:103BF000C7010E949C10000F111F0E0D1F1D000F0A
:103C0000111F000F111FF801EE59FE4F60837183E1
:103C1000828393830091DE031091DF038091E2039E
:103C20009091E3037801EE0CFF1C8E0D9F1D880F11
:103C3000991F880F991FFC01EE59FE4F6F0160819B
:103C4000718182819381A8010E94D103892B81F423
:103C5000F801EE0FFF1FEE0FFF1FEA5CFE4F8081A1
:103C60009181A281B381F60180839183A283B38382
:103C7000F701E65BFE4F808191819093550180931F
:103C80005401C8010E942A0B8AE890E00E94E528AE
:103C9000282F30E030930101209300018D3030F067
:103CA00088E090E0909301018093000186E090E02D
:103CB0000E94CD0FBC01990F880B990B0E943A26E8
:103CC00020E030E040EA50E40E94C62620E030E0E8
:103CD00040E85AE30E94C62620E030E040EC50E481
:103CE0000E94C62620E030E040E251E40E94C62651
:103CF0000E9402262B013C014B01E091DE03F09172
:103D0000DF03EE0FFF1F8091E2039091E303E80FC2
:103D1000F91FEE0FFF1FEE0FFF1FEE59FE4FA09190
:103D20005401B0915501AA0FBB1FAA0FBB1FAA5A7D
:103D3000BE4F40815181628173818D919D910D9023
:103D4000BC91A02D8A019B01080F191F2A1F3B1F40
:103D5000C901B8010E946203E091DE03F091DF0324
:103D6000EE0FFF1F8091E2039091E303E80FF91F2C
:103D7000EE0FFF1FEE0FFF1FEE59FE4FA0915401F3
:103D8000B0915501AA0FBB1FAA0FBB1FAA5ABE4F65
:103D900040815181628173818D919D910D90BC9183
:103DA000A02D8A019B01080F191F2A1F3B1FC90163
:103DB000B8010E94620380915401909155010E94C4
:103DC0005E0540E050E0BA0182E390E00E94C10449
:103DD00040E050E0BA018AE390E00E94C1044091C3
:103DE000DE035091DF030091E2031091E303A09002
:103DF000BA03B090BB032091540130915501FA01F0
:103E0000EE0FFF1FE00FF11FEE0FFF1FEE0FFF1F62
:103E1000EE59FE4F6081718182819381C12CD12C3A
:103E200072010E94640E0EEB13E0E12C28E0F22EEA
:103E3000C6010E943203D8018D939C93813090413A
:103E400018F0F801F182E082FFEFCF1ADF0A0E5F6F
:103E50001F4F25E0C216D10459F7E091DE03F0911F
:103E6000DF03EE0FFF1FE254FC4F808191810E941F
:103E7000F40C789487E993E00E94AB0C1E821D82BB
:103E80004EEC442E55245A94652C752C212C312C43
:103E9000E091DE03F091DF03EE0FFF1F8091E2035C
:103EA0009091E303E80FF91FEE0FFF1FEE0FFF1FC6
:103EB000EE59FE4F60817181828193810E94910F42
:103EC000611571058105910509F444C0E091DE0397
:103ED000F091DF03EE0FFF1F2091E2033091E30327
:103EE000E20FF31FEE0FFF1FEE0FFF1FEE59FE4F05
:103EF0006083718382839383E0915401F091550133
:103F0000EE0FFF1FEE0FFF1FEA5AFE4F00811181D7
:103F100022813381600F711F821F931F0E946203F1
:103F2000E091DE03F091DF03EE0FFF1F8091E203CB
:103F30009091E303E80FF91FEE0FFF1FEE0FFF1F35
:103F4000EE59FE4F608171818281938142E050E0A1
:103F50000E94D0090E949B118130910509F078C21E
:103F60006091DE037091DF038091E2039091E3039F
:103F7000FB01EE0FFF1FE80FF91FEE0FFF1FEE0F03
:103F8000FF1FEE59FE4F20813181428153810E94F3
:103F9000E3108091DE039091DF036091E203709162
:103FA000E303FC01EE0FFF1FE60FF71FEE0FFF1FED
:103FB000EE0FFF1FEE59FE4F0081118122813381E8
:103FC00040915401509155010E945F110E949B1134
:103FD000892BE1F74091E2035091E303E091DE0386
:103FE000F091DF03EE0FFF1FE40FF51FEE0FFF1F31
:103FF000EE0FFF1FEE59FE4F608171818281938128
:104000000E946E1B6E31710509F478C10CF042C03C
:104010006C3071054CF46A3071050CF0ECC0653001
:10402000710508F458C0EFC164517109623071051F
:1040300008F0E9C17093550160935401A091DE032B
:10404000B091DF03AA0FBB1F8091E2039091E303BD
:10405000A80FB91FAA0FBB1FAA0FBB1FAE59BE4F97
:10406000660F771F660F771FFB01EA5AFE4F4D91CF
:104070005D916D917C9180819181A281B3818A0152
:104080009B01080F191F2A1F3B1FC901B8010E947D
:104090006203B3C16A3271057CF4683271050CF0B9
:1040A00089C16F31710509F439C16032710509F0B8
:1040B000AAC10E944917A7C1623371050CF4A3C1BC
:1040C000643371050CF483C16433710509F09BC13D
:1040D0000E94D51198C17093DF036093DE03CB017A
:1040E0000E942A0B0091DE031091DF03B80180913A
:1040F000E2039091E3030E949C10A8010E94D10367
:104100000091DE031091DF03E090E203F090E303FF
:10411000892BA1F0B801C7010E949C10F801EE0F95
:10412000FF1FEE0DFF1DEE0FFF1FEE0FFF1FEE59DD
:10413000FE4F60837183828393831BC0F801EE0F6F
:10414000FF1FEE0DFF1DEE0FFF1FEE0FFF1FEE59BD
:10415000FE4F000F111F000F111FD801AA5CBE4FA8
:104160008D919D910D90BC91A02D80839183A28310
:10417000B383E091DE03F091DF03EE0FFF1F809128
:10418000E2039091E303E80FF91FEE0FFF1FEE0F1C
:10419000FF1FEE59FE4FA0915401B0915501AA0F97
:1041A000BB1FAA0FBB1FAA5ABE4F4081518162811B
:1041B00073818D919D910D90BC91A02D8A019B01E1
:1041C000080F191F2A1F3B1FC901B8010E94620373
:1041D0006091DE0380E090E00E94ED28E091DE0334
:1041E000F091DF03EE0FFF1FE254FC4F80819181BD
:1041F0000E94F40C08C1CB010A979093E3038093CB
:10420000E20360E070E00E94B60BE090DE03F09005
:10421000DF030091E2031091E303B701C8010E949C
:104220009C10F701EE0FFF1FE00FF11FEE0FFF1FB5
:10423000EE0FFF1FEE59FE4F6083718382839383DD
:104240000091DE031091DF03A090E203B090E3033E
:104250006801CC0CDD1C7601EA0CFB1CC701880F41
:10426000991F880F991F9C012E593E4F7901D90142
:104270006D917D918D919C91A8010E94D103892B14
:1042800081F4000F111F000F111FF801EA5CFE4FAF
:1042900080819181A281B381F70180839183A28380
:1042A000B383F601EA0DFB1DEE0FFF1FEE0FFF1F9C
:1042B000EE59FE4FA0915401B0915501AA0FBB1FBA
:1042C000AA0FBB1FAA5ABE4F4081518162817381E0
:1042D0008D919D910D90BC91A02D8A019B01080F9D
:1042E000191F2A1F3B1FC901B8010E946203609178
:1042F000E20385E090E00E94ED2885C00E9436121E
:104300006B017C010091DE031091DF03A8010E9484
:10431000D103892B09F477C0F80123C00E947914D6
:104320006B017C011FE0F122C114D104E104F1040E
:1043300009F469C0DC01CB010CE1B595A79597950F
:1043400087950A95D1F79093E3038093E2036091F8
:10435000E0037091E1030E94B60BE091DE03F0915F
:10436000DF03EE0FFF1F8091E2039091E303E80F5C
:10437000F91FEE0FFF1FEE0FFF1FEE59FE4FC08219
:10438000D182E282F382E0915401F0915501EE0F67
:10439000FF1FEE0FFF1FEA5AFE4F80819181A2811D
:1043A000B381BC01CD016C0D7D1D8E1D9F1D0E9432
:1043B000620329C0CB0188979093BB038093BA0313
:1043C0006091E0037091E1030E946B0B1CC08B01B4
:1043D00002531109C8010E94731C1616170618060D
:1043E00019068CF4000F111F000F111FF801EA5A73
:1043F000FE4F6083718382839383809154019091F7
:1044000055010E945E054091DE035091DF0300914B
:10441000E2031091E303A090BA03B090BB03209194
:10442000540130915501FA01EE0FFF1FE00FF11F0B
:10443000EE0FFF1FEE0FFF1FEE59FE4F60817181DF
:1044400082819381C12CD12C74010E94640E12C10F
:104450008230910531F50E949B11892BE1F7809103
:10446000DE039091DF036091E2037091E303FC01AE
:10447000EE0FFF1FE60FF71FEE0FFF1FEE0FFF1FE0
:10448000EE59FE4F00811181228133814091540108
:10449000509155010E945F1188EA93E00E94AB0C95
:1044A000E9C08330910539F40E949B11892BE1F713
:1044B0000E94D511DFC0049709F0DCC00E949B1157
:1044C000892BE1F78091DE039091DF038430910521
:1044D00034F401969093DF038093DE0304C01092BE
:1044E000DF031092DE0360E070E08091DE039091C4
:1044F000DF030E948A0A8091DE039091DF030E940D
:104500002A0B80E090E0E091DC03F091DD03E80FFE
:10451000F91F1082019680319105A9F7E090DE0322
:10452000F090DF030091E2031091E303B701C801AB
:104530000E949C10F701EE0FFF1FE00FF11FEE0F1E
:10454000FF1FEE0FFF1FEE59FE4F608371838283C2
:1045500093830091DE031091DF03A090E203B090FB
:10456000E3036801CC0CDD1C7601EA0CFB1CC701DF
:10457000880F991F880F991F9C012E593E4F790172
:10458000D9016D917D918D919C91A8010E94D103DB
:10459000892B81F4000F111F000F111FF801EA5C35
:1045A000FE4F80819181A281B381F7018083918345
:1045B000A283B383F601EA0DFB1DEE0FFF1FEE0F82
:1045C000FF1FEE59FE4FA0915401B0915501AA0F63
:1045D000BB1FAA0FBB1FAA5ABE4F408151816281E7
:1045E00073818D919D910D90BC91A02D8A019B01AD
:1045F000080F191F2A1F3B1FC901B8010E9462033F
:1046000082E090E00E941208E091DE03F091DF0367
:10461000EE0FFF1F8091E2039091E303E80FF91F73
:10462000EE0FFF1FEE0FFF1FEE59FE4F60817181ED
:104630008281938142E050E00E94D0096091E003C2
:104640007091E1038091E2039091E3030E94B60B25
:104650006091DE0380E090E00E94ED28E091DE03AF
:10466000F091DF03EE0FFF1FE254FC4F8081918138
:104670000E94F40C4091D4035091D5036091D6036D
:104680007091D703D301C201C296A11DB11D841739
:104690009507A607B707C4F586E090E00E94CD0F06
:1046A000BC01990F880B990B0E943A2620E030E05C
:1046B00040EA50E40E94C62620E030E040E85AE399
:1046C0000E94C62620E030E040EC50E40E94C6265E
:1046D00020E030E040E251E40E94C6260E9402261B
:1046E0006B017C014B016215730519F0CB010E942F
:1046F0000B0C0E9438104090D4035090D50360906A
:10470000D6037090D70316014091D4035091D5037E
:104710006091D6037091D7038091B6039091B7034F
:10472000A091B803B091B90384179507A607B707FE
:104730000CF02EC187E090E00E94CD0F893E93409F
:104740000CF47FC02D813E81232B29F081E090E085
:104750009E838D8376C081E090E00E94390E0E9496
:104760002E088091BA039091BB03892B79F3409175
:10477000E2035091E3032091DE033091DF03809147
:1047800054019091550113E0220F331F1A95E1F760
:10479000F901EE59FE4F880F991F880F991FDC0110
:1047A000AA5ABE4F452B19F5448155816681778100
:1047B0008D919D910D90BC91A02D8A019B01080FB8
:1047C000191F2A1F3B1FC901B8010E946203E09113
:1047D000DE03F091DF03B3E0EE0FFF1FBA95E1F7C0
:1047E000EE59FE4F648175818681978122C0408198
:1047F0005181628173818D919D910D90BC91A02D0D
:104800008A019B01080F191F2A1F3B1FC901B8010C
:104810000E946203E091DE03F091DF03A3E0EE0F5C
:10482000FF1FAA95E1F7EE59FE4F608171818281E9
:10483000938142E050E00E94D00921E030E03E83C5
:104840002D8387E090E00E94CD0F893E93400CF0CD
:1048500079C08D819E81892B09F478C00E944F0810
:1048600080E090E00E94800C8091BA039091BB039D
:10487000892B09F46BC04091E2035091E30320912E
:10488000DE033091DF03809154019091550163E084
:10489000220F331F6A95E1F7F901EE59FE4F880F99
:1048A000991F880F991FDC01AA5ABE4F452B19F595
:1048B00040815181628173818D919D910D90BC9158
:1048C000A02D8A019B01080F191F2A1F3B1FC90138
:1048D000B8010E946203E091DE03F091DF0343E040
:1048E000EE0FFF1F4A95E1F7EE59FE4F608171818F
:1048F0008281938122C044815581668177818D9127
:104900009D910D90BC91A02D8A019B01080F191F4C
:104910002A1F3B1FC901B8010E946203E091DE0318
:10492000F091DF0333E0EE0FFF1F3A95E1F7EE5908
:10493000FE4F648175818681978142E050E00E943C
:10494000D00904C02D813E81232B39F40E94EB0F46
:104950000E945E0D1E821D820BC082E090E00E94CC
:10496000CD0F26E0959587952A95E1F70E945E0D7B
:104970008091D4039091D503A091D603B091D70331
:104980008093B6039093B703A093B803B093B90391
:104990004091D4035091D5036091D6037091D70311
:1049A00089819A81AB81BC814496A11DB11D841778
:1049B0009507A607B70774F40E94FB0D8091D403F6
:1049C0009091D503A091D603B091D70389839A83A0
:1049D000AB83BC838091D0039091D103A091D2038B
:1049E000B091D303CC96A11DB11D4091D403509139
:1049F000D5036091D6037091D70384179507A60756
:104A0000B7070CF045CA8091BC039091BD03892B78
:104A100009F43ECA87E993E00E94AB0C8091D4036D
:104A20009091D503A091D603B091D7038093D00382
:104A30009093D103A093D203B093D3031092BD03FC
:104A40001092BC0325CA5058BB27AA270E943B25B9
:104A50000C948C260E947E2638F00E94852620F039
:104A600039F49F3F19F426F40C947B260EF4E0955C
:104A7000E7FB0C947526E92F0E949D2658F3BA1780
:104A8000620773078407950720F079F4A6F50C9464
:104A9000BF260EF4E0950B2EBA2FA02D0B01B90105
:104AA00090010C01CA01A0011124FF27591B99F0A4
:104AB000593F50F4503E68F11A16F040A22F232FB0
:104AC000342F4427585FF3CF469537952795A79500
:104AD000F0405395C9F77EF41F16BA0B620B730BA7
:104AE000840BBAF09150A1F0FF0FBB1F661F771F18
:104AF000881FC2F70EC0BA0F621F731F841F48F4CD
:104B0000879577956795B795F7959E3F08F0B0CF55
:104B10009395880F08F09927EE0F9795879508953C
:104B20000E94A4250C948C260E94852658F00E9491
:104B30007E2640F029F45F3F29F00C947526511130
:104B40000C94C0260C947B260E949D2668F3992322
:104B5000B1F3552391F3951B550BBB27AA27621779
:104B60007307840738F09F5F5F4F220F331F441F86
:104B7000AA1FA9F335D00E2E3AF0E0E832D09150BA
:104B80005040E695001CCAF72BD0FE2F29D0660FA7
:104B9000771F881FBB1F261737074807AB07B0E8EA
:104BA00009F0BB0B802DBF01FF2793585F4F3AF0F0
:104BB0009E3F510578F00C9475260C94C0265F3FFB
:104BC000E4F3983ED4F3869577956795B795F79576
:104BD0009F5FC9F7880F911D9695879597F908955E
:104BE000E1E0660F771F881FBB1F621773078407FA
:104BF000BA0720F0621B730B840BBA0BEE1F88F709
:104C0000E09508950E9409266894B1110C94C0267D
:104C100008950E94A52688F09F5798F0B92F9927EC
:104C2000B751B0F0E1F0660F771F881F991F1AF097
:104C3000BA95C9F714C0B13091F00E94BF26B1E017
:104C400008950C94BF26672F782F8827B85F39F016
:104C5000B93FCCF3869577956795B395D9F73EF430
:104C600090958095709561957F4F8F4F9F4F0895D8
:104C7000E89409C097FB3EF49095809570956195F6
:104C80007F4F8F4F9F4F9923A9F0F92F96E9BB27AC
:104C90009395F695879577956795B795F111F8CF28
:104CA000FAF4BB0F11F460FF1BC06F5F7F4F8F4F93
:104CB0009F4F16C0882311F096E911C0772321F089
:104CC0009EE8872F762F05C0662371F096E8862F21
:104CD00070E060E02AF09A95660F771F881FDAF778
:104CE000880F9695879597F9089597F99F6780E8BB
:104CF00070E060E008959FEF80EC089500240A942E
:104D00001616170618060906089500240A941216A6
:104D10001306140605060895092E0394000C11F4D9
:104D2000882352F0BB0F40F4BF2B11F460FF04C086
:104D30006F5F7F4F8F4F9F4F089557FD9058440FDF
:104D4000551F59F05F3F71F04795880F97FB991FEA
:104D500061F09F3F79F087950895121613061406A7
:104D6000551FF2CF4695F1DF08C016161706180634
:104D7000991FF1CF86957105610508940895E8940F
:104D8000BB2766277727CB0197F908950E94D9267C
:104D90000C948C260E947E2638F00E94852620F0F6
:104DA000952311F00C9475260C947B2611240C94F9
:104DB000C0260E949D2670F3959FC1F3950F50E089
:104DC000551F629FF001729FBB27F00DB11D639FBD
:104DD000AA27F00DB11DAA1F649F6627B00DA11D63
:104DE000661F829F2227B00DA11D621F739FB00D09
:104DF000A11D621F839FA00D611D221F749F332779
:104E0000A00D611D231F849F600D211D822F762F11
:104E10006A2F11249F5750409AF0F1F088234AF0EE
:104E2000EE0FFF1FBB1F661F771F881F915050405A
:104E3000A9F79E3F510580F00C9475260C94C0266E
:104E40005F3FE4F3983ED4F3869577956795B795E1
:104E5000F795E7959F5FC1F7FE2B880F911D9695FB
:104E6000879597F90895DB018F939F930E9484277C
:104E7000BF91AF91A29F800D911DA39F900DB29FF6
:104E8000900D11240895A1E21A2EAA1BBB1BFD014F
:104E90000DC0AA1FBB1FEE1FFF1FA217B307E40719
:104EA000F50720F0A21BB30BE40BF50B661F771F71
:104EB000881F991F1A9469F7609570958095909551
:104EC0009B01AC01BD01CF010895052E97FB1EF497
:104ED00000940E947C2757FD07D00E94432707FCBF
:104EE00003D04EF40C947C27509540953095219535
:104EF0003F4F4F4F5F4F0895909580957095619506
:104F00007F4F8F4F9F4F08950E949727A59F900D29
:104F1000B49F900DA49F800D911D11240895B7FF9B
:104F20000C9484270E948427821B930B0895A29FD0
:104F3000B001B39FC001A39F700D811D1124911D6D
:104F4000B29F700D811D1124911D0895CF93DF93A1
:104F50008230910510F482E090E0E091E603F09158
:104F6000E70320E030E0C0E0D0E0309711F140816D
:104F7000518148175907C0F04817590761F48281D9
:104F80009381209719F09B838A832BC09093E7032A
:104F90008093E60326C02115310519F04217530707
:104FA00018F49A01BE01DF01EF010280F381E02DC8
:104FB000DCCF2115310509F1281B390B24303105CF
:104FC00090F412968D919C9113976115710521F0C3
:104FD000FB019383828304C09093E7038093E603ED
:104FE000FD01329644C0FD01E20FF31F81939193BE
:104FF000225031092D933C933AC02091E403309123
:10500000E503232B41F420918C0130918D013093E5
:10501000E5032093E40320918A0130918B0121154F
:10502000310541F42DB73EB740918E0150918F016B
:10503000241B350BE091E403F091E503E217F3073D
:10504000A0F42E1B3F0B2817390778F0AC014E5FF8
:105050005F4F2417350748F04E0F5F1F5093E5034D
:105060004093E4038193919302C0E0E0F0E0CF012C
:10507000DF91CF9108950F931F93CF93DF93009704
:1050800009F48CC0FC013297138212820091E6036E
:105090001091E7030115110581F420813181820F00
:1050A000931F2091E4033091E5032817390779F520
:1050B000F093E503E093E40371C0D80140E050E0D1
:1050C000AE17BF0750F412962D913C911397AD0186
:1050D0002115310509F1D901F3CF9D01DA0133839F
:1050E000228360817181860F971F8217930769F46D
:1050F000EC0128813981260F371F2E5F3F4F318306
:1051000020838A819B8193838283452B29F4F093AA
:10511000E703E093E60342C01396FC93EE931297E5
:10512000ED01499159919E01240F351FE217F307B4
:1051300071F480819181840F951F029611969C9342
:105140008E938281938113969C938E931297E0E0C5
:10515000F0E0D80112968D919C911397009719F069
:10516000F8018C01F6CF8D919C9198012E5F3F4FF5
:10517000820F931F2091E4033091E503281739072C
:1051800069F4309729F41092E7031092E60302C005
:10519000138212821093E5030093E403DF91CF9111
:1051A0001F910F910895FB01DC010D900020E9F79C
:1051B000119701900D920020E1F70895FB01DC01A9
:1051C00001900D920020E1F70895F999FECF92BD6C
:1051D00081BDF89A992780B50895262FF999FECFB9
:1051E0001FBA92BD81BD20BD0FB6F894FA9AF99A04
:0A51F0000FBE01960895F894FFCF5A
:1051FA000500040001000100020001000200D022A3
:10520A003A0010046E00C01DDB00904015012074A6
:10521A004701D0403500B0A86A007078D500E09206
:10522A00130130484001D0B1370080A46C00A05E61
:10523A00D800202F140110DC4401000000000100F6
:10524A00010001000100044F8900485B89004054B5
:10525A008900D0B13700D0B1370080A46C0080A497
:10526A006C00C0ACD80040E5D90000E1130170F22F
:10527A00140110DC4401B06246010000E80320007A
:10528A00FC010002040208020C0227004C0067001D
:10529A008700BB02C302CB02D302DB02E302EB02AA
:1052AA003B023B023B02F302FB023B023B023B0294
:1052BA0003030B0313033B023B021B0323033B02BF
:1052CA003B023B022B0333033B033B023B025C756D
:1052DA004FF6E027D7C5D99B5458005331203320C5
:1052EA003520372039202B313064420038306D00A8
:1052FA0034306D0032306D0031376D0031356D005C
:10530A0053504C54204F46460053504C54204F4E55
:10531A00200056464F410056464F42005620005242
:10532A00580020202020202020202020202020205B
:10533A002020005458205052455345543A0054589E
:10534A00207072657365742073746F7265642E00C1
:10535A003020322020342020362020382031305787
:10536A00005458205052455345543D2020202000D7
:10537A005343414E4E494E472E2E2E0053746F70A2
:10538A007065642E0057616974696E672E2E2E004F
:10539A005363616E6E696E672E2E2E005343414E23
:1053AA00205448524553482E2E2E0038306D202066
:1053BA0020200034306D202020200032306D202043
:1053CA0020200031376D202020200031356D20202B
:1053DA0020200056464F204120200056464F2042AA
:1053EA002020004C534220202020005553422020E8
:1053FA0020200066302E2E6631200056464F20416E
:10540A002F420054485245534820004F4646202018
:10541A002020004F4E202020202000534554204CAD
:10542A005342005345542055534200545820474193
:10543A00494E0042414E44205345540056464F209F
:10544A0053454C454354005349444542414E440058
:10545A005343414E2046554E430053504C49540045
:10546A0041444A555354004C4F20534554204D4F04
:10547A0044450020664C4F204C5342200020664C85
:10548A004F2055534220004D696E693520444B37F1
:10549A00494820323032300053746F72696E672087
:0454AA004F4B2E0036
:00000001FF
